:0200000490006A
:1000000000000220A9020090D97D0024DD7D00249B
:10001000297E0024457E0024617E0024000000002B
:10002000000000000000000000000000797E0024B5
:100030007B7E0024000000007D7E00247F7E002463
:10004000FF630524FF630524FF630524FF63052484
:10005000FF630524FF630524EDE80224FF63052404
:10006000FF630524FF630524FF630524917E0024BC
:10007000A17E0024B17E0024C17E0024D17E002414
:10008000FF630524FF630524FF630524FF63052444
:10009000FF630524FF630524FF630524097F002413
:1000A000FF630524FF630524FF630524FF63052424
:1000B000797F0024FF630524FF630524B138012400
:1000C000C1380124FF630524FF630524017F002458
:1000D000FF6305243D2E0124FF630524FF630524EF
:1000E000337F0024FF63052400000000FF63052424
:1000F000FF630524FF630524FF630524FF630524D4
:10010000FF630524FF630524FF630524FF630524C3
:10011000FF630524FF630524217C0024FF6305247D
:10012000FF630524D97E0024E17E0024FF630524BB
:10013000E97E0024FF630524FF630524FF63052493
:1001400000000000000000000000000000000000AF
:10015000F17E0024FF630524FF630524FF6305246B
:10016000FF630524FF630524FF630524FF63052463
:10017000FF630524FF630524FF630524FF63052453
:10018000FF630524FF630524FF630524FF63052443
:10019000F97E0024FF630524FF630524FF63052423
:1001A000FF630524FF630524FF630524FF63052423
:1001B000FF630524FF630524FF630524FF63052413
:1001C000FF630524FF630524FF630524FF63052403
:1001D000FF630524FF630524FF630524FF630524F3
:1001E000FF630524FF630524FF630524FF630524E3
:1001F000FF630524FF630524FF630524FF630524D3
:10020000FF630524FF630524FF630524FF630524C2
:10021000FF630524FF630524FF630524FF630524B2
:10022000FF630524FF630524FF630524000000002D
:10023000FF630524FF63052400000000FF6305241D
:10024000FF630524897F0024FF630524FF630524E1
:10025000FF630524FF630524FF630524FF63052472
:10026000FF630524FF630524F5E80224FF630524EA
:10027000FF630524FF630524FF63052400000000DD
:10028000FF630524FF630524FF63052400000000CD
:0802900000000000FF630524DB
:1002980091423EBF50F8043B41F8043BF8E77047F1
:1002A800DFF834D14D4A4E4C0023A242BCBF42F87D
:1002B800043BFAE74B484C494C4AFFF7E9FF4C48E6
:1002C8004C494D4AFFF7E4FF4C48016841F00401EE
:1002D8000160BFF34F8FBFF36F8F4948016821F06A
:1002E800406141F080610160416821F40051416042
:1002F800816821F040618160C16821F04061C1607E
:100308004FF0005181613F484FF0000101603E48C5
:100318004FF0000101603D484FF0105101604FF06F
:10032800000141F0407141F4003141F4803141F065
:10033800160141F001013648016033484FF00101D0
:10034800016032484FF0000101604FF0000141F0B8
:10035800407141F4003141F4803141F00E0141F027
:1003680001012B48016027484FF005010160BFF3E8
:100378004F8FBFF36F8F27482749284AFFF788FF19
:1003880025482749086027482749284AFFF780FF5A
:1003980027482749274AFFF77BFF27482649274A46
:1003A800FFF776FF26482749274AFFF771FF2748B6
:1003B8002749284AFFF76CFF27482849284AFFF7AA
:1003C80067FFBFF34F8FBFF36F8F00F051F800F056
:1003D8004BF82448004700000000022000EB0524E9
:1003E80094EF0724FCEA05907CE60524E8EA052456
:1003F800907505901071052464E60524404502585F
:100408000008025894ED00E098ED00E09CED00E053
:10041800A0ED00E00000009000000000980200003D
:1004280008ED00E08004009000000024107105240D
:1004380064E6052464E6052464E605246CE60524E0
:10044800ECEA05906CE605246CE60524ECEA0590D8
:100458006CE6052478E60524F8EA059078E6052494
:100468007CE60524DD7C00245FF800F0C53200241A
:080478005FF800F0358000245C
:1004800008B52DED028BF0EE408AB0EE608A00F0E8
:100490006DFAF4EE488AF1EE10FA06D6DFED098A1D
:1004A000B4EE688AF1EE10FA02D0BDEC028B08BD02
:1004B00003F042F988EEA80ABDEC028B2123036009
:1004C00008BD00BF0000000008B52DED028BB0EEA6
:1004D000408A00F047FAB4EE488AF1EE10FA06D6E8
:1004E000DFED098AB4EEE88AF1EE10FA02D4BDEC31
:1004F000028B08BD03F020F988EEA80ABDEC028B40
:100500002123036008BD00BF0000000000000000C0
:1005100030B510EE104AC4F30A53B3F57D7FB7EE41
:10052000C07A83B019D227EE075BB3F5667F6CD330
:1005300027EE052B25EE021B6B4B93ED1A3B93ED3B
:10054000186B93ED164BA5EE036BA2EE047BA6EEA3
:10055000017BB7EEC70B03B030BD40F22E42934291
:100560005CD8614991ED086B27EE066BFDEEC66B1A
:1005700091ED0A5B16EE903A03F500031B1613F09B
:10058000020F06EE903A01F1700208BF0A46D80742
:10059000B8EEE66BA6EE457B27EE076B1BD403F0A7
:1005A000030301EBC30191ED002B92ED1A4B92ED89
:1005B000185B92ED163BA6EE045B27EE027B27EE5E
:1005C000064B26EE046BA4EE037BA5EE067BB7EE8E
:1005D000C70B03B030BD92ED142B26EE065B92EDF7
:1005E000127B92ED0E3BA6EE027B92ED0C0B92ED90
:1005F000104BA6EE030B26EE056BA5EE040BA7EE43
:10060000060BB7EEC00B03B030BD220D12F4FF6F26
:1006100004BFB7EEC55B8DED015ADAE7B3F5FF6FA6
:100620003DD2324BC4F3836203EB820153F82220A4
:10063000C4F31603C4F3C25043F400038340086AB2
:100640000969A0FB035003FB02F2E3FB010202F184
:1006500000518D0F01F04041511A07F02BFB244B44
:100660009FED1F6B05EBD47441EC170B14F0020FD8
:10067000A3F1700208BF1346E90727EE067B27EEB9
:10068000076B11D404F0030402EBC40292ED002BBB
:1006900093ED1A4B93ED185B93ED163B8BE703B08C
:1006A000BDE8304000F050B993ED141B26EE064B28
:1006B00093ED125B93ED0E2BA6EE015B93ED0C7B9D
:1006C00093ED103BA6EE027B26EE046BA4EE037BBB
:1006D000A5EE067BB7EEC70B7BE700BFAFF300804C
:1006E000182D4454FB21193CC07505246075052460
:1006F000307605240000000038B510EE104AC4F32F
:100700000A53B3F57D7FB7EEC07A1ED227EE077B82
:10071000B3F5667F6FD327EE071B694B93ED142B60
:1007200093ED125B93ED0E3BA7EE025B93ED0C6B2A
:1007300093ED104BA7EE036B27EE017BA1EE046B4C
:10074000A5EE076BB7EEC60B38BD40F22E429342C2
:1007500054D85B4991ED086B27EE066BFDEEC66B36
:1007600091ED0A5B16EE903A03F500031B1613F0A9
:10077000020F06EE903A01F1700208BF0A46D80750
:10078000B8EEE66BA6EE457B27EE076B1AD503F0B5
:10079000030301EBC30191ED002B92ED1A4B92ED97
:1007A000185B92ED163BA6EE045B27EE027B27EE6C
:1007B000064B26EE046BA4EE037BA5EE067BB7EE9C
:1007C000C70B38BD92ED142B26EE065B92ED127B23
:1007D00092ED0E3BA6EE027B92ED0C0B92ED104BD0
:1007E000A6EE030B26EE056BA5EE040BA7EE060B9B
:1007F000B7EEC00B38BDB7EE000A38BDB3F5FF6FDA
:100800003DD2304BC4F3836203EB820153F82220C4
:10081000C4F31603C4F3C25043F400038340086AD0
:100820000969A0FB035003FB02F2E3FB010202F1A2
:1008300000518D0F01F04041511A07F03BFA224B55
:100840009FED1D6B05EBD47441EC170B14F0020FF8
:10085000A3F1700208BF1346E90727EE067B27EED7
:10086000076B10D504F0030402EBC40292ED002BD9
:1008700093ED1A4B93ED185B93ED163B93E7BDE8B0
:10088000384000F061B893ED141B26EE064B93ED53
:10089000125B93ED0E2BA6EE015B93ED0C7B93EDBB
:1008A000103BA6EE027B26EE046BA4EE037BA5EEC6
:1008B000067BB7EEC70B38BD182D4454FB21193CFD
:1008C000C0750524607505243076052410B52DED1E
:1008D000028BB0EE408A044602F02EFFB0EE480ACA
:1008E000BDEC028B046010BD28B1F1EE407A27EE1A
:1008F000800A2220EAE7F0EE407A27EE800A2220E2
:10090000E4E700BF9FED010AEEE700BF0000001022
:100910009FED010AE8E700BF0000201A9FED010AE1
:10092000E2E700BF000000709FED060AF7EE007AD4
:10093000BFEE007A00284FF0220047FE877A87EE4C
:10094000800AC3E700000000F0EE407A30EE407A03
:10095000F4EE677AF1EE10FA87EE070A01D621204D
:10096000B4E77047B1EEC00A704700BF70B582B0FF
:10097000CDED010A019921F00040431EB3F1FF4F74
:1009800042D210EE104A24F00045B5F1FF4F3BD2A1
:1009900085423FDB04F0004C3ED014F0FF4F01F0E5
:1009A000FF4659D12B02002BC8BF6FF07D0279DDC5
:1009B0005B00002B02F1FF32FADC002E5DD1030256
:1009C0004DD46FF07D0E5B000EF1FF3EFBD512F1B2
:1009D0007E0F57DBC4F3160444F400031EF17E0FB0
:1009E00046DA6FF07D01A1EB0E0100FA01F1B2EBE6
:1009F0000E0204D117E00FD04300013A13D0581A69
:100A00000028F8DA5B00F8E7DDED017A60EE277A7E
:100A100087EEA70A02B070BD2C4B03EB5C7393ED1D
:100A2000000A02B070BD591A58BF0B461BB9F3E754
:100A30005B000EF1FF3EB3F5000FF9DB1EF17E0FF8
:100A400026DBA3F500030EF17F0E43EA0C0343EA15
:100A5000CE5300EE103ADDE7EA157F3AADE712F12A
:100A60007E0F2BDA6FF07D0EAEEB020305FA03F377
:100A7000C1F3160141F40001B9E74FEAE05EAEF1BF
:100A80007F0EA4E76FF07D039B1A05FA03F3A5E739
:100A90006FF07D02A2EB0E02134143EA0C0300EE5D
:100AA000103AB7E736B14FEAE05EAEF17F0E6FF075
:100AB0007D028FE703026FF07D0282D5C4F3160436
:100AC00044F400036FF07D0ED2E700BFA07605244A
:100AD00010B4044C03460A4620685DF8044B1946DE
:100AE00000F002B8F4E7052470B5A1FB025454B934
:100AF000294600F041F8064638B12A46214602F060
:100B00007BFC304670BD0C2202600026304670BD72
:100B1000024B0146186800F02FB800BFF4E7052427
:100B2000024B0146186804F0D1B800BFF4E7052471
:100B300070B5104E336805460C46B3B121462846C1
:100B400002F0D2FD431C0CD0C41C24F00304A042CC
:100B500005D0211A284602F0C7FD013001D02046F9
:100B600070BD4FF0FF34204670BD194602F0BCFD49
:100B70003060E3E700EB05242DE9F041CD1C25F0C2
:100B8000030508350C2D38BF0C25002D82B0064614
:100B900016DBA94214D8354F00F06AF87A68AAB17A
:100BA000144603E06368224683B11C4623685B1B3E
:100BB000F8D40B2B21D8A242636855D053600DE0C6
:100BC0000C233360002002B0BDE8F0812946304696
:100BD000FFF7AEFF431C044619D00560304600F015
:100BE0004DF804F10B00231D20F00700C21A1CBFB2
:100BF0001B1AA35002B0BDE8F0816119A242256022
:100C000014BF51607960635163684B60E6E77B68AD
:100C100023B31C465B68002BFBD122680193194665
:100C2000304604EB020802F05FFD804516D12268D1
:100C3000AD1A29463046FFF77BFF01300ED02268FF
:100C40007868019B2A442260426812B90CE0104681
:100C50005268A242FBD100234360BFE70C233360FC
:100C6000304600F00BF8ADE77B60B7E700EB0524FA
:100C7000014802F099BD00BF58EC0524014802F07C
:100C80009BBD00BF58EC052438B5124B1D682A6B7C
:100C900004461AB10023C2E9044338BD1820FFF707
:100CA00037FF0246286378B101200021C2E9040120
:100CB000094B0A480A499160C2E900030B2393815A
:100CC0000023C2E9044338BD064B0748462103F020
:100CD000B1F800BFF4E7052434126DE60E33CDAB56
:100CE000ECDE05005CBA052474BA05241C4B10B573
:100CF0001C68226B8AB113691A4954691A4803FBAC
:100D000001F100FB0411A3FB0030013341EB0001B2
:100D1000C2E9043121F0004010BD1820FFF7F8FEB1
:100D20000246206388B1114C114B0E481149916065
:100D30009FED097BC2E900430B2393810E4B0146D3
:100D400082ED047BC2E9043110BD0C4B0C485221EA
:100D500003F070F8AFF30080010000000000000015
:100D6000F4E705242DF451582D7F954C0E33CDAB6F
:100D700034126DE6ECDE05002E7F954C5CBA05243E
:100D800074BA052410B4044C03460A4620685DF882
:100D9000044B194600F002B8F4E705242DE9F041B0
:100DA000144649B3EAB106460D4605F08DF9844272
:100DB000074602D8B4EB500F1AD821463046FFF749
:100DC000DBFE804678B1BC422246294628BF3A461F
:100DD00002F0B6FE3046294603F078FF4046BDE8F3
:100DE000F08103F073FF4FF000084046BDE8F0814A
:100DF000A8464046BDE8F081BDE8F0411146FFF746
:100E0000BBBE00BF000000002DE9F04F2DED0A8BA6
:100E100097B0894600219246129100220021CDE927
:100E200004128046494611910F4611F8012B2D2AD4
:100E30005ED801A050F822F0910B0024710A002422
:100E4000710A0024710A0024710A0024710A002426
:100E5000710A0024710A0024710A0024A7090024E1
:100E6000A7090024A7090024A7090024A709002432
:100E7000710A0024710A0024710A0024710A0024F6
:100E8000710A0024710A0024710A0024710A0024E6
:100E9000710A0024710A0024710A0024710A0024D6
:100EA000710A0024710A0024710A0024710A0024C6
:100EB000710A0024710A0024A7090024710A002481
:100EC000710A0024710A0024710A0024710A0024A6
:100ED000710A0024710A0024710A0024710A002496
:100EE000710A002465110024710A0024791100247C
:100EF00000210791302A00F09980002308932F2ABF
:100F0000144640F2C784002338461E461D4613E0AF
:100F10000130082D1190C8BF03EB83030478C6BFCE
:100F200002EB4302A2F13003A1F130062F2C05F1B0
:100F30000105224640F3CB8006EB8601392C02EBFB
:100F40004101E5DD82490993012202F00FFB099B73
:100F500000287CD111990A46013111915478002D55
:100F600040F03B85302C40F0D3840A4610460132D5
:100F700011921478302CF9D0C1F101010844A4F188
:100F80003102082A38D8119F411CA4F130020A917D
:100F90000125BE464FF0000C06EB860602EB460626
:100FA00000200EF1010211929EF80140A4F13001DF
:100FB000092900F20F83DDF844E001300A460029D8
:100FC000EFD0012800F06F8600EB050B0BF1FF342A
:100FD000CDF824B004E04FEA4B06A54200F0468469
:100FE000082D06EB860B05F10105F4D9102DDCBFA9
:100FF00003EB83035B00F0E7652C40F000830122E4
:101000004FF0000CCDE9092C089A024340F0E88229
:101010009FED4D8BBAF1000F01D0CAF80090B0EEF1
:10102000480B17B0BDEC0A8BBDE8F08F7A7802F060
:10103000DF02582A00F0D583013711973A78302A19
:10104000FAD0002A00F0B6820123089357E7002067
:10105000CDE90900AC46652C48D0452C46D04FF070
:10106000000B002D40F09980089B034340F0A282C2
:10107000099B002BCCD1692C00F0318400F38783CD
:10108000492C00F02C844E2CC2D1324911A804F016
:1010900087F90028BCD0119B1B78282B00F06485B1
:1010A0002D4802F059FEB0EE408BBAF1000F02D08D
:1010B000119BCAF80030079B002BB0D0B1EE488BD3
:1010C000B0EE480B17B0BDEC0A8BBDE8F08F20499D
:1010D0000993012202F04AFA099B0028B7D1119A1C
:1010E0000A90511C11915478AC465FE7002D8BD0CB
:1010F000DDF8449009F10102119299F801402B2C7E
:1011000000F06B822D2C00F0588200220B92A4F18B
:10111000300BBBF1090F00F25882302C119A0AD122
:10112000013211921478302CFAD0A4F1310108293F
:1011300095D8A4F1300B511C119154782F2C40F309
:10114000BC838E460C9712E00000000000000000F7
:10115000BCB60524BCBA0524E8BA052401311191B6
:101160009EF801402F2CA7F1300B06DD8E460BEBCD
:101170008B07392C04EB4707F0DD891A08290C9FEF
:1011800040F39B8344F61F6B0B9A002A3FF469AF30
:10119000CBF1000B002D3FF467AF07EE906A0A9A7F
:1011A000B8EE677BABEB0202BCF1000F08BFAC46A8
:1011B000102D09922A46A8BF1022092D8DED047B1F
:1011C0000FDD06EE903A4C4B03EBC20313ED125BBE
:1011D0000F2DB8EE666BA7EE056B8DED046B00F37B
:1011E0009481099B002B00F0D682099B40F30D826D
:1011F000162B40F368830999C5F125038B4280F2D1
:10120000D783AB1A0B4413F00F010AD03A4A02EB12
:10121000C1029DED046B92ED007B27EE067B8DED08
:10122000047B33F00F0241D0B2F59A7F00F31483B0
:10123000102A4FEA221340F3CF84304C9DED047BFB
:1012400000202246014613F0010F01F101014FEA8F
:10125000630304D092ED006B012027EE067B012B87
:1012600002F10802EFD108B18DED047B059BA3F1DB
:101270005473059304EBC1049DED046B94ED007B66
:101280001F4B27EE067B17EE902A1E4913408B4218
:101290008DED047B00F2E082A1F580118B4240F2DB
:1012A0000C84194C4FF0FF33CDE90434002308932C
:1012B00000962B4662463946404604F045FA814680
:1012C000002800F0C9820A9BCDF83CA0A3EB0B0BD1
:1012D000099B002BB4BF5A4600224FF0000B23EAB3
:1012E000E3739FED039B0A920B935C46CEE000BF35
:1012F0000000C0FFFFFFDF4110790524007A0524BC
:101300000000F07F0000A07CFFFFEF7F991A1F29EB
:10131000A5EB010500F30082012202FA01F30C9310
:1013200000230D932F44089B5544AA4552461F4461
:10133000A8BF2A46BA42A8BF3A46002A03DDAD1A22
:10134000BF1AAAEB020A0A9B002B00F37781002D3B
:1013500000F38D81099B002B00F3D481002F00F353
:10136000B081BAF1000F08DD21465246404604F034
:10137000D1FB0446002800F0AD8112993246404668
:1013800004F05EFC8346002800F0A4810023C568B9
:10139000C360214604F032FC0028C0F2B183059FEF
:1013A00000F04A832146584604F0ECFDB0EE007B85
:1013B000B4EEC70BF1EE10FA00F23781002D40F0C9
:1013C000BB81049B002B40F03882C7F31303002B32
:1013D00040F0E481B7EE007BB4EEC70BF1EE10FAFB
:1013E00000F1FF82B6EE00BB20EE0BBBB1EE4BABC3
:1013F000BF48DFF80CC307EA0001614553EC1A2B24
:1014000000F09F810898E0B1B1F1D46F19D8B4EE23
:10141000C9BBF1EE10FA11D8BCEECBBB1BEE103AF3
:10142000012B38BF01230BEE103AB8EE4BBB002D59
:1014300040F06B82B1EE4B7B53EC172B03F1D6607F
:10144000431AB0EE480B43EC1A2B0C9104F0AAFCA3
:10145000AAEE008B8DED048B18EE907A0C99089B08
:1014600023B9A34B3B40994200F09D81129940461D
:1014700004F0F8F83146404604F0F4F821464046BE
:1014800004F0F0F85946404604F0ECF8D9F804109E
:10149000404604F0A7F80646002800F01B81D9F862
:1014A00010209DED048B0232920009F10C010C30EA
:1014B00002F046FBB0EE480B14AA13A9404604F014
:1014C00001FD1290002800F0DB800121404604F06D
:1014D000E5F90446002800F0FD80139A002AC0F2C6
:1014E000EB800A9B0B9F02EB030A089B149DD21A08
:1014F0002A44804B013A9A42C5F13605FFF606AF01
:1015000001230020CDE90C300CE7AB1A099A1344F3
:10151000002B3FF778AE3FF4C9AE5B4213F00F01EA
:101520000AD0754A02EBC1029DED046B92ED007B7F
:1015300086EE077B8DED047B1B113FF4B7AE1F2BAE
:1015400035DC13F0100218BF6A229DED047B08926F
:101550006A4A0021DC0704D592ED006B012127EED9
:10156000067B5B1002F10802F4D109B18DED047B1A
:10157000089BA3B1DDE90401C1F30A52C2F16B0378
:10158000002B0ADD1F2B40F340830020342B0490F6
:1015900040F362834FF05C7305936A2308939DEDDB
:1015A000047BB5EE407BF1EE10FA7FF481AE22238E
:1015B000C8F800309FED4A8B77E501220B9209F1C4
:1015C0000202119299F80240A1E5CDF844904FF043
:1015D000000B46E5012209923DE500220B92EEE761
:1015E000002585E500220792791C11917A78002A5E
:1015F0003FF40EAD0F467DE401220792F4E7452C3F
:101600003FF4FDAC012309932EE51633FFF67DAFC1
:101610000A9BA3EB0B0B384B03EBCB0393ED007B47
:101620009DED046B86EE078B3FE5B6EE00BB20EE2A
:101630000BBB002D7DD1B1EE4BABD9E621461A464E
:10164000404604F0F7F90446002843D00146129AB8
:10165000404604F039F900283CD00E9012994046DB
:1016600004F000F80E9A1292002D7FF773AE1299D3
:101670002A46404604F04EFA129000287FF46AAEE3
:10168000DDF83CA09FED188B2223C8F800300146FE
:10169000404603F0E7FF3146404603F0E3FF2146B2
:1016A000404603F0DFFF4946404603F0DBFF594662
:1016B000404603F0D7FFF8E40B9BDDF828A09F1A03
:1016C00013E731463A46404604F024FA064600281D
:1016D0007FF447AEDDF83CA01298D3E7AFF300806B
:1016E0000000000000000000000000000000F07F8B
:1016F0000000F07F02FCFFFF10790524D07605245E
:101700000000E07F31460B9A404604F093F906460C
:1017100000287FF423AEDDE7C2F17F4202F57F02AD
:1017200002F57B420121E23201FA02F3CDE90C130A
:10173000F8E5B0EE4BAB5BE6B7EE00ABB0EE4ABB04
:1017400056E6A7F1547305939DED04CBB0EE4C0B18
:101750000C9104F027FBB048A0EE0ACB1CEE907A67
:10176000AE4B0C99384098428DED04CB7AD918EEE7
:10177000902A03F154739A4203D118EE103A0133C0
:10178000A8D0A74B4FF0FF32CDE904236EE66E2CB4
:101790003FF47BAC3CE49DED048B86E4BFEE00ABF4
:1017A000B7EE00BB24E651EC1B0B55F05BFD06F0D9
:1017B00081FA049B41EC170B1D43C7F313073D430C
:1017C0003BEE477B29D19FED8A6BB4EEC67BF1EEF1
:1017D00010FA7FF54BAE9DED048BDDF83CA012981E
:1017E00055E70293079B019312AB00938D4A13AB0D
:1017F00011A9404603F01AFB10F00F0504463FF410
:10180000D9AE062D40F08780BAF1000F02D0013723
:10181000CAF800709FED788B01E49FED796BB4EE10
:10182000C67BF1EE10FAD6D49FED776BB4EEC67B93
:10183000F1EE10FA7FF71AAECDE7049B012BADD184
:10184000002FABD1DDF83CA0129B184622239FED60
:101850006A8BC8F800301AE722239FED6D8BC8F819
:10186000003022E407F154770597F8E5DDF824B05D
:1018700009945D460A9C044409980A9408287FF755
:101880008BAB102DDCBF03EB830301EB4303002084
:10189000FFF787BB64490122384601F067FE002844
:1018A0007DD04FF0000C634666466046CDF828C0F8
:1018B0006546CDF824C0FFF7D0BB44F61F629345C0
:1018C000A8BF934660E4594B099A03EBC20393ED1A
:1018D000008B9DED047B28EE078BFFF7E6BB544998
:1018E00011A803F05DFD00283FF492AB119B514914
:1018F000013B11A8119303F053FD10B9119B013363
:1019000011939FED438BFFF7D0BBB0EE4B7B93E57C
:101910000020FFF734BB129A3AB1352114A804F025
:1019200077FB1299404603F09DFE013D139B042D69
:1019300000F2DA81DFE805F0032D2A1F0300149A74
:10194000049203F23342159B23F4801343EA0253BB
:101950000593E50502D543F0004305932E4A1A404E
:101960009DED048B002A7FF4A0AB01F0E5FE22235D
:101970000360FFF79ABB4FF0FF326FF00043CDE9F1
:101980000423E3057FF507AF059BE4E7224B0593AE
:10199000F7E7DDE91412159BCDE90412D9E7119997
:1019A0000A4601311191547806460346FFF7DABA28
:1019B000099BC5F10F055A1B1C4B03EBC50503EB37
:1019C000C20395ED008B93ED007B9DED046B28EE3B
:1019D000068B28EE078BFFF768BBAC460A90FFF733
:1019E000E5BABEEE00ABB6EE00BB01E5AFF300809A
:1019F0009535A094FFFFCF3F0000000000000000DD
:101A00009535A094FFFFDF3F35E5AF350000E03F9F
:101A1000000000000000F07F0000F07FFFFF9F7CCF
:101A2000FFFFEF7FA8760524BCB6052410790524B6
:101A3000B0BA0524B4BA0524DDE90CC2DDF83CA037
:101A4000AF49C7F31303002D3CD08B4200F0CE808A
:101A5000002A00F0C5803A422BD0B0EE480B04F0CB
:101A6000A1F9089B002B00F0F380C7F30A53C3F1E0
:101A70006B03002B40F31481190501F17F53002201
:101A800003F5401343EC172BA0EE078B9FED987BDB
:101A90009C4B28EE078B18EE902A1340002B7FF406
:101AA0009EAE2223C8F8003099E6002A73D03A424D
:101AB00074D1089B002BE9D191E602F15473059390
:101AC000FFF7F4BB002B63D1DDE9040103460028D6
:101AD000EBD1089B002B40F0A080059B23F0004732
:101AE0003F0D3F05A7F580176FEA17536FEA0353C1
:101AF00005934FF0FF3304939DED048B1298C6E5D8
:101B0000DDE904120D43DDF83CA0D2D1C2F313038A
:101B1000002BCED122F000473F0D3F05B7F1D66F25
:101B20003D46C6D9DBF814301BB9DBF81030012B69
:101B3000BFDD59460122404603F0ECFF21468346B3
:101B400004F05CF80028B4DD089B002BCAD0A5F592
:101B500080156FEA15536FEA035305934FF0FF3377
:101B600004939DED048B91E7674911A814AA03F033
:101B700033FC05287FF494AA159B43F0FF4343F4FC
:101B8000E0030593149B04939DED048BFFF78DBA3E
:101B9000002A8CD1049B1CEA030F8AD0B0EE480BBC
:101BA00004F000F9089B002B47D0C7F30A53C3F198
:101BB0006B03002B7ADD1B0503F17F51002001F53B
:101BC000401141EC170BA0EE478BB5EE408BF1EEC8
:101BD00010FA7FF45BAF37E64C4C0021FFF746BBB1
:101BE000049B1CEA030F3FF464AF36E7DDE9040110
:101BF000089B0546002B37D10346013364D0002AE9
:101C00005DD03A423FF4EBAD27E74FF0FF3202FAE6
:101C100003F3049A1A400492BFE43A4D3D40B5F1F3
:101C2000D66F94D8B5F15C7F3FF630AF22239FED9D
:101C3000328B1298C8F8003029E5129B38EE408BA1
:101C4000B5EE408BF1EE10FA18467FF420ADFCE5BE
:101C5000129838EE008B1AE5C2F14B024FF0FF33B9
:101C600093400B40059398E4264B3B40B3F1D46F6F
:101C700006D9691C2FD092B33A423FF407AFECE685
:101C8000180DC0F16B004FF0FF3181408D42F2D151
:101C900003F580130593002304939DED048B08E75F
:101CA00038EE008BF2E609950135E3E538EE408B1E
:101CB000B5EE408BF1EE10FA7FF4E8AEC4E510EA21
:101CC0000C0F3FF48CADC8E6114B9F423FF404ADBE
:101CD00001333B40DCE70E4A9742D9D1FCE415EAD8
:101CE0000C0F3FF4D3AEB8E6002332E6AFF300802A
:101CF000000000000000503900000000000000005B
:101D0000FFFF0F000000F07FBC760524007A052459
:101D1000FFFFEF7F014BFFF777B800BF88E6052490
:101D200010B4054C8446134620685DF8044B0A46FF
:101D30006146FFF769B800BFF4E7052410B4054C0D
:101D4000054B84460A4620685DF8044B6146FFF760
:101D50005BB800BFF4E7052488E6052410B51C4CE9
:101D60008446134620680A466146FFF74DF8B4EEF4
:101D7000400BF1EE10FAB0EE407B17D6B7EEC00B79
:101D8000DFED146AB0EEC06AB4EE666AF1EE10FAE6
:101D90000BDDB0EEC77B9FED0C6BB4EE467BF1EE36
:101DA00010FA02DC236822221A6010BD17EE903A66
:101DB000002B094804DA01F0D7FFB1EE400A10BD4C
:101DC000BDE8104001F0D0BFFFFFFFFFFFFFEF7F36
:101DD000F4E70524FFFF7F7FE8BA052410B5224C05
:101DE000224B84460A4620686146FFF70DF8B4EEA0
:101DF000400BF1EE10FAB0EE407B23D6B7EEC00BED
:101E0000DFED1B6AB0EEC06AB4EE666AF1EE10FA5E
:101E10000CDDB0EEC75B9FED126BB4EE465BF1EEEE
:101E200010FA03DC236822221A6010BD10EE103A6B
:101E300013F0FF4FF9D10F4B17EE902A1340002BF0
:101E4000F0D110BD17EE903A002B0B4804DA01F0E8
:101E50008BFFB1EE400A10BDBDE8104001F084BF19
:101E6000FFFFFFFFFFFFEF7FF4E7052488E605246F
:101E7000FFFF7F7F0000F07FE8BA05242DE9F047DF
:101E8000074649480E46354616F801EB10F80EC0D5
:101E90001CF0080CF7D1BEF12D0F5AD0BEF12B0F5C
:101EA00003BF96F800E06446AE1C64464BB9BEF131
:101EB000300F5CD00A23DFF8F4804FF0050A994612
:101EC0000AE0102B4AD04FF0FF38B8FBF3F803FBC1
:101ED00008FA6FEA0A0A99460025284605E02CD040
:101EE00009FB00C0012516F801EBAEF1300CBCF186
:101EF000090F06D9AEF1410CBCF1190F0BD8AEF1A8
:101F0000370C634510DDB5F1FF3FECD04045E6D915
:101F10004FF0FF35E7E7AEF1610CBCF1190F03D8C4
:101F2000AEF1570C6345EEDC6B1C0BD004B14042A4
:101F30000AB165B91160BDE8F087D445D0DD4FF036
:101F4000FF35D0E722233B602846002AF3D0711EDC
:101F5000F0E796F800E00124AE1CA7E7BEF1300FD1
:101F600011D04FF00F0A6FF070489946B4E73378FC
:101F700003F0DF03582B0BD008234FF0070A6FF054
:101F800060489946A8E7307800F0DF005828E8D18B
:101F90004FF0100996F801E04FF00F0A02366FF08B
:101FA00070484B4698E700BFF9760524999999192E
:101FB00064E700BF10B4044C8446134620685DF803
:101FC000044B0A46614659E7F4E7052410B4044C73
:101FD0008446134620685DF8044B0A4661464DE787
:101FE000F4E7052410B5054C34B113460A46014602
:101FF000022001F0BFFE10BD204610BDF5380024C0
:10200000034B1B5C03F00303012B08BF2030704718
:10201000F976052400000000F0B52DED028BB0EE3E
:10202000408B85B0154618EE902A0D9E0C9F002A15
:10203000B4BF2D2200221A7026F02003B8BFB1EEE3
:10204000408B462B0C463DD0452B1CD0B0EE480BA8
:1020500003AA019202AA00923B460A46022101F01D
:10206000A5FF672E1BD1EB071DD50119B5EE408BDF
:10207000F1EE10FA19D10B460E9A1B1A136005B037
:10208000BDEC028BF0BD03AA0134019202AA0092BA
:102090003B4622460221B0EE480B01F087FF472E57
:1020A000E3D1EB07E1D4039BE6E7039B9942E3D935
:1020B0004FF0300C5A1C039283F800C0039B8B42F4
:1020C000F8D3D9E703AB019302AB00930A463B4632
:1020D0000321B0EE480B01F069FF0378302B03D0E9
:1020E000396821440144C1E7B5EE408BF1EE10FAA6
:1020F000F6D0C4F101013960F3E700BF70B50029E3
:10210000BABF49422D232B23092982B002704370A4
:102110002BDD0DF10704194DA446A5FB0123DB08B7
:1021200003EB8302A1EB42028E463032BEF1630F15
:1021300066460CF8012C19460CF1FF3CEDDCB31E91
:102140003031A3420CF8011C00F102050AD2421CF6
:1021500013F8011B02F8011FA342F9D10DF1090385
:102160009B1B1D44281A02B070BD30231944051D65
:102170008370C170281A02B070BD00BFCDCCCCCC2A
:102180002DE9F04F8DB00C46DDF8589016461F46ED
:10219000054601F063FAD0F800A0504601F070FD4A
:1021A00000230A93D9F800300590073323F0070382
:1021B00093ED000B9FEDA87BB0EEC06B0833B4EE3F
:1021C000476BF1EE10FA226894F81880C9F80030D5
:1021D00084ED120B00F38D80B4EE400BF1EE10FA9B
:1021E00080F131826168481C42F48062C34632D07B
:1021F000B8F1670F51D0B8F1470F00F07F8100238D
:10220000226003930AAB029309AB0093CDF80480DC
:102210000DF123032846FFF7FFFE8146B8F1650F55
:10222000099955D9B8F1660F00F07A810A9B8B4263
:1022300000F3808123682161DB0701D54B1C2361FA
:10224000A1654FF0000B9DF82330002B67D02D23A4
:1022500084F8433063E0062100232260CDF8048037
:10226000616003930AAB029309AB009328460DF11A
:102270002303FFF7D1FEB8F1670F814621D0B8F1F3
:10228000470FCBD10999C81C03DB6368994240F31F
:1022900024814FF0450BD8461AE0002940F05B81BD
:1022A0000121CDF8048022606160002303930AAB12
:1022B000029309AB009328460DF12303FFF7ACFE10
:1022C00081460999CB1C80F204814FF0650BD846FA
:1022D0005A46013904F150000991FFF70FFF0A9A9D
:1022E0001318012A8346236140F3308101332361AF
:1022F000A9E7B5EEC00BF1EE10FA02D52D2384F854
:10230000433022F00402564B2260564AB8F1470F80
:1023100094BF91469946032323614FF0000B009729
:1023200033460BAA2146284600F0CEF9013023D0CF
:10233000236858052BD423694A4631462846B847B6
:10234000013019D02268E0680B9B920719D598429A
:1023500017DD04F119094FF0000804E0E0680B9B59
:10236000C21A42450DDD01234A4631462846B84788
:10237000013008F10108F1D14FF0FF300DB0BDE898
:10238000F08F9842B8BF18460DB0BDE8F08FB8F195
:10239000650F30D994ED127BB5EE407BF1EE10FA6B
:1023A00064D1314A012331462846B8470130E3D091
:1023B000DDE90938434502DB2268D107C3D5059B17
:1023C000524631462846B8470130D5D0B8F1010F02
:1023D00008F1FF3AB6DD04F11A094FF0000801E0F8
:1023E000D045AFD001234A46314628469844B847E5
:1023F0000130F5D1C0E7DDF82880B8F1010F6FDDBD
:1024000001234A4631462846B8470130B4D0059BDF
:10241000524631462846B8470130ADD094ED127B84
:10242000B5EE407BF1EE10FA08F1FF3A40F08A80F9
:10243000B8F1010F5EDD04F11A094FF0000801E068
:10244000D04557D001234A46314628469844B847DC
:102450000130F5D190E700BFFFFFFFFFFFFFEF7FE7
:10246000C4BA0524C0BA0524707C0524099B002B3E
:102470007CDD0A9BD4F858B006935B45A8BF5B4649
:10248000002B984608DD4A4631462846B8470130B9
:102490003FF472AFD4F858B028EAE872934540F39D
:1024A000A68004F11A03CDF81CA04FF00008934653
:1024B0009A4605E0A36DA3EB0B02424540F39480DE
:1024C00001235246314628469844B8470130F1D19D
:1024D00052E7636899423FF7F8AE4FF06708A5E608
:1024E000D9078DD44A46012331462846B8470130E2
:1024F0003FF442AF5B4604F150021EE7002961D071
:10250000CDF804802260002303930AAB029309AB49
:10251000009328460DF12303FFF77EFD8146B1E6C7
:10252000002963681BDD2161002B51D001330B446E
:10253000236185E60029D4BFC1F1020201221344C0
:1025400023617DE6534609F10102CDE72268D207F7
:102550007FF579AECAE6CDF804802260A5E6002BAF
:102560003BD12268D20738D40123E9E7534A01233B
:1025700031462846B84701303FF4FEAEDDE9093860
:1025800058EA03032BD0059B524631462846B847EC
:1025900001303FF4F1AE099B002B80F28B8004F1F7
:1025A0001A0B4FF0000A04E0099B5B42534540F3CD
:1025B000818001235A46314628469A44B847013063
:1025C000F2D1D9E60121CDF80480226061609AE75A
:1025D0002268D0077FF534AEA8E70233B0E722685F
:1025E000D3077FF5B0AECEE7DDF81CA09B46099B74
:1025F000069A9A423EDC2268D0073BD4069AD31A48
:10260000A2EB0B0B9B45DA46A8BF9A462AEAEA7A68
:1026100053457FF797AEDDF818B004F11A094FF073
:10262000000807E0099BABEB0303A3EB0A03434558
:102630007FF788AE01234A46314628469844B8477A
:102640000130EFD198E610EE903A002BB8BF2D2361
:1026500022F00402B8BF84F843302260184B194AB4
:10266000B8F1470F94BF91469946032323614FF079
:10267000000B54E6059B524631462846B8470130C8
:102680003FF47AAE069A099BA2EB0B0AD31A9A453D
:10269000A8BF9A46BAF1000FB8DD09EB0B0253460A
:1026A00031462846B84701303FF466AE099B069A8A
:1026B000D31AABE743464A463FE600BF707C052489
:1026C000CCBA0524C8BA05242DE9F84F92461F4616
:1026D0000A698B68DDF828909A42B8BF1A46CAF892
:1026E000002091F843300C46064613B10132CAF877
:1026F0000020226891065FD5DAF800300233CAF86C
:102700000030226812F0060F11461DD1E16899428F
:10271000D8BF114618DD04F1190B4FF0000805E091
:10272000E568DAF80030ED1A45450CDD01235A461C
:1027300039463046C847013008F10108F0D14FF062
:10274000FF30BDE8F88F216894F84330003B18BF94
:1027500001238A060AD5E1185A1C302081F843006B
:10276000224494F8451082F84310023304F14302E6
:1027700039463046C8470130E1D02368DAF80050C6
:10278000216903F00603042BD4E902201BD08A42FE
:1027900020DD4FF00008521A90441A34002501E061
:1027A000454517DA0123224639463046C8470130ED
:1027B00005F10105F4D1C2E712F0060F0DD0003B80
:1027C00018BF0123D2E7401B8A4220EAE078E2DC0E
:1027D0000028E2DC0020BDE8F88FE168DAF800307C
:1027E0009942D8BF114696DCAEE700BF2DE9F0470D
:1027F0000C4684B01746227E0C990646984604F192
:10280000430C002A35D0A2F15803D8B2202869D849
:10281000202B67D8DFE813F0E00066006600660052
:10282000660066006600660066006600660094004A
:102830007000660066006600660070006600660054
:102840006600660021008300AE00660066009E0000
:102850006600830066006600E6000B682268606917
:102860001D1D0D6011061B6802D4520600F1DC80AC
:1028700018600023E1462361CDF800803B4603AA9F
:1028800021463046FFF720FF013020D023694A4619
:1028900039463046C047013019D02368E068DDF87A
:1028A0000C909B0718D5484516DD04F1190A002540
:1028B00004E0E068A0EB0903AB420DDD01235246C2
:1028C00039463046C047013005F10105F1D14FF0DE
:1028D000FF3004B0BDE8F0874845B8BF484604B0B3
:1028E000BDE8F08784F84220012004F1420900236A
:1028F000206184F84330BFE70A682368101D086030
:10290000180602D4590600F1938010680146002889
:102910006268C0F2918053484FF00A0E4AE00B689B
:1029200020681D1D0D60050601D441067ED419687E
:102930004C486F2A14BF4FF00A0E4FF0080E35E0D6
:102940000B681A6804330B6004F1420984F84220D2
:102950000120CCE70B686268181D0860D3F800906E
:102960000021484601F09CF8002879D0A0EB09002E
:102970006060BCE7236843F02003236078223A4874
:1029800084F845200A68151D0D601D064AD45906B5
:1029900048D51188DD0744BF43F02003236019B9EF
:1029A000236823F0200323604FF0100E0023626899
:1029B00084F84330002AA26016DB236823F0040366
:1029C000236089B9002A45D1E146BEF1080F1CD029
:1029D000ACEB090323614FE7582384F845302148C5
:1029E0002368CFE72368C9E77546E146B1FBF5F3F5
:1029F00005FB131A0A46AA4210F80A1009F8011D2D
:102A00001946F3D2BEF1080FE2D12368D807DFD50B
:102A1000626823699A42DBDC302309F8013C09F142
:102A2000FF39D5E71168B5E7188022E719887FE7F5
:102A3000B2F9001008466AE72D20002AA26084F847
:102A4000430002DB23F0040323600A2505484942C2
:102A5000AE46CAE7037884F8423004F14209B4E78D
:102A6000606844E7E88B0524B07A0524024A0349EC
:102A7000034800F069B900BF7CE60524416C0024DE
:102A8000F8E705240C4B4168994210B5044601D083
:102A900004F016FBA168094B994202D0204604F0CD
:102AA0000FFBE168064B994204D02046BDE8104078
:102AB00004F006BB10BD00BF08EB052470EB052435
:102AC000D8EB052408B54B6EDA0702D48B899B0539
:102AD00001D5002008BD886D00F066FE002008BD0D
:102AE00008B54B6EDA0702D48B899B0501D500200F
:102AF00008BD886D00F060FE002008BD2DE9F84398
:102B0000314C324BDFF8D890DFF8D880304FC4F822
:102B10003831002529460423082204F15C002D4E9B
:102B2000E360C4E90055C4E90455A5606566A56184
:102B300000F062FC04F15800C4E90849C4E90A87BE
:102B4000266300F029FE2946234B6367082204F11F
:102B5000C400C4E91A55C4E91E552567C4F8CC5011
:102B6000C4F8805000F048FC04F1680304F1C00090
:102B7000C4F88830C4E92398C4E9257600F00CFE37
:102B8000164BC4F8DC30294604F596700822C4E9D7
:102B90003455C4E93855C4F8D850C4F83451C4F891
:102BA000E85000F029FC04F1D003C4E93E87C4F8E2
:102BB000F49004F59470C4F80061C4F8F030BDE8F6
:102BC000F84300F0E9BD00BF08EB0524ED25002423
:102BD0008D2C0024B12C00240900010012000200F9
:102BE000252C00244D2C0024F8B506462A4800F078
:102BF000DBFD2A4BD3F83831002B43D0284FD7E9DF
:102C00000134013B04D524E05A1C04F1680420D0AF
:102C1000B4F90C50013B002DF6D1224BE36004F1D6
:102C20005800656600F0B8FD1B4800F0C5FDC4E91A
:102C30000155C4E904552560A5610822294604F11F
:102C40005C0000F0D9FBC4E90D55C4E912552046DB
:102C5000F8BD3D680DB12F46D1E74FF4D67130462F
:102C6000FDF78AFF044680B10423056043600C3001
:102C70002946A06025464FF4D07200F0BDFB3C60B1
:102C80002F46BCE7FFF73AFFB8E703483C6000F087
:102C900093FD0C233360DAE764EC052408EB05248C
:102CA0007CE605240100FFFF10B504460B4800F048
:102CB0007BFD236A2BB90A4B0A4AD3F838312262CA
:102CC00023B1BDE81040054800F076BDFFF716FFC0
:102CD000BDE81040014800F06FBD00BF64EC052462
:102CE00008EB052405260024014800F05DBD00BF67
:102CF00064EC0524014800F05FBD00BF64EC0524CE
:102D000008B5054800F050FDBDE80840034A0449F5
:102D1000002000F019B800BF64EC05247CE605240F
:102D20004526002408B5054A0549002000F00CF8A6
:102D3000BDE80840034800F03FBD00BF7CE6052425
:102D40006126002464EC05242DE9F84380460F46F3
:102D500016464FF00009D6E90154013D11D4A3896C
:102D6000012B05F1FF3508D9B4F90E3001332146A6
:102D700003D04046B84749EA00096B1C04F16804D7
:102D8000EDD13668002EE6D14846BDE8F88300BF95
:102D9000036A2DE9F041846880460E46002B53D02B
:102DA000626EB4F90C30D50701D4980546D51907E1
:102DB00017D52369ABB1013EA36816F8015F013B4B
:102DC000A36025B3002B07DAA769BB422246294638
:102DD000404617DB0A2D15D023685A1C22601D704F
:102DE000EAE72146404600F0F7F90028E3D04FF02B
:102DF000FF35636EDA0702D4A3899B0518D52846F0
:102E0000BDE8F08100F098F90130D5D1EFE7002B53
:102E100008DA22460A21404600F08EF90130E6D059
:102E20000A25E6E723680A22591C21601A70F7E791
:102E3000A06D00F0C1FC2846BDE8F081A06D00F057
:102E4000B3FCB4F90C30B2E7FFF72EFFA8E700BFE0
:102E5000024B01461868FFF79BBF00BFF4E705244B
:102E600008B410B5002A9DB0044636DB4FF4027357
:102E7000ADF814304FF000031B930291069120AB84
:102E800017D0013A4FF6FF7104920792ADF8161071
:102E90001F9A019302A903F01BFA421C01DA8B234B
:102EA0002360029B00221A701DB0BDE8104001B0E3
:102EB00070474FF6FF7104920792ADF816101F9AF3
:102EC000019302A903F004FA431C01DA8B23236067
:102ED0001DB0BDE8104001B070478B2303604FF078
:102EE000FF30F5E70CB410B5214B00291C689CB0ED
:102EF00038DB4FF000034FF402721B93ADF814203F
:102F0000029006901FAB18D001394FF6FF72049162
:102F10000791ADF8162002A91E9A0193204603F0EE
:102F2000D7F9421C01DA8B232360029B00221A701E
:102F30001CB0BDE8104002B070474FF6FF7204911C
:102F40000791ADF8162002A91E9A0193204603F0BE
:102F5000BFF9431C01DA8B2323601CB0BDE810408D
:102F600002B070478B2323604FF0FF30F5E700BFBE
:102F7000F4E705240CB410B59CB01EAB0291069189
:102F80006FF0004104910791084953F8042B059113
:102F9000002402A901931B9403F09AF9029B1C7070
:102FA0001CB0BDE8104002B0704700BF0802FFFF30
:102FB0000EB410B59DB01FAB6FF0004102900690AB
:102FC0000A48049107910A4953F8042B05910024FB
:102FD00002A9006801931B9403F07AF9029B1C700C
:102FE0001DB0BDE8104003B0704700BFF4E70524F2
:102FF0000802FFFF0EB470B59DB021AC00254FF460
:10300000017254F8046BADF814201B9502900690E1
:1030100000F036FE0B4B0B930B4B03904FF6FF71FA
:103020000790ADF8161018680F953246234602A98E
:103030001495019403F0C0FA1DB0BDE8704003B0D0
:10304000704700BF492C0024F4E705240CB4F0B508
:103050009DB022AC00254FF401730646084654F893
:10306000047BADF81430029106911B9500F008FE28
:103070000346039307930A4B0B934FF6FF73ADF888
:1030800016303A463046234602A90F95149501940E
:1030900003F092FA1DB0BDE8F04002B0704700BFE7
:1030A000492C002410B50C46B1F90E1000F006FBB7
:1030B000002803DB636D0344636510BDA38923F41B
:1030C0008053A38110BD00BF002070472DE9F0415F
:1030D0000C46B1F90C101F46CB05054616460BD41D
:1030E00021F48051A1813B46B4F90E1032462846A6
:1030F000BDE8F04100F00ABBB4F90E100223002233
:1031000000F0C6FAB4F90C10EAE700BF10B50C469F
:10311000B1F90E1000F0BCFAB4F90C30421C0EBF2D
:1031200023F4805343F480536065A38110BD00BF36
:10313000B1F90E1000F09ABAF8B50D4614460646DD
:1031400010B1036A002B37D0A389A269A2601A07C5
:1031500019D52369BBB122686169D31AEDB29942CE
:103160002F4620DD0133A1680139A160511C216087
:10317000157062699A420DD0A389DB0701D50A2D2B
:1031800008D03846F8BD2146304600F025F838B959
:103190002369E0E72146304603F092FF0028F0D093
:1031A0004FF0FF37EDE72146304603F089FF002856
:1031B000F6D122680123D6E7FFF776FDC4E700BF0A
:1031C00010B4044C03460A4620685DF8044B1946C7
:1031D000FFF7B2BFF4E7052438B52E4B1B68054650
:1031E0000C4613B11A6A002A4BD0B4F90C301807F8
:1031F0001CD5226922B313F0010107D061690020B8
:103200004942A060A1613AB1002038BD980758BF7B
:103210006169A160002AF7D1190658BF1046F4D59C
:1032200043F04003A3814FF0FF3038BDD9062CD5C1
:103230005A0712D4226943F00803A381002ADAD185
:1032400003F42071B1F5007FD5D02146284604F063
:1032500019F9B4F90C302269CDE7616B51B104F171
:103260004402914204D0284601F030FDB4F90C30FC
:103270000022626322690021C4E9002123F02403B3
:10328000D9E71846FFF710FDAFE709222A6043F09F
:103290004003C7E7F4E70524032A70B511D940EAD3
:1032A00001039B071FD104460B4602E0043A032AA0
:1032B0001DD91946204653F8045B54F8046BAE42FE
:1032C000F4D0541EB2B1421E013901E0C3180CD033
:1032D00012F801EF11F801CFE645A4EB0203F5D097
:1032E000AEEB0C0070BD541EEDE7184670BD2046D5
:1032F0001946E6E7104670BD88420ED98B18834206
:103300000BD900EB020C002A6ED0624613F801CDF7
:1033100002F801CD9942F9D170470F2A0FD8034620
:1033200002F1FF3C002A5FD00CF1010C013B8C4400
:1033300011F8012B03F8012F6145F9D1704740EADC
:1033400001039B0751D1A2F1100370B501F1200CCC
:1033500023F00F0501F1100E00F11004AC441B091D
:103360005EF8105C44F8105C5EF80C5C44F80C5C91
:103370005EF8085C44F8085C5EF8045C44F8045CA1
:103380000EF1100EE64504F11004E9D1013312F0FC
:103390000C0F01EB031102F00F0400EB031328D014
:1033A000043C24F003064FEA940C1E441C1F8E4676
:1033B0005EF8045B44F8045FB442F9D10CF10104F7
:1033C00002F0030203EB840301EB840102F1FF3CF2
:1033D0004AB10CF1010C013B8C4411F8012B03F8AC
:1033E000012F6145F9D170BD704702F1FF3C0346E2
:1033F0009AE72246EAE700BF830730B547D0541E5C
:10340000002A3ED0CAB2034601E0013C39D303F89A
:10341000012B9D07F9D1032C2CD9CDB205EB052545
:103420000F2C05EB054535D9A4F1100222F00F0C45
:1034300003F1100EE6444FEA121C1A46156055605F
:103440009560D56010327245F8D10CF1010214F08C
:103450000C0F03EB021204F00F0C13D0ACF10403B9
:1034600023F003030433134442F8045B9A42FBD174
:103470000CF003042CB1C9B21C4403F8011B9C429C
:10348000FBD130BD64461346002CF4D1F9E7034666
:103490001446C0E71A46A446E0E700BF11F0FF015A
:1034A000034600F0030239D08ABB026810B501EB75
:1034B000012E4EEA0E4E8EEA0204A2F1013323EAF7
:1034C0000203A4F1013222EA0402134313F0803F05
:1034D0000FD150F8044F84EA0E0CA4F10133ACF183
:1034E000013223EA040322EA0C02134313F0803F63
:1034F000EFD0037823B936E010F8013F002B32D02B
:103500009942F9D110BD8A4228D09A0729D01A7859
:1035100018460133002AF6D110467047CAB902682E
:10352000A2F1013323EA020313F0803F08D150F8DF
:10353000042FA2F1013323EA020313F0803FF6D0F7
:1035400003785BB110F8013F002BFBD1704799075E
:1035500005D0184613F8012B002AF8D170471846F9
:10356000DDE71846A1E7184610BD00BFB2B340EA38
:1035700001039B0730B5844618D1032A16D90446A7
:103580000B4606E0043A2BD01EF0803F28D1032AD8
:103590002AD92068194653F8045BA0F1013EA842DD
:1035A000A4462EEA000E04F10404EBD09CF80000BF
:1035B0000C78844216D1012A12D0E64668B11EF872
:1035C000010F11F8014FA2EB0E03A04203F1FF33EC
:1035D00008D11CEB0303F1D1184630BD10467047EB
:1035E000002030BD001B30BDA4461946DEE700BFF9
:1035F00040EA01039B0710B501D1032A17D884467E
:1036000001F1FF3E07E01EF8011F03F8011B541EE5
:1036100029B19C4622466346002AF4D110BD944449
:10362000002CFBD003F8011B6345FBD110BD8E4677
:103630008446DEF80040A4F1013323EA040313F0CA
:10364000803F71460EF1040EDAD1043A032A4CF899
:10365000044BEED87146D3E7F0307047004870470E
:1036600078E705240048704778E7052438B5074D0A
:103670000022044608462A6004F0ECFE431C00D0F9
:1036800038BD2B68002BFBD0236038BD44EC0524EB
:1036900038B50C46084D8446114620461A4600238C
:1036A0002B60644604F0E0FE431C00D038BD2B685C
:1036B000002BFBD0236038BD44EC052438B50C4604
:1036C000084D8446114620461A4600232B60644666
:1036D00004F0A2FE431C00D038BD2B68002BFBD0A9
:1036E000236038BD44EC052438B5074D002204465C
:1036F00008462A6004F0BAFE431C00D038BD2B688F
:10370000002BFBD0236038BD44EC052438B50C46B3
:10371000084D8446114620461A4600232B60644615
:1037200004F08AFE431C00D038BD2B68002BFBD070
:10373000236038BD44EC0524014B1868704700BF76
:10374000F4E7052470B50F4B0F4DAB42A3EB050614
:1037500007D0B610002455F8043B01349847A64220
:10376000F9D853F009FF094D094B5E1BAB424FEAF4
:10377000A60606D0002455F8043B01349847A6421B
:10378000F9D870BD6CE605246CE605246CE60524CA
:1037900078E60524704700BF704700BF704700BF40
:1037A000704700BF704700BF704700BF01207047DF
:1037B00001207047704700BF704700BF0000000045
:1037C00002780B78012A28BF9A4240F0D8806DE930
:1037D000044540EA0104CDE902676FF0000C4FEAAE
:1037E00044721AB380EA010414F0070F6BD100F0A1
:1037F000070420F0070004F0030521F007014FEA59
:10380000C505F0E8042314F0040FF1E804670CFA8E
:1038100005F462EA040266EA04060BD063EA0403D4
:10382000624667EA0407664604E000BFF0E8042346
:10383000F1E8046782FA4CF582EA0604A4FA8CF4F3
:103840006CBB83FA4CF583EA0705A5FA8CF595B9AC
:1038500050E9022351E9026782FA4CF582EA060434
:10386000A4FA8CF483FA4CF583EA0705A5FA8CF5E3
:103870002543DBD09CB92DBAB5FA85F424F00704B2
:1038800027FA04F1DDE9026723FA04F303F0FF00ED
:1038900001F0FF01FDE80445A0EB0100704724BAE8
:1038A000B4FA84F424F0070426FA04F1DDE902678F
:1038B00022FA04F202F0FF0001F0FF01FDE80445E6
:1038C000A0EB0100704714F0030F3CD110F003048B
:1038D00028D150F8082B51F8083B82FA4CF582EABF
:1038E0000305A5FA8CF55DB950F8042C51F8043C99
:1038F00082FA4CF582EA0305A5FA8CF5002DE8D092
:103900002DBAB5FA85F424F0070423FA04F122FA5B
:1039100004F202F0FF0001F0FF01FDE80445A0EB16
:10392000010070474FEAC40420F0030050F8082B50
:1039300021F0030151F8083B0CFA04F462EA040296
:1039400063EA0403C9E710F003041DD0A1EB0401EE
:1039500020F00300E40750F8042B06D012D28B7835
:103960005FFAA2F4E41A06D12BB1CB785FFAB2F475
:10397000E41A00D133B920465DF8104B7047A2EB32
:103980000300704701F1040150F8042BCC0721F02B
:10399000030151F8043B48D824D222F07F4482FA34
:1039A0004CF594EA1325A5FA8CF50AD165B951F8BE
:1039B000043B84EA0204B4EB036F0ED150F8042BED
:1039C000EBE74FEA132355E035F07F454DD10878FA
:1039D000FDE80445C0F1000070474FEA126203F0B1
:1039E000FF0347E002EA1C4482FA4CF594EA1345CF
:1039F000A5FA8CF50AD165B951F8043B84EA0204B2
:103A0000B4EB034F0CD150F8042BEBE74FEA134310
:103A100030E015EA1C4528D10B884FEA124229E014
:103A20004FEA124203EA1C4324E002F0FF0482FA48
:103A30004CF594EA1365A5FA8CF50AD165B951F8ED
:103A4000043B84EA0204B4EB032F09D150F8042BA1
:103A5000EBE74FEA13630DE015F0FF0F05D10B689C
:103A60004FEA122223F07F4304E04FF00000FDE80C
:103A70000445704712BA1BBA82FA4CF482EA030476
:103A8000A4FA8CF5B5FA85F402FA04F203FA04F309
:103A90004FEA1260FDE80445A0EB1360704700BFD9
:103AA00001F0FF01102A2BDB10F0070F08D010F8EF
:103AB000013B013A8B422DD010F0070F42B3F6D1F3
:103AC000F0B441EA012141EA014122F007047FF00C
:103AD00000070023F0E80256083C85EA010586EA63
:103AE000010685FA47F5A3FA87F586FA47F6A5FA9F
:103AF00087F68EB9EED1F0BC01F0FF0102F00702AB
:103B000032B110F8013B013A83EA010313B1F8D155
:103B10000020704701387047002D06BF3546033836
:103B2000073815F0010F07D1013015F4807F02BF6F
:103B3000013015F4C03F0130F0BC0138704700BFC0
:103B4000844641EA000313F003036DD1403A41D3A8
:103B500051F8043B40F8043B51F8043B40F8043B67
:103B600051F8043B40F8043B51F8043B40F8043B57
:103B700051F8043B40F8043B51F8043B40F8043B47
:103B800051F8043B40F8043B51F8043B40F8043B37
:103B900051F8043B40F8043B51F8043B40F8043B27
:103BA00051F8043B40F8043B51F8043B40F8043B17
:103BB00051F8043B40F8043B51F8043B40F8043B07
:103BC00051F8043B40F8043B51F8043B40F8043BF7
:103BD000403ABDD2303211D351F8043B40F8043B97
:103BE00051F8043B40F8043B51F8043B40F8043BD7
:103BF00051F8043B40F8043B103AEDD20C3205D3A7
:103C000051F8043B40F8043B043AF9D2043208D09E
:103C1000D2071CBF11F8013B00F8013B01D30B8810
:103C200003806046704700BF082A13D38B078DD0EE
:103C300010F003038AD0C3F10403D21ADB071CBFC0
:103C400011F8013B00F8013B80D331F8023B20F82A
:103C5000023B7BE7043AD9D3013A11F8013B00F863
:103C6000013BF9D20B7803704B7843708B788370EB
:103C700060467047000000000000000000000000E7
:103C800030B490F800F020F007016FF0000C10F055
:103C9000070491F820F040F048804FF000046FF0E6
:103CA0000700D1E9002391F840F000F1080082FA02
:103CB0004CF2A4FA8CF283FA4CF3A2FA8CF34BBBCD
:103CC000D1E9022382FA4CF200F10800A4FA8CF246
:103CD00083FA4CF3A2FA8CF3E3B9D1E9042382FA14
:103CE0004CF200F10800A4FA8CF283FA4CF3A2FA29
:103CF0008CF37BB9D1E9062301F1200182FA4CF261
:103D000000F10800A4FA8CF283FA4CF3A2FA8CF3C7
:103D1000002BC6D0002A04BF04301A4612BAB2FAE9
:103D200082F200EBD20030BC7047D1E9002304F0EE
:103D30000305C4F100004FEAC50514F0040F91F823
:103D400040F00CFA05F562EA05021CBF63EA0503C0
:103D500062464FF00004AAE79FED010B704700BFD9
:103D6000000000000000F87F9FED010A704700BFCF
:103D70000000C07F2DE9F04DDFF8B4A00746DAF867
:103D800000001E4688469346FFF70EFD244B1D6833
:103D900035B36C681F2C3CDCB7B1D5F8880040B354
:103DA000D0F8003140F824B00122A2401343C0F8FB
:103DB000003100EB8403022FC3F8806004D1D0F8F7
:103DC00004311343C0F80431631C0234DAF80000F4
:103DD0006B6045F82480FFF7EFFC0020BDE8F08D14
:103DE0001049114A1A6011B10B68C2F888300E4DA3
:103DF000CFE70E4B6BB14FF48470FCF789FE40B1F6
:103E00000023C0F80031C0F804316C68C5F88800A0
:103E1000C8E7DAF80000FFF7CFFC4FF0FF30DDE72E
:103E2000F4EC0524287A052468EC05249106002486
:103E300044E8052400B50B4C25681446EE681A4684
:103E400085B003460D464CB107490095CDE90114F4
:103E50003046064903F082F904F00FFE04490C468F
:103E6000F3E700BFF4E70524DCBA0524ECBA052427
:103E7000E8BA052408B513460022FFF7DBFF00BFB0
:103E80002DE9F04F03690C69A34283B0C0F28A8028
:103E9000013C01F1140500F1140855F8243058F8DC
:103EA000242001339A428E4681464FEA840105EB75
:103EB000840708EB840AB2FBF3F63AD3CDE9001588
:103EC0000022AC46404613465CF8041B05681FFA06
:103ED00081FB06FB0B22090C4FEA124B06FB01BBD0
:103EE00092B2A9B2891A19441FFA8BF3C3EB21438A
:103EF00003EB154389B241EA0341674540F8041BCF
:103F00004FEA1B424FEA2343DED2DDE9001558F8A1
:103F1000013073B9AAF1040AD04504D307E0D045B3
:103F200004F1FF3403D25AF80439002BF7D0C9F852
:103F300010407146484601F061FE00282EDB4146E4
:103F4000002255F8040BD1F800C01FFA80FE1FFABA
:103F50008CF3A3EB0E031344020CC2EB234202EBDF
:103F60001C429BB243EA0243AF4241F8043B4FEA92
:103F70002242E6D258F8242008EB84036AB9043BB5
:103F8000984504D307E0984504F1FF3403D253F871
:103F90000429002AF7D0C9F810400136304603B092
:103FA000BDE8F08F002003B0BDE8F08F2DE9F04FA1
:103FB0002DED028BC4698FB0CDE904328DED020B7B
:103FC00057EC106B05460091002C00F02F83216800
:103FD00049B162684A60012393408B6001F042FB63
:103FE000EB6900221A60B7F100081A9AB4BF0123E6
:103FF00000231360C44BBCBF28F00048CDF80C80F0
:1040000033EA080300F0A6809DED028BB5EE408BED
:10401000F1EE10FA0FD1049A012313601B9B13B128
:104020001B9ABA4B1360BA4B019301980FB0BDECC9
:10403000028BBDE8F08F0DA90CAA2846B0EE480B04
:1040400001F040FF5FEA1851044640F09B80DDE933
:104050000C01014401F23243202B40F31483C3F1DD
:10406000400308FA03F801F2124326FA03F348EA80
:10407000030307EE103AB8EE477B012317EE906A70
:104080000A93013953EC172BA6F1F8739FED983B77
:104090009FED997B9FED9A5B06EE901A43EC122BF5
:1040A000B8EEE64BB7EE086B32EE466BA6EE037B3E
:1040B000A4EE057BFDEEC76BB5EEC07BF1EE10FA0A
:1040C00016EE909A08D5B8EEE66BB4EE476BF1EEBB
:1040D00010FA18BF09F1FF39401AB9F1160F00F1B3
:1040E000FF3800F24F818B4E06EBC90696ED007B40
:1040F000B4EEC78BF1EE10FA5BD50023B8F1000FD8
:1041000009F1FF390993C0F2438100230693B9F105
:10411000000F54DA069BCDF82090A3EB0903069319
:10412000009B092BC9F1000A4FF000094FD8052B5D
:1041300040F3B082043B00930026009BD5F81CC0DE
:10414000023B032B00F28385DFE813F00104FE033A
:10415000F603DA03049AC8F3130842F20F7358EA1D
:10416000060813601ED11B9B002B00F085856A4B4F
:10417000019308331B9A019813600FB0BDEC028BBA
:10418000BDE8F08F18EE906A0023C6F313060A9379
:1041900053EC182B46F07F530C98A1F2FF3143F4F7
:1041A000401373E71B9B002B40F087835B4B01930D
:1041B0003BE7002840F34084002309930693009BCB
:1041C000CDF82090092BC8444FF0000AAFD9002346
:1041D0000126D5F81CC0009307964FF0FF3B0593CE
:1041E0000021CCF80410CDF82CB0284601F0FAF9E3
:1041F0000190002800F03485EB69019A1A60BBF148
:104200000E0F00F2EC80002E00F0E980089A002AE0
:1042100040F3ED833F4E02F00F0306EBC30393ED33
:10422000007B1311D20540F1B3833D4A92ED086B38
:1042300003F00F03032188EE064B5BB1384ADF071A
:1042400004D592ED006B013127EE067B5B1002F185
:104250000802F4D184EE075B099B3BB1B7EE007B0B
:10426000B4EEC75BF1EE10FA00F18A8407EE901A03
:10427000B8EEE76BB1EE0C7BA6EE057B17EE901A5D
:1042800053EC172BA1F15073BBF1000F00F0948099
:1042900008995846FDEEC56B43EC142B16EE903A88
:1042A0001C4E019F30335FFA83FC079B06EBC00274
:1042B000B8EEE67B12ED026B35EE477B7A1C002BE5
:1042C00000F00F84B6EE003B83EE065B35EE445BF8
:1042D000B4EEC75BF1EE10FA87F800C000F33B8440
:1042E000B7EE002BB2EE044B002633E0AFF30080B4
:1042F00061436F63A787D23FB3C8608B288AC63FEC
:10430000FB799F501344D33F0000F07F717C05245C
:10431000707C0524107905241CBB052428BB0524CA
:10432000007A05240136864259DA27EE047B25EE11
:10433000045BFDEEC76B16EE903AB8EEE63B303309
:1043400037EE437BB4EEC57BF1EE10FA02F8013B89
:1043500000F1018432EE476BB4EEC56BF1EE10FA5A
:10436000E0D5019E1346013102E09E4200F0278411
:104370001A4613F8010D3928F7D00130C0B2187071
:1043800000913DE10123B8F1000F0993BFF6BDAEE6
:10439000C0F1010306934FF00008B8E607EE901A4B
:1043A000B1EE0C6BB8EEE77BA7EE056B16EE901A3C
:1043B00053EC162BA1F1507343EC162BB1EE047B9A
:1043C00035EE477BB4EEC67BF1EE10FA00F30684BF
:1043D000B1EE466BB4EEC67BF1EE10FA1CD40D9B29
:1043E000002B56DB089A0E2A53DCAB4E089B06EBDB
:1043F000C306059B002B96ED006B15DABBF1000F91
:1044000012DC09D1B1EE047B26EE077BB4EEC78B3C
:10441000F1EE10FA00F2E2834FF0000A019A5746DB
:10442000059B6FEA030B09E288EE067BBDEEC77BB6
:10443000019B17EE102ABBF1010F02F13002B8EE1A
:10444000C75B03F8012BA5EE468B00F00083B2EEAC
:10445000044B012211E088EE067BBDEEC77B0132E2
:1044600017EE101A5A4501F13001B8EEC75B03F898
:10447000011BA5EE468B00F0EA8228EE048BB5EE18
:10448000408BF1EE10FAE6D1089A013200921A46FA
:10449000B6E0079A002A40F0DD800023069E0793CD
:1044A000CDF828A01F4666B1B8F1000F09DD4645DA
:1044B000069A3346A8BF4346D21A0692F61AA8EBCC
:1044C0000308BAF1000F0BD0079B1BB10A9B002B0E
:1044D00040F0F18221465246284601F0ABFA0446EC
:1044E0000121284601F0DAF98246B9F1000F40F0C7
:1044F000CF81009B012B40F3E4810120404410F068
:104500001F0000F0A080C0F12003042B40F3F381D2
:10451000069BC0F11C000344069306448044069B9E
:10452000002B05DD21461A46284601F0F3FA044621
:10453000B8F1000F05DD51464246284601F0EAFA7F
:104540008246099B002B40F08681BBF1000F40F3AF
:104550005881079B002B40F0AF80089B01330093EC
:10456000DDF80480012607E0214600230A222846C0
:1045700001F09CF80136044651462046FFF780FCC6
:104580005E4500F1300308F8013BEDDBBBF1000FA5
:10459000019ACCBFD8464FF001089044002621462E
:1045A00001222846029301F0B5FA5146044601F073
:1045B00025FB002840F3FB81019902E0884500F0CB
:1045C0000F82424608F1FF3812F8013C392BF5D032
:1045D000013388F8003051462846029201F042F833
:1045E000029A6FB136B1BE4204D03146284601F07E
:1045F00039F8029A02923946284601F033F8029AB5
:1046000002922146284601F02DF8029A00990023D3
:104610001370049B19601B9B002B3FF406AD01989F
:104620001A600FB0BDEC028BBDE8F08F1020FCF7D4
:104630006FFA0246E861002800F02E83C0E90044CA
:104640008460C460CFE41C23069A1A4406921E4478
:10465000984464E7009A012A40F3B4810BF1FF32D9
:104660009245C0F27E81AAEB0203BBF1000F0A93D0
:1046700080F2BA82069BA3EB0B060121284601F0CB
:104680000DF907460FE7C3F1200306FA03F307EE1F
:10469000103AF0E4012650E510790524394600234C
:1046A0000A22284601F002F80B9B002B074640F334
:1046B000C382CDF820809B46002E00F34B81B9F1D8
:1046C000000F40F0DB81B946019E731E5B440993E5
:1046D000029B03F001030A9351462046FFF7D0FBEB
:1046E00039468346204601F089FA4A4651468046BB
:1046F000284601F0A5FAC26801460BF13003002AF2
:1047000038D1CDE90603204601F078FA06990590E4
:10471000284600F0A7FF059A079B002A5DD1009A62
:104720001AB90A9A002A00F06982B8F1000F45DB35
:10473000099AB046B24208F8013B00F0B681214622
:1047400000230A22284600F0B1FF4F4504463946AF
:104750004FF000034FF00A02284638D000F0A6FFC1
:104760004946074600230A22284600F09FFF464696
:104770008146B1E72846059300F074FFB8F1000FB9
:10478000059B08DB029A009902F0010248EA010841
:1047900052EA08022FD1214601222846009301F057
:1047A000B9F95146044601F029FA0028009B40F36C
:1047B000F380392B00F007820BF13103324602F807
:1047C000013B089B01333E4600934F4603E700F050
:1047D0006DFF4646074681467EE7B8F1000FC0F2FE
:1047E0004F82009948EA01080A9951EA080800F046
:1047F0004782002A9CDD392B00F0E58132460133E7
:10480000DDE7009B022B7FF7A4AEBBF1000F40F069
:104810001C8151465B460522284600F047FF0146B1
:104820008246204601F0EAF9002840F30E81089BF9
:10483000019A03F1010B312302F8013B0BF1010353
:10484000514628460292009300F00CFF029A002F76
:104850007FF4D0AED4E65146204601F0CFF90028CF
:10486000BFF673AE214600230A22284600F01EFF41
:10487000089B03F1FF38079B0446002B7FF40EAF23
:104880000B9B002B40F3C281089A00929B4667E67F
:1048900001464A46284601F0CDF8009B012B82468E
:1048A0006BDD4FF00009DAF810300AEB830318696A
:1048B00000F0A2FFC0F1200020E6AD4B01930333CE
:1048C00058E4029B002B7FF418AEDDE90212C2F31C
:1048D0001303002B7FF411AEA64B13402BB1069BA4
:1048E0000133069308F101080123B9F1000F40F0EC
:1048F0007981994601E63FF412AEC0F13C03A3E68C
:1049000001230793059B089A134403F1010B5F46AB
:10491000012F0B93B8BF0127172F40F3A881012265
:1049200004235B0003F11400B842114602F10102B6
:10493000F7D9CCF8041058E401230793059F002F02
:1049400031DD0B97BB46E7E700230793DAE7002347
:104950000793F3E739463246284601F0DBF807466D
:10496000ADE6A2EB0A039944069B1E465B44069300
:104970000023D84492460A937FE6029B002B90D1F5
:10498000DDE90201C1F313030A46002B89D1A3E735
:104990000221B0EE484B50E47FF410AFDA073FF548
:1049A00008AF32460BE7012305939B4618E403D179
:1049B000029BDB073FF500AE424618F8013D302B65
:1049C000FAD008E60A9A002A00F0C88003F23343BE
:1049D000069ACDF828A016461A44984406924CE64A
:1049E000009B01990133009331230B70F3E500F034
:1049F000B980089B604E5B4203F00F0206EBC202D7
:104A000092ED006B1B1128EE066BB0EE465B00F0DA
:104A10001B815A4A00200221DE0705D592ED007B5A
:104A20000131012025EE075B5B1002F10802F3D192
:104A3000002806FE055B0FE4C0F101034FF00008FB
:104A40000693CDF82480FFF7BABB019AE8E40899F1
:104A500038EE088B0131B4EEC68BF1EE10FA0091FE
:104A600008DCB4EE468BF1EE10FA05D117EE102AF1
:104A7000D00701D5019E7BE41A46C1E57968284636
:104A800000F0B0FD0646002800F0FF803B690233CD
:104A90009A0007F10C010C30FFF752F83146012261
:104AA000284601F037F881460EE6089A01323E4664
:104AB00000924F4673E51A463946284600F0BAFF81
:104AC000224601460746284600F0FEFE21460446DF
:104AD000284600F0C7FD0A9BBAEB030A3FF400AD7D
:104AE000F8E4019B24EE063B012883F800C000F0A7
:104AF000A180B2EE044B019B034427EE047BFDEE44
:104B0000C76B16EE900A303002F8010B9342B8EEF4
:104B1000E65B37EE457BF0D1B6EE006B33EE065B1D
:104B2000B4EEC57BF1EE10FA64DC36EE436BB4EE06
:104B3000C67BF1EE10FA08D40D9B002BFFF6ADAC4E
:104B4000089B0E2B3FF7A9AC50E41A46013B12F824
:104B5000010C3028F9D04B1C009351E50C9BC3F19C
:104B6000360335E70221B0EE485BFFF775BB00BFA7
:104B700028BB05240000F07F10790524007A052465
:104B8000BBF1000F3FF40AAC0B9800287FF727AC6D
:104B9000B2EE044B25EE045B013107EE901A089B40
:104BA000B8EEE76BB1EE0C7BA5EE067B17EE906AD4
:104BB000591E53EC172BA6F15073FFF76BBB013155
:104BC0003120FFF7DCBB089B0199B046013300930D
:104BD00039233E4608F8013B4F46F2E44FF0000A05
:104BE000574624E699465EE6069B1E465B44D8443B
:104BF000069342E5019E0131FFF7BABB392BE2D0A3
:104C0000B8F1000F3FF7D8AD3246D8E5009B022B34
:104C10000BDC089B00935146DDF82CB0FFF730F910
:104C2000019A00F130031370B0E4DDF82CB0CDF838
:104C30002080EAE513466FE7009B022BF5DCDDF8E8
:104C40002CB0CDF8208037E50221FFF705BB002608
:104C5000CCF804603146284600F0C4FC019000BB4B
:104C6000164B1748002240F2AF11FFF7E3F800217E
:104C7000CCF80410FFF7B9BA124B0193FFF7D5B97E
:104C8000002A3FF788AD324699E50C4B0C48324676
:104C900040F2EF21FFF7CEF80B4B0948EF21FFF769
:104CA000C9F8EB69019A1A604FF0FF330B939B46EA
:104CB000012305960793FFF792BB00BF68BB05244D
:104CC0002CBB05241CBB05245CBA0524002950D04C
:104CD00038B551F8043C0C1F002BB8BFE41805464A
:104CE000FBF7C6FF274A13682BB1A3420CD92168F2
:104CF000601883422CD0636028461460BDE83840B9
:104D0000FBF7BCBFA3420FD81A465B68002BF9D152
:104D100011685018844217D02CD363605460284621
:104D2000BDE83840FBF7AABF11685018A04214D064
:104D300020D8216860188342EFD118685B68084466
:104D4000C4E900035460EAE723680B441360E6E714
:104D500018685B6808442060CDE72068014450185B
:104D600083421160DBD1D3E900040144C2E900149D
:104D7000D5E770470C232B602846BDE83840FBF789
:104D80007DBF00BF04EB05242DE9F0410469B4EBBD
:104D9000611F05DC0023036100234361BDE8F0814E
:104DA00000F114054E1111F01F0C05EB840E05EBFC
:104DB000860321D055F8261004339E4521FA0CF1C4
:104DC000CCF120082DD92F461A6802FA08F20A43BE
:104DD00047F8042B53F8041B9E4521FA0CF1F3D835
:104DE000A31B9B00053B9B08013305EB830445F89F
:104DF000231079B104340DE09E4588BF00F1100204
:104E0000C8D953F8041B42F8041F9E45F9D8A41BC7
:104E100005EB8404631B9B10AC420361BCD0BDE86E
:104E2000F08141610029B5D02C46E3E72DE9F04F30
:104E30000F6885B0CDE90020BA780393302A8946FF
:104E400040F0CA81FB1C1A78302A1C4603F101038A
:104E5000F9D0E71B023FDFF8008318F80230002B7F
:104E600000F0DF80237818F803304FF0000A554631
:104E7000002B00F05081264616F8013F18F8033049
:104E8000002BF9D1B34901223046FEF76FFB834670
:104E900000284CD03278002D00F08081AB1B4FEA07
:104EA000830B02F0DF02502A35464CD0C9F800606F
:104EB000BAF1000F65D12A1B013A072A514604DDD9
:104EC0005210072A01F10101FADC019800F08AFB77
:104ED0008246002800F0508200F11406A542029696
:104EE00057D90027B9460DE0202F1AD03A4604378B
:104EF0002B7818F8033003F00F03934049EA0309B5
:104F0000A54249D015F8013D2E2BEDD1A542EBD39A
:104F1000904901222846FEF729FB0028F0D0202FD7
:104F2000E4D1002246F8049B04279146E0E7002DD7
:104F300000F04381327802F0DF02AB1B502A4FEAC7
:104F4000830B3546B2D16A782B2A00F025812D2AB1
:104F500000F0A1806E1C002018F802104A1E182ACA
:104F600000F29780727818F8022010390136002A72
:104F700054D100B149428B44C9F80060BAF1000F26
:104F800099D0002F0CBF06250025284605B0BDE8A6
:104F9000F08F029E4FF0000946F8049B029BF61A20
:104FA000B610CAF81060484600F026FC009B760157
:104FB0001C68361AA64272DCC0F2F2800027009B01
:104FC0009A685A45C0F22981009B5A685A4549DDC2
:104FD000A2EB0B0B5C457FDCDB68022B00F05B81F6
:104FE000032B00F05381012B00F0368101985146CC
:104FF00000F038FB50250E9A00232846136005B0B8
:10500000BDE8F08F01EB810116F8013F02EB410290
:10501000A2F1100118F80320002AAAD0192AF1DD04
:10502000A7E74C4901222046FEF7A0FA8246002855
:1050300073D1637818F80320651C002A6FD0302BD9
:105040002C4640F0348114F8013F302BFBD018F887
:105050000330B3FA83FA01274FEA5A1A002B7FF480
:105060000AAF58E0012557B1009BDA68022A5ED0EA
:10507000032A60D0012A00F0868045F010050E9BBF
:10508000C3F800A0039B2846C3F800B005B0BDE8F4
:10509000F08F2E460AE70120AA78AE1C5CE7361B8B
:1050A0003146504600F0E2FF074678B1711E4A11C2
:1050B000029B012753F8220001F01F0207FA02F2B7
:1050C000024203D0B94200F3B9800227314650466C
:1050D000B344FFF759FE72E70BF1FF36002F40F0A3
:1050E000A580002E40F0A4807311029A06F01F06DE
:1050F00052F823200123B34013425946504618BFAB
:1051000047F00207FFF740FE009BA4EB0B040225CB
:10511000D3F804B0A7E72646B4E62378254603F083
:10512000DF03502B00F09380C9F8005029E70F9B54
:10513000C3F101030F930F9B002B9ED0DDF8088075
:10514000DAF8107042464FEA870908EB870600201C
:1051500008E000BFBCB60524FC770524964242F85F
:10516000040C3CD9944652F8041B4B1CF6D0013178
:10517000022DCCF8001000F0938014F01F0440F0D2
:10518000B38021257BE7B9077FF577AF029B1A68CB
:105190001743FA07D2D470E700207DE7AB4680E6DC
:1051A000A21B51460198ABEB020B00F0B3FC00F1DF
:1051B000140382460293002701E7727818F8021060
:1051C000751C2E4600293FF46CAE16F8012F18F816
:1051D0000230002BF9D161E6BC1C00273BE6DAF86F
:1051E0000820974265DA3A460AEB82010120013233
:1051F000022DCAF81020486152D09742BDDA002A29
:105200007FDC0022CAF810200022CAF81420009B7C
:105210009A680BF1010B5A45B3DA0198514600F038
:1052200021FA0E9A00231360A325AEE601275BE75F
:105230003146504600F01AFF074655E7B11E50466A
:1052400000F014FF00283FF440AF03273EE74FF083
:10525000000B4FF0010A76E65C457FF4C7AE012CE7
:1052600008D0611E504600F001FF00283FF4BEAE9A
:10527000009B5A6803990A60029A0123CAF8103009
:1052800013600E9B6225C3F800A07EE60F9B002BE7
:105290003FF4ACAEEEE70F9B002B7FF4A7AEE9E73F
:1052A000009B1A68013AA24254D02225E7E6012762
:1052B000E1E5DAF804100198013100F093F90646AF
:1052C00000285FD0DAF81020023292000AF10C01B7
:1052D0000C30FEF735FC5146019800F0C3F906F199
:1052E00014083269B2467FE7C144C4F1200459F87A
:1052F000040C00F081FAA042BFF643AFDAF81020A8
:105300007DE7DAF8140008EB82020AF11804A242E1
:105310004FEA50002AD94546236840EAC37045F851
:10532000040B54F8040BA2424FEA5000F4D8A2EB4D
:105330000A02193A9208013248F8220008EB820268
:10534000C0B9A2EB080189109045CAF810107FF48B
:105350005EAF59E7621104F01F0458F822100122D1
:10536000A2400A4214BF2125222588E6C8F8000081
:10537000424668B10432E4E7074B08485246E4214C
:10538000FEF758FD044B054832468421FEF752FDD6
:10539000CAF8100038E700BF68BB05247CBB0524B1
:1053A00010B40468013409E014F8013BA3F1410C86
:1053B000BCF1190F98BF2033934208D111F8012B8B
:1053C000002AF1D1046001205DF8044B70470020F1
:1053D0005DF8044B704700BF09682DE9F04F4B1191
:1053E00002EB830311F01F0B07460CBF1846181D74
:1053F0003C680CBF1D1F1D46002340F8043C61782B
:1054000085B00134002900F0A8809E469A461E46C9
:105410000B4601461046DFF8889101975A46A84688
:10542000AC46834610E0202B00F28F80564508DD05
:10543000C44502D2BEF1070F5FDDE34554D34FF000
:10544000080E14F8013FB3B119F80370002FEAD029
:105450000EF1010EBEF1080F06F101063ADCDCF890
:1054600000301B0107F00F071F43CCF8007014F841
:10547000013F002BE8D15B46084693461A46002EB2
:105480006BD0E04502D9BEF1070F73DD62454DD206
:10549000111F634653F8044B41F8044FAB42F9D94E
:1054A000A5EB0C0323F00303691C04330CF1010C7E
:1054B000614538BF04231344002143F8041BAB4269
:1054C000FBD950F8043C002B4DD1AA4249D055F8E5
:1054D000043DF8E7E345B4D200234CF8043C4FF018
:1054E000010EACF1040CBDE70023ACF104084CF84C
:1054F000043CB246C4469E46A3E7CEF108008000B5
:10550000CDE9022CDCF800306746C0F1200E84465D
:10551000786800FA0EF21A4320FA0CF33A6047F862
:10552000043F4745F4D3DDE9022C86E750F8043CFC
:10553000BBF1000FC7D0CBF1200B4FF0FF3121FAA8
:105540000BF10B4040F8043CBDE7084619462929F9
:105550005B46019F93461A4609D0042005B0BDE87A
:10556000F08F01232B60052005B0BDE8F08F0134DA
:105570003C6084E7CEF10803DCF800109B00C3F127
:10558000200E66460C46776807FA0EF1214327FA8B
:1055900003F4316046F8044FB045F4D876E700BF15
:1055A000FC77052410B4034CD4F8E440A4465DF81D
:1055B000044B604788E6052482B049B15AB16BB10B
:1055C00013780B601278101E18BF012002B07047CC
:1055D00001A9002AF3D1104602B070476FF0010014
:1055E000F4E700BF70B5C66905460C465EB1F368C6
:1055F000A3B153F82400E8B1026843F82420002343
:10560000C360036170BD1020FBF782FA0646E861B3
:10561000E8B10023C0E900338360C3602122042184
:105620002846FBF761FAEB69F060DB68002BE0D1FC
:10563000002070BD012101FA04F6721D9200284677
:10564000FBF752FA0028F3D0C0E90146D7E7034B35
:10565000034832466B21FEF7EDFB00BF5CBA052420
:10566000C0BB052470B5C66905460C464EB13CB1B9
:10567000EB696268DB6853F82210216043F822402E
:1056800070BD1020FBF744FA0246E86120B1C0E982
:1056900000668660C660EAE7024B03488F21FEF78A
:1056A000C9FB00BF5CBA0524C0BB05242DE9F0414D
:1056B0000D6907460E461C4601F1140E0020DEF867
:1056C00000108BB202FB03434FEA134C090C02FBA0
:1056D00001CC01309BB203EB0C4385424EF8043BF6
:1056E0004FEA1C44EBDC3CB1B368AB4207DD06EB90
:1056F000850301355C6135613046BDE8F081716834
:1057000038460131FFF76EFF804690B132690232B0
:1057100006F10C0192000C30FEF712FA31463846C1
:105720004646FFF79FFF06EB850301355C61356157
:10573000E2E7034B03484246BA21FEF77BFB00BF7A
:1057400068BB0524C0BB05242DE9F8431746274A4A
:105750001E4608330C46092E82FB03124FEAE37300
:105760000546C3EB620339DD4FF0010C00214FEA1F
:105770004C0C634501F10101F9DC2846FFF732FFCB
:10578000014668B3089B4361092F4FF00103036191
:1057900012DC0A340927BE420BDDF61B264414F83E
:1057A000013B0A22303B2846FFF780FFA642014614
:1057B000F5D10846BDE8F88304F10909C8463C4420
:1057C00018F8013B0A22303B2846FFF76FFFA0453F
:1057D0000146F5D1A7F108044C44DCE70021CCE7F1
:1057E0000A46034B0348D321FEF724FB398EE338E6
:1057F00068BB0524C0BB0524B0F5803F034636BF17
:10580000030400201020B3F1807F3CBF1B0208304E
:10581000B3F1805F3CBF1B010430B3F1804F03D371
:10582000002B06DB013070479B0003D45B0003D4E0
:10583000202070470230704703307047036813F030
:105840000702014607D0DA071FD4980721D55B0865
:105850000B600120704798B2A0B11046DAB20AB9C5
:1058600008301B0A1A0704BF1B0904309A0704BF3B
:105870009B080230DA0703D45B0800F1010006D070
:105880000B6070471B0C1020E8E7002070472020B9
:1058900070479B080B600220704700BF10B50C4694
:1058A0000121FFF79FFE024618B10123C0E904342D
:1058B00010BD034B034840F24511FEF7BBFA00BF91
:1058C00068BB0524C0BB05242DE9F04FD1F810803A
:1058D0001569A84585B00E46924605DB2A46534613
:1058E00045468A4690461E46DAF80830DAF8041033
:1058F00005EB0804A342B8BF0131FFF773FE8446ED
:10590000002800F08B8000F1140707EB840E774528
:1059100005D23B46002243F8042B9E45FBD81436A3
:1059200006EB88080AF11409464509EB850566D29D
:10593000A5EB0A03153B23F003030AF1150A043310
:1059400055452CBF9B464FF0040BCDF808E003945F
:10595000AE46E24605E0090C2AD1B04507F104073E
:105960004AD956F8041B8DB2002DF4D0CC463C46E3
:10597000002301965CF8040B216886B28AB2000C01
:1059800005FB0622090C1A4405FB001101EB12412C
:1059900092B242EA0142E64544F8042B4FEA114331
:1059A000E8D8019E47F80B3056F8041C090CD4D0F7
:1059B0003B68002248461D463C469446028801FB4F
:1059C00002C202EB15429BB243EA024344F8043B95
:1059D00050F8043B25684FEA134CABB201FB0C3383
:1059E00003EB124386454FEA134CE7D8B04547F81E
:1059F0000B3007F10407B4D8DDE902E4D446002CEB
:105A000002DC05E0013C03D05EF8043D002BF9D038
:105A10006046CCF8104005B0BDE8F08F034B044859
:105A200062464FF4B171FEF705FA00BF68BB05246A
:105A3000C0BB05242DE9F04112F0030382B01446E7
:105A400007462DD10E46A4101CD0FA698AB395687A
:105A5000002D39D0E3074FF0000806D4641011D0B0
:105A6000286898B10546E307F8D531462A463846F6
:105A7000FFF72AFF3146034638461E46FFF7F2FD80
:105A80006410EDD1304602B0BDE8F0812A462946C7
:105A90003846FFF719FF2860C0F800800546E2E7A6
:105AA000013B184A52F823200023FFF7FFFD06466A
:105AB000C9E71020FBF72CF80246F861E0B100239B
:105AC000C0E900338360C360012138460192FFF7CB
