:040000006F00902DD0
:100004000000000000000000A0000020AC0500205B
:10001400A9BDF9F3A00000200000000000000000CA
:10002400A0000020A000002000000000000000004C
:10003400A000002000000000A0000020000000003C
:10004400A0000020A0000020A0000020A0000020AC
:10005400A0000020A0000020A0000020000000005C
:10006400A0000020A0000020A0000020A00000208C
:10007400EA060020A0000020A0000020A00000202C
:10008400A0000020A0000020A0000020A00000206C
:10009400A0000020A0000020A0000020A00000205C
:1000A40001A0B7170040984B4111C107136707011E
:1000B40098C303C707001377E70F2380E7001307EC
:1000C400800873370780137787083AC60F1000003B
:1000D4003717004013070704930670052300D70061
:1000E400930680FA2300D7000F100000B7160040D3
:1000F400B046B705000695054D8EB0C6B71600404C
:1001040003C6B6041376F60DA385C604B7160040DD
:1001140003C6A600136626012385C600B716004051
:10012400130650142394C600B726004003C6568015
:100134001376F60EA382C680B72600400946A38331
:10014400C680371600408346E60493F6C60F93E64E
:1001540016002307D604B716004003C6F60213663A
:100164002600A387C60283C6070093E616002380F1
:10017400D70023000700B247F3A707800F10000041
:1001840041018280EFF0FFF1130580239705000001
:100194009385850A171600001306069463FAC500B2
:1001A4008322050023A0550011059105E3EAC5FE4D
:1001B40017D500E01305C56C9715000093850592CB
:1001C400171600001306860563FAC500832205008E
:1001D40023A0550011059105E3EAC5FE13850187A7
:1001E400973500009385459C6377B500232005006F
:1001F4001105E36DB5FE93025002739002BC8D426B
:10020400739042808542739012BC9302800873906D
:100214000230970200009382E2DE93E23200739090
:100224005230971200E09382029A73901234730052
:040234002030000076
:10023800411122C406C6370400201C408297F5BF2E
:100248003D6781471307073C854503C6118711C2DF
:100258008280850701000100E379F7FEA388B18653
:10026800EDB73D6781471307073C854503C60187FE
:1002780011C28280850701000100E379F7FE238817
:10028800B186EDB7B71700404111938787039843AC
:100298003AC694433247E39CE6FE324541018280E8
:1002A800411122C683A7818791C783A78187829737
:1002B80023AC01863244410173002030B7F70700B0
:1002C800D853411123AAE186B7170040984B13670A
:1002D800070198CB03C707011377E70F2388E700C7
:1002E80093078008F3B7078093F787083EC60F1077
:1002F8000000B7170040130770052380E7041307B1
:1003080080FA2380E7040F1000009307000C631C99
:10031800F502B717004003D78700498F2394E700F9
:10032800B717004003C70701136717002388E700C2
:10033800B717004023800704B247F3A707800F10C0
:10034800000041018280B717004003C7A7009376D9
:100358000520A907C9C6118B39E73717004003469E
:10036800E7048345E70493E535002307B70403C78B
:100378000700136747002380E700B717004003D73B
:10038800870083D5870093E5050C2394B700A5471C
:100398000100FD1793F7F70FE5FFB7170040239407
:1003A800E7002387C70493770510E9C7B71700400C
:1003B80003C7A700136707012385E700B727004095
:1003C8001377F5019387578005E303C70700136781
:1003D80007012380E700B72700401D4715A01367D2
:1003E80027002380E700C1B725466363E60603C7F5
:1003F80007001377F70E2380E700B727004005476B
:10040800A383E780B71700401367050C2394E70020
:100418002394A700B7170040D9CA03C75704938786
:10042800570483C70700418B858BD98FE39A07EE62
:10043800B717004083C72701C18BE38307EEB717BF
:10044800004003C7A7001377D70F2385E700C9BD6E
:100458001377050119EB03C707001377F70E2380FD
:10046800E700B7270040094761BF03C707001377B4
:10047800F70E85B7B7270040137785019387578014
:1004880001EF03C707001377F70E2380E700B727AC
:10049800004013071005ADB703C707001377F70E21
:1004A8002380E700B72700401307700591BF03C7F3
:1004B800A7001377B70F51BF37E700E01C43544339
:1004C8007D56A183E206D58F9306071890C2D0C245
:1004D800B706002037060020938606001306462A32
:1004E80003A8860390DE23ACA18691652320B7106C
:1004F8002320B72083A58187F5FD11662320C7181F
:100508000F10000023AC0603939687002320D71012
:10051800E1832322F710828001118146014681453B
:10052800114506CE512C93078008F3B7078093F73F
:1005380087083EC60F100000B717004093870704CE
:10054800130770052380E700130780FA2380E7006C
:100558000F100000371700408346670493E6160023
:100568002303D70423800700B247F3A707800F109F
:100578000000F2400561828037E700E01C435443E5
:10058800A183E206D58F1CC1FD572320F71823222B
:10059800F718828013178500B7E700E023A0E7105B
:1005A800618123A2A71082804111814601468145BD
:1005B8001145192413078008F3370780F98F3EC4C3
:1005C8000F100000B7170040938707041306700543
:1005D8002380C700930680FA2380D7000F100000FD
:1005E800B71500407D552396A50223800700A24534
:1005F800F3A505800F10000073370780137787086D
:100608003AC60F1000002380C7002380D7000F10C0
:100618000000371700408346670493E6160023035B
:10062800D70423800700B247F3A707800F10000004
:1006380001A09307E0043305F50295473355F50209
:1006480001007D1575FD8280411122C406C62A84E9
:100658007D1442041305803E4180E13F75F8B240A5
:100668002244410182802E96AA870F70B678828034
:10067800B717004041119387870398433AC69443BC
:100688003247E39CE6FE324541018280B7E700E04D
:100698003707001023A0E7208280411193078008C4
:1006A800F3B7078093F787083EC60F100000B71707
:1006B800004093870704130770052380E70013079A
:1006C80080FA2380E7000F1000003717004048DB4E
:1006D80023800700B247F3A707800F10000023A26A
:1006E800018841018280B71700401307000323885F
:1006F800E702054723A2E188730020302303048022
:1007080015472303E48001002302A4808280830725
:100718006480E3CE07FE230304808280830764801D
:10072800E3CE07FE03454480828083076480E3CEDE
:1007380007FE2302A4808280411126C44AC24EC00B
:1007480006C61377F50BAD47AA892E89954463062B
:10075800F70019456537653F8D444E854537FD5986
:10076800FD1463983401B240A24412498249410100
:100778008280135509011375F50F453F2209CDB73E
:10078800011126CC06CEB704080051371545BD37F0
:10079800713769372AC6A53F32459377150089EB2B
:1007A800136515001375F50FF240E2440561828068
:1007B800FD14E9FC0145CDBF3971B7F7070006DE26
:1007C80026DC4ADA4ED852D656D45AD25ED062CEF9
:1007D80003AB47027D57B7E700E083AA070022C6AC
:1007E80003AA470023A0E71823A2E718B71B004075
:1007F800930770052380FB04930780FA2380FB048A
:1008080083C74B041147AA8993E7070E2382FB0489
:10081800372400401305F00F2303E4802E8C32891F
:10082800B684E93DED35938779FF93F7F70F0947CC
:10083800137BFB006362F712A147370708006307C1
:10084800FB00B70707003E9C378707007955637E92
:10085800EC02B3878401636AF702A9476398F90633
:1008680089E481446D3526850DA0E2850945E93581
:1008780005090345F9FFFD14050C453D81C493772F
:10088800FC0FFDF7F53D69FD7D55B71700401307CF
:1008980070052380E704130780FA2380E70403C761
:1008A8004704418B2382E704F250B7E700E023A016
:1008B800571123A24711E25432445259C259325AAD
:1008C800A25A125B825B724C21618280A547639AAF
:1008D800F906A1478569631DFB029387F9FFB38673
:1008E8009700B374FC00B69493C7F7FFFD8C33FCF4
:1008F8008701416B856B9387F9FFB3F7870199E30C
:1009080063FF340193D94900C147E3E637FF91BF3C
:100918009307F00FE9B78567C169FD17C9B71305D4
:10092800800D63886901130500026384790113054A
:100938001008E2851135A93521D94E9CB38434417C
:10094800C1B7E2852D45CD3BCA94E30C99F0050962
:10095800F133A30FA9FED5BF9387F9FF93F7F70FDC
:10096800636FF70AA1476319FB06B70708003E9CA7
:1009780083C75B043707070093F7070299E33787B4
:100988000700B70708003E977955E370ECF0B30706
:100998009C00E36CF7EE8947639AF9048980D5498E
:1009A800E38104ECE2850945413B11090327C9FFAE
:1009B80091472320E48003076480E34E07FE230366
:1009C8003481FD17EDFBFD14110C81C49377FC0FE6
:1009D800E9FF7D3371F54DBD83C75B043707070019
:1009E80093F70702D5F33787070079BF8547E38474
:1009F800F9F2E2852D4589339389F4FFE38304E610
:100A0800313B93F7390091EB8326048003270900D3
:100A180093074900E398E6E43E89CE84F1BFB547E1
:100A28006396F9001305900BD13925BDB14713051D
:100A3800B00AE38BF9FE99476394F904A14763155B
:100A4800FB00B70708003E9CE2852D45F53181443F
:100A58000D4BA149E131639664018327048023206B
:100A6800F9008504E39834FF8327048013172C01C9
:100A7800635507002312F900EDB32322F900D5B31B
:100A88009D476399F90281451305B0047531BD444A
:100A98002320090023220900FD59493193F77400E6
:100AA800CA9703C70700FD14398D2380A700E39672
:100AB80034FF45BB91476399F900130560063D393A
:100AC800B931130590098DB7E38D09D8F15459BB95
:100AD80097110020938101ED17F1012013010152B4
:100AE8001305400097F5FF1F9385455117F6FF1F23
:100AF8001306067463FAC5008322050023A0550077
:100B080011059105E3EAC5FE17F5FF1F13054567B3
:100B180002853D432A876373C3029377F700BDEFCD
:100B2800ADE5937606FF3D8ABA960CC34CC30CC755
:100B38004CC74107E36BD7FE11E28280B306C3407E
:100B48008A069702000096966780A6002307B700DA
:100B5800A306B7002306B700A305B7002305B7000F
:100B6800A304B7002304B700A303B7002303B70007
:100B7800A302B7002302B700A301B7002301B700FF
:100B8800A300B7002300B700828093F5F50F939672
:100B98008500D58D93960501D58D61B7939627006D
:100BA8009702000096968682E78086FA9680C1179B
:100BB8001D8F3E96E374C3F8A5B74111114506C6CB
:100BC80022C49D2B1305503497F0FF1FE780006F58
:100BD800B7170040116423AC870AC145054519239E
:100BE8008545216585218D452285A929EF10E024B9
:100BF8002D2835651305C5FDA5203565130585FE2A
:100C0800EF10702BB7070400C85BEF10D02AEF1065
:100C1800A049EF10605AB707040083A7071C829702
:100C2800612697F0FF1FE780A0604111C145054587
:100C380006C622C44529B7170040116423AC870AA9
:100C480085452165012122858D45ED2EEF10E01E99
:100C58002244B24071651305052041016F10201B25
:100C6800411122C406C62A84EF10303493150501B9
:100C780022852244B240C18141016F10201F4111D9
:100C88009397050122C406C6C1872E8463D1070243
:100C9800B7070400FC57829709C5B7070400BC577B
:100CA80082972165218DB24022444101828093F7C9
:100CB800150089CFB7070400BC4F03C52187130669
:100CC800803E8945829713451400F1BF93F72500AC
:100CD800B9CBB707040083A7071D829737150020F3
:100CE800130585AD834705009306F00F3686FD177B
:100CF8002300F500A3880186B707040083A7C71C53
:100D0800A945829709E597F0FF1FE7806053B70769
:100D18000400BC4F03C521871306803E894582978E
:100D28001345240049B793F745008DCFB707040052
:100D380083A7071D829737150020130585AD8347C4
:100D480005009306F00F368685072300F5002388F3
:100D58000186B707040083A7871CA9458297134516
:100D6800440091B793F7850095CF3565130505FFC6
:100D7800EF107014B707040083A7872041458297B6
:100D88002A87B7070400BC4F03C5218701CB130688
:100D98004006A14582971345840031B71306803E6B
:100DA8008945CDBF13F50501E30F05EE356513053C
:100DB800C500EF105010B707040083A7C72013051C
:100DC800800C829709CDB7070400BC4F03C5218763
:100DD80013060019C145829713450401E9B5238814
:100DE8000186B707040083A7871C9306F00F371501
:100DF80000203686A945130585AD8297F1BFC947FE
:100E08006302F50E411126C206C622C44AC0B28446
:100E180063EBA70291476303F50463EFA7008947D3
:100E28002E846301F5048D476306F50EB240224413
:100E38009244024941018280C547E319F5FE0547FE
:100E4800A388E186E5B7930720026301F50A9307B3
:100E58004002630EF512D147E31AF5FC05472388D3
:100E6800E186E9B70547A388E186A9E98305060075
:100E7800356513058501EF10207883C514003565A5
:100E88001305C502EF104077B5671389470383C779
:100E98001400636AF4002244B2409244024929458E
:100EA80041016F104078B387840083C527004A85C5
:100EB8000504EF1060741374F40FD1BF93F7150095
:100EC80091C7356513058503EF10E07E098839DC85
:100ED8002244B24092440249356513054504410154
:100EE8006F10607D0547A388E186828035650547D8
:100EF80013058505A388E186EF10E07BB70704009A
:100F0800BC4BA1452244B2409244024903C5218703
:100F180041018287A9ED97F0FF1FE7808034838520
:100F2800040035651305C506EF10006D83C5140070
:100F380035651305C502EF10206CB56713894703A3
:100F480083C71400636AF4002945EF10C06DB70722
:100F58000400BC4B91457DB7B387840083C5270047
:100F68004A850504EF1040691374F40FD1BF93F755
:100F7800150091C7356513058503EF10C0730988FF
:100F880079D4356513054504EF10E072C9B73565A6
:100F980013050508EF10207205472388E186B70777
:100FA8000400BC4BC145B9BFB7070400BC47797101
:100FB80006D61306000222D481450A858297B70710
:100FC800040083A707080565130565C88297B74716
:100FD8007671938797123EC4B75755009387575534
:100FE8003EC6FD573ECA85472300F10085679387B3
:100FF80067E03EC8ED57230EF10091472389A1868B
:10100800A30CF100B707040083A7471C0A85829741
:10101800AA85356513054509EF10005E97F0FF1F97
:10102800E780202435651305850AEF10C068B707E7
:10103800040003C52187BC4BA1458297B2502254B6
:1010480045618280914763E4B706B5679387C723F4
:101058008A05BE959841B71700409387470B0287CA
:1010680098431345F5FF698F98C3B71700409387D6
:10107800070B9843698F98C3B71700409387070AEF
:101088009843798D88C3828094431347F5FFF98E7E
:1010980094C3B71700409387070B9443C98E94C332
:1010A800B71700409387070A9443758F98C38280C7
:1010B8009843498F98C3B71700409387070B984305
:1010C8001345F5FF45BF94431347F5FF758F98C344
:1010D800B71700409387070A9843498FC1BF9843C1
:1010E800498FF5B7B717004003D78701E10709C54E
:1010F8004D8F2390E700828093C5F5FF6D8FD5BF94
:10110800B717004003C777051377E70FA38BE704EA
:10111800B7170040130700F8A38DE7043D47238C59
:10112800E70413075003A38CE70403C7A705137745
:10113800D70F238DE7048280B716004083C7E604E3
:1011480012054111BD8B9386E60433E7A700930788
:101158008008F3B7078093F787083EC60F10000092
:10116800B717004093870704130670052380C7004C
:10117800130680FA2380C7000F1000002380E600C2
:1011880023800700B247F3A707800F100000410132
:101198008280B716004083C7E6020D89411193F794
:1011A800C70F9386E60233E7A70093078008F3B7D3
:1011B800078093F787083EC60F100000B717004056
:1011C80093870704130670052380C700130680FA67
:1011D8002380C7000F1000002380E600238007004B
:1011E800B247F3A707800F10000041018280411128
:1011F8002A838148130F407E130E0019930F40066F
:101208001318030113580801636D0F13337EC503C8
:10121800854E0D4FA14FFD4263EABE147D16B2986C
:101228007946C20893D808013307C70213D61700B6
:10123800858BBE0732976146B3F6C60213068070E7
:10124800B386C60236974207D98F3717004013076F
:10125800F7028346070093F60608A303D100034666
:1012680071008346070093F60608E314D6FE034789
:10127800710009EB371700401307F7028346710026
:10128800638506121307800873370780137787086A
:101298003AC40F10000037170040130707049306DD
:1012A80070052300D700930680FA2300D7000F109B
:1012B8000000B716004023AA1603371600408345DE
:1012C80016039386460393E505F8A308B6022300A0
:1012D80007002247732707800F10000037160040C9
:1012E8001306C60398420C422D8F93152701FDF96A
:1012F8001307800873370780137787083AC60F10DB
:101308000000371700401307070413067005230071
:10131800C700130680FA2300C7000F1000009CC204
:10132800B717004083C6170393E60604A388D702BD
:1013380023000700B247F3A707800F100000410100
:1013480082807D13B36EC3031308E016638E0E000C
:10135800B36EF3031308D01663880E0013783300B6
:10136800133818001308D816C29859BD6396E503B8
:101378000548630D0E0013034006337365020148E8
:101388006306030013783500133818007108FD153B
:10139800C205C298C18149B513F31500338862406C
:1013A800E3F7BFFE1308E301DDB78346070093F6B2
:1013B8000608A303D100034671008346070093F68D
:1013C8000608E314D6FE5DBD317122DD26DB06DF9B
:1013D8004AD94ED752D556D35AD15ECF62CD66CBB5
:1013E8006AC96EC7AA8402D813048008EF001014D3
:1013F800F3370480E18F3EDA0F1000003717004002
:1014080013070704930770052300F700930780FA72
:101418002300F7000F100000B717004083C6F7023B
:1014280093F6760FA387D70283C6F70293E6860062
:10143800A387D70223000700D257F3A707800F100E
:101448000000930B80C1B34B75039167938707E83E
:1014580013093002054C8149014AB347F502338923
:101468002B033EC2FD873ECABD67938707A6334953
:10147800F9021357F9413AC4330720413ACC935D36
:10148800F7411307A0FB3387EB02B347F7021307B3
:1014980050473EC6FD873ECEE1679387076AB3474C
:1014A800F5023EC8938724003ED0B317FC008D8711
:1014B800B387E7023ED2F337048093F787083EDC10
:1014C8000F100000B71C0040938C0C04130B700520
:1014D80023806C01930A80FA23805C010F100000BE
:1014E800371D004083463D05130D3D0593F6860FD5
:1014F8002300DD0083460D0093E616002300DD007F
:1015080023800C00E256F3A606800F100000F33685
:10151800048093F6860836DE0F10000093077005E6
:101528002380FC0023805C010F10000083460D001F
:10153800916593E606022300DD00B716004003D646
:1015480006054D8E2398C60403D60605E1754D8E13
:101558002398C60423800C00F256F3A606800F10C9
:10156800000083460D0093F606026388064883460A
:101578000D00A18AEDDE081897F0FF1FE780C0FF75
:10158800F336048093F68608B6C20F100000238055
:101598006C0123805C010F10000083460D009165EB
:1015A80093F6F60D2300DD0083460D0093E6060250
:1015B8002300DD00B716004003D606054D8E23989C
:1015C800C60403D60605E1754D8E2398C60423800C
:1015D8000C009646F3A606800F10000083460D0007
:1015E80093F606026382064483460D00A18AEDFE47
:1015F80097F0FF1FE78000C92AD497F0FF1FE78004
:1016080060C8A257E30BF5FEB716004003D60605DF
:10161800916542554D8E2398C60497F0FF1FE780C9
:1016280060F783460D00A18AEDDEB716004003D8A7
:10163800060583C6260511667D16B386C60292473F
:101648003378C80013D6F641C296B388F640D2471D
:1016580033B8060132983308F840A247B3B61601EA
:101668003308D84063C60701631BF8006379190182
:101678006343B83F63950D01E24763EEF83C894642
:1016880063FD463DF337048093F78708BEC80F1003
:1016980000003717004013070704130670052300DE
:1016A800C700930580FA2300B7000F100000B71792
:1016B800004083C637059387370593F6860F238046
:1016C800D70083C60700C58E2380D70023000700F4
:1016D800C646F3A606800F10000083C607009D8A41
:1016E800639796407337048013778708BACC0F1036
:1016F800000037170040130707041306700523007E
:10170800C700930580FA2300B7000F10000083C6B6
:101718000700116593F6F60D2380D70083C60700EE
:1017280093E606022380D700B717004083D6070543
:10173800C98E2398D70483D607056175C98E239867
:10174800D70423000700E647F3A707800F1000001F
:10175800B71700409387370583C6070093F606023C
:10176800638D063AB71A0040938A3A0583C70A0080
:10177800A18BEDDF081897F0FF1FE780E0DFF33754
:10178800048093F78708BED00F1000003717004079
:1017980013070704130670052300C700930580FA92
:1017A8002300B7000F10000083C70A00116593F7E4
:1017B800F70D2380FA0083C70A0093E70702238006
:1017C800FA00B717004083D60705C98E2398D704B7
:1017D80083D607056175C98E2398D70423000700AF
:1017E8008657F3A707800F100000B71700409387AC
:1017F800370583C6070093F60602638B063437174E
:1018080000401307370583470700A18BEDFF97F0CA
:10181800FF1FE78020A7AA8A97F0FF1FE78080A60E
:10182800E30C55FFB717004003D7070591664255EB
:10183800558F2398E70497F0FF1FE780A0D5371747
:1018480000401307370583470700A18BEDDFF33707
:10185800048093F78708BED40F100000B717004024
:1018680093870704930670052380D700930680FAB0
:101878002380D7000F1000008346070093F6F60D6B
:101888002300D70023800700A657F3A707800F106F
:101898000000B717004003D7070583C627059167DF
:1018A800FD17B386F6027D8F0566130606FA954581
:1018B80093D7F641BA9633B7E6003E97B31796002A
:1018C80063F595008257B317F60042469305800CDE
:1018D800B307F60213060010B3C7C7021306400683
:1018E800B387C7021306D007B3C7C70213D6F74199
:1018F800B387F640B3B6F600118F158FB306B7025B
:10190800330670413385B702B3B5B702B69595462D
:101918006346E00063110728638F072663F5962660
:1019280092573306F602BD67938707A63346F60239
:101938009356F641EF00D019130715003335A70069
:101948002E959357F5013E97B337F700AA979396CC
:10195800F7010583BA968587371700401307C70232
:101968006346F0006397072C6385062C035707002E
:1019780015833306D7003337E6003E976348E00007
:10198800631207369307F00F63FEC734894763F77E
:1019980037257334048013748408A2D60F1000000E
:1019A800B717004093870704130770052380E700E3
:1019B800130780FA2380E7000F1000003717004054
:1019C8008356C70209660116D18E2316D7022380D3
:1019D8000700B657F3A707800F100000FA506A54A3
:1019E800DA544A59BA592A5A9A5A0A5BFA4B6A4C33
:1019F800DA4C4A4DBA4D29618280F336048093F659
:101A08008608B6C00F10000023806C0123805C019B
:101A18000F10000083460D0093E606022300DD0048
:101A280023800C00864615BEF336048093F686089C
:101A3800B6C40F10000023806C0123805C010F10D6
:101A4800000083460D0093E606022300DD00238094
:101A58000C00A64641B6E3170AC23246F246931571
:101A6800180013D3F801139518009A9542D646D456
:101A7800EF0010063258050A137AFA0F634700017F
:101A8800631B0804A258638808041306150033353D
:101A9800A6002E959356F5013696B336D600AA962B
:101AA8000582FE06B2967336048013768608B2C69F
:101AB8000F10000023806C0123805C010F100000D0
:101AC800371600408355C602AE962316D6022380E9
:101AD8000C00B6460DBC1306F5FF13351500898DAD
:101AE80093D6F5013696B336D600AE9655BFF33683
:101AF800048093F68608B6CA0F1000002300C700BA
:101B08002300B7000F10000083C60700C58E23808E
:101B1800D70023000700D6466DBEF336048093F63F
:101B28008608B6CE0F1000002300C7002300B700B8
:101B38000F10000083C6070093E606022380D70033
:101B480023000700F646F3A606800F10000029B10F
:101B5800F336048093F68608B6D20F1000002300EF
:101B6800C7002300B7000F10000083C6070093E6E4
:101B780006022380D700230007009656F3A60680A6
:101B88000F100000BDB1B3179C008D871307504795
:101B9800B387E70279B3B3179C0063F6960093877F
:101BA8002400B317FC00130750478D87B387E7025B
:101BB8003306F602BD67938707A63346F6029356A7
:101BC800F64139271307F5FF13351500898D93D78B
:101BD800F5013E97B337F700AE9795BBF33704800E
:101BE80093F78708BED80F100000B71700409387F7
:101BF8000704130770052380E700130780FA238082
:101C0800E7000F100000B716004003D7C6020566AC
:101C180001161377F70F518F2396E60223800700EA
:101C2800C657F3A707800F100000850993F9F90F2D
:101C380059B033E6F6005DC6035707003336D000C7
:101C4800B307F040918FB305D04015836345F0008A
:101C5800D1EB6379B708894763F237057334048099
:101C680013748408A2DA0F100000B7170040938796
:101C78000704130770052380E700130780FA238001
:101C8800E7000F100000371700408356C702FD8A8F
:101C98002316D70223800700D6572DBBF3370480BD
:101CA80093F78708BEDC0F100000B7170040938732
:101CB8000704130770052380E700130780FA2380C1
:101CC800E7000F100000B716004003D7C6020566EC
:101CD80001161377F70F518F2396E602238007002A
:101CE800E65781B793078008F3B7078093F787080B
:101CF800BEDE0F10000037170040130707049307D4
:101D080070052300F700930780FA2300F7000F10EF
:101D18000000371600408355C60293975600AE97C9
:101D28002316F60223000700F6576DB1B7170040D7
:101D380003D7870021659306000C1377070CA107CA
:101D4800130505D06300D70403D7070013770710DE
:101D58001DCB03D7070083D707007D8B09EF3725F5
:101D6800F40093F707201305054089CF3755E8019C
:101D780013050580828037C59812FD8B130505E091
:101D88003345F502828003D7070083D7070013770E
:101D98000720FD8B11C73755E80113050580CDB71E
:101DA8003725F40013050540E1BFB7F700E0884781
:101DB8008280373700402145B736004081472D07DC
:101DC800AA9663C4C7003285828003480700E30EE1
:101DD800A8FE3388F500034808008507238006011C
:101DE800CDB7B7160020AA8703A5861A3737002073
:101DF800130747BAAA9763EAE7000A87130707FC9D
:101E08006365F70023A4F61A82807D55828041110C
:101E180022C406C62A84193F2947B307E502B240FF
:101E28008D83B3D7870222449507B3D7E7023737A4
:101E380000402316F70041018280716541111305A6
:101E4800052006C6E937B7370040130770F8238125
:101E5800E7000D47A381E70013070004A380E7000C
:101E680005472387E700B24041018280AA95C20551
:101E7800C18193170501C1836382F502B73700401A
:101E8800AD07214783C60700E38EE6FE034705003A
:101E9800B737004005052384E700E1BF828011457C
:101EA8006FF08FD2411193962500AA852D4506C65D
:101EB80097F0FF1FE7804090B240014541018280C2
:101EC8000111B717004006CE22CC26CA4AC84EC612
:101ED80003C4770583C9B70503C9870583C4970574
:101EE800EFF00FA2B717004003C7A7059387A70510
:101EF800136717002380E70003C70700058B6DFFF2
:101F0800B717004003D5C705A38D3705238C2705D0
:101F1800A38C9704A38B8704F2406244D2444249BD
:101F2800B2490561828041119397050126C206C610
:101F380022C4C187AE8463D20702B7070400FC57E6
:101F4800829709C5B7070400BC5782972165258D7C
:101F5800B240224492444101828093F7150013C590
:101F68001500FDF793972501096463D60702B707A3
:101F7800040083A7C71E82971D37B7070400BC4F0C
:101F880037F60200130606E003C50188A28582978A
:101F980033C5840075BF116433F5850055D935659F
:101FA8001305450B092FB7070400BC4F130600643F
:101FB800E1BF2D71FD77232821113379F500232CFA
:101FC800811023263111232441112A84AE89328AB3
:101FD800CA850A86930600102D45232E1110232A40
:101FE800911097E0FF1FE780207D85669387F6FFB5
:101FF8003375F400B7070400FC470A051396290057
:10200800D2850A958297CA8585660146254597E057
:10201800FF1FE780607A0A86CA8593060010294563
:1020280097E0FF1FE78040798320C11103248111C5
:1020380083244111032901118329C110032A811026
:102048001561828083A74187011106CE22CC26CA5A
:10205800BD8B21476399E700A93FF2406244D2440F
:10206800014505618280B7F70700DC532A84B284F2
:10207800BD8B939625006398E70093D7260093F7C6
:10208800F73F91C301A0A2850146254536C697E0D2
:10209800FF1FE7806072B2462686A285294597E031
:1020A800FF1FE780607155BF370704005C5F485B1E
:1020B8001D71B56586CEA2CC49469385850B82975E
:1020C80011E535651305C50CFD2301A0B7F700E040
:1020D80023A40700795798CB3D4798C30564B7E711
:1020E80000E023A087180F100000370700201447CE
:1020F8001306C00323AED186130700F8A38AE7406E
:10210800B7070400BC47814548088297B7170020E5
:10211800938747243ECA896793870780231CF10069
:102128009D673ECEB7070105938707103ED0ED4760
:102138002312F10285472303F10289679387C7EACF
:10214800BEC489679387C704BEC6930754D12314B6
:10215800F1028967938727DB3EDA8967938787ECE3
:102168003EDEB7F507008967938767EA8146700006
:10217800E1051945BEC097E0FF1FE780E0631946F7
:102188006C001305E102352BD24789C783578101BB
:1021980063F3870001A0B707040083A7470A48082C
:1021A8008297AA8511C535651305050EB12101A0D1
:1021B800F640664425618280B707040083A70708B4
:1021C8004111096506C622C41305E5F282972380EA
:1021D800A188292803C50188B70704002244B24012
:1021E800BC4F13060032896541018287397106DECA
:1021F80093068008F3B70680F58F3EC20F100000E3
:10220800B717004093870704130570052380A700BC
:10221800930580FA2380B7000F100000371700409D
:102228000346F7021307F7021376A60F2300C70029
:10223800238007001246732606800F100000F3B6AD
:10224800068093F6860836C40F1000002380A70086
:102258002380B7000F1000008346070093E626008E
:102268002300D70023800700A247F3A707800F1099
:1022780000000545EFE0FFF11D31054601478146A5
:10228800B28581471305407EEFE07FF6B70704006B
:10229800BC4768001306400281458297B707C0A86B
:1022A8003ECAB787E803938707D03ECCB70700201C
:1022B800938747673EC6B7070020938707693EC8DC
:1022C800B7070400FC5B68008297F25021618280A6
:1022D8002A8E2E83014763DB0500B337A000330342
:1022E800B0403303F340330EA0407D5763DB060054
:1022F800B337C000B306D0401347F7FF9D8E3306AF
:10230800C0403288B685F2889A876398061A356580
:1023180013050525637EC30AC1666374D60A93361E
:10232800061093B616008E06B35ED6007695034562
:102338000500AA9613050002638CA600158DB31735
:10234800A300B356DE003318A600D58FB318AE002D
:102358001353080133D56702131608014182B3F7F6
:102368006702330EA6029396070193D70801D58F0B
:1023780063F8C701C29763F4C70163FB07137D15B0
:10238800B387C741B3D66702C20893D80801B3F729
:1023980067023306D602C207B3E8F80063F8C8003C
:1023A800C29863F4C80063F80811FD164205558DFC
:1023B80001CBB337A000B305B0409D8D3305A040D5
:1023C8008280B70E0001E146E370D6F7C146A9BF87
:1023D800814609CAC1676373F6049336061093B63B
:1023E80016008E06B357D6003E9583470500930521
:1023F8000002B697639BB702B307C34085451353E2
:10240800080133D5670213160801418293D60801E3
:10241800B3F76702330EA602C20791BFB7070001E0
:10242800E146E371F6FCC14675BF9D8D3318B600D1
:10243800B356F3003313B300B357FE00B3E7670096
:1024480013530801B318BE00B3D56602131508016B
:102458004181B3F66602330EB5021396060193D690
:102468000701D18E63F8C601C29663F4C60163FB07
:102478000603FD15B386C64133D66602C207C1837B
:10248800B3F666023305C502C206D58F63F8A70006
:10249800C29763F4A70063FA07017D16C205898F06
:1024A800D18DB1BFF915C296F1B77916C297FDB7AC
:1024B8007915C297F1B5F916D5BD636CD312C1670A
:1024C80063FDF60293B5061093B515008E05B56742
:1024D80033D5B60093870725AA9783C70700930EBD
:1024E8000002AE976392D7033335CE00133515003B
:1024F800B3B66600558D814565BDB7070001E14556
:10250800E3F7F6FCC145E1B7B38EFE40B355F600DC
:10251800B396D6013358F300CD8E3313D301B35796
:10252800FE00B3E5670013D30601B357680213959D
:10253800060141813316D60133786802330FF5025C
:102548009318080113D80501336818016378E80166
:1025580036986374E8016378D808FD173308E841B2
:10256800B3586802C205C181337868023305150380
:102578004208B3E5050163F8A500B69563F4A50024
:1025880063F6D506FD18C20713180601898D33E5D1
:102598001701C20893D8080193560501135808017A
:1025A8004182338308033388060393570301B388B2
:1025B800C802C298C697B386C60263F4070141668B
:1025C800B29613D60701B29663EDD5004203C2074F
:1025D80013530301331EDE019A97E37EFEF0E39C5A
:1025E800D5F07D1509BFF91736988DBFF918B6953E
:1025F80059BF814501456DBB371300200323C31A1A
:10260800397132D436D62ED23AD83EDA42DC46DE9A
:102618008325830054102A861A8506CE36C6C52A15
:10262800F24021618280B717002083A7C71AAA85C4
:1026380090473E856F20702C397122DC2A842E85C4
:102648002EC606DE9D22B245B56758589308150078
:102658009387470A0548101089462ED02AD246CEBD
:102668003ED442D632CA36CC0C4415CF0397C500A7
:10267800FC5109669316270163C90600F976FD1611
:10268800518FF58F2396E500FCD1139727016342FC
:10269800070222855008EF20006C01ED2945F25011
:1026A80062542161828022852EC6EF202069B245BE
:1026B80075BF7D55EDB7B7170020AA8503A5C71AC2
:1026C800A5BFB3C7A5008D8BB308C500B1E7133606
:1026D800460039E2937735002A87CDE713F6C8FF1D
:1026E800B306E6409307000263C4D704AE86BA87F0
:1026F8006371C70203A806009107910623AE07FF7E
:10270800E3EAC7FE7D16198E719A91051107B295F5
:1027180032976366170182802A87E37E15FF83C795
:10272800050005078505A30FF7FEE39AE8FE8280FA
:10273800944183A2450083AF850003AFC50083AEF3
:10274800050103AE450103A3850103A8C50114C310
:10275800945113074702232057FE232ED7FE232226
:10276800F7FFB306E6402324E7FF2326D7FF2328F5
:10277800C7FF232A67FE232C07FF93854502E3C979
:10278800D7FAADB783C60500050793773700A30FBF
:10279800D7FE8505A1D783C60500050793773700BF
:1027A800A30FD7FE8505F9FF15BF937735002A8754
:1027B8009DEFB7867F7F9386F6F7FD551043110787
:1027C800B377D600B697D18FD58FE389B7FE834606
:1027D800C7FFB307A7408DCA8346D7FF9DC20345ED
:1027E800E7FF3335A0003E9579158280F9D28347FB
:1027F8000700050793763700F5FB098F1305F7FFE8
:1028080082801385D7FF82801385C7FF828021715C
:10281800232E111A232A911A2328211B2328A119B0
:1028280036C6328DAE842A89EF20904D1C413E85F4
:102838003ED4A53F2AD282C16307090083274903F2
:1028480099E36F1080430397C400FC500966931600
:10285800270163C90600F976FD16518FF58F239677
:10286800E400FCD013972701635407006F10D05081
:102878008397C40013F787006302071E9848630F05
:10288800071CE98B29476388E71EB5672326311B98
:102898002324411B9309C10D356A93870735232CDF
:1028A800811A2320611B2322511B232E7119232CEB
:1028B8008119232A91192326B11902DF02DD4EDB83
:1028C8004E8B3ECA130ACA4B02CC02D602D882C229
:1028D80002DA02C4414426C283470D00EA8A1387FC
:1028E800B7FD29C3A1C3568C83C71A00850A81C7BF
:1028F8001387B7FD6DFBB38CAA416385AA03FA570A
:102908006A552320AB01E697050523229B013EDF8C
:102918002ADD9D47210B63C5A718A247E6973EC449
:1029280083471C0099E36F10A04283C81A00138DD7
:102938001A00A3090108FD5A02C0814B130CA00517
:10294800050D938708FE636DFC0252478A07BA9704
:102958009C438287938708FD02C0A546024702462A
:1029680083480D000A0732970607BA973EC0938737
:1029780008FD050DE3F4F6FE938708FEE377FCFCFB
:10298800639408006F10C03C854C230E1111A309F5
:102998000108668C02C8814A02D002CE01437C0A33
:1029A8007A5693FD4B08328863870D5003473109E7
:1029B80031C3EA550147130531092320AB00050649
:1029C800054585052322AB0032DF2EDD1D45210B91
:1029D800634FB53805C3EA5558092320EB000906AB
:1029E800094785052322EB0032DF2EDD1D47210B29
:1029F800E34CB74013070008E383ED2EB38A9A41EE
:102A08006348504D13F70B10631107562320FB0042
:102A1800EA57669632DF850723229B011D473EDD74
:102A28006342F742210B13FE4B0063070E008247F7
:102A3800B38A8741E34A503F024363538301628369
:102A4800A2479A973EC4E3130634C24702DD89C7FA
:102A5800C2454A85EF20D0624E8BBDBDA6854A850A
:102A6800EF20D00B19C16F1030318397C40029476C
:102A7800E98BE39CE7E08397E400E3C807E0B2460C
:102A88006A86A6854A85EF10F0692AC46F00D0349B
:102A980083480D0075B583480D0093EB0B024DB5C7
:102AA800924550194A85EF10F07019C16F107045A2
:102AB8004E8BA5B593F78B00E390076CB2470801DE
:102AC80046C89D07E19BD0438C43A1073EC6EFA0B3
:102AD80020360A469A462A47BA47C248880146C855
:102AE800BEC7B2C1B6C3BAC5EF30E0142ACD894714
:102AF800C2486314F5006F10001F85476314F50082
:102B08006F10202F13FCF8FD930710046304FC00DA
:102B18006F10C03193070003230AF108130710064A
:102B2800930780056394E8006F10606BA30AF108AF
:102B38009307300663D457016F10E0673E478E460F
:102B48001E46AE45635407006F10903502DC02C87C
:102B58007C0A930D0108BEC0B2DA93E72B00AEDC05
:102B68006E858C18300946DE3ECEB6D8BADEEF2028
:102B780010362A470A469A46BADC3A47B2D8B6DA35
:102B88009010B706FC3F8C186E85B6D6BADE82D098
:102B980082D282D4EF80D0110A4E1A482A468C1865
:102BA8006E8572D642D032CC82D882DA82DC82DE5E
:102BB800EF80A065BA4B62460258325EF2588647EB
:102BC80019E1854636CD930610066394D8006F1038
:102BD800104CB566138746123ACC5AD0DE8CCAC45C
:102BE800E2443E8C46D63EDEEAC0428BB28B728906
:102BF8000DA08C186E854AC15AC35EC566C782D8B7
:102C080082DA82DC82DEEF80406019E16F10503496
:102C1800FD1AB707034090108C186E85BED6CAD827
:102C2800DADADEDCE6DE82D082D282D4EF805008A7
:102C38006E85EFA0E009AA852A8D6E858A4C9A4B8D
:102C48002A4B3A49EFA04012AA470A469A46BECCF8
:102C5800BA47B2C88C1090088818E6D0DED2DAD409
:102C6800CAD6B6CABECEEF90202BB387A40183C6BE
:102C78000700E285050C4659565BE65BF65CA30F38
:102C8800DCFEE3980AF6B258F2574A8E5A885E86F6
:102C9800AE84E68BB70AFE3F8C186E85C6C63ED654
:102CA8002649EA8C72C1064DF2C442C3C2C032C57D
:102CB80032DE5EC782D882DA82DCD6DEEF8000613F
:102CC800025BB257B648634EA0008C186E8546D09A
:102CD800EF80A0538258B25731E593FC1C00638300
:102CE8000C04624726D10346FCFF8345F700628740
:102CF800639EC50013050003A30FA7FE0A5793069A
:102D0800F7FF36D10346F7FFE388C5FE93051600A3
:102D18001305900393F5F50F6314A6006F10A071C7
:102D2800A30FB7FE6A461387F8002302E10AB30629
:102D3800FC401307F6FF3ACD36CC635407006F10FA
:102D4800D0359306B002A302D10AA54663D4E600A3
:102D58006F10E0639306610A130707032380E600F8
:102D68001803998E1387D60D3AD66F10C06892450E
:102D780050194A859AC4BEC046DE3ADCEF1090432B
:102D8800E31D05007A5626438647F25862574E8B54
:102D980091B1EA5AE24605473A96BA9A930D8B00E2
:102DA800E352D72C05472322EB002320FB0032DF18
:102DB80056DD1D47E349575D1257850A56DD3A9699
:102DC800225732DFA10D23ACEDFE125723AEEDFEE4
:102DD8001D47E34C57592E470E459E453ED03AC5F0
:102DE800E2473E472AC12EC308018C1832CE82D84A
:102DF80082DA82DC82DE3AC7138BF7FFEF80E0408D
:102E08007246E30A05288257850A5A96850756DDD1
:102E180032DF23A0FD0023A26D019D47E3C15727A0
:102E2800A10DB257B25658113E9693871A0023A0A7
:102E3800ED0032DF3EDD23A2DD001D47138B8D0040
:102E4800E353F7BE924550194A85EF10B036631622
:102E580005747A564E8BC1BEB2473247A3090108A2
:102E68009C4393044700E3800742E3CD0A4A3E852A
:102E78005686814546CE3EC6EF2060592AC803478C
:102E88003109B247F24819E16F106070B30CF54090
:102E980093C6FCFFFD8633FCDC00E316074A26C612
:102EA8007A5602C802D002CE93FD4B08814A0143EC
:102EB8003288E39D0DAE024733078741E349E018A6
:102EC80003473109E31707AEB38A9A41E35C50B36D
:102ED8003568EA551308C84B635A5405D6843EDE54
:102EE8009D4DDA8746DC9A8A528B21A0C11463591A
:102EF80094024106850523A04701C0C332DF2EDDB9
:102F0800A107E3D5BDFE924550194A85EF10902AD6
:102F180063150568C1147A56EA55CE87E34B94FCCD
:102F28005A88E2583E8BF2575683A68A56968505EC
:102F380023200B0123225B0132DF2EDD1D47210BED
:102F4800E352B7AC924550194A859AC03EDE46DC3A
:102F5800EF1050266313056413F70B107A560643D7
:102F6800F257E2584E8BE30307AA13075006E352C1
:102F780017E31E478E452E453AC33E472EC12AC544
:102F88008C18080132DE3EDC9AC082D882DA82DCF4
:102F980082DE3AC7EF806027E2577256064363160F
:102FA8000574EA573567130707142320EB00050655
:102FB800054785072322EB0032DF3EDD1D47210B45
:102FC800E342F74CEA476247E3D0E7121257EA5761
:102FD800210B3A962257850732DF232CEBFE125736
:102FE8003EDD232EEBFE1D47E34EF720E247938A92
:102FF800F7FFE35A50A33568C14CEA579D4D930437
:10300800C84B63C65C0145AFC11AE3DE5C4B4106A1
:10301800850723209B0023229B0132DF3EDD210B05
:10302800E3D4FDFE924550194A85EF10B018631697
:1030380005567A56EA574E8BC1BF93F70B02D5E374
:10304800B24713F70B01910719C36F10205AB24604
:1030580013F70B0403AC0600E3070756420C135C96
:103068000C41935EFC413EC676876348070863C6F9
:103078000A0AB367DC0193FBFBF7C5E3639F0A0801
:10308800834E3109E38E0E54014C014302C8814C32
:10309800814A1C03050C631403006F10F0077A566D
:1030A800EA5593FD4B08090C32882E8563810D542F
:1030B80002D002CE0143E3810E920947EDB8B24730
:1030C800854CA30901089C43230EF110B2479107D0
:1030D8003EC6C1B093F70B0213EE0B01E38207085B
:1030E800F28BB2479D07E19BD8439386870036C68B
:1030F80003AC0700BA8EE35C07F6B3378001B30E62
:10310800D041B38EFE409307D002A309F108330CD7
:10311800804163C40A0093FBFBF763940E20A54724
:1031280063E18721130C0C03A30F8117568CE3521C
:103138005007834E31090143854C9307F11702C8A4
:10314800E38B0EF4050C81BFB2479C433EC063D3AA
:10315800077A8247B307F0403EC0B24791073EC6A0
:1031680083480D0093EB4B006FF08FFD9307B0027F
:1031780083480D00A309F1086FF08FFC83480D0008
:1031880093EB0B086FF0CFFB83480D009307A00269
:1031980093061D006394F8006F10006D938708FD77
:1031A8002546814A6360F60213972A0083C8060001
:1031B800BA9A860ABE9A938708FD8506E376F6FED4
:1031C800E3CE0A02368D6FF0CFF74A85EF20403301
:1031D8005C413E853EDAEFF04FDDAA844A85A6C2FF
:1031E800EF200032184583480D003AD8638A04F46A
:1031F800630807F483470700638407F493EB0B40E5
:103208006FF00FF483480D0093EB1B006FF04FF342
:103218008347310983480D00639407F2930700023E
:10322800A309F1086FF0CFF193F70B0293E60B01B6
:103238006384076EB2479D07E19B138787003AC6F0
:10324800D0439843A309010893FBF6BF63CB0A4414
:10325800B367C70093FBF6B76395074463930A44C3
:1032680013FC160063070C5E93070003A30FF11607
:10327800E28C02C802D002CE01439307F1176FF027
:103288002FF283480D0093078006638FF87893EB3D
:103298000B046FF0EFEA324793F70B0211076394C0
:1032A800076893F70B01E394072893F70B04E3925D
:1032B800075C13FE0B20E30C0E26B247A2463AC663
:1032C8009C432380D7006FF02FE183480D009307BC
:1032D800C0066384F87493EB0B016FF06FE693F705
:1032E8000B02639F071A93F70B0199C36F10A02F66
:1032F800324793F70B04032C070011073AC6E38300
:10330800072A420CA3090108135C0C01814EE3C68D
:103318000AE033E38A0193FBFBF7630C0310E380B5
:103328000EE0B7DCCCCCB7DDCCCC938CDCCC938D69
:10333800CDCC13F80B4081451003C68495A04257A5
:1033480003470700930617F099C2E30AB71462838C
:1033580076853E863307DC01B33687013697B33668
:10336800970313DE2600F19AF296158F3307EC4087
:10337800B336EC00B386DE40B3869603B30EB703CC
:10338800333E9703F69633079703F296139EF6019A
:1033980093DE16000583330CEE0019E16F10401E12
:1033A8003307DC01B3368701BA9633B59603850532
:1033B8009307F6FF1353250071991A95898EB30662
:1033C800DC403335DC003385AE4033B39603330538
:1033D8009503B38696031A957E058582AA9613955A
:1033E8002600AA968606B306DC4093860603A30F3A
:1033F800D6FEE31608F4628376853E86B1BFA167E0
:10340800938707833247231AF108B247A3090108B3
:1034180018439107014663C70A5813FEFBF7936BDD
:103428002E00E31D0710E39B0A103EC609439308CC
:103438008007834E3109814A014C814C1C0302C824
:1034480001B393F70B0263940754B24713F70B01C8
:10345800910719C36F104018324793F60B041843AD
:10346800E3870612420741833EC6DE860146D9BB82
:1034780093F70B0213EE0B018DE7B2473247A3090E
:1034880001089107032C0700814EE3C40A1C3EC6BD
:10349800937BFEF7E3150CC8E3930AC8014351BFB9
:1034A8005E8EB247A30901089D07E19B1387870039
:1034B8003AC603AC070083AE470063CE0A52937B3B
:1034C800FEF7E39C0AC4B367DC01E39807C4014331
:1034D8008DB783480D0093EB8B006FF06FC60247E2
:1034E800B30D8741635CB0D1C14EEA55356863C4FA
:1034F800BE016F100018EE843EDEEA8DDA879D4229
:10350800568B46DC1A8D930AC84B21A0C11463DB85
:103518009E024106850523A0570123A2D70132DF69
:103528002EDDA107E3D4B2FE924550194A85EF106B
:10353800604825E5C14EC1147A56EA55CE879D42AA
:10354800E3C99EFC5688E258DA8A3E8BF2576A83B2
:103558006E8DA68D6E96850523200B012322BB0157
:1035680032DF2EDD1D47210B635AB7C8924550192B
:103578004A859AC03EDE46DCEF10C04319ED7A5604
:10358800E258F25706434E8B6FF04FC792455019D9
:103598004A85EF102042630A05CAC245924481C594
:1035A8004A85EF20E02D83D7C4000324811B83299B
:1035B800C11A93F70704032A811A832A411A032B95
:1035C800011A832BC119032C8119832C4119832DCE
:1035D800C11899C36F00507A8320C11B22458324E8
:1035E800411B0329011B032D011939618280024700
:1035F80002D002CE3307874101436341E01C638D4B
:103608000EBC09476FF02FBB924550194A859AC0E6
:103618003EDE46DCEF10003A49F17A560643F2578F
:10362800E2584E8B6FF00FBDC14CEA57356863C442
:103638005C016F00D07A92449D4D930BC84C21A039
:10364800C11A63DA5C034106850723207B01232224
:103658009B0132DF3EDD210BE3D4FDFE5019A68528
:103668004A85EF102035631A0562C11A7A56EA575F
:103678004E8BE3CA5CFD5E885696850732DF3EDDD9
:1036880023200B0123225B011D476357F7BA92459C
:1036980050194A85EF100032E31105F07A566FF0A1
:1036A800AFB91C039315D601937677000D833E8539
:1036B8002E97938606030D82B365C700A38FD7FEA6
:1036C800FD17EDF1938606FD89C613F71B006316F7
:1036D80007261803B30CF740568C63C89A2302C810
:1036E80002D002CE01436FF0AFAB6A45635EA04ED5
:1036F80062479A8A634D672E635F50016A575696F0
:103708002320FB00050723225B0132DF3ADD9D45BC
:10371800210BE3C1E50E13C7FAFF7D87B3FAEA0070
:10372800B30A53416341503913F70B40B38D670017
:10373800631C0772EA4A624763C6EA0013F71B0074
:10374800E30B071092566A579D453696A256050711
:1037580032DF2320DB0092563ADD210B232EDBFEDD
:10376800E3C4E5566247BA97B38CB741B30A5741E9
:1037780063D39A01D68C635F90016A5766962320BB
:10378800BB01050723229B0132DF3ADD9D47210B50
:10379800E3CFE76013C7FCFF7D87B3F7EC00B38A7C
:1037A800FA40635250A93568C14CEA579D4D9304BD
:1037B800C84B63CD5C351308C84B39A3894DC14E3E
:1037C8004286AA853568E3D0EE5E3EDED6C0DA874B
:1037D8009D43BA8446DC1A8B930AC84C21A0C114B5
:1037E80063DC9E024106850523A0570123A2D70169
:1037F80032DF2EDDA107E3D4B3FE924550194A8586
:10380800EF10401BE31B05D8C14EC1147A56EA5588
:10381800CE879D43E3C89EFC5A8356883E8BE25868
:10382800F257864A26873A9685052322EB0032DF2F
:103838002EDD23200B011D476340B73803473109AC
:10384800210B61E3638C0D9A814D6FF0EF986A55F7
:10385800BDB7814C814A02D002CE014302C81C0385
:103868006FF00F94B3F5EB00639E05D22320FB00A5
:103878002322EB0032DF56DD9D4763D457DB9245A8
:1038880050194A85EF100013E31905D07A56EA5A01
:10389800CE8D6FF00FD96247854763D4E7D8C54707
:1038A800356863C4E7006F00D07DC14C9D47930421
:1038B800C84B21A0411B63DF6C4B4106850A23A03E
:1038C8009D0023A29D0132DF56DDA10DE3D457FFF1
:1038D800924550194A85EF10E00DE31005CC7A5651
:1038E800EA5ACE8D9D47F9B793F71B00638D07926F
:1038F8006FF0CFEDB24783480D0091073EC66FF0D9
:103908002F846E87814D6FF00F8B668C02C802D0B2
:1039180002CE01436FF0CF88B24791073247014684
:103928003EC6184305B2B247A24622469C43FD86CE
:103938003AC690C3D4C36FE03FFA79151307000362
:103948001403B38CA640A38FE7FE568C63D39A0169
:10395800668CAA8702C802D002CE01436FF04F845A
:10396800B24791073247F28B3EC6032C0700935E9D
:10397800FC4176876FF06FEFB24732479C431107DF
:103988003AC69043D4439847DC476FF02F95DE86BC
:1039980055B0834E3109054C0143854C9307F11707
:1039A8006FF0EFF9B56593EB2B003EC693850511D3
:1039B8000943814E930880071C039376F700AE965F
:1039C80083C606001183FD172380D7009316C6010E
:1039D80036971182B366C700EDF21803B30CF740AF
:1039E800568C63DE9AF5668C02C86FF06FF5BA8A5A
:1039F800E34650D10DB3F28B6FF02FF2FD5A368D9E
:103A08006FE03FF4924550194A85EF00B07AE3160B
:103A180005B87A564E8B6FF06FDD83481D0093EB27
:103A28000B02050D6FE0DFF183481D0093EB0B20BF
:103A3800050D6FE0FFF0B5659385451293F70B020E
:103A480063860710B2479D07E19B138787003AC634
:103A5800D043984393F71B00B366C70099C3639C90
:103A6800061EA309010863C40A1493FBFBB70143AC
:103A780063940A00E38F069A834E310935BFB56512
:103A88009385051165BF9947568C63E35757B5670A
:103A980026C69387871302C8E28C814A02D002CED9
:103AA80001436FE0FFEFC1486A573568E3DE5861AC
:103AB800D6849D4CBE8D1ADC930AC84B21A0C11434
:103AC80063D9984E4106050723205B0123221B0179
:103AD80032DF3ADD210BE3D4ECFE924550194A85DA
:103AE800EF00506DE31B05AA7A566A574E8BC14802
:103AF800F9B7924550194A85EF00D06BE31F05A826
:103B08007A56EA574E8BC11A63DF5C1B410685075C
:103B180023209B0023229B0132DF3EDD210BE3D4CF
:103B2800FDFEC1BF3E8546C83EC6EFE01FC803473D
:103B380031099346F5FFFD86B247C248AA8C337C0B
:103B4800D500630E07B4050C6FF06FB5B246324767
:103B580093F70B01910636C61843A1EB93F70B04B4
:103B6800A9C3420741830146F5B5924550194A85D4
:103B78003ECEEF003064E31205A27A56EA5AF247C5
:103B8800CE8D6FF04FA5924550194A853ECEEF0075
:103B98007062E31405A07A56EA5AF247CE8D6FF0A8
:103BA800AFA193F70B20639B074E014665B593FBC6
:103BB800FBBF0143814E09B5924550194A859AC009
:103BC8003EDE46DCEF00105FE319059C0347310930
:103BD8007A56E258F2570643630707186E87EA5584
:103BE800814D4E8B6FE03FDD6A57B56593850514AF
:103BF8002320BB000506854505072322BB0032DFCD
:103C08003ADD9D45210BE3C0E5086247498F630211
:103C1800074092566A579D453696A256050732DFE9
:103C28002320DB0092563ADD210B232EDBFE63C6F0
:103C3800E540E340051CE24605072320FB003696D5
:103C480032DF3ADD2322DB009D4763C4E7006FE0E3
:103C58007FDD6FF02F9F93070003A30A1109A309C3
:103C68000108230AF10863CA0A1E13FEFBB7834E34
:103C78003109936B2E00094381B34A85EF10000C7C
:103C88006FE07FBC924550194A85EF00B052E316A9
:103C980005907A564E8B6FF0EFB2C24509B2639F1A
:103CA8000E422547636C874318032ECCB30CF740AC
:103CB800A688568C63D39A01668C834E31090143DA
:103CC80002C86FF0EFC726885696850732DF3EDDBB
:103CD80023200B0123225B011D476344F7006FE09B
:103CE8007FD46FF02F960E479E478C183AC13EC37B
:103CF8002E47BE47080182D882DA82DC82DE3AC5C6
:103D08003EC7EF70C06BC24893FBFBF7634B057C63
:103D1800930770040347310963CE173BB567938750
:103D28000710631C070E8D4C668C6FF06F97B247B7
:103D3800A2469C4394C33AC66FE01FBAB565834E4A
:103D480031093EC693850511094393088007ADB133
:103D5800FA579244E38907844A855019A685EF00EB
:103D680070456FF05F8463830D30EA55814D4E8B4B
:103D78006FE09FC626885A96850A32DF56DD23A053
:103D88000D0123A26D019D4763DC5789CDBC93F6D5
:103D98000B20638906301377F70F3EC6DE8601468F
:103DA8006FF04FCA13F30B20A30901086311032E08
:103DB800814E63C60AB693FBFBF763920AB6630AA1
:103DC8000CE66FF0CFB513F70B20630C072A620CD3
:103DD800135C8C41935EFC413EC676876FF0EFA87A
:103DE80002C8814C02D002CE01431C03014C6FE093
:103DF8003FBBBE4FB707008093FBFBF733F3FF00D1
:103E08006307032A9307D002A309F10893077004F4
:103E1800E3DB1713B5679387C71002C88D4C814A37
:103E280002D002CE0143114C6FE09FB713E70B108D
:103E3800FD573AC88E4E1E4FAE42BE4C6385FA3AC5
:103E480093079CFB99E3638E0A46E3C90C0202DCE4
:103E580079AE3EC6F28B6FF08FAC13FEFBBF936B4F
:103E68002E000943814E89BE72478256558FE30E54
:103E7800072662475EDEE2C0EE8BEAC4F24A825D44
:103E8800164C425DB568DA869388C84B1D48C14C0C
:103E98003EDC338BE7006345B0077D1DFD1AEA570A
:103EA80052576296850798C223A2860132DF3EDD0B
:103EB800A1066340F80C83450D00B3047B415A8783
:103EC80063D39500AE84635F9000EA55269632DF8F
:103ED800850523A07601C4C22EDD634AB80A83454E
:103EE8000D00A10613C5F4FF7D85B3F7A400B384C4
:103EF800F54063499000AE9BE34F50F96357B03BE0
:103F0800FD1D71BFB562EA559382C24B63D69C040E
:103F18003ACE46D021A0C11463DE9C024106850535
:103F280023A0160123A2960132DF2EDDA106E35459
:103F3800B8FE924550194A85EF00D027631F05E463
:103F4800B567C1147A56EA55CE869388C74B1D4883
:103F5800E3C69CFC724782522696850532DF2EDD29
:103F680023A05600C4C26340B85483450D00A1067F
:103F780059B7924550194A85EF00D023631F05E0D1
:103F8800B5677A56CE869388C74B1D482DB792459C
:103F980050194A853ACEEF00F021631005E0B56765
:103FA80083450D007A567247CE869388C74B1D48C5
:103FB80015BF62535688EE87A68A569605072320B2
:103FC8000B0123225B0132DF3ADD9D45210B63DDC6
:103FD800E5F4924550194A851ADE3EDCEF00901D43
:103FE800631D05DA7A567253E2574E8B6FF0CFF3A2
:103FF8003E8C71BC924550194A851ADE3EDCEF00B2
:10400800701B631C05D87A567253E2574E8B6FF0BB
:104018008FF013F71B0019E36FE0FFA092566A5761
:104028009D453696A256050732DF2320DB009256BF
:104038003ADD2322DB0063D5E546924550194A85CF
:104048003ECEEF003017631A05D46A457A566A5790
:10405800F2474E8BF9BE6247BA97B38CB741B30AA1
:10406800574163D99AF3D68C6FF0CFF24E8B6FE03D
:10407800FF98B247A2463AC69C432390D7006FE008
:10408800BF85935EFC413EC676876FE01FFE137CBA
:10409800FC0F814E63DF0AA66FF02F881377F70FA6
:1040A80001464DBA3EC6DE8601466FF0AF999307CA
:1040B80070040347310963D21765B5679387C71042
:1040C800E31D07008D4C668C814A02D002CE02C8DF
:1040D8006FE01F8DB56793874710A1B11647D2557A
:1040E80076CEB386E7403A86368542CC36C8EF109E
:1040F800A039F24E37D6CCCC1306D6CC3307DC0128
:10410800B33787013E97B335C70237D5CCCC1305F3
:10411800C5CCC257C256624883C71700B337F000F0
:1041280093D82500F199C6950D8F3307EC40B33528
:10413800EC00B385BE403305A702B697C2463ED809
:104148009387F6FFB385C502AA953335C7023307AF
:10415800C702AA951395F50193DE150085450583D9
:10416800330CE5003307DC01333587012A973335F3
:10417800C7029358250071994695098F3307EC407B
:104188003335EC003385AE40B338C7023305C5027A
:104198003307C702330615017E06058332971316C7
:1041A8002700329706073307EC4013070703A38F4E
:1041B800E6FE6FF0CF9893851A004A8546C8EF301F
:1041C8006009C248AA87630D05723E472AC88E4611
:1041D8001E46AE456348074C02DC6FE09F97930785
:1041E80080076FE0BF9463CA0C4802DC994A9307C2
:1041F80060046314FC307C093809D6860C01130866
:10420800010A0D464A8546DE76C176D07AC37ACE53
:1042180016C516CC66C7EF101009834605001307AC
:104228000003E242724F825EF258AA87B304550136
:104238006381E656EA4D08018C183ECE66C746CC27
:1042480076C17AC316C582D882DA82DC82DEEF6054
:10425800D07BF247B38CB4016E8363150552338764
:10426800FC403ACC13F71B0033675701635E605A72
:10427800631607549A8C9308600613FE0B40631765
:104288000E4893C6FCFFFD8633FCDC006257630FC3
:1042980007321307D002A309E108050CC24B814A73
:1042A80002C802D002CE6FE0AFEFDE8D6AD8E257C7
:1042B800F25B064C264D368B637EB7C7BA8D6FF01E
:1042C8006FC702DC63D90C00B7070080B3CCFC00D1
:1042D8009307D0023EDC930D01087C09EE85130894
:1042E800010A3809854609464A85C6C076C176DE80
:1042F8007AC37AD016C516CE66C7EF10C07AF242D6
:10430800025FF25E8648854AAA8756CC13F71B00DF
:10431800630807126E858C183ED046CE76C17AC3E4
:1043280016C566C782D882DA82DC82DEEF60F06D5D
:10433800F2488257630B0554E2460A57B38CD700FC
:104348006378975B130600039306170036D12300A2
:10435800C7000A57E36A97FF1D8F930670043ACC8B
:104368006A436303DC0E13076004E30DECEE1307E6
:10437800F3FF2302110B3ACD634407489306B002BA
:10438800A302D10AA54663D7E6485ECE02C8930EBB
:10439800310B37DECCCC7685130EDECC130F30060E
:1043A800B336C7033A88AA857D158D8213962600F1
:1043B80036960606118F13070703A38FE5FE368787
:1043C800E3400FFF13870603A30FE5FE1387E5FFFE
:1043D8006379D74F1305610AAA86034607000507C4
:1043E8008506A38FC6FEE31AD7FF2A9709070D8F04
:1043F8005411158F3AD6E24632560547B38CC6009B
:10440800635BD7281257BA9C724793C6FCFFFD8698
:10441800137EF7BF13732700625733FCDC00936BDE
:104428000E10630F0722930ED002A309D109814A07
:10443800050C6FE05FC6E24683C5A6006FE05F8E9D
:104448000A576A431D8F3ACC1327D3FF19E363D465
:104458006A00F91829BF62476342E31E13F71B007D
:104468009A8C01C71257B30CE30013FE0B40630488
:104478000E00634B602893C6FCFFFD8633FCDC000E
:104488009308700621B5924550194A853ECE1D23E2
:10449800631505906A457A56F2474E8B6FF0EFF632
:1044A800210B6FF04FF9924550194A853ACE1923DE
:1044B8006315058EB56783450D007A567247CE861B
:1044C8009388C74B1D4805BC924550194A853ECE76
:1044D800D5216314058CEA4A7A56F2474E8B6FF061
:1044E8006FA89307D002A309F1089307700463DF4C
:1044F8001719B567938747100DB29307BCFB93B79D
:104508001700D697930D01083ECCBE8638097C0962
:10451800EE851308010A09464A85C6C076C176DECB
:104528007AC37AD016C516CE66C7EF10C0571307E0
:104538007004F242025FF25E8648AA87E308ECDC68
:104548002AD08C186E8546CE76C17AC316C566C742
:1045580082D882DA82DC82DEEF60304BF248825702
:104568006300053CE2460A57B38CD700E36C97DD3D
:104578001D8F6A433ACCE5BBFD573EC46FF0CF852B
:104588002547637467006FE0BFE16FF0EFF126C65F
:10459800630D0714138C1A00D68C02D0814A02CE00
:1045A80001436FE0EFBF1308C84C6FF0CFA79245E7
:1045B80050194A85012119C16FE03FFEEA4AE247D6
:1045C8007A564E8BB38A57416FF0CF9C0347310917
:1045D800E30607CC050CD9B1DE866FF02FB41308BB
:1045E800C84C6FF06F895E8E6FE03FE95E8E6FF0AA
:1045F8006FB7C155B30AA0403568635CB530C14C8C
:104608009D4D3ECE9304C84B21A0C11A63D45C0BC8
:104618004106050723209B0023229B0132DF3ADD58
:10462800210BE3D4EDFE924550194A85612619C144
:104638006FE0BFF67A566A574E8BC1BF62479256F3
:1046480093087006B30CD700E34960C2338F6C40FF
:10465800930C1F0093C6FCFFFD8633FCDC003DB1C4
:10466800834E3109814A63840E006FE0BFAD6FE06D
:104678009FA21308C84B6FE0FFED994AB707008067
:10468800B3CCFC009307D0023EDC95B6B5679387A0
:1046980007106FF08FF87247058BE30707D69DB3B5
:1046A80002C87C0A37050080298F1305D0022ADC4E
:1046B8006FE02FCAF24726885696050732DF3ADDA3
:1046C80023200B0123225B019D45E3DBE5DC9245BA
:1046D80050194A853ECEF92C19C16FE01FEC7A5665
:1046E8006A57F2474E8B6FF00FD5D68C568C02D096
:1046F800814A02CE01436FE0AFAAB567938787105E
:10470800C1B292446FE03FEA9308700642570347EC
:104718000700930617F06381061E635F671CC25685
:104728000145814501A885058506130617F059CE70
:10473800635E67083303E34003C716006DF703C7DA
:1047480006000505DDB7B567938787106FF0EFECB6
:10475800938CFAFF025BB258F257064D2649E29A4B
:1047680062871306000363D40C006FE0AFDB050714
:10477800A30FC7FEE39DEAFE33079C01130C170045
:104788006FE04FDA0A57E248E36E97BB1D8F3ACCC9
:10479800D9BE08018C183ECE46CC76C17AC316C560
:1047A80066C782D882DA82DC82DEEF601026E248B1
:1047B800F24749E16A43B38C640055B41257338F0A
:1047C8006A0093086006B30CEF0045BC36D89646DD
:1047D8003307B5002ECE3307D7022AD0BA9C6257CA
:1047E80093C6FCFFFD8633FCDC0079C31307D002B7
:1047F800C24BA309E108050C02C8814A6FE04F9A31
:104808001307D002A302E10AE156054733076740C0
:10481800E34DD3B6930600032303D10A5ECE02C844
:104828009306710A6FE04FD31DE3054CE28C9308A1
:104838006006A9BC854F0A57B38F5F417ECD938C24
:104848001700E36197B11D8F7E833ACC21BC1257C4
:1048580093086006130F1700B30C5F0193C6FCFFA3
:10486800FD8633FCDC001DB4B24783AA070091071C
:1048780063D30A00FD5A83481D003EC6368D6FE09B
:104888002F8C1308C84B6FF00FCF6A4375BEB566FF
:10489800138706113ACC6FE04FB41307D002A30276
:1048A800E10AE1560547118FE343D6AE6FE08FCAA0
:1048B8000347310911CFC24B050C02C8814A6FE08A
:1048C8002F8E09473AD605BE1308C84B6FF0EFEE96
:1048D800C24B814A02C86FE0AF8C814A02D002CE37
:1048E80002C88D4C114C6FE0AF8B62473E97E9B21E
:1048F8001D8F6A433ACC89BE014702D002CEF9BD6A
:10490800924483D7C40093E707042396F4006FE02A
:104918009FC91308C84B4DB302D002CE6FE04F8831
:104928006A43B1B483D7C50083AE450603DEE5000C
:1049380003A3C50183A84502130101B7F59B13081A
:10494800010813070040232481482E842C082322C1
:1049580091482312F1022326114802D8F6DE2313C8
:10496800C1031ADA46DE42CC42D43AD03AD6AA84F7
:10497800EFD0FFE9AA87635705020357410213776F
:10498800070419C70357C400136707042316E40074
:104998008320C14803248148832441483E8513016C
:1049A800014982802AC62C082685E122B24771D5A2
:1049B800FD57E1B7184609E7014523220600828022
:1049C800011106CE32C6412EB247F24023A4070099
:1049D80023A20700056182800397C500011122CC3C
:1049E8004EC606CE937787002E84AA89F1E785679D
:1049F80093870780D441D98F2396F500635BD01045
:104A0800032884026304080A26CA9316370183A47C
:104A1800090023A0090063C506104C4C01468546D1
:104A28004E850298FD572A866303F5128317C40042
:104A380003288402918B99C758401C58198E99C332
:104A48005C5C1D8E4C4C81464E8502987D578317C1
:104A5800C4006319E50C83A6090075476364D71081
:104A68003707402005073357D700058B65CF144813
:104A78007D771307F77F7D8F2316E4002322040038
:104A880014C0139737016355070083A70900CDCBDE
:104A98000C5823A09900D5C9930704046385F50031
:104AA8004E85EF00F05DD24423280402F2406244B0
:104AB800B2490145056182804AC803A90501630F0F
:104AC800090426CA84410D8B23A02501B3842441FF
:104AD800814711E3DC491CC4634690003DA82A992C
:104AE800635D90025C504C4CA6864A864E85829740
:104AF800898CE346A0FE8357C400424993E7070424
:104B0800F2402316F4006244D244B2497D5505614F
:104B18008280D45DE346D0EE51BFD244424979B792
:104B2800304809BF14487D771307F77F7D8F231618
:104B3800E4002322040014C013973701E35A07F452
:104B48000C5828C823A09900A1F9D24485B783A797
:104B58000900E38D07EC138737FE01CBA91791C72E
:104B68008357C40093E7070461BF23A09900D24488
:104B780035BFAA8719C1585901CB0397C50019E356
:104B8800014582803E8589BD01112EC606CE2AC404
:104B98007522B245A2470397C50009C7F2403E8572
:104BA80005611DBDF2400145056182803716002070
:104BB800A16537150020130686C29385A55F1305E6
:104BC80085AED9A14C414111B737002022C406C691
:104BD800938747A42A846384F500EF3090210C441E
:104BE800B73700209387C7AA6385F5002285EF3081
:104BF80050204C44B7370020938747B16388F500AD
:104C080022852244B24041016F30B01EB240224496
:104C1800410182800111956722CC938747BB3734C5
:104C2800002037350020130444A406CE26CA4AC8FB
:104C38004EC652C423A4F1882146914781451305E5
:104C480005AA5CC4232004002322040023240400B2
:104C58002322040623280400232A0400232C04000A
:104C6800EFB03FEB156A95691569956437350020F3
:104C7800C167130A4A189389A91B1309A9209384A9
:104C8800A424A50721468145130585B07CD8232097
:104C98004403232234032324240344D440CC232470
:104CA800040623260406232804062326040C232CA2
:104CB8000406232E040623200408EFB09FE53737A7
:104CC800002037350020B7070200C9071307C7AA15
:104CD800130505B7214681452324440923263409B1
:104CE80023282409232A9408232EF40C2328040CAF
:104CF800232A040C232C040C232A04122320040E38
:104D08002322040E2324040E2322E408EFB07FE0BC
:104D1800B7370020938747B12328440F232A340F3D
:104D2800232C240F232E940EF2402326F40E6244E3
:104D3800D2444249B249224A056182805C5991C3F2
:104D48008280956703A781889387C7BC5CD96DFB70
:104D5800D1B5828082801C46638607188396C50079
:104D6800397122DC52D456D206DE93F786002E849F
:104D7800AA8A328AB5C79C49A5C726DA4AD84ED628
:104D88005AD093F7260083240A00BDCB370B008046
:104D9800130B0BC0814901494E865685630E0912D3
:104DA800CA8663762B01B7060080938606C05C50DE
:104DB8004C4C8297635FA02A83278A00AA993309FB
:104DC800A940898F2324FA00E1FBD2544259B259F1
:104DD800025B0145F2506254225A925A2161828044
:104DE800A2855685252B631B051A8316C40026DA6F
:104DF8004AD84ED65AD093F7260083240A00D9F70A
:104E08005ECE62CC93F71600E5E31C4037070080BE
:104E1800130CF7FF014B8149638A090A13F706202F
:104E2800032984003E85630D0716CA8B63E2291F98
:104E380013F7064825CB50480C481317160032972D
:104E48001359F701B38BB7403A9993871B0013594D
:104E58001940CE974A866374F9003E893E8693F6D8
:104E68000640638D061CB2855685EF20A03E63057B
:104E780005200C485E862AC6EFD0BF848357C4003D
:104E8800324793F7F7B793E707082316F400B307F9
:104E9800794133057701232A240118C808C01CC4A6
:104EA8004E89CE8BDA855E86B12718441C403307BD
:104EB800274118C403278A00DE971CC033073741EF
:104EC8002324EA006304071A8316C40003AB040012
:104ED80083A94400A10489B783A9040003A9440055
:104EE800A1045DBD01458280014B814B0145014C08
:104EF800630E0B0425C5DE87DA8963F36701BE8973
:104F080054480329840008401C48369963F4A700D4
:104F18006340390763C8D9105C504C4C628656858B
:104F280082972A896350A006B38B2B410545638479
:104F38000B0E83278A00B38727412324FA0063874F
:104F48000712330B2B414A9CE3160BFA03AB4400C0
:104F5800A687A104E30C0BFE03AC07005A86A945FB
:104F680062857521630005100505B30B854161B79E
:104F7800E2854A8641251C40A2855685CA971CC0F1
:104F8800CD3E5DD18317C400F24B624CD2544259D6
:104F9800B259025B93E707042316F4007D551DBD43
:104FA80018486362F704584863EFE902CE866373D2
:104FB8003C01E28633E7E6025C504C4C5A86568543
:104FC800998E8297E350A0FC2A8983278A00B389A7
:104FD8002941B38727412324FA00C9CB8316C4008B
:104FE8001C404A9B15BD63F329014E893E854A86BC
:104FF800DA8509251C401844CA97330727411CC085
:1050080018C461F7A2855685EFF0BFB65DDD9DBF78
:105018004E89CE8B41BDA2855685EFF09FB5E30A38
:1050280005F08DB74E86E285F12318441C404E8961
:1050380033073741CE9718C41CC0FDB55685EF30ED
:1050480000162A87E31505E40C485685EF0050033F
:105058008357C4003147F24B624C23A0EA0093F710
:10506800F7F72DB793071B00BE8B79B5F24B624C4F
:10507800A9BB8317C40019BFB14723A0FA00F24B9C
:105088008317C400624C19B779714AD04ECE52CCFE
:1050980056CA5AC85EC606D622D426D2B28A2A8BE7
:1050A800AE8B014A85497D5983A44A00FD1463C625
:1050B800040203A48A008357C40063FBF900831722
:1050C800E400A2855A8563852701829B336AAA007A
:1050D800FD1413048406E39024FF83AA0A00E395D1
:1050E8000AFCB250225492540259F249D24A424B15
:1050F800B24B5285624A456182802A8719C15C5940
:105108008DCB1C4693F6F50FFD171CC663D8070018
:10511800084E63CEA700938766FF91CB1C4213F518
:10512800F50F1387170018C22380D70082803A85AD
:1051380021AA011132C62EC406CE2AC20131324636
:10514800A24512471C4693F6F50FFD171CC663D8F7
:105158000700084E63C0A702938766FF81CF1C42F1
:1051680013F5F50F1387170018C22380D700F240F4
:1051780005618280F2403A850561F9A0411122C497
:105188002E848395E50006C6D52E634905003C4864
:10519800B240AA973CC82244410182808357C40088
:1051A8007D777D17F98FB2402316F4002244410120
:1051B80082808397C5000111368306CE93F60710C7
:1051C8002E87B2882A8891EEFD76FD16F240F58F7B
:1051D8008315E7002316F7009A86468642850561FF
:1051E800E1AE8395E50032C4894601461AC63AC045
:1051F8002AC2B92602473243A2488317C700124879
:10520800E1B7411122C42E848395E50006C60D2E10
:105218007D578317C400630BE5000567D98FB2403B
:1052280028C82316F4002244410182801307058010
:1052380013070780F98FB2402316F4002244410176
:1052480082808395E500D1A4011122CC26CA06CE1E
:10525800AA842E8419C15C59CDCF184E8317C60075
:1052680018C613F7870039CF184A29CF9396270114
:105278007852896563D606069317270163CF070618
:1052880018421C4A544AB307F74063DAD706850721
:105298001446930517000CC2FD1614C62300870098
:1052A800584A1374F40F6305F704930764FF89E7FA
:1052B8008357C600858B8DEFF24022856244D24425
:1052C80005618280B285268532C689281DE5324669
:1052D80089658317C600785293962701E3CE06F8AE
:1052E800F976FD16CD8F758F2316F60078D269B73B
:1052F800B2852685EFF0FF8761D17D5475BFB285F1
:10530800268532C6EFF0FF866DF93246854718428A
:1053180041B732C6EFF09FA2324681B7B7170020D7
:1053280003A7C71A011106CE2A86AE8719C3545B94
:10533800DDCE0397C700937687009DC2944B8DCE30
:105348000397C7001376170039CAD04B23A4070068
:1053580001453306C04090CFB9CAF240056182804A
:1053680093760701C9CE93764700B9EA944B136741
:1053780087002396E700E9F6D847930500201377BE
:105388000728E30FB7FA3285BE853EC4EF30E03018
:10539800A2470397C700944B137617005DF6137660
:1053A8002700814511E2CC4B8CC70145DDF6937689
:1053B8000708C5D6136707042396E7007D5571BF14
:1053C8008C5B99CD93860704638AD50032853EC6E7
:1053D80032C47D21B24722460397C70023A807029B
:1053E800944B1377B7FD23A2070094C349B72AC487
:1053F8003A852EC6EFF09F94B24722461DBFA546B8
:105408001367070414C22396E7007D55B9B793774D
:10541800350013F7F50F99CB35C6834705007D1680
:105428006381E706050593773500FDF70D4863703E
:10543800C80493F5F50F93978500BE9593970501DA
:105448003703FFFEB7888080BE951303F3EF938878
:1054580008081C41AD8FB386670093C7F7FFF58F27
:10546800B3F7170191E771161105E364C8FE19CA6D
:105478002A9621A005056307C50083470500E39B1D
:10548800E7FE828001458280B3E7A5008D8B81E726
:105498009337460095CB2A8711A883C6F5FF1308D2
:1054A800F6FFA38FD7FE81CA3E87428685059307FC
:1054B800170065F682803297630308048507A38F77
:1054C80007FEE39DE7FE82803703FFFEB7888080F2
:1054D8001303F3EF938808082A870D4E9441B38786
:1054E800660013C8F6FFB3F70701B3F71701DDFF2E
:1054F800711614C311079105E362CEFE45BF828081
:10550800371500201305C5128280411122C426C216
:10551800AA842E8506C623A60188EF402043FD579E
:105528006307F500B240224492444101828083A778
:10553800C188EDDBB24022449CC092444101828084
:105548004111AE8722C426C2B285AA8436863E851A
:1055580006C623A60188EF40804BFD576307F50078
:10556800B240224492444101828083A7C188EDDB86
:10557800B24022449CC09244410182804111AE87CE
:1055880022C426C2B285AA8436863E8506C623A6CC
:105598000188EF40604AFD576307F500B240224496
:1055A80092444101828083A7C188EDDBB240224446
:1055B8009CC09244410182804111AE8722C426C218
:1055C800B285AA8436863E8506C623A60188EFC022
:1055D8004FFEFD576307F500B24022449244410153
:1055E800828083A7C188EDDBB24022449CC09244EC
:1055F8004101828063F1A502B387C500637DF50090
:1056080005CE2A9603C7F7FF7D16FD172300E6008F
:10561800E31AC5FE8280BD4763E1C702AA879306E5
:10562800F6FF5DC28506BE9603C70500850785059A
:10563800A38FE7FEE39AD7FE8280B367B5008D8B10
:10564800AE88BDEF93574600139847002A98FD1778
:105658002A879441C10541072328D7FE83A645FF21
:10566800232AD7FE83A685FF232CD7FE83A6C5FF52
:10567800232ED7FEE31F07FD9207338717019305F3
:105688000701AA971378C600C1072E8E9376F600F5
:10569800630D0802F116F19A369751073308154140
:1056A80003A30500B3880501910523A06800E399C9
:1056B800E5FE13874600B305C701BA970D8A85B77B
:1056C8009306F6FFAA87B9BF8280368689BFD84578
:1056D800597183A8050003A845009445A6D2A16482
:1056E800A2D486D693570701FD1423200600BACE0C
:1056F800E58FC6C8C2CAB6CC2A84638B97088800CF
:105708000C18CAD0C6C046CCC2C242CAB6C436C833
:10571800BAC63AC6328902D802DA02DC02DE3ECEC6
:10572800EF50B02E3247C2465248E24835CDF247D4
:1057380081458DEFB70771400C181010880036DCD2
:105748003ADE3ED646D842DA02D002D202D4EF5030
:105758003056364786451646A64693570701AEC8C3
:10576800B2CAB6CCBACEE58F9305E0F8F1768906D1
:105778007647B69737060180AE977D162320F90045
:10578800C6485648E6460659718F3706FE3F518F80
:10579800B650232014012322040114C458C42285BE
:1057A80026549654656182800659DDB701114AC8AE
:1057B8003719002022CC26CA4EC62E8406CEAA89C6
:1057C800130949C3EF20000B832789000567C443E9
:1057D800F1989387F47F9387077F338487403180DC
:1057E8007D143204634BE40081454E85EF30C001DF
:1057F80083278900A697630DF5004E85EF20A00743
:10580800F2406244D2444249B2490145056182806E
:10581800B30580404E85EF20307FFD57630AF502BF
:1058280037370020832689008327C7B7818C93E404
:1058380014004E85818FC4C2232EF7B6EF20A00333
:10584800F2406244D2444249B2490545056182802A
:1058580081454E85EF20507B03278900BD46B3075D
:10586800E540E3DCF6F8B716002003A6061B93E72D
:105878001700B7360020118D5CC323AEA6B6B5BF9E
:10588800F5C1011122CC2EC62A8406CEEF10907ED7
:10589800B24537180020130848C303A5C5FF13876E
:1058A80085FF832888009377E5FF3306F700544285
:1058B80013731500F19A6382C81254C2B308D60054
:1058C80083A8480093F818006319030603A385FF0B
:1058D800B71500209385C5C33307674008479A97D3
:1058E8006300B50E0323C700232665002324A30005
:1058F800638E081093E6170054C31CC29306F01F6A
:1059080063ECF60693F687FFA10683254800C29646
:10591800904213D557008547B397A700CD8F93853D
:1059280086FF10C74CC72322F80098C258C62285A4
:105938006244F24005616F10107463960802B7154F
:105948000020B6979385C5C3144693E8170033051E
:10595800F7006389B60E5046D0C614C62322170135
:105968001CC169BF82801365150023AEA5FE1CC249
:105978009306F01FE3F8F6F893D69700114663698B
:10598800D60893D66700938596038E0513868603FB
:10599800C2959441E1156396D5007DA89446638627
:1059A800D500D042719AE3EBC7FECC464CC714C76A
:1059B80022856244F24098C5D8C605616F10B06B65
:1059C800639708064C461046BE9693E716004CC6E9
:1059D80090C55CC3369714C399BFBE96631A03007B
:1059E80083A785FF1D8F1047BE965C475CC690C78E
:1059F80013E6160083A7C18050C32324E800E3E818
:105A0800F6F283A581892285553315B7B6972DBF40
:105A180051466373D602130640056369D60493D6CC
:105A2800C7009385F6068E051386E60695B793E6B6
:105A3800170054C31CC2E5BD9385C6058E051386A1
:105A4800B605B9B7232AE8002328E8004CC70CC7D5
:105A5800232217011CC1E1BD03254800098685479B
:105A6800B397C700C98F2322F80089B713064015DA
:105A7800636AD60093D6F700938586078E0513864A
:105A8800760739B713064055636AD60093D62701BF
:105A98009385D6078E051386C607DDBD9305803F1F
:105AA8001306E007F5B5B568938888FC03A388005A
:105AB800717183AE080003AE48009AD203A3C800F0
:105AC80083A8080122D526D3C6D6832885034AD1C0
