:040000006F00101E5F
:100004000000000000000000A000002040050020C7
:10001400A9BDF9F3A00000200000000000000000CA
:10002400A0000020A000002000000000000000004C
:10003400A000002000000000A0000020000000003C
:10004400A0000020A0000020A0000020A0000020AC
:10005400A0000020A0000020A0000020000000005C
:10006400A0000020A0000020A0000020A00000208C
:10007400A0000020A0000020A0000020A00000207C
:10008400A0000020A0000020A0000020A00000206C
:10009400A0000020A0000020A0000020A00000205C
:1000A40001A0B7170040984B4111C107136707011E
:1000B40098C303C707001377E70F2380E7001307EC
:1000C400800873370780137787083AC60F1000003B
:1000D4003717004013070704930670052300D70061
:1000E400930680FA2300D7000F100000B7160040D3
:1000F400B046B705000695054D8EB0C6B71600404C
:1001040003C6B6041376F60DA385C604B7160040DD
:1001140003C6A600136626012385C600B716004051
:10012400130650142394C600B726004003C6568015
:100134001376F60EA382C680B72600400946A38331
:10014400C680371600408346E60493F6C60F93E64E
:1001540016002307D604B716004003C6F60213663A
:100164002600A387C60283C6070093E616002380F1
:10017400D70023000700B247F3A707800F10000041
:1001840041018280EFF0FFF11305C02397050000C1
:100194009385C50A171600001306868463FAC50002
:1001A4008322050023A0550011059105E3EAC5FE4D
:1001B400171500E0130545609715000093854582E7
:1001C400171600001306068263FAC5008322050091
:1001D40023A0550011059105E3EAC5FE171500009B
:1001E40013054580971500009385C5876377B5008F
:1001F400232005001105E36DB5FE930250027390B0
:1002040002BC8D42739042808542739012BC93026B
:10021400800873900230970200009382A2DE93E27A
:10022400320073905230970200E09382C27F739041
:080234001234730020300000B9
:10023C00411122C683A7C18191C783A7C18182972F
:10024C0023AE01803244410173002030B7F7070020
:10025C00D853411123ACE180B7170040984B13677A
:10026C00070198CB03C707011377E70F2388E70033
:10027C0093078008F3B7078093F787083EC60F10E3
:10028C000000B7170040130770052380E70413071D
:10029C0080FA2380E7040F1000009307000C631C06
:1002AC00F502B717004003D78700498F2394E70066
:1002BC00B717004003C70701136717002388E7002F
:1002CC00B717004023800704B247F3A707800F102D
:1002DC00000041018280B717004003C7A700937646
:1002EC000520A907C9C6118B39E73717004003460B
:1002FC00E7048345E70493E535002307B70403C7F8
:10030C000700136747002380E700B717004003D7A7
:10031C00870083D5870093E5050C2394B700A54788
:10032C000100FD1793F7F70FE5FFB7170040239473
:10033C00E7002387C70493770510E9C7B717004078
:10034C0003C7A700136707012385E700B727004001
:10035C001377F5019387578005E303C707001367ED
:10036C0007012380E700B72700401D4715A013673E
:10037C0027002380E700C1B725466363E60603C761
:10038C0007001377F70E2380E700B72700400547D7
:10039C00A383E780B71700401367050C2394E7008D
:1003AC002394A700B7170040D9CA03C757049387F3
:1003BC00570483C70700418B858BD98FE39A07EECF
:1003CC00B717004083C72701C18BE38307EEB7172C
:1003DC00004003C7A7001377D70F2385E700C9BDDB
:1003EC001377050119EB03C707001377F70E23806A
:1003FC00E700B7270040094761BF03C70700137721
:10040C00F70E85B7B7270040137785019387578080
:10041C0001EF03C707001377F70E2380E700B72718
:10042C00004013071005ADB703C707001377F70E8D
:10043C002380E700B72700401307700591BF03C75F
:10044C00A7001377B70F51BF37E700E01C435443A5
:10045C007D56A183E206D58F9306071890C2D0C2B1
:10046C00B706002037060020938606001306862365
:10047C0003A8860390DE23AEA18091652320B710DC
:10048C002320B72083A5C181F5FD11662320C71851
:10049C000F10000023AC0603939687002320D7107F
:1004AC00E1832322F71082800111814601468145A8
:1004BC00114506CE212493078008F3B7078093F7E4
:1004CC0087083EC60F100000B7170040938707043B
:1004DC00130770052380E700130780FA2380E700D9
:1004EC000F100000371700408346670493E6160090
:1004FC002303D70423800700B247F3A707800F100C
:10050C000000F2400561828037E700E01C43544351
:10051C00A183E206D58F1CC1FD572320F718232297
:10052C00F718828013178500B7E700E023A0E710C7
:10053C00618123A2A7108280411181460146814529
:10054C001145AD2A13078008F3370780F98F3EC495
:10055C000F100000B71700409387070413067005AF
:10056C002380C700930680FA2380D7000F10000069
:10057C00B71500407D552396A50223800700A245A0
:10058C00F3A505800F1000007337078013778708D9
:10059C003AC60F1000002380C7002380D7000F102D
:1005AC000000371700408346670493E616002303C8
:1005BC00D70423800700B247F3A707800F10000071
:1005CC0001A09307E0043305F50295473355F50276
:1005DC0001007D1575FD8280411122C406C62A8456
:1005EC007D1442041305803E4180E13F75F8B24012
:1005FC002244410182802E96AA870F70B6788280A1
:10060C002303048015472303E48001002302A48004
:10061C00828083076480E3CE07FE230304808280FC
:10062C0083076480E3CE07FE034544808280830702
:10063C006480E3CE07FE2302A4808280411126C48D
:10064C004AC24EC006C61377F50BAD47AA892E8950
:10065C0095446306F70019456537653F8D444E8513
:10066C004537FD59FD1463983401B240A244124938
:10067C00824941018280135509011375F50F453FDD
:10068C002209CDB7011126CC06CEB704080051378C
:10069C001545BD37713769372AC6A53F3245937763
:1006AC00150089EB136515001375F50FF240E24444
:1006BC0005618280FD14E9FC0145CDBF3971B7F7A6
:1006CC00070006DE26DC4ADA4ED852D656D45AD269
:1006DC005ED062CE03AB47027D57B7E700E083AA3A
:1006EC00070022C603AA470023A0E71823A2E71895
:1006FC00B71B0040930770052380FB04930780FA17
:10070C002380FB0483C74B041147AA8993E7070E88
:10071C002382FB04372400401305F00F2303E480ED
:10072C002E8C3289B684E93DED35938779FF93F7AA
:10073C00F70F0947137BFB006362F712A1473707DA
:10074C0008006307FB00B70707003E9C37870700CC
:10075C007955637EEC02B3878401636AF702A9477B
:10076C006398F90689E481446D3526850DA0E285F0
:10077C000945E93505090345F9FFFD14050C453D0F
:10078C0081C49377FC0FFDF7F53D69FD7D55B717D7
:10079C000040130770052380E704130780FA2380B9
:1007AC00E70403C74704418B2382E704F250B7E701
:1007BC0000E023A0571123A24711E25432445259AE
:1007CC00C259325AA25A125B825B724C21618280EE
:1007DC00A547639AF906A1478569631DFB029387B8
:1007EC00F9FFB3869700B374FC00B69493C7F7FF78
:1007FC00FD8C33FC8701416B856B9387F9FFB3F755
:10080C00870199E363FF340193D94900C147E3E6BB
:10081C0037FF91BF9307F00FE9B78567C169FD17E3
:10082C00C9B71305800D6388690113050002638441
:10083C00790113051008E2851135A93521D94E9C93
:10084C00B3843441C1B7E2852D45CD3BCA94E30C4A
:10085C0099F00509F133A30FA9FED5BF9387F9FFD2
:10086C0093F7F70F636FF70AA1476319FB06B707F6
:10087C0008003E9C83C75B043707070093F7070209
:10088C0099E337870700B70708003E977955E3705F
:10089C00ECF0B3079C00E36CF7EE8947639AF9041C
:1008AC008980D549E38104ECE2850945413B110976
:1008BC000327C9FF91472320E48003076480E34E9C
:1008CC0007FE23033481FD17EDFBFD14110C81C4CD
:1008DC009377FC0FE9FF7D3371F54DBD83C75B0446
:1008EC003707070093F70702D5F33787070079BF5F
:1008FC008547E384F9F2E2852D4589339389F4FF2A
:10090C00E38304E6313B93F7390091EB83260480B3
:10091C000327090093074900E398E6E43E89CE8457
:10092C00F1BFB5476396F9001305900BD13925BD7E
:10093C00B1471305B00AE38BF9FE99476394F904A8
:10094C00A1476315FB00B70708003E9CE2852D45C7
:10095C00F53181440D4BA149E13163966401832744
:10096C0004802320F9008504E39834FF8327048056
:10097C0013172C01635507002312F900EDB3232242
:10098C00F900D5B39D476399F90281451305B0046D
:10099C007531BD442320090023220900FD5949313A
:1009AC0093F77400CA9703C70700FD14398D238091
:1009BC00A700E39634FF45BB91476399F9001305F3
:1009CC0060063D39B931130590098DB7E38D09D80F
:0409DC00F15459BBBE
:1009E000971100209381018017710120130181610B
:1009F0001305400097F5FF1F9385C560170600207B
:100A00001306C68363FAC5008322050023A05500A0
:100A100011059105E3EAC5FE17F5FF1F1305C5761D
:100A20000285411106C622C426C24AC0A52E6920ED
:100A3000B717004003C4470405651305C55D4D287D
:100A400013757400E92005651305855E5520014581
:100A5000EF00F00C0145EF00D006EF001012056525
:100A60001305C55E712005651305056051208926B3
:100A7000056513054561AD284126056513054562E9
:100A8000852845260565130585639D20592C056538
:100A90001305C564B128B7544C008567014493849D
:100AA00004B41389876745240504B377940299E356
:100AB0004A853D28E923C5BF4111C145054506C604
:100AC00022C4EF00E06FB7170040116423AC870A1F
:100AD00085452165752322858D455D23EF00101521
:100AE0002244B24071651305052041016F00501189
:100AF000411122C406C62A84EF001028931505016F
:100B000022852244B240C18141016F0050158567A2
:100B100093878777135745003D893E97AA970347E8
:100B2000070083C7070001116800894506CE230628
:100B3000E100A306F100EF009012F240056182800F
:100B40005D71E9779387F75FA6C29374F50F48004C
:100B5000A2C42310F1003284A301C10086C6CAC01A
:100B600023019100EF00D0129307F4FFB337F00098
:100B7000920791070A878A97014683451700050760
:100B80002E96E39CE7FE930744048A97930554004E
:100B90000A852380C7FCF92C21C137170020832741
:100BA000079E05651305456885072320F79E89374D
:100BB0002685B13F0565130585691D3F2285813F67
:100BC00005651305855E2D3705457129B640264418
:100BD000964406496161828005651305056A093FEF
:100BE000F5B701C593B7450089C705651305856B42
:100BF00001B7034705009307500A6306F700056530
:100C00001305456DF5B7397106DE22DC26DA4AD8C0
:100C10004ED652D40349250093074900638DF50051
:100C200005651305056F6254F250D2544259B2590A
:100C3000225A216175BF1307390081478146330667
:100C4000D500034606008506B29793F7F70FE3E851
:100C5000E6FE2A97034707006306F70005651305BC
:100C60008570D1B783441500154A2A849387F4FF11
:100C70008569636EFA080145FD2637170020832732
:100C8000479E05651305857285072322F79E8D35DE
:100C90002685B53D056513058569993D4A85853DE0
:100CA0001385895EB135638644059947638AF404E8
:100CB0009387E4FF93F7F70F09476373F704A1578E
:100CC00002C602C8A307F1008D472308F10085473B
:100CD00002CA02CC230EF10045466C001305100831
:100CE0008535F2506254D2544259B259225A216188
:100CF00082802306910005466C0013053008CDB7AD
:100D00002306910005466C0013052008D1BF056538
:100D10001305C573F13B03451400D53B1385895E6C
:100D200019B7B71700204111014523A2079EB71735
:100D3000002006C623A0079E3D26B2400565130588
:100D4000C575410175B31D71930700046C00080857
:100D500086CE3EC6592A01C5B24508085935F64027
:100D60002561828037470040B71600203746004093
:100D70001D071D45938606A0410683D7818003D8B1
:100D8000A18063F6070103480700637305018280B1
:100D900013881700B69783C70700239401812300A7
:100DA000F600E1BF1305503417F3FF1F6700C34A75
:100DB000411193050010054506C622C41121C165E5
:100DC000FD1505452129C1659385058005451D2132
:100DD0000564130504808D45A126B7170040130450
:100DE000048023A6870C85451D651D2E2244B24034
:100DF0008D45216541012DA641111305002706C629
:100E000023AA0180E123B727004005472383E70099
:100E100003C72700136717002381E700B240410191
:100E20008280411106C66D2B37470040834707007B
:100E300093E707012300F70023880180B24023A62F
:100E40000180239501802394018041018280B7278E
:100E500000409907054683C60700858A81E603A5F9
:100E6000418182802380C70083A64181A90623AAED
:100E7000D180D5B79387F5FF93B70706ADC725C5D2
:100E8000411122C43747004006C6834707002E841D
:100E900093F7F70E2300F7002316B700BA8705472C
:100EA0002383E700374700409D07410783C60700BB
:100EB00085EA2E86AA8537150020130505A0C92BC3
:100EC0002395818023940180713D0544238881808E
:100ED000BD3FB24023A6A1802285224441018280E9
:100EE00083460700E1B70145828091C119E10145C0
:100EF0008280797156CA83AA050006D622D426D2EA
:100F00004AD04ECE52CC5AC85EC662C48D4763F3F7
:100F1000571383C70181AE892A89A5C7A135B74771
:100F2000004003C767009907058B631B070EB717BF
:100F3000004083A7470C13973701635D070E013FFD
:100F400003A7C180D177938707CB998FAA9763C3F3
:100F5000070E85673717004093870780B746004024
:100F6000238801802326F70C9387760013870601D8
:100F700003C607005DE283C7060093E707012380ED
:100F8000F6003747004083470700130B770093E7CD
:100F900007012300F70083470B00C9CF4D3DB74B36
:100FA00000409304C512014AC10B0D4C83470B004E
:100FB000B5CF83C70B0013041A004A9A2300FA0026
:100FC000793563168409034A2900110A63E44A0744
:100FD000BD3DB74A0040374B00409304C5129D0AFF
:100FE000410B83C70A00A5CB03470B00B307890059
:100FF00005042380E700A13D9304C512E36344FF89
:10100000B7470040374700409D07410783C60700A8
:10101000A1EA23A08900054539A80346070089BF36
:1010200005472380E70023880180A1BF0D35058D8A
:10103000E34E05F60145B250225492540259F2494A
:10104000624AD24A424BB24B224C456182809304A1
:10105000C512228AA1BFE53B058DE34105FAD9BF40
:101060008346070065B78567938707803717004079
:1010700001C5232CF70C82802326F70C8280828006
:10108000914763E4B70685679387C7788A05BE955D
:101090009841B71700409387470B02879843134541
:1010A000F5FF698F98C3B71700409387070B9843E4
:1010B000698F98C3B71700409387070A9843798DC3
:1010C00088C3828094431347F5FFF98E94C3B71702
:1010D00000409387070B9443C98E94C3B717004011
:1010E0009387070A9443758F98C382809843498FEA
:1010F00098C3B71700409387070B98431345F5FF34
:1011000045BF94431347F5FF758F98C3B717004049
:101110009387070A9843498FC1BF9843498FF5B712
:10112000914763E4B70685679387077A8A05BE957A
:101130009841B71700409387470D0287984313459E
:10114000F5FF698F98C3B71700409387070D984341
:10115000698F98C3B71700409387070C9843798D20
:1011600088C3828094431347F5FFF98E94C3B71761
:1011700000409387070D9443C98E94C3B71700406E
:101180009387070C9443758F98C382809843498F47
:1011900098C3B71700409387070D98431345F5FF91
:1011A00045BF94431347F5FF758F98C3B7170040A9
:1011B0009387070C9843498FC1BF9843498FF5B770
:1011C000B717004003D78701E10709C54D8F23906A
:1011D000E700828093C5F5FF6D8FD5BFB71700403C
:1011E000D84FF10711C593C5F5FFF98D8CC38280E7
:1011F000D98DEDBF93970501A18193F505F0C20547
:10120000C18105C581CB37170040544F93C7F7FF05
:10121000F58F5CCF91C9B717004003D7A70193C5DD
:10122000F5FF6D8F239DE700828091C7371700403F
:10123000544FD58F5CCFEDD9B717004003D7A70126
:101240004D8FCDB7B717004003D7870021659306B0
:10125000000C1377070CA107130505D06300D70412
:1012600003D70700137707101DCB03D7070083D7D9
:1012700007007D8B09EF3725F40093F7072013054E
:10128000054089CF3755E80113050580828037C5B1
:101290009812FD8B130505E03345F502828003D7D4
:1012A000070083D7070013770720FD8B11C7375539
:1012B000E80113050580CDB73725F4001305054077
:1012C000E1BFB717004083C76704411113F7B70F99
:1012D00019C113E7470093078008F3B7078093F716
:1012E00087083EC60F100000B71700409387070419
:1012F000930670052380D700930680FA2380D700D9
:101300000F100000B71600402383E6042380070077
:10131000B247F3A707800F10000041018280B71782
:10132000004083C76704411113F7D70F19C113E7B2
:10133000270093078008F3B7078093F787083EC616
:101340000F100000B717004093870704930670053D
:101350002380D700930680FA2380D7000F10000067
:10136000B71600402383E60423800700B247F3A7A3
:1013700007800F100000410182804111930780080F
:10138000F3B7078093F787083EC60F100000B71722
:10139000004093870704130770052380E7001307B5
:1013A00080FA2380E7000F100000371700408346C3
:1013B000670493E606012303D70423800700B2479E
:1013C000F3A707800F10000041018280B72700407B
:1013D000C8C709472380E70011472380E7008280C0
:1013E000B747004009472380E700130710F8238020
:1013F000E70003C7170013670701A380E700828097
:10140000411122C406C62A84353D2947B307E502A7
:10141000B2408D83B3D7870222449507B3D7E70242
:10142000373700402316F700410182807165411172
:101430001305052006C6E937B7370040130770F8D3
:101440002381E7000D47A381E70013070004A38071
:10145000E70005472387E700B24041018280AA9553
:10146000C205C18193170501C1836382F502B737B5
:101470000040AD07214783C60700E38EE6FE034721
:101480000500B737004005052384E700E1BF8280EF
:10149000B3C7A5008D8BB308C500B1E7133646006E
:1014A00039E2937735002A87CDE713F6C8FFB306F4
:1014B000E6409307000263C4D704AE86BA8763711F
:1014C000C70203A806009107910623AE07FFE3EACF
:1014D000C7FE7D16198E719A91051107B295329744
:1014E0006366170182802A87E37E15FF83C70500A4
:1014F00005078505A30FF7FEE39AE8FE8280944175
:1015000083A2450083AF850003AFC50083AE05010C
:1015100003AE450103A3850103A8C50114C394517B
:1015200013074702232057FE232ED7FE2322F7FF5F
:10153000B306E6402324E7FF2326D7FF2328C7FF6F
:10154000232A67FE232C07FF93854502E3C9D7FAB8
:10155000ADB783C60500050793773700A30FD7FE05
:101560008505A1D783C60500050793773700A30F2C
:10157000D7FE8505F9FF15BF937735002A879DEFC4
:10158000B7867F7F9386F6F7FD5510431107B37733
:10159000D600B697D18FD58FE389B7FE8346C7FFB4
:1015A000B307A7408DCA8346D7FF9DC20345E7FF17
:1015B0003335A0003E9579158280F9D28347070024
:1015C000050793763700F5FB098F1305F7FF828037
:1015D0001385D7FF82801385C7FF82805B52464DFB
:1015E0005D207273743D00000D0A00005B52464D91
:1015F0005D2077646F67206F66660D0A000000004B
:101600005B52464D5D20636C6F636B206F6B0D0A00
:10161000000000005B52464D5D206770696F206FCF
:101620006B0D0A005B52464D5D2074696D6572203A
:101630006F6B0D0A000000005B52464D5D20737019
:101640006920696E6974206F6B0D0A005B52464D0C
:101650005D207370692062726964676520726561DC
:10166000647920286C6F6F706261636B207465739E
:1016700074290D0A000000005B52464D5D2068622F
:101680000D0A00005B52464D5D5B5350495D20548E
:1016900058206576743D0000206C656E3D000000AA
:1016A0005B52464D5D5B5350495D20545820666146
:1016B000696C65640D0A00005B52464D5D5B5350DA
:1016C000495D2052582073686F7274206672616D94
:1016D000650D0A005B52464D5D5B5350495D2052DB
:1016E00058206261642073796E630D0A0000000067
:1016F0005B52464D5D5B5350495D205258206261FC
:1017000064206C656E0D0A005B52464D5D5B535064
:10171000495D2052582062616420636865636B7381
:10172000756D0D0A000000005B52464D5D5B535025
:10173000495D20525820636D643D00005B52464D68
:101740005D5B5350495D2052582069676E6F72652A
:1017500064206E6F6E2D636D643D00005B52464DDC
:101760005D5B5350495D2062726964676520696EF4
:101770006974206F6B0D0A003031323334353637DF
:101780003839414243444546000000009C100000A7
:10179000C4100000EC100000021100001A1100003B
:1017A0003C110000641100008C110000A211000027
:0417B000BA1100006A
:00000001FF
