:040000006F00C05479
:100004000000000000000000A0000020A00000206C
:10001400A9BDF9F3A00000200000000000000000CA
:10002400A0000020A000002000000000000000004C
:10003400A000002000000000A0000020000000003C
:1000440054010020A0000020A0000020A0000020F7
:10005400A0000020A0000020A0000020000000005C
:10006400A0000020A0000020A0000020A00000208C
:10007400A0000020A0000020A0000020A00000207C
:10008400A0000020A0000020A0000020A00000206C
:10009400A0000020A0000020A0000020A00000205C
:1000A40001A08280EFF0FFFF130580159705000083
:1000B4009385850A170600001306464963FAC500AE
:1000C4008322050023A0550011059105E3EAC5FE2E
:1000D400172500E0130585859705000093850547DE
:1000E400170600001306864663FAC500832205003E
:1000F40023A0550011059105E3EAC5FE170500008C
:100104001305C5449385818B6377B50023200500CF
:100114001105E36DB5FE93025002739002BC8D424B
:10012400739042808542739012BC9302800873904E
:100134000230970200009382E2EC93E23200739063
:100144005230970200E09382424F7390123473004E
:040154002030000057
:100158003727004083476700858B89CB8547230372
:10016800F700938781849843290798C37300203048
:100178002303048015472303E48001002302A4809D
:10018800828083076480E3CE07FE23030480828095
:1001980083076480E3CE07FE03454480828083079B
:1001A8006480E3CE07FE2302A4808280411126C426
:1001B8004AC24EC006C61377F50BAD47AA892E89E9
:1001C80095446306F70019456537653F8D444E85AC
:1001D8004537FD59FD1463983401B240A2441249D1
:1001E800824941018280135509011375F50F453F76
:1001F8002209CDB7011126CC06CEB7040800513725
:100208001545BD37713769372AC6A53F32459377FB
:10021800150089EB136515001375F50FF240E244DC
:1002280005618280FD14E9FC0145CDBF3971B7F73E
:10023800070006DE26DC4ADA4ED852D656D45AD201
:100248005ED062CE03AB47027D57B7E700E083AAD2
:10025800070022C603AA470023A0E71823A2E7182D
:10026800B71B0040930770052380FB04930780FAAF
:100278002380FB0483C74B041147AA8993E7070E21
:100288002382FB04372400401305F00F2303E48086
:100298002E8C3289B684E93DED35938779FF93F743
:1002A800F70F0947137BFB006362F712A147370773
:1002B80008006307FB00B70707003E9C3787070065
:1002C8007955637EEC02B3878401636AF702A94714
:1002D8006398F90689E481446D3526850DA0E28589
:1002E8000945E93505090345F9FFFD14050C453DA8
:1002F80081C49377FC0FFDF7F53D69FD7D55B71770
:100308000040130770052380E704130780FA238051
:10031800E70403C74704418B2382E704F250B7E799
:1003280000E023A0571123A24711E2543244525946
:10033800C259325AA25A125B825B724C2161828086
:10034800A547639AF906A1478569631DFB02938750
:10035800F9FFB3869700B374FC00B69493C7F7FF10
:10036800FD8C33FC8701416B856B9387F9FFB3F7ED
:10037800870199E363FF340193D94900C147E3E654
:1003880037FF91BF9307F00FE9B78567C169FD177C
:10039800C9B71305800D63886901130500026384DA
:1003A800790113051008E2851135A93521D94E9C2C
:1003B800B3843441C1B7E2852D45CD3BCA94E30CE3
:1003C80099F00509F133A30FA9FED5BF9387F9FF6B
:1003D80093F7F70F636FF70AA1476319FB06B7078F
:1003E80008003E9C83C75B043707070093F70702A2
:1003F80099E337870700B70708003E977955E370F8
:10040800ECF0B3079C00E36CF7EE8947639AF904B4
:100418008980D549E38104ECE2850945413B11090E
:100428000327C9FF91472320E48003076480E34E34
:1004380007FE23033481FD17EDFBFD14110C81C465
:100448009377FC0FE9FF7D3371F54DBD83C75B04DE
:100458003707070093F70702D5F33787070079BFF7
:100468008547E384F9F2E2852D4589339389F4FFC2
:10047800E38304E6313B93F7390091EB832604804C
:100488000327090093074900E398E6E43E89CE84F0
:10049800F1BFB5476396F9001305900BD13925BD17
:1004A800B1471305B00AE38BF9FE99476394F90441
:1004B800A1476315FB00B70708003E9CE2852D4560
:1004C800F53181440D4BA149E131639664018327DD
:1004D80004802320F9008504E39834FF83270480EF
:1004E80013172C01635507002312F900EDB32322DB
:1004F800F900D5B39D476399F90281451305B00406
:100508007531BD442320090023220900FD594931D2
:1005180093F77400CA9703C70700FD14398D238029
:10052800A700E39634FF45BB91476399F90013058B
:1005380060063D39B931130590098DB7E38D09D8A7
:04054800F15459BB56
:10054C00970100209381C17F178101201301C1AA5B
:10055C001305400097050020938505AA1706002077
:10056C001306C6BE63FAC5008322050023A05500FE
:10057C0011059105E3EAC5FE17050020130505B228
:10058C0002853D432A876373C3029377F700BDEF5F
:10059C00ADE5937606FF3D8ABA960CC34CC30CC7E7
:1005AC004CC74107E36BD7FE11E28280B306C34010
:1005BC008A069702000096966780A6002307B7006C
:1005CC00A306B7002306B700A305B7002305B700A1
:1005DC00A304B7002304B700A303B7002303B70099
:1005EC00A302B7002302B700A301B7002301B70091
:1005FC00A300B7002300B700828093F5F50F939604
:10060C008500D58D93960501D58D61B793962700FE
:10061C009702000096968682E78086FA9680C1172C
:10062C001D8F3E96E374C3F8A5B7411106C6EF00C3
:10063C00706DEF00307CEF106000EF106003AD23A5
:10064C00EF00B060EF00B005EF00B062EF104004B7
:10065C00D5BFAA870145DDC3C5C503C72702E1463F
:10066C0063E0E60A13059700636BA60883C60700D0
:10067C0003C617009A061376F603D18E2380D50095
:10068C0083C62700A380D50083C637002381D500FD
:10069C0083C64700A381D50083D667002382D5008B
:1006AC0083D66700A182A382D50083C687002383EB
:1006BC00D50083C69700A383D500814603C62702C5
:1006CC0063E4C60221073386E500814781463388FF
:1006DC00D500034808008506C29793F7F70FE3E8A7
:1006EC00E6FE2300F60082803386D7000348A6007E
:1006FC003386D500850623040601C9B782800145DF
:10070C008280814759C951CA21476378B7089386BB
:10071C0075FF61476363D708FD1501473308F50082
:10072C0003480800850742971377F70FE3E8B7FEF5
:10073C00AA9583C5050081476391E50683470500AB
:10074C0099832300F600034705001377F703A300F2
:10075C00E600034715002301E60003472500A3012B
:10076C00E600034735002302E600034755008345A6
:10077C00450022074D8F2313E60003476500230431
:10078C00E600034775002301D602A304E6000147E7
:10079C006367D700FD1793B717003E858280B305BA
:1007AC00E50003C88500B305E600050723850501B0
:1007BC00C5B78347150003470500A2075D8F834724
:1007CC00250003453500C207D98F62055D8D8280F7
:1007DC0083A701830567130707FA1305A00F63812D
:1007EC00E7020967130707F41305D007638AE700CC
:1007FC001307007D1305401F6384E7001305803E3B
:10080C00828093874180984311E388C3828023AE12
:10081C00A1827D15914763E1A70289679387878D34
:10082C000A053E951C4182870545E1BF0945F5BF88
:10083C000D45E5BF1145D5BF8280834685003D47F8
:10084C00AA876367D70403A6C183114705456312C2
:10085C00E60403C7818015CB1387C18403460700C8
:10086C000DC60347070183C73700BA97BD8B3D47B9
:10087C0089C71387F7FF1377F70F0545638BF600CE
:10088C003385E64013351500828081473D47F5B727
:10089C000145828001458280054582808280757188
:1008AC0026C3CEDE896922C54AC1D2DCD6DADAD8B3
:1008BC00DED6E2D4E6D2EAD0EECE06C7AA8B2E8CD8
:1008CC00328A3684BA8A01499384C1849389C98E49
:1008DC001306200281451305E1026531138711844B
:1008EC0085472306F10283470700A306710393860D
:1008FC0017002300D70003C7A180A307F1029306BA
:10090C00F00F2308E1021377F400631ED40083C6B2
:10091C008180014789CA83C6040091C603C70401BC
:10092C00BA9713F7F700230AE102EF009054A30AD9
:10093C00A10223074105781081473306FC000346CA
:10094C00060085070507A304C70013F6F70FE36637
:10095C0046FF83474103BD8BCE9703C507003D3F40
:10096C0074102C00130610023685E531AA8501C5DA
:10097C0028001D370DE1138781818357070005047B
:10098C003D8885072310F7009307190093F7F70F9D
:10099C0063922A030145BA402A449A440A49F659FB
:1009AC00665AD65A465BB65B265C965C065DF64D7F
:1009BC00496182803E8929BF8346150011476394A3
:1009CC00E61079714AD006D622D426D24ECE52CC1D
:1009DC008346250221472A896366D7029387418380
:1009EC009843050798C39387418103D707000507F0
:1009FC002390E700B250225492540259F249624AB1
:100A0C004561828003C7818071DB1384C1840347F5
:100A1C00040069D7AE84153571D11305A900513B7B
:100A2C00032A4400E31CAAFA834704018349E90022
:100A3C00E396F9FA1305F900AD3B5C4414441397A3
:100A4C008901A209B3693701139677003347DA009D
:100A5C0093D597014D8E33473701318F37565A6DE9
:100A6C001306566A318FE31BE5F613977600B347EE
:100A7C00FA00E582D98EB3C73701B58FB18F09471C
:100A8C009306F00F21462C00154552C43EC6013D7D
:100A9C0001E59387818191BFB70700200547238427
:100AAC00E7540347040123A6918023A29182238C4F
:100ABC00E1829387618103D70700114505072390D5
:100ACC00E700B13305BF82808280828015C12A86FF
:100ADC0001458DC14111AE862D45814506C697F065
:100AEC00FF1FE7806074B24013351500410182800E
:100AFC0001458280828035CD9387F5FF1307F00F77
:100B0C006369F7066D718A872324811023261110DF
:100B1C0018023E84FD5694C39107E39EE7FE2E8691
:100B2C00AA852285EF00504CB7F70700DC5321470C
:100B3C00BD8B6393E70001A093060010014681452D
:100B4C00254597F0FF1FE780206E814701ED930646
:100B5C00001022868145294597F0FF1FE780C06C65
:100B6C00933715008320C110032481103E855161F9
:100B7C00828081473E858280B7F70700DC5321478E
:100B8C00BD8B6393E70001A0411193060010014651
:100B9C008145254506C697F0FF1FE780E068B24007
:100BAC001335150041018280397152D406DE22DCE6
:100BBC0026DA4AD84ED656D29387C18423A607008C
:100BCC0023A0070023A2070023A4070023A80700E3
:100BDC009387018623A0070023A2070023A4070004
:100BEC00239607002387070023AE018223A20180EE
:100BFC00B707002023840754A38001842385018038
:100C0C00238C018223AA01821307803EA3840180D6
:100C1C0023A8E18223A6018013890184894A23A099
:100C2C00018223A60182238401802300590123AE73
:100C3C00018023A4018223A20182239B0180239A99
:100C4C000180239C0180EF00D022B717030093870B
:100C5C0007D43E9523A8A180054685450545B535A5
:100C6C000945230059018D3509450D398145130678
:100C7C0000020A853932930500020A85813D69C15B
:100C8C000246B747424D93872765631BF60A124607
:100C9C00C1779387F70F7D8EB70720008507631107
:100CAC00F60A1387C184938681809384C18113844F
:100CBC00818201468147F14513955700B307F540F2
:100CCC003305C100034505000506AA97E316B6FED9
:100CDC0072466317F60603464101A2483248C245E4
:100CEC001315860093178601C98F33C50801A98F88
:100CFC0013D395011395750033656500A98F37558E
:100D0C005A6D1305556AA98F6245631BF502854719
:100D1C000D452300F7002380F6002322170123241E
:100D2C0007014CC72308C700DD34EF009014B7C788
:100D3C002D009387076C3E9588C0EF00901308C078
:100D4C00F2506254D2544259B259225A925A2161E9
:100D5C0082804111B707002006C623840754EF0098
:100D6C005011B7979800938707683E9523AEA180E2
:100D7C00EF003010B24023A0A1820545410141BCD7
:100D8C0003A7C18385476318F70083C781800D458E
:100D9C0091E30145ADBC8280B70700202384075442
:100DAC0041112384018006C69387C18423A00700C8
:100DBC0023A2070023A4070023A6070023A80700EB
:100DCC00653BB24023AE0182194541011DBC93071E
:100DDC00803E6301F5029307007D630DF500856786
:100DEC00938707FA6308F5008967938707F401472F
:100DFC00631DF500411123A8A1821D4506C61134BF
:100E0C00B24005473A85410182803A858280411182
:100E1C0022C406C601441DC1BD4701446390F502BE
:100E2C00B707002003C4875411C8AA853D46138513
:100E3C000186EF00701B0547A384E1802285B24038
:100E4C0022444101828003AE018303C3018483D811
:100E5C00618103D8418183D5818103A6418383C6F7
:100E6C008180370700200347875483AEC183232238
:100E7C00C501230465002320D50123151501231674
:100E8C0005012317B50010C9230AD500A30AE500F4
:100E9C00828093874180884323A0070082807171F0
:100EAC0026D34AD1B7244DB13719030022D54ECFE2
:100EBC0052CD56CB5AC95EC706D762C566C36AC146
:100ECC009384746EEF00E07A130909D42A84A98CF8
:100EDC002A99930710026C0028183EC6EFF09F9BCE
:100EEC00630B0518B245F0082818EFF09F8109E94B
:100EFC00138741818357070085072310F700D1BF63
:100F0C008347F10583ACC1832385F18085476395C5
:100F1C00FC100347D1058947E31DF7FA0347E107A6
:100F2C00A147E3F8E7FAB7074D58138DC18485073D
:100F3C00130561062322FD00EFF0BF878347A1064E
:100F4C002324AD002ACABD8B0547814621460C08D7
:100F5C000D452308FD0023269D0023009D0126C876
:100F6C00EFF0FF93138CC18411E9138741831C4369
:100F7C00254585071CC3EFF0DF88A1BFB747424D5D
:100F8C0083460C01938727650327CC0003264C006E
:100F9C0083258C003ECCB70720009387171002D610
:100FAC003ECE2306D10293978601A206D58F32D06E
:100FBC00931677003AD42D8E6583558FB18FB98FE8
:100FCC0037575A6D1307576AB98F238491813ED8CE
:100FDC0002DA2ED201478147938C8180F146139619
:100FEC005700B307F64030083A960346060005074B
:100FFC00B297E316D7FE9305000228083EDAE53CCB
:10100C0011E523000C0023800C0085B70945EFF097
:10101C001F8023A6218375BD9387DCFFF59B91E789
:10102C00A285E808EFF05F996DB59147E393FCEA70
:10103C0083C7818081CB83C7C18489C7E808EFF05F
:10104C00CFFF19E5138741831C4385071CC34DB59E
:10105C0023A681809387618103D70700050723901E
:10106C00E7008347D10525476394E700353395B5F1
:10107C00E39197E775B703A7C18385479384C18331
:10108C006319F71083A7C181B307F44063CC070C35
:10109C00254523A00400EFF0CFF698409147631B41
:1010AC00F70203A7C1809D67938707533307E4407A
:1010BC0063DEE716B7070020154523840754EFF0CD
:1010CC000FF51545EFF0EFF323A4818203C7C1851B
:1010DC00238CE1829387018198433307E440634575
:1010EC00070637170300130707D43A9480C383D736
:1010FC00818103D7418183D661818607BA97138793
:10110C008600C2074207C1834183938441811389BE
:10111C00618113848181637DF7149387018403C5F6
:10112C00070009476369A70005051375F50F2380B0
:10113C00A700EFF07F992145EFF0AFEC23100900E9
:10114C002390040023100400BA502A549A540A59CC
:10115C00FA496A4ADA4A4A4BBA4B2A4C9A4C0A4D1B
:10116C004D6182801389018283270900B307F44003
:10117C00E3C507F2B7074D58850705478146114669
:10118C002C0805453ECCEFF08FF19307047D23200E
:10119C00F900984089476318F70283A7C182B30707
:1011AC00F440E3CC07EE0D45EFF06FE6B7C72D002A
:1011BC009387076CA29723AEF18023A4818203C787
:1011CC00C185238CE1829C40F517F59BE39707ECD6
:1011DC009389818283A70900B307F44063CA07028D
:1011EC00138981838347090013F7F7008967938775
:1011FC00C78EBA9703C50700EFF04FEA8347090083
:10120C008507BD8B2300F9009307047D23A0F9000B
:10121C0098408D47E313F7E883A7C181B307F440E7
:10122C00E3CA07EA1545EFF08FDE85BD83C79180D1
:10123C00E38207EA938441829C40B307F440E3CBFA
:10124C0007E805479306F00F3D469385018619453F
:10125C00EFF0EFE411C5EFF0AFD7229588C09DBD3C
:10126C009387818103D7070005072390E700E5B733
:10127C00E39607ECD147E3F3D7EC83C701841387DC
:10128C000184E38D07EAFD1713F5F70F8D4693F7ED
:10129C00F70F63F3F6000D452300A700EFF0DF8294
:1012AC0071BD01458280054582801971A2DC2A84BA
:1012BC00280886DE493EF247E24603572102A30383
:1012CC00F100A1832304F100834701022302D10022
:1012DC008346D102A304F1009257A302D1008346A6
:1012EC00C1023EC6A2572315E10018183EC8930749
:1012FC0050FA2308F102C5472303D1002309F10258
:10130C00230A0100A308810281473A85C546500093
:10131C003E9603460600850705072301C700E398A0
:10132C00D7FE81470147D1463306E5000346060048
:10133C000507B29793F7F70FE318D7FED5452302AD
:10134C00F104953719C10545052EF650665409610F
:10135C0082808D4763FAB70E034705009307500A46
:10136C006314F70E0347250093074700639EF50CA3
:10137C009306370081470146B305C50083C50500B8
:10138C000506AE9793F7F70FE368D6FEAA9683C6C9
:10139C000600639BF60A834715009546FD1793F7E5
:1013AC00F70F63E0F60A89668A079386C68FB697AD
:1013BC009C43411106C6828713051008B2404101B7
:1013CC00EDB5EFF01F9913052008CDBFEFF05F9B33
:1013DC00DDBFEFF07F9CC5BF854763E5E7001305D4
:1013EC005008E9BF8347450003453500A2075D8DD2
:1013FC009307803E631BF5001305803EEFF03F9D85
:10140C009307300805C53E8555BF9307007D6315CE
:10141C00F5001305007DDDB78567938707FAE30FA9
:10142C00F5FC8967938707F4E30AF5FC93075008EA
:10143C00D9BFBA850D05EFF09F9D55D1B240410142
:10144C00828013055008ADBF8280411113068004C1
:10145C0081451385018706C6EFF0AF92192C95676D
:10146C00938707E23E95B24023A2A1840145410136
:10147C0021A41D7186CEA2CCA6CAE52AAA84014558
:10148C00E52A138401878347440499C72C401385AC
:10149C000187C13523020404930700046C0008087B
:1014AC003EC6013501C5B24508086535EFF07F9E93
:1014BC0019C5A1476319F50213054008FD331384C0
:1014CC0041841C40B387F44063CA0700130510081D
:1014DC00E93B9567938707E2BE9404C0F6406644E7
:1014EC00D644256182809D476315F50013053008AD
:1014FC00F1B7A5476315F50013055008C1B71305DF
:10150C0020086DBFB7170040984B411113670701B6
:10151C0098CB03C707011377E70F2388E70013075E
:10152C00800873370780137787083AC60F100000BE
:10153C00130770052380E704130780FA2380E70460
:10154C000F100000B847B70600069506558FB8C7B0
:10155C0003C7B7041377F70DA385E70403C7E704A4
:10156C001377F70F936637002387D70483C6A7003A
:10157C0093E646002385D70083D68700C206C18236
:10158C0013E6060C2394C700A5470100FD1793F73B
:10159C00F70FE5FFB71700402394D7002387E70424
:1015AC0003C7A700136707012385E700130750340F
:1015BC002394E700372700408346578093F6F60EB6
:1015CC00A302D7808546A303D78003C7F70213670E
:1015DC002700A387E70203C70701136717002388B7
:1015EC00E70023800704B247F3A707800F10000021
:1015FC0041018280411193050010054506C622C4A5
:10160C00152A41649305F4FF054591229305048046
:10161C000545892A0564130504808D459D2813040E
:10162C000480B717004023A6870C85451D659520BF
:10163C002244B2408D4521654101A1A841111305F9
:10164C00002706C623A40184B522B727004005470E
:10165C002383E70003C72700136717002381E700E4
:10166C00B240B7E700E0416723A0E7104101828058
:10167C00A1AA03A581848280856793870780371789
:10168C00004001C5232CF70C82802326F70C8280A6
:10169C008280914763ECB7028967938747918A05EB
:1016AC00BE959C418287B717004003A7470D134591
:1016BC00F5FF698F23AAE70C03A7070D698F23A8F1
:1016CC00E70C03A7070C798D23A0A70C8280B71712
:1016DC00004083A6470D1347F5FFF98E23AAD70CBC
:1016EC0083A6070D558D23A8A70C83A6070C758F11
:1016FC0023A0E70C8280B717004003A7470D498F42
:10170C0023AAE70C03A7070D1345F5FF45BFB71731
:10171C00004083A6470D1347F5FF758F23AAE70CEE
:10172C0003A7070C598D4DB7B717004003A7470DFA
:10173C00498FEDB7B717004003D7870109C5D98D7D
:10174C00239CB700828093C5F5FFF98DD5BFB717E1
:10175C000040D84F11C593C5F5FFF98DCCCF8280D1
:10176C00D98DEDBF93970501A18193F505F0C205C5
:10177C00C18105C581CB37170040544F93C7F7FF84
:10178C00F58F5CCF91C9B717004003D7A70193C55C
:10179C00F5FFF98D239DB700828091C7B7160040E5
:1017AC00D84ED98FDCCEEDD9B717004003D7A7019F
:1017BC00D98DCDB7B7270040C8C709472380E700AC
:1017CC0011472380E7008280B747004009472380F8
:1017DC00E700130710F82380E70003C7170013670F
:1017EC000701A380E7008280B3C7A5008D8BB308E7
:1017FC00C500A1E78D4763F2C704937735002A87AC
:10180C00A9EB13F6C8FF930706FE6367F70663732D
:10181C00C702AE86BA8703A806009107910623AECD
:10182C0007FFE3EAC7FE9307F6FF998FF19B910739
:10183C003E97BE956366170182802A87E37E15FF6B
:10184C0083C7050005078505A30FF7FEE36A17FF9D
:10185C00828083C60500050793773700A30FD7FE58
:10186C008505C5D383C60500050793773700A30FFD
:10187C00D7FE8505F9FF71B7944183A2450083AF6C
:10188C00850003AFC50083AE050103AE450103A37C
:10189C00850103A8C5019385450214C383A6C5FF22
:1018AC00232257002324F7012326E7012328D701FD
:1018BC00232AC701232C6700232E07011307470295
:1018CC00232ED7FEE36AF7FA99B70000340800001C
:1018DC00380800003C080000400800003C080000EC
:1018EC000205080B0E1114171A1D2023260C131FAA
:1018FC00C4130000CE130000D8130000DE13000048
:10190C00E41300003E140000B2160000DA160000CA
:0C191C00021700001A170000341700002A
:00000001FF
