:0200000490006A
:100000000000022001490090997E00249D7E00247A
:10001000E97E0024057F0024217F002400000000E9
:10002000000000000000000000000000397F0024F4
:100030003B7F0024000000003D7F00243F7F002420
:100040000B7005240B7005240B7005240B70052420
:100050000B7005240B70052441EA02240B70052463
:100060000B7005240B7005240B700524517F0024B0
:10007000617F0024717F0024817F0024917F002410
:100080000B7005240B7005240B7005240B700524E0
:100090000B7005240B7005240B700524C97F002408
:1000A0000B7005240B7005240B7005240B700524C0
:1000B0002D8000240B7005240B700524CD3A0124FB
:1000C000DD3A01240B7005240B700524C17F002448
:1000D0000B700524593001240B7005240B70052486
:1000E000F37F00240B700524000000000B70052432
:1000F0000B7005240B7005240B7005240B70052470
:100100000B7005240B7005240B7005240B7005245F
:100110000B7005240B700524E17C00240B70052472
:100120000B700524997F0024A17F00240B70052407
:10013000A97F00240B7005240B7005240B70052487
:1001400000000000000000000000000000000000AF
:10015000B17F00240B7005240B7005240B7005245F
:100160000B7005240B7005240B7005240B700524FF
:100170000B7005240B7005240B7005240B700524EF
:100180000B7005240B7005240B7005240B700524DF
:10019000B97F00240B7005240B7005240B70052417
:1001A0000B7005240B7005240B7005240B700524BF
:1001B0000B7005240B7005240B7005240B700524AF
:1001C0000B7005240B7005240B7005240B7005249F
:1001D0000B7005240B7005240B7005240B7005248F
:1001E0000B7005240B7005240B7005240B7005247F
:1001F0000B7005240B7005240B7005240B7005246F
:100200000B7005240B7005240B7005240B7005245E
:100210000B7005240B7005240B7005240B7005244E
:100220000B7005240B7005240B70052400000000E2
:100230000B7005240B700524000000000B700524D2
:100240000B7005243D8000240B7005240B700524E1
:100250000B7005240B7005240B7005240B7005240E
:100260000B7005240B70052449EA02240B70052449
:100270000B7005240B7005240B7005240000000092
:100280000B7005240B7005240B7005240000000082
:10029000000000000B70052470B505468E4614461C
:1002A0001E46002001460AE05FFA80FC0CF1010CBA
:1002B0000EF801C00131013A002AF5D101300F28B2
:1002C00007D82A5C01EB020CBCF5807FF4D9012031
:1002D00070BD00230EF8013031609EF800C01A4650
:1002E00012E044F82320013301321EF80310614567
:1002F000F7D0BCF11F0F0CD8012101FA0CF191428B
:1003000009D952000CF1010C1EF803000028ECD1B1
:10031000DEE70120DCE70120DAE770B5ADF5A26D7C
:1003200005460C4601AB02AA0DF20C41FFF7B4FFE3
:1003300038BB002211E0A02302A951F8226003F18A
:10034000280104EB81014E600DF20C4111F802C04E
:100350000CF1FF3C04F803C00132019B934210D919
:10036000AB181B7C002BE6D0F02B0DD0190903F045
:100370000F0301EB810103EB4103013BA12BDBD90F
:1003800001200DF5A26D70BDA123D5E730B5ADF20A
:10039000145D05460C460DF20C5301AA0DF5816162
:1003A000FFF77AFFE0B90346DDF80C259A4217D92A
:1003B000EA18127C0B2A12D801A951F8231002F175
:1003C000020C04EB8C0CCCF804100DF5816111F8D3
:1003D00003C00CF1FF3C04F802C00133E4E7012044
:1003E0000DF2145D30BD10B590B00B46046804F5F5
:1003F000F861914206D004F5FC61914205D00120DC
:1004000010B010BD04F5FB6401E004F5FF64ABB36C
:1004100001A91846FFF7BAFF0028F1D16FF0F023C9
:10042000236063600C2126E001F13F036B4413F865
:100430003C2C120202F470624B1C0DF1400C0CEBD0
:10044000830313F8383C1A43023901F140036B442B
:1004500013F83C3C1B0203F4706301F1020C0DF134
:10046000400E0EEB8C0C1CF838CC43EA0C0343EA2C
:10047000024344F8043D0129D6D8C1E70020BFE774
:1004800010B5ADF54C7D0B46046804F5A0619142B2
:1004900007D004F5CC61914206D001200DF54C7DCA
:1004A00010BD04F2446401E004F2A474002B3FD0B8
:1004B00001A91846FFF731FF0028EFD1234600229B
:1004C00004E06FF0F02143F8041B0132022AF8D94E
:1004D000184A1A6002F102125A6002F102129A607E
:1004E00002F10212DA60A2211FE04B1E0DF1040C92
:1004F0001CF80320120202F4706201F127030CEBD6
:1005000083031B791A4302391CF801301B0203F4E0
:10051000706301F1280E0CEB8E0C9CF804C043EACA
:100520000C0343EA024344F8043D0129DDD8B5E752
:100530000020B3E7D00FD10F00B5036803F55B7C53
:10054000102213E0531E934911F803E0931ECB5C75
:100550001B0443EA0E63A2F1030E11F80EE043EA16
:100560000E23043A895C0B434CF80439032AE9D87A
:10057000036803F55E7E0C2217E0531E85490B4489
:1005800093F810C0931E0B441B7C1B0443EA0C63BE
:10059000A2F1030C8C449CF810C043EA0C23043AEB
:1005A0001144097C0B434EF80439032AE5D803684B
:1005B00003F5627C102213E0531E774911F803E023
:1005C000931ECB5C1B0443EA0E63A2F1030E11F8E9
:1005D0000EE043EA0E23043A895C0B434CF80439DD
:1005E000032AE9D80368D3F82C146FF30F014FF6F0
:1005F000F9220A43C3F82C2403F5856EA02217E0E4
:10060000531E65490B4493F810C0931E0B441B7C8A
:100610001B0443EA0C63A2F1030C8C449CF810C049
:1006200043EA0C23043A1144097C0B434EF8043985
:10063000032AE5D80268D2F82C349BB243F0407309
:10064000C2F82C340368D3F83C246FF30F02C3F8CC
:100650003C2403F5876C0C2215E0531C4F4911F81C
:1006600003E08B5C1B0443EA0E6302F1FF3E11F8CA
:100670000EE043EA0E23A2F1020E11F80E100B4316
:100680004CF80439043A032AE7D80268D2F83C341B
:100690009BB243F08073C2F83C340368D3F848142B
:1006A0006FF30F0140F60A320A43C3F8482403F2FD
:1006B000444C082218E0531C38490B4493F810E0CE
:1006C0008B181B7C1B0443EA0E6302F1FF3E8E4431
:1006D0009EF810E043EA0E23A2F1020E7144097C59
:1006E0000B434CF80439043A032AE4D80268D2F8E0
:1006F00048349BB243F00073C2F848340368D3F81F
:1007000058146FF30F0147F202720A43C3F85824DA
:1007100003F2544C0C2215E0531C214911F803E05C
:100720008B5C1B0443EA0E6302F1FF3E11F80EE0FE
:1007300043EA0E23A2F1020E11F80E100B434CF8FF
:100740000439043A032AE7D80268D2F858349BB235
:1007500043F08073C2F85834036803F59F6CA022FD
:1007600014E0531C0E490B44187C8B181B7C1B0493
:1007700043EA0063501E0844007C43EA0023901EB5
:100780000144097C0B434CF80439043A032AE8D8A5
:100790005DF804FB0014000030130000E4130000B7
:1007A0007C12000010B50446FFF7C6FE226802F571
:1007B000A06212492046FFF763FE034608B11846BF
:1007C00010BD226802F5CC620D492046FFF758FEA5
:1007D00003460028F3D1226802F5F8620949204651
:1007E000FFF701FE03460028E9D1226802F5FC620A
:1007F00005492046FFF7F7FD0346E0E73013000008
:100800007C12000000140000E4130000436D23F488
:1008100040534365436D03F00303022B2DD0026860
:10082000536823F0080353600268136823F0010340
:1008300013600268136B23F07E0313630268136B6B
:1008400043F4005313630268136B43F48043136350
:100850000268936B43F0600393630268136843F08C
:1008600001031360436D03F00C03082B0BD0436DA1
:1008700003F00C030C2B0CD070470268536843F054
:1008800008035360D0E70268136B43F06E031363F1
:1008900070470268136B43F060031363ECE70000DA
:1008A00070B50546046850344FF0000EF44625E05C
:1008B0000CF1640C0132032A1DD8D30020FA03F393
:1008C000DBB2012BF4D0642101FB03F30EEB020138
:1008D0000F4E715CEE6B715CB3FBF1F3642B04D8CB
:1008E000C3F1C8030CEB530CE4E741F28831B1FBD0
:1008F000F3F39C44DEE70EF1040E0434BEF13C0F2A
:1009000002D820680022D6E74FEA9C1070BD00BFD5
:100910003C12000070470000002847D010B5044684
:1009200090F84D30002B39D0022384F84D302268E6
:10093000136B43F0010313632268136823F0010370
:1009400013602268136B23F07E0313632268136B1A
:1009500043F4005313632268136B43F4804313631F
:100960002268936B43F060039363114BE363114B75
:10097000236400236364A3642046FFF713FF90B948
:100980002268536843F480735360002323626362D8
:10099000012284F84D202365636510BD80F84C303A
:1009A000FFF7B8FFC0E701202065F6E70120704798
:1009B000FC110000BC110000002918BF00285CD009
:1009C00070B503460C4601684A6802F00302022A29
:1009D00006D04A6812F0030F29D10022226001E0FC
:1009E000102222601A685268120CA2601A68D2683B
:1009F000120CE2602268302A18BF102A35D119681B
:100A00000A69C2F3031C4D698969C1F3031115F02A
:100A1000F00F0CBF01200020BCF1010F14BF002615
:100A200000F001065EB151B9022262601FE04A681F
:100A300002F00302032A22D130222260D2E72A43A5
:100A400012F0F00F03D111B9002262600FE0BCF187
:100A5000030F14BF002000F0010018B111B90122EA
:100A6000626004E00022626001E0002262601846D9
:100A7000FFF716FF2061002070BD012070470120A4
:100A8000FAE7002918BF00282ED010B50C466BB32A
:100A900090F84C1001292BD0012180F84C1090F8CF
:100AA0004D10C9B2012904D0002380F84C30022037
:100AB00010BD042180F84D10416D21F00F014165FA
:100AC000416D41F00A0141658461C36122F0030276
:100AD0008262029B23F00303C36200240462446227
:100AE000FFF794FE2046E3E7012070470120DFE78F
:100AF0000220DDE7436D03F00C030C2B06D0436DA1
:100B000003F00C03082B10D00020704711F0010FE8
:100B100003D0436D43F48053436511F0020FF3D0CB
:100B2000436D43F400534365EEE711F0010204D036
:100B3000436D43F480534365062211F0020F05D044
:100B4000436D43F40053436542F0280201680B6B88
:100B500023EA02030B63D7E7C161C26270477047A3
:100B600038B504460D46836A03B199B90121204680
:100B7000FFF7C0FF0022636D13F4805337D1002AC2
:100B800035D04FEA920CB5EB920F2ED9032A2FD80D
:100B90001D464FE0026A934202D9026A9A1AEAE7B6
:100BA000026A934201D00022E5E7016A01F0B8F839
:100BB000A36A042B02D923F00303A3620023236258
:100BC000A26AD8E7216AA069425C0844417842EAF7
:100BD0000122817842EA0142C078216842EA00623B
:100BE0000A64226A043222620133AB42EAD338BD7E
:100BF0006345FCD2206AA1690A5C0144487842EA54
:100C00000022887842EA0042C878216842EA0062FD
:100C10000A64226A043222620133E9E7A069216A88
:100C2000415C03F00300C00081400D43216A0131A3
:100C3000216201339A42F1D823681D64D7E7F8B5E1
:100C40000446C06A636A03EB8103984246D2636A32
:100C5000984242D9636AC01A80080021814247D273
:100C600023685B6CE569626AAB54E569626A0132CC
:100C7000C3F30726AE54E569626A0232C3F307463E
:100C8000AE54E569626A03321B0EAB54636A0433E7
:100C900063620131E2E723685B6C626AE569AB5429
:100CA000626A0132C3F3072CE56905F802C0626A83
:100CB0000232C3F3074CE56905F802C0626A0332E9
:100CC0001B0EE569AB54636A0433636201308842EA
:100CD000E1D3E26A636A9A4202D0F8BD0020F6E7E7
:100CE000626AE169204600F0FDFF00236362F4E7D9
:100CF000E76A636A9F4206D0656AA7EB050C236822
:100D00005E6C002213E0626AE169204600F0EAFFAF
:100D100000236362E1E702F00303DB0026FA03F33A
:100D2000E069616A4354636A013363620132624578
:100D3000F1D3626AE169204600F0D4FF00236362C8
:100D4000ED1B043509E0EB0026FA03F3E169626A62
:100D50008B54636A013363620135032DF3D9BCE719
:100D600038B50446436D03F00303022B21D0636DB5
:100D700013F4805F08D123685A6B12F0020F32D14E
:100D80005B6B13F0040F33D1636D13F4005F08D174
:100D900023685A6B12F0080F2FD15B6B13F0100F02
:100DA00030D12268536B03F03803202B2FD0002062
:100DB00038BD03685B6B13F0400FD8D0051D294682
:100DC000FFF7FAFD002363612946204600F028FF63
:100DD0002268136B23F0400313632268936B43F084
:100DE00040039363C3E708212046FFF7B9FECBE732
:100DF00001212046FFF7B4FEC6E708212046FFF791
:100E00001EFFCEE701212046FFF719FFC9E713684F
:100E100023F001031360636D03F00C03082B1AD059
:100E20002268936B43F060039363636ACBB9636D8D
:100E3000626D02F482426265002284F84C20012235
:100E400084F84D2003F00303022B12D02046FFF755
:100E500086FE0120ACE72268136B23F07E03136348
:100E6000DEE7626AE169204600F03CFF002363622E
:100E7000DDE7204600F060FFEBE738B504461025BB
:100E800000E0013D65B3636D13F4005FF9D12368A1
:100E90005A6B12F0100FF4D05B6CE169626A8B54EC
:100EA000E169626A0132C3F307208854E169626A2A
:100EB0000232C3F307408854E169626A03321B0EB1
:100EC0008B54636A04336362626AE36A9A42D8D1DC
:100ED000626AE169204600F005FF00236362D0E703
:100EE000616D23685A6B12F0100F02D011F4005F8D
:100EF00017D11A6822F001021A60636A93B9636D10
:100F0000626D02F482426265002284F84C20012264
:100F100084F84D2003F00303022B0BD02046FFF78B
:100F20001EFE38BD626AE169204600F0DBFE002348
:100F30006362E4E7204600F0FFFEF2E7436D13F43E
:100F4000405F00F08A8030B583B004460D46436DA3
:100F500003F00C030C2B07D0436D03F00C03082B9C
:100F600064D0002003B030BD11F0010F0ED0436DEE
:100F700023F480534365006B826AF2B1A36AB3FB2A
:100F8000F2F102FB11329B1AA362FBB915F0020FBA
:100F900065D0636D23F400536365636D13F4004FF4
:100FA00026D1606B826A42BB236D43F00403236544
:100FB000062384F84D300120D4E7236D43F0040369
:100FC0002365062384F84D300120CBE722680121F8
:100FD00000914032A16903F03BFC0028D6D0236D7C
:100FE00043F004032365062384F84D300120B9E75C
:100FF0002046FFF742FF0020B4E7E36AB3FBF2F1BB
:1010000002FB11329B1AE362216801220092E2691D
:10101000443103F01DFC0028A4D0236D43F00403E9
:101020002365062384F84D3001209BE711F001026F
:1010300004D0436D23F480534365062215F0020F5C
:1010400005D0636D23F40053636542F028022168E4
:101050000B6B13430B63002084E7012070470020D3
:1010600080E710B50446C26A436B1B685B69C3F333
:101070001003D31A4362436A9A421ED023685B6B03
:1010800013F0100F2CD1636AF3B92268136823F0B0
:1010900001031360636D626D02F482426265002297
:1010A00084F84C20012284F84D2003F00303022B26
:1010B00012D02046FFF753FD16E0426AC16900F0E6
:1010C00011FE00236362D9E7626AE169204600F0FD
:1010D00009FE00236362D8E7204600F02DFE03E0FE
:1010E000636D13F4005F00D010BD2046FFF7C5FE0E
:1010F000FAE738B50446436D03F00303022B26D00C
:1011000023685A6B12F0200F20D0626D42F4004227
:1011100062651A6822F001021A602268136B23F0DC
:101120007E0313632268936B43F060039363206B29
:1011300090F83D30DBB2022B23D0606B90F83D304D
:10114000DBB2022B20D02046FFF78BFF38BD0368AF
:101150005B6B13F0400FD3D0051D2946FFF72CFC25
:10116000002363612946204600F05AFD2268136B74
:1011700023F0400313632268936B43F040039363AF
:10118000BEE703F01DFBD8E703F01AFBDEE708B566
:1011900090F84D30033B012B00D908BD436D03F09F
:1011A0000C03082B07D0436D03F00C030C2BF4D178
:1011B000FFF79FFFF1E7FFF7D3FDEEE71112182FBE
:1011C0006363636312151A4263636363181A3863B7
:1011D000636363632F426363636363636363636334
:1011E00063636363636363636363636363636363CF
:1011F000636363636363636363636363100B0A1016
:101200001828333D0C0C0E131A3A3C370E0D1018EB
:10121000283945380E11161D3357503E1216253801
:10122000446D674D182337405168715C31404E570B
:1012300067797865485C5F627064676300010810D5
:101240000902030A11182019120B04050C131A21A4
:10125000283029221B140D06070E151C232A3138AD
:1012600039322B241D160F171E252C333A3B342DF3
:10127000261F272E353C3D362F373E3F0002010208
:1012800004040304070504040001027700010203BB
:101290001104052131061241510761711322328177
:1012A00008144291A1B1C109233352F0156272D1E1
:1012B0000A162434E125F11718191A262728292A95
:1012C00035363738393A434445464748494A5354F6
:1012D00055565758595A636465666768696A7374E6
:1012E00075767778797A82838485868788898A92E9
:1012F000939495969798999AA2A3A4A5A6A7A8A90E
:10130000AAB2B3B4B5B6B7B8B9BAC2C3C4C5C6C732
:10131000C8C9CAD2D3D4D5D6D7D8D9DAE2E3E4E55E
:10132000E6E7E8E9EAF2F3F4F5F6F7F8F9FA00008F
:101330000002010303020403050504040000017D0B
:101340000102030004110512213141061351610706
:10135000227114328191A1082342B1C11552D1F0FA
:101360002433627282090A161718191A25262728AB
:10137000292A3435363738393A43444546474849AF
:101380004A535455565758595A6364656667686995
:101390006A737475767778797A8384858687888985
:1013A0008A92939495969798999AA2A3A4A5A6A792
:1013B000A8A9AAB2B3B4B5B6B7B8B9BAC2C3C4C5BE
:1013C000C6C7C8C9CAD2D3D4D5D6D7D8D9DAE1E2EC
:1013D000E3E4E5E6E7E8E9EAF1F2F3F4F5F6F7F835
:1013E000F9FA0000000301010101010101010100FE
:1013F00000000000000102030405060708090A0BAB
:1014000000010501010101010100000000000000D0
:10141000000102030405060708090A0B30B5056838
:101420006C6C04F0404C039C44EA03444CEA040412
:101430006C640368DA634368B3F5403F05D0B3F5E5
:10144000802F35D00368D96030BD01F07F4C01F4A6
:101450007F0301F47F45CAB28468032C1CD8DFE8FF
:1014600004F00402070F21F07F4103689963EBE762
:10147000DB0CAD0ADB0243EA451343EAD201F4E791
:101480004FEADC7CDB0CED0A9B0243EA451343EA9E
:10149000CC3343EAD201E8E74FEA1C7C1B0D2D0B4D
:1014A0001B0243EA051343EA0C3343EA1211DCE75B
:1014B00003685961C8E77047002837D010B5044663
:1014C00090F86130002B2CD0022384F86130216821
:1014D0000A68174B13406268E069024313430B60CC
:1014E00021684A6B134B1340A268A069024313435F
:1014F0004B632268136C6FF30F03E1680B431364B3
:1015000021684B6B23F4401320696269520542EA5B
:10151000005213434B6300206066012384F861305E
:1015200010BD80F86030FFF7C6FFCDE7012070479F
:10153000BFFFF8FFF8FEFFFF10B582B0044690F839
:101540006000012812D0012084F86000022084F895
:101550006100049800902046FFF760FF226813683E
:1015600043F001031360002002B010BD0220FBE72E
:1015700070B582B004460D460023019303681B68D2
:1015800013F0010F11D12268D369526A134313F08B
:10159000200F47D1236812229A60012384F861301A
:1015A000002084F8600002B070BD03F07DF80646AC
:1015B00023685A6812F0020FE5D15A680192019A25
:1015C00012F0210F14D1B5F1FF3FF1D003F06CF808
:1015D000801BA84201D8002DEAD1636E43F020039E
:1015E0006366032084F86100002384F86030DAE742
:1015F000019A12F0200F03D0626E42F0020262667E
:10160000019A12F0010F03D0626E42F0010262668D
:1016100021229A60042384F86130002384F860302A
:101620000120C0E703F040F8064623685A6812F02C
:10163000100FAFD15A680192019A12F0290F14D1FC
:10164000B5F1FF3FF1D003F02FF8801BA84201D87D
:10165000002DEAD1636E43F020036366032084F813
:101660006100002384F860309DE7019A12F0080FB2
:1016700003D0626E42F004026266019A12F0200FFB
:1016800003D0626E42F002026266019A12F0010F0C
:1016900003D0626E42F00102626629229A6004233E
:1016A00084F86130002384F8603001207BE700007B
:1016B00090F86020012A74D030B40346012280F8EB
:1016C0006020022280F86120C1EBC10003EB8000A2
:1016D000C46A026B44EA0242856B42EA0552C06B5F
:1016E00042EA4052A4F10900012820D9C1EBC1000F
:1016F00003EB8000406B42EA006259BB1C68656ADC
:1017000029482840104360621868C1EBC10203EB0E
:101710008202946A8461D26A093A012A10D90122AC
:1017200083F86120002083F8600030BC7047C1EB73
:10173000C10003EB8000406B00F07F400243DCE718
:10174000C1EBC10103EB81014A6B196822F07F42B2
:101750008A62E4E70B2C1BD0144D1C68E06920EA78
:1017600005000243E2611868C1EBC10203EB82028B
:10177000946A0461D26A093A012AD0D8C1EBC10146
:1017800003EB81014A6B196822F07F420A62C6E7C7
:10179000C1EBC10003EB8000006C42EA8042044DC3
:1017A000DBE70220704700BFF0FFCC000F0033FFE3
:1017B0000F003FFF01F11F0323F01F03002B10DD7B
:1017C000024600F01F000343BFF34F8F0649C1F8E4
:1017D00068222032203B002BF8DCBFF34F8FBFF391
:1017E0006F8FBFF34F8F704700ED00E001F11F03D3
:1017F00023F01F03002B10DD024600F01F000343FF
:10180000BFF34F8F0649C1F85C222032203B002BEA
:10181000F8DCBFF34F8FBFF36F8FBFF34F8F70476D
:1018200000ED00E00F4B1B78B3B10F4BDA6F42F0C5
:101830002002DA67DA6F22F02002DA67DA6F42F00C
:101840001002DA67DA6F22F01002DA67074B1B68C2
:1018500013B1002283F82C200023024A1370034A9C
:1018600013607047DBF3072400440258DCF30724BD
:10187000014B1878704700BFDBF307242DE9F043D4
:1018800085B004460F461646FFF7CCFF002C00F04B
:101890009C8014F0030F40F09A80002F00F09C8091
:1018A00017F0030F40F09A80002E00F0998096F810
:1018B0002050002D00F08C80B36A002B00F0928045
:1018C000494BD3F8D42042F02002C3F8D420D3F8F7
:1018D000D42002F020020292029AD3F8D42042F0DF
:1018E0001002C3F8D420D3F8D42002F010020392DF
:1018F000039ADA6F42F02002DA67DA6F22F02002F0
:10190000DA67DA6F42F01002DA67DA6F22F010025B
:10191000DA67792002F0BCFE792002F009FFDFF8D7
:10192000009158220021484602F00AFF2F4BC9F8C7
:101930000030DFF8F08068220021404602F000FF0E
:101940002B4BC8F800304FF48033C8F80430022322
:10195000C8F808304846FEF7DFFF08B1002537E039
:101960004046FFF7A9FD0028F8D1224B1E60224B0C
:1019700001221A700023214A1370214A1370214A50
:101980001370214A1360214A1360214A1360214ACF
:10199000136002F089FE204B18604FF4D731B06A13
:1019A000FFF708FF4FF4D731B06AFFF71FFF4FF47E
:1019B000F0530093194B3A4621461948FFF761F856
:1019C00030B1FFF72FFF002502E0002500E00025E1
:1019D000284605B0BDE8F0830025F9E70025F7E7C4
:1019E0000025F5E70025F3E70044025800300052D7
:1019F00000100052DCF30724DBF30724D8F307249C
:101A0000D9F30724DAF30724C8F30724CCF3072417
:101A1000D0F30724D4F30724C4F3072460780330F9
:101A200048F40724E0F307246F4B1B78002B00F0E9
:101A3000D58030B583B06D4B1B78B3B902F034FE5E
:101A40006B4B1B68C01A95280FD86A4B1B78002B6C
:101A50003ED0694B5B6813F0210F0CD1664B1B68BD
:101A600013F0010F0CD0002003E0FFF7DBFE4FF076
:101A7000FF3003B030BDFFF7D5FE4FF0FF30F8E781
:101A800000215E48FFF774FD20BB5D4B1B685D4A7B
:101A900011685A18AC2A01D9C3F1AC015A4A12682C
:101AA000906A03EB830301EB8101C90100EBC310D2
:101AB000FFF79CFE524A1368524909680B441360B1
:101AC00000234C4A1370514A1360514B1B7833B1B9
:101AD000002419E0FFF7A6FE4FF0FF30C9E74D4C98
:101AE0004D4B1A684D492046FFF736F80221204633
:101AF000FFF724FA0028EBD03C4B01221A70E7E7ED
:101B00004448FFF744FB01341F2C09D83F4B1B68A6
:101B100033B93F4B1B781BB9344B1B78002BEFD0EC
:101B2000324B1B78002B2DD1384B1968002938D047
:101B3000394B1B685BB3994229D1314B1B68AB2BE6
:101B400025D8304A14681A19AC2A01D9C3F1AC045B
:101B5000324D2846FFF72EFE2B4B1B68996A284B07
:101B60001A6802EB820200944FF4A07301EBC212D8
:101B700029462248FFF7E0FC70B91E4B01221A707B
:101B8000002076E7FFF74EFE4FF0FF3071E7FFF7DA
:101B900049FE4FF0FF306CE7FFF744FE4FF0FF3097
:101BA00067E71B4B1B78E3B1154B1B68AB2B10D9B8
:101BB00015490B68012083F82C0000221A86DA856B
:101BC00040F23F145C86AB249C86074B1A700A6077
:101BD0004FE7FFF727FE4FF0FF304AE74FF0FF30A7
:101BE0007047002045E700BFDBF30724DAF3072442
:101BF000C4F30724D8F3072400100052E0F30724AD
:101C0000C8F30724CCF30724DCF30724D4F3072418
:101C1000D9F3072448F40724D0F30724607803306D
:101C200008B52A4B834200D008BDCB68B3F5A07F2E
:101C300005D18B68AC2B02D10B68102B03D0244B41
:101C400001221A70F0E7234B0B229A6400225A6497
:101C5000DA64FF221A654B68012B0ED0022B25D0C7
:101C6000002B2ED11C4B08221A601C4B4FF4F05253
:101C70001A60184B0022DA6509E0174B10221A602F
:101C8000164B4FF4F0521A60124B0222DA65012112
:101C90001048FFF70DFD10B10D4B01221A700F4BCC
:101CA0001A680F490948FEF757FFBDE70A4B08229B
:101CB0001A600A4B4FF4A0521A60064B0122DA65F3
:101CC000E5E7034B01221A70AEE700BF48F4072492
:101CD000DAF30724E0F30724CCF30724D0F3072436
:101CE0006078033008B50B4B984200D008BD0A4B12
:101CF0001B681BB1094B01221A70F7E7064B1A60EB
:101D00000221FEF7F7FE0028F0D0044B01221A70E2
:101D1000ECE700BF48F40724D4F30724DAF30724E0
:101D200008B5044B984200D008BD0121FEF7E2FE41
:101D3000FAE700BF48F40724034B834200D0704702
:101D4000024B01221A70FAE748F40724D9F307245A
:101D500008B54FF4BA720021034802F0F1FC0348C1
:101D600002F0AAFC08BD00BF5CEB072458EB072477
:101D70002DE9F04180460F461646002408E0AAB23D
:101D800021F07F41381902F02FFD034668B92C4439
:101D9000B44209D2351B04EB0801CBB2C3F5807302
:101DA0009D42ECD31D46EAE700231846BDE8F081CA
:101DB0005772697465206661696C65643A256400D0
:101DC000546F6F206D616E79204A504547206672CE
:101DD000616D657320286D617820313830290000ED
:101DE000546F6F206D616E79206672616D6573202E
:101DF000286D617820313229000000005061796C33
:101E00006F6164207772697465206661696C6564CE
:101E1000000000004661737420696D61676520747D
:101E200072616E73666572207632207265717569B3
:101E300072656400496E76616C69642066617374D2
:101E4000207472616E73666572206D657461646181
:101E500074610000496E76616C69642064696D6527
:101E60006E73696F6E730000496E76616C696420F1
:101E7000616E696D6174696F6E206D657461646116
:101E80007461000053697A65206D69736D617463D4
:101E90006800000053697A6520746F6F206C61726E
:101EA000676500004572617365206661696C6564F1
:101EB0003A256400496E76616C6964206368756ECA
:101EC0006B206C656E6774680000000055736520B8
:101ED000494D4147455F44415441207265706F72DE
:101EE00074730000496E76616C696420636F6D6D78
:101EF0006974206C656E6774680000004E6F206125
:101F000063746976652073657373696F6E00000092
:101F1000496E636F6D706C6574652075706C6F6170
:101F20006400000053747265616D20435243206D5C
:101F300069736D61746368005061796C6F616420CE
:101F4000726561646261636B206661696C656400DF
:101F50005061796C6F616420435243206D69736DE9
:101F60006174636800000000496E76616C696420EA
:101F70004A5045472073657175656E6365000000C2
:101F8000496E76616C69642067656E65726174651F
:101F900064206865616465720000000048656164E2
:101FA0006572207772697465206661696C65643A50
:101FB0002564000048656164657220726561646231
:101FC00061636B206661696C65640000496E7661CF
:101FD0006C69642064656C657465206C656E6774FB
:101FE00068000000496D61676520756E6176616902
:101FF0006C61626C650000004F7574206F66207222
:10200000616E676500000000526561642066616969
:102010006C656400545820495350000046696E694D
:10202000736800005374617274000000457869742D
:10203000000000004D6F6465206368616E67652075
:102040006661696C65642E205472792061676169EC
:102050006E2E000043757272656E74206D6F64653C
:1020600020686173206265656E206B6570742E0058
:10207000436865636B2073746F726167652C2074AD
:1020800068656E2072657472792E0000436F6E660B
:1020900069726D20616761696E20746F207265746A
:1020A00072792E004669726D776172652075706471
:1020B000617465206F776E7320746865206465763F
:1020C0006963652E0000000049535020776173203A
:1020D0006E6F7420737461727465642E000000006A
:1020E00046696E69736820746865207570646174F0
:1020F00065206265666F7265207265747279696EBB
:10210000672E0000486F6C64204261636B20746F1F
:102110002072657475726E2E00000000456E737536
:1021200072652074686520646F776E6C6F616420DF
:1021300068617320656E6465642E000052656D6F82
:10214000766520504232322066726F6D20474E44D1
:102150002066697273742E0050726573732045781F
:10216000697420746F2072657475726E20746F20AC
:102170007072696F72206D6F64652E00486F6C64B9
:10218000204261636B20746F206B6565702049533A
:1021900050206163746976652E00000054582070E9
:1021A0006F7765722068656C64206F6E2E205350C7
:1021B00049207061757365642E00000055736520B9
:1021C00057434849535053747564696F20746F20A6
:1021D000646F776E6C6F61642E0000004B656570F4
:1021E00020706F776572206F6E20647572696E67FC
:1021F00020646F776E6C6F61642E0000507265739F
:10220000732046696E69736820616674657220691F
:102210007420636F6D706C657465732E0000000030
:10222000436F6E6E656374205458205042323220E2
:10223000746F20474E442066697273742E0000004C
:10224000507265737320537461727420746F2072BE
:1022500065737461727420545820696E204953501C
:102260002E0000005553422F52462F576562436F90
:102270006E6669672077696C6C2070617573652E76
:10228000000000005573652057434849535053746C
:102290007564696F20616674657220656E74727909
:1022A0002E000000074A927802B1704708B5034635
:1022B000044801228270044A402100F5997002F01E
:1022C000D7FA08BD5CEB0724B01D00002DE9F041F2
:1022D000002A18BF00290CBF0124002439D007466A
:1022E0000E46154620F07F48B2F5000F32D8C2F5F1
:1022F000000343452ED302F087FA044600B308F1E9
:10230000104121F01F026B181F3323F01F039B1A8B
:10231000002B0CDDBFF34F8F1048C0F85C22203239
:10232000203B002BF8DCBFF34F8FBFF36F8FBFF361
:102330004F8FBFF36F8F2A46304602F03DFA09E017
:102340002A463946304602F0D3F9B0FA80F46409DF
:1023500000E000242046BDE8F08100BF00ED00E071
:102360002DE9F04F8BB002AC84E803001D46BDF8A8
:10237000507000230593069307930893CDF82330FC
:10238000032A03D800200BB0BDE8F08F14460E4698
:102390000B68022205A998481844FFF797FF002808
:1023A000F0D09DF81430FF2BECD19DF81530D82BD0
:1023B000E8D1A31E32681344022205A98E481844AE
:1023C000FFF784FF0028DDD09DF81430FF2BD9D112
:1023D0009DF81530D92BD5D14FF0000ACDF800A0CB
:1023E0004FF0020808F10403A34200F2FD8008F157
:1023F000010933689844012205A97F484044FFF74A
:1024000065FF0028BFD09DF81430FF2B02D00020BC
:10241000B9E7C146A1454ED209F1010833684B44E2
:10242000012205A974481844FFF750FF002842D044
:102430009DF81490B9F1FF0FEBD0A4EB08030193C2
:10244000012B3AD933684344022205A96A4818444B
:10245000FFF73CFF88B39DF814309DF815B00BEBE7
:10246000032BBBF1010F40F2C180019B5B45C0F023
:10247000BF80B9F1DB0F22D0B9F1C40F22D0B9F17E
:10248000C00F22D0B9F1DA0F6CD0B9F1DB0F18BF51
:10249000B9F1C40F62D0B9F1FE0318BF0123B9F13D
:1024A000DD0F5BD0002B59D009F12003DBB20F2BDD
:1024B00054D9002067E7002065E7002063E74AF071
:1024C000010AD9E74AF0020AD9E7009BBBF1110FD4
:1024D00018BF43F0010313F0FF0F41D133684344A9
:1024E000112205A944481844FFF7F0FE0090B8B344
:1024F0009DF81630082B33D19DF81B30032B2FD1BC
:102500009DF817209DF8183003EB02239BB2BB42C5
:1025100026D19DF819209DF81A3003EB02239BB2B7
:10252000AB421DD19DF81C30012B19D19DF81F30F5
:10253000022B15D19DF82230032B11D19DF81D30AF
:10254000112B03D0212B01D0222B09D19DF8203053
:10255000112B05D19DF82330112B01D1D84441E72F
:10256000002010E70098BAF1030F14BF002000F01C
:10257000010000283FF407AFBBF10C0F01D0002091
:1025800001E7336898440C2205A91B484044FFF733
:102590009DFE00283FF4F7AE9DF81630032B01D0C6
:1025A0000020F0E69DF81730012B01D00020EAE66C
:1025B0009DF81930022B01D00020E4E69DF81B3075
:1025C000032B01D00020DEE69DF81D3093B99DF865
:1025D0001E303F2B01D00020D5E69DF81F30002B88
:1025E0003FF4D1AE0020CEE60020CCE60020CAE6C3
:1025F0000020C8E60020C6E6001060902DE9F04FEC
:10260000ADF2CC5D8DF80C001E46BDF8F0850023C0
:10261000CDF8B835CDF8BC35531EDBB2B32B09D895
:102620000D461446664B994204D8531CDF00B1EBAB
:10263000C30F04D200200DF2CC5DBDE8F08F08225C
:102640000DF5B7615F48FFF741FE0028F2D09DF815
:10265000B8359DF8B92543EA02239DF8BA2543EA27
:1026600002439DF8BB2543EA0263574A9342E1D1F6
:102670009DF8BC35A342DDD19DF8BD35002BD9D1E5
:102680009DF8BE35002BD5D19DF8BF35002BD1D19B
:102690004FF4B462002106A802F052F84FF000098E
:1026A00043E0013177E09F4240F0838003ABCDF8F7
:1026B000C03504ABCDF8C435CDF8008033460DF5F8
:1026C000B96111E90300FFF74BFE002871D0049BAC
:1026D000059A03EB020C0CF1030727F00307BD4238
:1026E00067D3FB1A9B1A02930CD1029B9A4513D213
:1026F0000AF5B9636B4413F8103C002B59D10AF169
:10270000010AF2E71A460DF5B7612E486044FFF75B
:10271000DDFD0028E9D14CE004AA06AB03EBC903B8
:1027200092E8030083E80300D9464C4543D909F1F8
:10273000010B08220DF5B761244800EBC900FFF733
:10274000C5FDB0B39DF8B8359DF8B92543EA02231D
:102750009DF8BA2543EA02439DF8BB2543EA02638C
:1027600004939DF8BC259DF8BD1542EA01229DF811
:10277000BE1542EA01429DF8BF1542EA0162059288
:1027800013F0030A15D1032A13D99D4211D3E91A74
:1027900091420ED35146894585D906A850F831009B
:1027A00098427FF47EAF06AB03EBC1035B689342B4
:1027B000B2D000203FE7AF4214BF002001203AE72B
:1027C00000F01700001060904A53455108106090C7
:1027D00008B5024802F014F808BD00BF58EB072402
:1027E00011B90023184670472DE9F047C2B0814661
:1027F0009246884641A802F003F8002709E001ABA1
:10280000191941A801F0C4FF0134A4B2A542F6D8B9
:102810003744474511D2A8EB0706B6F5807F01D9AA
:102820004FF48076324601A907EB0900FFF74EFD11
:10283000034640B1B5B20024E8E741A801F09CFF8F
:10284000CAF800000123184642B0BDE8F087000036
:1028500008B5024B0BB101F0DFFF08BDF56605249A
:102860002DE9F041AAB005460C4690461E46319F20
:102870004F22002116A801F063FF8DF8585084B351
:1028800001238DF85930CDF85A80CDF85E60309B29
:10289000CDF8623084F00104002F0CBF002404F056
:1028A0000104ACB1384601F0F3FF04463F2800D9DB
:1028B0003F248DF86640224639460DF1670001F04D
:1028C0007BFF04F1A8030DEB0304002304F8413C53
:1028D000B22D08D04F2116A801F036FF2AB0BDE86E
:1028E000F0810023CDE753242246002101A801F006
:1028F00027FF4F2216A901A801F05EFF329BCDF8F9
:102900005330214601A801F01FFFE7E72DE9F04110
:102910008EB004460F4616469846179D3722002172
:10292000684601F00DFFB5238DF80030002D55D01D
:1029300000238DF8013063788DF802308DF8038024
:10294000D4F802300193BDF85030ADF80830BDF82E
:102950005430ADF80A30169B0393D4F80630049334
:10296000002D3DD00023ADF81430ADB1284601F064
:102970008FFF04461F2800D91F248DF816402246D9
:1029800029460DF1170001F017FF04F138030DEB94
:102990000304002304F8213C194CEC46BCE80F006A
:1029A0000FC4BCE80F000FC4BCE80F000FC49CE8C4
:1029B000030044F8040B24F8021B090C2170B5FA3B
:1029C00085F56D09002F08BF002505B156B93721DF
:1029D0000B4801F0B9FE0EB0BDE8F0810123A8E775
:1029E0003346C0E7074C32463946204601F0E4FE44
:1029F00006F13701A4F1370001F0A6FEEBE700BFB6
:102A00004018033077180330062805D00C2805D06D
:102A1000032805D10120704701207047012070472D
:102A200000207047C9B170B505460E46084601F052
:102A30002FFF04460F2812D802463146284601F0DF
:102A40004BFE70B92B5D73B9621C0F2A03D8AB5CC7
:102A50005BB90132F9E7012002E000207047002055
:102A600070BD0020FCE70020FAE70020F8E708B579
:102A7000FFF76EF908BD10B5044601F0C5FE2070E1
:102A800008B9204610BD01F047FEFAE72DE9F041F4
:102A900082B0204B1B8E2BB11E4B9C7854B100246E
:102AA0001C8603E01B4B9C7884F00104204602B096
:102AB000BDE8F08101A8FFF7DEFF164D6B69164EE9
:102AC0001E442F8E01F0F0FD80463A4626F07F41ED
:102AD00005F1320001F088FE064601F0E5FDA0EBAD
:102AE0000800AB6A0344AB626EB90A4B5A693A44B8
:102AF0005A6100221A8601249DF80430002BD5D09B
:102B000001F07AFED2E73046FFF7CCFB00222A869E
:102B1000F2E700BF5CEB0724001060902DE9F0475E
:102B200082B03E4B1F78002F6BD005460C46904676
:102B3000002918BF00280CBF0123002360D0B1F585
:102B4000797F62D8354A5178002960D110461269E0
:102B5000002312EB040C43EB0306C0686045B3414D
:102B600057D3E146B8F1000F05D1604553D01FFAA5
:102B700084FA002609E06045F9D00F4641E0A91922
:102B8000274801F005FE0136B6B2B245F7D8234E0C
:102B9000C6F8109001F088FD3062002606E001AB17
:102BA000D3F800901D4B9B786BB14E44A6421DD2CA
:102BB0001A4B188EC0F580720092A31B01939A42A3
:102BC000EDD86B46ECE7DFF85CA04A46A919504403
:102BD00001F0F2FD3AF8023C4B449BB22AF8023C69
:102BE000B3F5807FE1D1FFF751FFDEE7B8F1000FC9
:102BF00007D00A4B01225A70FFF748FF474600E012
:102C00000027384602B0BDE8F0871F46F9E71F46A7
:102C1000F7E70F46F5E74746F3E700BF5CEB07240D
:102C200058EB07248EEB072408B5074B1B7833B10C
:102C3000054B1B6AC01A47F22F53984200D808BDB3
:102C4000FFF786F8FBE700BF5CEB0724014B187821
:102C5000704700BF5CEB072470B582B006460D4696
:102C600001A801F0CDFD002405E0311901A801F013
:102C70008FFD0134A4B2A542F7D801A801F07CFD74
:102C800002B070BD2DE9F04704460D460068654965
:102C9000884240F09A801646A288AA4240F0988066
:102CA000A279012A40F09680E289002A40F09480BF
:102CB000194604F14C00FFF7B5FE002800F08680AD
:102CC00027897B1E9BB2B3F5A07F80F08780B4F884
:102CD0000A90B9F1000F00F08380B9F1AC0F00F257
:102CE000818094F80C80B8F1000F7DD09DF82430DD
:102CF00098457BD8B0457BD8E379012B12D0022BC5
:102D00007CD1B8F1010F7BD994F80DA05046FFF7A4
:102D10007BFE00285AD0032D0AD1BAF1030F07D049
:102D2000002053E0B8F1010F64D1637B002B63D125
:102D300009FB07F35B004FF0000C1D46A3FB0810D6
:102D4000002B5FD022699A425ED14FF0FF328A4257
:102D5000624682415AD3A2698A4259D16169B1F56A
:102D6000805F57D10899B1F5805F55D9A1F58051A1
:102D70008A4253D8624603E0002009E00132D2B211
:102D8000B24218D29045F7D903FB02F000F580500B
:102D9000911D04EB81014968814241D19045EDD9F3
:102DA00069184CF10000089F8F424FF000018141EB
:102DB000E4D200200AE0256E60212046FFF74CFF98
:102DC000854214BF0020012000E00020BDE8F0870C
:102DD0000020FBE70020F9E70020F7E70020F5E7F7
:102DE0000020F3E70020F1E70020EFE70020EDE707
:102DF0000020EBE70020E9E70020E7E70020E5E717
:102E00000020E3E70020E1E70020DFE70020DDE726
:102E10000020DBE70020D9E70020D7E70020D5E736
:102E20000020D3E755494D4730B583B0044680882C
:102E3000052857D120683F4B98425DD1A379012BDB
:102E40005CD1E379032B5BD12389B3F5A07F59D102
:102E50006389AC2B58D1E389002B57D1237B002BFE
:102E600056D0B42B56D8012B25D0607B062818BF2E
:102E70000C2851D12069B0F5D73F4FD16069B0F52A
:102E8000805F4DD1B2F5805F4CD9A0690133B0EBC2
:102E9000C30F49D3284B984248D8A2F5805290429C
:102EA00046D804F14C00FFF7BDFD18B304F11C0334
:102EB00004F14C0205E0607B0028DBD0002019E023
:102EC0000433934204D019680029F9D0002011E09E
:102ED000256E60212046FFF7BFFE854214BF00200B
:102EE000012007E0019300920B460C2204212046AA
:102EF000FFF7C8FE03B030BD0020FBE70020F9E774
:102F00000020F7E70020F5E70020F3E70020F1E7D5
:102F10000020EFE70020EDE70020EBE70020E9E7E5
:102F20000020E7E70020E5E70020E3E70020E1E7F5
:102F30000020DFE755494D4700F017002DE9F04725
:102F400004460D4600686549884240F09A8016465E
:102F5000A288AA4240F09880A279012A40F0968087
:102F6000E289002A40F09480194604F14400FFF7FA
:102F700059FD002800F0868027897B1E9BB2B3F59F
:102F8000A07F80F08780B4F80A90B9F1000F00F0BC
:102F90008380B9F1AC0F00F2818094F80C80B8F115
:102FA000000F7DD09DF8243098457BD8B0457BD864
:102FB000E379012B12D0022B7CD1B8F1010F7BD920
:102FC00094F80DA05046FFF71FFD00285AD0032D9E
:102FD0000AD1BAF1030F07D0002053E0B8F1010F76
:102FE00064D1637B002B63D109FB07F35B004FF0D7
:102FF000000C1D46A3FB0810002B5FD022699A42EB
:103000005ED14FF0FF328A42624682415AD3A269B2
:103010008A4259D16169B1F5805F57D10899B1F5FC
:10302000805F55D9A1F580518A4253D8624603E0AA
:10303000002009E00132D2B2B24218D29045F7D94D
:1030400003FB02F000F58050911D04EB81014968FB
:10305000814241D19045EDD969184CF10000089F9B
:103060008F424FF000018141E4D200200AE0A56DBB
:1030700058212046FFF7F0FD854214BF00200120B3
:1030800000E00020BDE8F0870020FBE70020F9E722
:103090000020F7E70020F5E70020F3E70020F1E744
:1030A0000020EFE70020EDE70020EBE70020E9E754
:1030B0000020E7E70020E5E70020E3E70020E1E764
:1030C0000020DFE70020DDE70020DBE70020D9E774
:1030D0000020D7E70020D5E70020D3E755494D472A
:1030E0002DE9F0439BB09DF88890239F002818BFDE
:1030F000632994BF0124002471D915461E468046D9
:103100008288131F9BB2012B5CD9032A68D15C24EF
:103110002246002103A801F013FB2246414603A8E2
:1031200001F04AFBCDF8049000962B460A220321B9
:1031300003A8FFF703FF0446002851D064220021B2
:10314000384601F0FDFA039B3B60BDF81030BB80B0
:103150009DF81230BB719DF81330FB71BDF814302F
:103160003B81BDF816307B819DF818303B739DF88C
:1031700019307B73BDF81A30FB81079B3B61089BBC
:103180007B61099BBB610DF1280C07F11C050DF15A
:10319000480E66460FCE28606960AA60EB60B446B0
:1031A00010357645F5D1BCE803002860696014ADA0
:1031B0000FCDF86439657A65BB65189BFB65199B73
:1031C0003B660DE064220146384601F0F5FA4B46B5
:1031D000324629463846FFF727FE044600E0002421
:1031E00020461BB0BDE8F0832DE9F0439DB00446B6
:1031F000884615461E469DF8949064273A4600215D
:1032000003A801F09DFA3A4603A92046FFF75EF8AD
:1032100018B900201DB0BDE8F083249B01930096EF
:1032200043462A46394603A8FFF75AFF0028F0D044
:10323000B9F1000FEED000230293249B586902AA33
:1032400099692044FFF7CCFA30B1249BDA6D029BD8
:103250009A42DFD00020DDE70020DBE708B1002044
:10326000704700B583B0019200910C23044A4FF4DB
:10327000C0110448FFF7B8FF03B05DF804FB00BFBE
:10328000A03C000000006090A0B110B59AB00446C8
:103290006422002101A801F053FA0749204601F0F9
:1032A000CFFA10B100201AB010BD012201A9FFF71A
:1032B000D5FFF8E700207047A03C000070B5B0B023
:1032C00005460C46582200211AA801F039FAB42309
:1032D0008DF8683001268DF86960CDF86A50642257
:1032E000002101A801F02CFA324601A90020FFF7C5
:1032F000B5FF28B9022C23D8012C45D9042320E09E
:103300008DF86E60BDF80C30ADF87030BDF80E3041
:10331000ADF87230079B1D939DF810308DF8783012
:103320009DF811308DF879309DF80B308DF87A309A
:103330000F2214A922A801F06BFA189B2B93D9E74E
:1033400005238DF8A8300C238DF8A93000228DF8C4
:10335000AA2003228DF8B4204FF47972ADF8B6207C
:103360000F22ADF8B8200F4AADF8BA201722ADF8F9
:10337000BC20B4228DF8BE208DF8BF30022C0AD8B4
:10338000012C03D9522107E00223DAE701D04021C2
:1033900002E04C2100E058211AA801F0D5F930B024
:1033A00070BD00BF00F0FFFF234B1B7803B17047D7
:1033B00010B5CCB064242246002133A801F0C0F936
:1033C000224600211AA801F0BBF9224633A91B4866
:1033D000FEF77CFF58B11AAB01930C2300934FF416
:1033E000C013174A214633A8FFF77AFEA0B95C2420
:1033F0002246002103A801F0A3F9224603A911489F
:10340000FEF764FF30B1039A0F4B9A4208D00A4B83
:1034100001221A704CB010BD074B01221A70F9E757
:103420009DF81230012BF2D14FF48051054801F084
:10343000A7F90028EBD0EDE754EB072400006090DB
:10344000A03C000000806C9055494D4700B583B00A
:1034500001A8FFF710FBFFF7A7FF9DF8043013B991
:1034600003B05DF804FB01F0C7F9F9E72DE9F04F6F
:10347000ADF5845D85B0002918BF002810D0044642
:103480000D46B04B1B7893B12378303B052B09D800
:10349000DFE813F0190074018F01430381038A03ED
:1034A000FEF756FC0DF5845D05B0BDE8F08F24A84D
:1034B000FFF7E1FAFFF778FF9DF89030002BE3D09B
:1034C00001F09AF9E0E70BA8FFF7D5FAFEF740FC08
:1034D000162D1CD0052D06D9D4F802200D2D14D997
:1034E000D4F80A0001E00022104600210291964B18
:1034F000019300900B46B020FFF7B2F99DF82C30F5
:10350000002BCFD001F078F9CCE70020EDE7D4F81C
:103510000260E388ADF818301FFA83F82389ADF80C
:103520001A301FFA83FBD4F80A5094F801A094F8DB
:103530000E90E37B0593277C032F01D1637C53B16D
:1035400000210291814B019300950B463246B02039
:10355000FFF786F9D2E708F1FF339BB2B3F5A07FFE
:1035600004D20BF1FF339BB2AB2B0AD9002102919D
:10357000774B019300950B463246B020FFF770F968
:10358000BCE7B9F1000F05D0BAF1020F10D00C233F
:10359000994511DDBAF1020F0CD06E4B002102915A
:1035A000019300950B463246B020FFF759F9A5E785
:1035B000B423EDE7684BF1E7BAF1020F13D0B9F18C
:1035C000010F3ED0B9F1010F1BD9BAF1010F3DD067
:1035D00000210291614B019300950B463246B020C9
:1035E000FFF73EF98AE7BBF1AC0F08BFB8F5A07F43
:1035F000EED1B9F1010F20D0059B062B18BF0C2B83
:10360000E6D10BFB08F309FB03F35B004DB3BAF102
:10361000020F18BF9D4224D1BAF1020F1CD0504BAB
:103620009D4229D9002102914E4B019300950B46F2
:103630003246B020FFF714F960E7059B002BC7D195
:10364000DFE7059B5AEA0303C2D1BBE70598FFF702
:10365000DBF90028D5D1BBE709F10103B5EBC30FB6
:10366000DDD200210291404B019300950B4632467A
:10367000B020FFF7F5F841E701F016F8834605F5AD
:1036800080513A4801F07CF8804601F00DF8A0EB3B
:103690000B030793B8F1000F10D024AC4346344A13
:1036A0004021204601F0E4F80021029101940095A8
:1036B0000B463246B020FFF7D3F81FE7FFF7C8F8F4
:1036C000DFF8B080012388F80030C8F80460BDF846
:1036D0001830A8F80830BDF81A30A8F80A30C8F831
:1036E0000C500023C8F81030C8F81430D4F8123049
:1036F000C8F81830C8F81CB000F0D6FFC8F8200091
:10370000079BC8F8243088F82C90059B88F82D304A
:10371000BAF1020F03D0B9F1010F10D90227154BEE
:1037200083F82E70144800F0C7FF00230293019322
:10373000009532460121B020FFF792F8DEE601271E
:10374000EDE700BF54EB0724141E0000341E0000F8
:10375000541E0000E01D0000C01D0000681E000097
:1037600000F01700941E0000841E0000000060900E
:10377000A41E00005CEB072458EB07240D2D0AD88B
:1037800000210291954B019300910B460A46B1200E
:10379000FFF766F886E6924B00210291914A01926A
:1037A000DA6800921B69D4F80220B120FFF758F8BC
:1037B00078E609A8FFF75FF9052D1BD9884B1B7820
:1037C0002BB1874B5B68D4F8022093421DD00021B7
:1037D0000291854B019300910B46D4F80220B22050
:1037E000FFF73EF89DF82430002B3FF45BAE01F06C
:1037F00003F857E6002102917C4B019300910B46A0
:103800000A46B220FFF72CF8ECE7754B9B7893B192
:1038100073494B69C86891F8321151B1744C002159
:10382000029101940090B220FFF71AF8FEF790FA87
:10383000D8E7704CF3E76A4B5B7823B1684B1969A2
:10384000DB6899420DD0664B002102916A480190D5
:10385000D86800901B69B220FFF702F8FEF778FAEB
:10386000C0E75F4949698B42EDD15D4B1B8E002B50
:10387000E9D15B4B9D69614800F07EFFA8420FD003
:10388000574B002102915E4A0192DA6800921B694F
:10389000D4F80220B220FEF7E3FFFEF759FAA1E7C1
:1038A00000230A9300F000FF0AAA4D4BD96855483F
:1038B000FEF796FF78B94A4B00210291524A0192D5
:1038C000DA6800921B69D4F80220B220FEF7C8FF24
:1038D000FEF73EFA86E700F0E7FE0A9BAB4234D1E2
:1038E0003F4B93F82E50032D3FD0642200210BA8AC
:1038F00000F026FF454B0B93032D53D00423ADF866
:10390000303001238DF83230354A92F82E308DF860
:1039100033301389ADF834305689ADF8366092F8FB
:103920002C1001B901218DF838102D4890F82D2068
:103930008DF8392006FB03F35A000F924FF48053A1
:103940001093C3681193002336E0254B00210291A8
:103950002F4A0192DA6800921B69D4F80220B22043
:10396000FEF77EFFFEF7F4F93CE719465B8900930A
:103970000B8991F82C20C9684FF00000FEF73EFE3D
:103980000028B2D1164B00210291224A0192DA6836
:1039900000921B69D4F80220B220FEF761FFFEF707
:1039A000D7F91FE70523AAE7981D24AE06EB800090
:1039B000002640F8606C01330B2B2DD8032DF3D07B
:1039C0009942F1D903FB02F606F58056981D24AF03
:1039D00007EB800040F8606CEDE700BFB41E00000C
:1039E0005CEB0724CC1E0000FC1E0000E41E00005F
:1039F0008EEC0724FC1D0000101F000058EB07246C
:103A0000241F000000106090381F000055494D47EA
:103A1000501F0000681F0000944D0F2229461EA869
:103A200000F0F6FE0A9B229360210BA8FFF714F921
:103A300023900C234FF4C01229460BA8FFF7F4F98A
:103A400078B98B4B002102918A4A0192DA68009280
:103A50001B69D4F80220B220FEF702FFFEF778F9C6
:103A6000C0E664220BA98448FEF782F90346A0B1A0
:103A700024AD824A4021284600F0FAFE7C4B00210A
:103A800002910195DA6800921B69D4F80220B220F5
:103A9000FEF7E6FEFEF75CF9A4E664252A4600215F
:103AA00024A800F04DFE2A4624A97348FEF70EFC18
:103AB00028B12A460BA924A800F00EFE78B16C4B61
:103AC000002102916E4A0192DA6800921B69D4F8D3
:103AD0000220B220FEF7C4FEFEF73AF982E60C237C
:103AE0004FF4C012614924A8FFF79EF90028E6D0E0
:103AF0005F4B0A9A029200220192DA6800921B69D7
:103B0000D4F802200121B220FEF7AAFE00F0CCFD7D
:103B1000FEF79EFEFEF71CF964E60BA8FEF7ABFF6E
:103B2000052D11D800210291564B019300910B46AF
:103B30000A46B320FEF794FE9DF82C30002B3FF48C
:103B4000B1AC00F059FEADE4FEF702F94FF4C0113C
:103B5000494800F015FE034680B124AD4A4A402191
:103B6000284600F085FE00210291019500910B4648
:103B7000D4F80220B320FEF773FEDDE7FEF768FEFF
:103B80000023029301930093D4F802200121B32073
:103B9000FEF766FED0E7052D7FF684AC6178D4F899
:103BA0000200FFF78BFB7DE40D2D7FF67BAC6422DA
:103BB00000210BA800F0C4FD00220BA96078FFF7DC
:103BC0004DFB58B3109A2C4B1344BDF83480BDF80C
:103BD00036909DF83370119DD4F80600A84229D282
:103BE0006689B6F5805F01D94FF480562A1A96424D
:103BF00000D996B2324624A91844FEF767FB38BBB9
:103C0000224B03930295CDF80490CDF800803B46FB
:103C1000002211462046FEF779FE43E41C4B039335
:103C200000210291019100910B460A462046FEF7C1
:103C30006DFE37E4174B03930295CDF80490CDF851
:103C400000803B46002211462046FEF75FFE29E435
:103C5000002303930295CDF80490CDF800803B46F5
:103C6000324624A92046FEF751FE1BE4A03C00008A
:103C70005CEB0724801F0000000060909C1F000088
:103C8000B41F0000CC1F0000A41E0000082000008C
:103C9000E41F0000F81F000008B5FEF799FD08BDFD
:103CA000555345525F494D4147450000BFF34F8F83
:103CB0000549CA6802F4E062044B1343CB60BFF3CA
:103CC0004F8F00BFFDE700BF00ED00E00400FA05E4
:103CD000024A0260024A0260704700BF00EB0524FE
:103CE0007C440000024A0260024A0260704700BF42
:103CF000C8EA05247C440000024A0260024A0260CD
:103D0000704700BF90EA05247C440000024A02602C
:103D1000024A0260704700BFACEA05247C44000000
:103D2000024A0260024A0260704700BFE4EA0524CA
:103D30007C440000024A0260024A0260704700BFF1
:103D4000604500007C4400000138C0B203288CBFED
:103D5000002001207047000010B50C4B93F82C4058
:103D600000F08EFD00F0F8FC00B110BD074800F037
:103D7000BBFC0028F9D1032C18BF012C0CBF01207B
:103D80000020F2D0042CF0D10120EEE75CC2062422
:103D900010B50446044B0360044B0360082100F097
:103DA0005BFD204610BD00BF00EB05247C440000F5
:103DB00008B50B4B1B68BFF35B8F13F0010F01D0ED
:103DC000084808BD064800F0EFFC0028F8D0064A75
:103DD0000649044800F064FC014800F025FDEFE7C7
:103DE00090C2062470F905247CF70524D13C00001C
:103DF00010B5047A14B1037813B10024204610BD25
:103E000000F062FC0028F9D00024F7E710B5044662
:103E1000044B0360044B0360202100F01DFD20468D
:103E200010BD00BFC8EA05247C44000008B50B4B58
:103E30001B68BFF35B8F13F0010F01D0084808BD6A
:103E4000064800F0B1FC0028F8D0064A06490448AC
:103E500000F026FC014800F0E7FCEFE78CC20624E6
:103E600050F905247CF70524E53C000010B5044614
:103E7000044B0360044B0360082100F0EDFC204676
:103E800010BD00BF90EA05247C44000008B50B4B30
:103E90001B68BFF35B8F13F0010F01D0084808BD0A
:103EA000064800F081FC0028F8D0064A064904487C
:103EB00000F0F6FB014800F0B7FCEFE724C206244F
:103EC00044F805247CF70524F93C000010B50446AD
:103ED000044B0360044B0360082100F0BDFC204646
:103EE00010BD00BFACEA05247C44000008B50B4BB4
:103EF0001B68BFF35B8F13F0010F01D0084808BDAA
:103F0000064800F051FC0028F8D0064A064904484B
:103F100000F0C6FB014800F087FCEFE720C2062452
:103F20003CF805247CF705240D3D000010B504463F
:103F3000044B0360044B0360042100F08DFC204619
:103F400010BD00BFE4EA05247C44000008B50B4B1B
:103F50001B68BFF35B8F13F0010F01D0084808BD49
:103F6000064800F021FC0028F8D0064A064904481B
:103F700000F096FB014800F057FCEFE71CC2062456
:103F800038F805247CF70524213D000010B50446CF
:103F9000044B0360044B0360042100F05DFC2046E9
:103FA00010BD00BF604500007C44000008B50B4B0D
:103FB0001B68BFF35B8F13F0010F01D0084808BDE9
:103FC000064800F0F1FB0028F8D0064A06490448EC
:103FD00000F066FB014800F027FCEFE718C206245A
:103FE00034F805247CF70524353D000008B5052983
:103FF00016D8DFE801F00306090C0F12FFF716FFD1
:1040000008BDFFF7D5FEFBE7FFF740FFF8E7FFF736
:104010006DFFF5E7FFF79AFFF2E7FFF7C7FFEFE75E
:10402000FFF794FFECE7000010B500F029FC00F06A
:10403000CBFB90B90E4800F0DBFB88B900F07CFBAD
:104040000479042C0ED02046FFF77EFE60B1022CCE
:104050000CD0012C02D0022400E00424204610BD24
:104060000324FBE70524F9E70424F7E70024F5E738
:104070005CC20624437903B1704770B504460D460F
:104080001D4800F001FC00F0FBFB00F085FBD0B107
:1040900000F052FB00F08CFB064600F0F1FB3146CD
:1040A00000F03EFB154800F0CFFB8DB9144D2846BB
:1040B00000F02EFB284600F0BFFB124800F024FB66
:1040C0000123637170BD00F037FB00F009FBE9E7E5
:1040D0002046FFF7A9FF0028E8D100F02DFB437927
:1040E000FF2BE3D00448FFF783FE0028DED006480C
:1040F00000F076FBDAE700BFB0F70524A4F705244B
:1041000028C206244CF805248C11062470B50446F8
:104110000D46052909D0012D18D025B3264BDB7B90
:104120000BB3254800F058FB1DE000F005FB00F53F
:104130000040B0F8663E012B06D0022B02D00423CB
:10414000A372E8E70023FBE70123F9E71B4B1B7A87
:104150001BB11A4B1B78002BDFD000F0EDFA0221C7
:1041600000F08AFB002529462046FFF73FFF064660
:10417000206810B103681B69984726602571336871
:104180009B683046984788B9042D0FD02068036893
:104190001B699847637953B104212046FFF726FF36
:1041A00020600422227103689B68984770BD00213B
:1041B0002046FFF75FFFEFE78C110624B0F70524D8
:1041C00038B503798B420ED005460C46032901D041
:1041D000437923B121462846FFF798FF38BD0021D7
:1041E000FFF748FFF6E70120F8E70379052B08D031
:1041F00010B50446FFF71AFE00F0BAFA0123A371C6
:1042000010BD704738B50446002303728079E0B9C9
:10421000E579DDB989B12379052B18D0042B18BFB6
:10422000012B01D9284611E0FFF796FD0028F9D1AE
:104230002379A3720523637204E02379052B08D147
:10424000A37A63720120E07100E0002038BD0846C7
:10425000FCE70846FAE7C379002B6FD02DE9F0415F
:1042600004460023C371437A052B15D0657A00F00C
:1042700063FA067900F060FA00F50040B0F8667E57
:10428000237983B14FF00008052D31D1A37A012B9A
:104290000FD05BBB02250DE0FFF75EFD0028E5D0E7
:1042A0000123237220E0FFF7C1FD00F051FA8046A0
:1042B000EAE7012500F040FA00F50043A3F8665E46
:1042C00000F03AFA042100F0D7FA00F035FA00F0D5
:1042D00013FAD0B1617A2046FFF772FF2379627A30
:1042E0009B1A18BF01232372BDE8F0810025E1E786
:1042F00000F022FAF9B200F0BFFA00F01DFA00F562
:1043000000400023A0F8663EDFE700F015FA3146D2
:1043100000F0B2FA00F010FA00F50040A0F8667E56
:1043200001232372FFF782FD414600F0C9F90028FE
:10433000DAD104212046FFF743FFD5E7704700009C
:1043400008B501460148FFF75DFF08BD24F80524C4
:10435000034B1879052814BF00200120704700BFC7
:1043600024F80524014B187A704700BF24F805246F
:1043700008B50248FFF739FF08BD00BF24F805243F
:10438000437903B9704710B5044600F08DF9014632
:10439000124800F0C9F92379012B15D9104800F013
:1043A00073F92079A179B0FA80F0400900F090F912
:1043B0000C4800F041FA237953B10B4B1B7813B131
:1043C000094B00221A7010BD084800F04DFAE5E7CD
:1043D000FFF72CFD00F02CFAEFE700BFB0F7052443
:1043E0004CF8052428C2062430F80524D0F805240A
:1043F00008B5044600F044FA00F0C6F918B91C48A4
:1044000000F0F6F920B103212046FFF77FFE1AE005
:1044100001212046FFF72EFE2046FFF705FE01464C
:104420002046FFF773FE0EE0206810B10368DB68DA
:1044300098472046FFF7A4FF2046FFF70CFFA3791B
:1044400063B900F0EDF96379002BEDD02379052BEA
:10445000EAD000F015FA00F003FAE5E70023A371B3
:10446000206810B103681B699847FFF71FFC00BF65
:104470005CC20624000000000000000000000000F4
:10448000000000000000000000000000000000002C
:104490007047000008B50021014800F061F908BD2F
:1044A000A4F70524F0B587B000F0E6F8244800F042
:1044B0005BF9244800F090F900F0FAF8224800F087
:1044C000C3F900F06DF9054610B9284607B0F0BDF4
:1044D0001E4BD3F8E02042F01002C3F8E020D3F8DE
:1044E000E03003F010030093009B00240194029439
:1044F00003940494059445F220030193032302934B
:10450000134E01A9304600F0C7F801224FF40061B4
:10451000304600F0C1F94FF4006301930127029780
:10452000049401A9304600F0B7F8142000F0E8F830
:104530003946054800F014F9064800F049F9C4E787
:10454000341106248C110624A4F7052400440258D3
:104550000010025828C206240000000000000000DD
:10456000353D00008D3F0000A5440000914400004F
:10457000954400000020024B1870024B18707047E1
:10458000ECF20724EDF2072430B583B0044615465B
:10459000FFF7E8FE40B10D4A009504230C49204680
:1045A00000F06EF803B030BDFFF7D2FE20B9094B22
:1045B0001B7833B1084AEFE7084B1B781BB1084A58
:1045C000EAE7084AE8E7084AE6E700BFA048000033
:1045D00014200000ECF20724B0480000EDF207249C
:1045E000C0480000E0480000D048000010B5FFF7C8
:1045F000AFFE30B10A4B1C7864B901221A70204614
:1046000010BD04460120FFF79BFE80F00100054B22
:104610001870F4E70020FFF793FE0446EFE700BFB1
:10462000EDF20724ECF2072408B5FFF791FE30B154
:10463000044A137883F001031370002008BD0120A1
:10464000FCE700BFEDF2072408B5FFF781FE20B1BB
:10465000044B1B781BB1044800E0044808BD044823
:10466000FCE700BFEDF207242C200000242000000E
:104670001C200000000000005FF800F08DDF022425
:104680005FF800F0214205245FF800F017A602242D
:104690005FF800F0219800245FF800F091B1002449
:1046A0005FF800F00D7005245FF800F075870024B6
:1046B0005FF800F0A1BD02245FF800F0AD6F0524A3
:1046C0005FF800F0617904245FF800F0191D0224FE
:1046D0005FF800F0F5DF02245FF800F0192E0024E7
:1046E0005FF800F00DDA02245FF800F011250224D3
:1046F0005FF800F0292D01245FF800F0A1DA022410
:104700005FF800F0818700245FF800F0C5A502245F
:104710005FF800F0C15105245FF800F0912D0124ED
:104720005FF800F02D2705245FF800F0751D0224C6
:104730005FF800F0519800245FF800F0F56E022455
:104740005FF800F0792F00245FF800F0B56D0224C7
:104750005FF800F0517904245FF800F09D160524FD
:104760005FF800F0792102245FF800F01DFA0224BE
:104770005FF800F0FD7C04245FF800F0057005246C
:104780005FF800F0DD2E01245FF800F0A11705248A
:104790005FF800F0C96F05245FF800F0DD1705240D
:1047A0005FF800F0352503245FF800F01F70052442
:1047B0005FF800F0F14202245FF800F08137002436
:1047C0005FF800F019D300245FF800F00D170524FE
:1047D0005FF800F0A55005245FF800F0FD2D0224DD
:1047E0005FF800F05D2F02245FF800F03D2C0124FB
:1047F0005FF800F0512502245FF800F0012E01243B
:104800005FF800F0B56F05245FF800F0D12E0124A9
:104810005FF800F0713100245FF800F0F5660524C0
:104820005FF800F035E402245FF800F037700524EB
:104830005FF800F0F97A04245FF800F0D9590524F4
:104840005FF800F0413300245FF800F0ED2102240E
:104850005FF800F0F1D100245FF800F01770052434
:104860005FF800F0B52605245FF800F059780224BF
:104870005FF800F0652A00245FF800F0EDDA02240A
:104880005FF800F0591305245FF800F0A91D022419
:104890005FF800F0C13800245FF800F00FB5002485
:1048A0003420000054200000702000008C20000004
:1048B000A4200000C8200000E02000000421000027
:1048C0001C2100003C210000582100007C21000038
:1048D0009C210000BC210000DC210000FC21000024
:1048E00020220000402200006422000084220000F8
:1048F00091423EBF50F8043B41F8043BF8E7704753
:10490000DFF834D14D4A4E4C0023A242BCBF42F8DE
:10491000043BFAE74B484C494C4AFFF7E9FF4C4847
:104920004C494D4AFFF7E4FF4C48016841F004014F
:104930000160BFF34F8FBFF36F8F4948016821F0CB
:10494000406141F080610160416821F400514160A3
:10495000816821F040618160C16821F04061C160DF
:104960004FF0005181613F484FF0000101603E4827
:104970004FF0000101603D484FF0105101604FF0D1
:10498000000141F0407141F4003141F4803141F0C7
:10499000160141F001013648016033484FF0010132
:1049A000016032484FF0000101604FF0000141F01A
:1049B000407141F4003141F4803141F00E0141F089
:1049C00001012B48016027484FF005010160BFF34A
:1049D0004F8FBFF36F8F27482749284AFFF788FF7B
:1049E00025482749086027482749284AFFF780FFBC
:1049F00027482749274AFFF77BFF27482649274AA8
:104A0000FFF776FF26482749274AFFF771FF274817
:104A10002749284AFFF76CFF27482849284AFFF70B
:104A200067FFBFF34F8FBFF36F8F00F04DF800F0BB
:104A30004FF82448004700000000022040FA0524F7
:104A4000FCF4072488400690B0F505243CFA0524C0
:104A5000B8C80590E07D052498F505244045025826
:104A60000008025894ED00E098ED00E09CED00E0B5
:104A7000A0ED00E00000009000000000F048000001
:104A800008ED00E0D84A009000000024E07D0524F5
:104A900098F5052498F5052498F50524A0F5052436
:104AA00078400690A0F50524A0F5052478400690EE
:104AB000A0F50524ACF5052484400690ACF505244A
:104AC000B0F505249D7D00245FF800F0E980002406
:084AD0005FF800F0C53200247C
:104AD80008B52DED028BF0EE408AB0EE608A00F04A
:104AE8006DFAF4EE488AF1EE10FA06D6DFED098A7F
:104AF800B4EE688AF1EE10FA02D0BDEC028B08BD64
:104B080003F042F988EEA80ABDEC028B212303606A
:104B180008BD00BF0000000008B52DED028BB0EE07
:104B2800408A00F047FAB4EE488AF1EE10FA06D649
:104B3800DFED098AB4EEE88AF1EE10FA02D4BDEC92
:104B4800028B08BD03F020F988EEA80ABDEC028BA1
:104B58002123036008BD00BF000000000000000022
:104B680030B510EE104AC4F30A53B3F57D7FB7EEA3
:104B7800C07A83B019D227EE075BB3F5667F6CD392
:104B880027EE052B25EE021B6B4B93ED1A3B93ED9D
:104B9800186B93ED164BA5EE036BA2EE047BA6EE05
:104BA800017BB7EEC70B03B030BD40F22E429342F3
:104BB8005CD8614991ED086B27EE066BFDEEC66B7C
:104BC80091ED0A5B16EE903A03F500031B1613F0FD
:104BD800020F06EE903A01F1700208BF0A46D807A4
:104BE800B8EEE66BA6EE457B27EE076B1BD403F009
:104BF800030301EBC30191ED002B92ED1A4B92EDEB
:104C0800185B92ED163BA6EE045B27EE027B27EEBF
:104C1800064B26EE046BA4EE037BA5EE067BB7EEEF
:104C2800C70B03B030BD92ED142B26EE065B92ED58
:104C3800127B92ED0E3BA6EE027B92ED0C0B92EDF1
:104C4800104BA6EE030B26EE056BA5EE040BA7EEA4
:104C5800060BB7EEC00B03B030BD220D12F4FF6F88
:104C680004BFB7EEC55B8DED015ADAE7B3F5FF6F08
:104C78003DD2324BC4F3836203EB820153F8222006
:104C8800C4F31603C4F3C25043F400038340086A14
:104C98000969A0FB035003FB02F2E3FB010202F1E6
:104CA80000518D0F01F04041511A07F08BFB244B46
:104CB8009FED1F6B05EBD47441EC170B14F0020F3A
:104CC800A3F1700208BF1346E90727EE067B27EE1B
:104CD800076B11D404F0030402EBC40292ED002B1D
:104CE80093ED1A4B93ED185B93ED163B8BE703B0EE
:104CF800BDE8304000F050B993ED141B26EE064B8A
:104D080093ED125B93ED0E2BA6EE015B93ED0C7BFE
:104D180093ED103BA6EE027B26EE046BA4EE037B1C
:104D2800A5EE067BB7EEC70B7BE700BFAFF30080AD
:104D3800182D4454FB21193C908205243082052407
:104D4800008305240000000038B510EE104AC4F3B3
:104D58000A53B3F57D7FB7EEC07A1ED227EE077BE4
:104D6800B3F5667F6FD327EE071B694B93ED142BC2
:104D780093ED125B93ED0E3BA7EE025B93ED0C6B8C
:104D880093ED104BA7EE036B27EE017BA1EE046BAE
:104D9800A5EE076BB7EEC60B38BD40F22E42934224
:104DA80054D85B4991ED086B27EE066BFDEEC66B98
:104DB80091ED0A5B16EE903A03F500031B1613F00B
:104DC800020F06EE903A01F1700208BF0A46D807B2
:104DD800B8EEE66BA6EE457B27EE076B1AD503F017
:104DE800030301EBC30191ED002B92ED1A4B92EDF9
:104DF800185B92ED163BA6EE045B27EE027B27EECE
:104E0800064B26EE046BA4EE037BA5EE067BB7EEFD
:104E1800C70B38BD92ED142B26EE065B92ED127B84
:104E280092ED0E3BA6EE027B92ED0C0B92ED104B31
:104E3800A6EE030B26EE056BA5EE040BA7EE060BFC
:104E4800B7EEC00B38BDB7EE000A38BDB3F5FF6F3B
:104E58003DD2304BC4F3836203EB820153F8222026
:104E6800C4F31603C4F3C25043F400038340086A32
:104E78000969A0FB035003FB02F2E3FB010202F104
:104E880000518D0F01F04041511A07F09BFA224B57
:104E98009FED1D6B05EBD47441EC170B14F0020F5A
:104EA800A3F1700208BF1346E90727EE067B27EE39
:104EB800076B10D504F0030402EBC40292ED002B3B
:104EC80093ED1A4B93ED185B93ED163B93E7BDE812
:104ED800384000F061B893ED141B26EE064B93EDB5
:104EE800125B93ED0E2BA6EE015B93ED0C7B93ED1D
:104EF800103BA6EE027B26EE046BA4EE037BA5EE28
:104F0800067BB7EEC70B38BD182D4454FB21193C5E
:104F180090820524308205240083052410B52DEDE8
:104F2800028BB0EE408A044602F02EFFB0EE480A2B
:104F3800BDEC028B046010BD28B1F1EE407A27EE7B
:104F4800800A2220EAE7F0EE407A27EE800A222043
:104F5800E4E700BF9FED010AEEE700BF0000001084
:104F68009FED010AE8E700BF0000201A9FED010A43
:104F7800E2E700BF000000709FED060AF7EE007A36
:104F8800BFEE007A00284FF0220047FE877A87EEAE
:104F9800800AC3E700000000F0EE407A30EE407A65
:104FA800F4EE677AF1EE10FA87EE070A01D62120AF
:104FB800B4E77047B1EEC00A704700BF70B582B061
:104FC800CDED010A019921F00040431EB3F1FF4FD6
:104FD80042D210EE104A24F00045B5F1FF4F3BD203
:104FE80085423FDB04F0004C3ED014F0FF4F01F047
:104FF800FF4659D12B02002BC8BF6FF07D0279DD27
:105008005B00002B02F1FF32FADC002E5DD10302B7
:105018004DD46FF07D0E5B000EF1FF3EFBD512F113
:105028007E0F57DBC4F3160444F400031EF17E0F11
:1050380046DA6FF07D01A1EB0E0100FA01F1B2EB47
:105048000E0204D117E00FD04300013A13D0581ACA
:105058000028F8DA5B00F8E7DDED017A60EE277AE0
:1050680087EEA70A02B070BD2C4B03EB5C7393ED7F
:10507800000A02B070BD591A58BF0B461BB9F3E7B6
:105088005B000EF1FF3EB3F5000FF9DB1EF17E0F5A
:1050980026DBA3F500030EF17F0E43EA0C0343EA77
:1050A800CE5300EE103ADDE7EA157F3AADE712F18C
:1050B8007E0F2BDA6FF07D0EAEEB020305FA03F3D9
:1050C800C1F3160141F40001B9E74FEAE05EAEF121
:1050D8007F0EA4E76FF07D039B1A05FA03F3A5E79B
:1050E8006FF07D02A2EB0E02134143EA0C0300EEBF
:1050F800103AB7E736B14FEAE05EAEF17F0E6FF0D7
:105108007D028FE703026FF07D0282D5C4F3160497
:1051180044F400036FF07D0ED2E700BF70830524CE
:1051280010B4044C03460A4620685DF8044B19463F
:1051380000F002B828F7052470B5A1FB025454B951
:10514800294600F041F8064638B12A46214602F0C1
:105158007BFC304670BD0C2202600026304670BDD4
:10516800024B0146186800F02FB800BF28F7052445
:10517800024B0146186804F031B900BF28F705242E
:1051880070B5104E336805460C46B3B12146284623
:1051980002F0D2FD431C0CD0C41C24F00304A0422E
:1051A80005D0211A284602F0C7FD013001D020465B
:1051B80070BD4FF0FF34204670BD194602F0BCFDAB
:1051C8003060E3E740FA05242DE9F041CD1C25F0D5
:1051D800030508350C2D38BF0C25002D82B0064676
:1051E80016DBA94214D8354F00F06AF87A68AAB1DC
:1051F800144603E06368224683B11C4623685B1BA0
:10520800F8D40B2B21D8A242636855D053600DE027
:105218000C233360002002B0BDE8F08129463046F7
:10522800FFF7AEFF431C044619D00560304600F076
:105238004DF804F10B00231D20F00700C21A1CBF13
:105248001B1AA35002B0BDE8F0816119A242256083
:1052580014BF51607960635163684B60E6E77B680F
:1052680023B31C465B68002BFBD1226801931946C7
:10527800304604EB020802F05FFD804516D1226833
:10528800AD1A29463046FFF77BFF01300ED0226861
:105298007868019B2A442260426812B90CE01046E3
:1052A8005268A242FBD100234360BFE70C2333605E
:1052B800304600F00BF8ADE77B60B7E740FA05240D
:1052C800014802F099BD00BF98FB0524014802F08F
:1052D8009BBD00BF98FB052438B5124B1D682A6B8F
:1052E80004461AB10023C2E9044338BD1820FFF769
:1052F80037FF0246286378B101200021C2E9040182
:10530800094B0A480A499160C2E900030B239381BB
:105318000023C2E9044338BD064B0748462103F081
:1053280011F900BF28F7052434126DE60E33CDAB12
:10533800ECDE0500A0C50524B8C505241C4B10B536
:105348001C68226B8AB113691A4954691A4803FB0D
:1053580001F100FB0411A3FB0030013341EB000114
:10536800C2E9043121F0004010BD1820FFF7F8FE13
:105378000246206388B1114C114B0E4811499160C7
:105388009FED097BC2E900430B2393810E4B014635
:1053980082ED047BC2E9043110BD0C4B0C4852214C
:1053A80003F0D0F8AFF30080010000000000000017
:1053B80028F705242DF451582D7F954C0E33CDAB8D
:1053C80034126DE6ECDE05002E7F954CA0C5052451
:1053D800B8C5052410B4044C03460A4620685DF895
:1053E800044B194600F002B828F705242DE9F041CE
:1053F800144649B3EAB106460D4605F0EDF9844274
:10540800074602D8B4EB500F1AD821463046FFF7AA
:10541800DBFE804678B1BC422246294628BF3A4680
:1054280002F016FF3046294603F0D8FF4046BDE893
:10543800F08103F0D3FF4FF000084046BDE8F0814B
:10544800A8464046BDE8F081BDE8F0411146FFF7A7
:10545800BBBE00BF000000002DE9F04F2DED0A8B08
:1054680097B0894600219246129100220021CDE989
:1054780004128046494611910F4611F8012B2D2A36
:105488005ED801A050F822F0910B0024710A002484
:10549800710A0024710A0024710A0024710A002488
:1054A800710A0024710A0024710A0024A709002443
:1054B800A7090024A7090024A7090024A709002494
:1054C800710A0024710A0024710A0024710A002458
:1054D800710A0024710A0024710A0024710A002448
:1054E800710A0024710A0024710A0024710A002438
:1054F800710A0024710A0024710A0024710A002428
:10550800710A0024710A0024A7090024710A0024E2
:10551800710A0024710A0024710A0024710A002407
:10552800710A0024710A0024710A0024710A0024F7
:10553800710A002465110024710A002479110024DD
:1055480000210791302A00F09980002308932F2A20
:10555800144640F2C784002338461E461D4613E011
:105568000130082D1190C8BF03EB83030478C6BF30
:1055780002EB4302A2F13003A1F130062F2C05F112
:105588000105224640F3CB8006EB8601392C02EB5D
:105598004101E5DD82490993012202F00FFB099BD5
:1055A80000287CD111990A46013111915478002DB7
:1055B80040F03B85302C40F0D3840A461046013237
:1055C80011921478302CF9D0C1F101010844A4F1EA
:1055D8003102082A38D8119F411CA4F130020A91DF
:1055E8000125BE464FF0000C06EB860602EB460688
:1055F80000200EF1010211929EF80140A4F1300141
:10560800092900F20F83DDF844E001300A46002939
:10561800EFD0012800F06F8600EB050B0BF1FF348B
:10562800CDF824B004E04FEA4B06A54200F04684CA
:10563800082D06EB860B05F10105F4D9102DDCBF0A
:1056480003EB83035B00F0E7652C40F00083012245
:105658004FF0000CCDE9092C089A024340F0E8828B
:105668009FED4D8BBAF1000F01D0CAF80090B0EE53
:10567800480B17B0BDEC0A8BBDE8F08F7A7802F0C2
:10568800DF02582A00F0D583013711973A78302A7B
:10569800FAD0002A00F0B6820123089357E70020C9
:1056A800CDE90900AC46652C48D0452C46D04FF0D2
:1056B800000B002D40F09980089B034340F0A28224
:1056C800099B002BCCD1692C00F0318400F387832F
:1056D800492C00F02C844E2CC2D1324911A804F078
:1056E800E7F90028BCD0119B1B78282B00F06485B3
:1056F8002D4802F0B9FEB0EE408BBAF1000F02D08F
:10570800119BCAF80030079B002BB0D0B1EE488B34
:10571800B0EE480B17B0BDEC0A8BBDE8F08F2049FE
:105728000993012202F04AFA099B0028B7D1119A7D
:105738000A90511C11915478AC465FE7002D8BD02C
:10574800DDF8449009F10102119299F801402B2CDF
:1057580000F06B822D2C00F0588200220B92A4F1ED
:10576800300BBBF1090F00F25882302C119A0AD184
:10577800013211921478302CFAD0A4F131010829A1
:1057880095D8A4F1300B511C119154782F2C40F36B
:10579800BC838E460C9712E0000000000000000059
:1057A800B8C1052400C605242CC605240131119171
:1057B8009EF801402F2CA7F1300B06DD8E460BEB2F
:1057C8008B07392C04EB4707F0DD891A08290C9F51
:1057D80040F39B8344F61F6B0B9A002A3FF469AF92
:1057E800CBF1000B002D3FF467AF07EE906A0A9AE1
:1057F800B8EE677BABEB0202BCF1000F08BFAC460A
:10580800102D09922A46A8BF1022092D8DED047B80
:105818000FDD06EE903A4C4B03EBC20313ED125B1F
:105828000F2DB8EE666BA7EE056B8DED046B00F3DC
:105838009481099B002B00F0D682099B40F30D82CE
:10584800162B40F368830999C5F125038B4280F232
:10585800D783AB1A0B4413F00F010AD03A4A02EB74
:10586800C1029DED046B92ED007B27EE067B8DED6A
:10587800047B33F00F0241D0B2F59A7F00F3148312
:10588800102A4FEA221340F3CF84304C9DED047B5D
:1058980000202246014613F0010F01F101014FEAF1
:1058A800630304D092ED006B012027EE067B012BE9
:1058B80002F10802EFD108B18DED047B059BA3F13D
:1058C8005473059304EBC1049DED046B94ED007BC8
:1058D8001F4B27EE067B17EE902A1E4913408B427A
:1058E8008DED047B00F2E082A1F580118B4240F23D
:1058F8000C84194C4FF0FF33CDE90434002308938E
:1059080000962B4662463946404604F0A5FA814681
:10591800002800F0C9820A9BCDF83CA0A3EB0B0B32
:10592800099B002BB4BF5A4600224FF0000B23EA14
:10593800E3739FED039B0A920B935C46CEE000BF96
:105948000000C0FFFFFFDF41E0850524D086052465
:105958000000F07F0000A07CFFFFEF7F991A1F294D
:10596800A5EB010500F30082012202FA01F30C9372
:1059780000230D932F44089B5544AA4552461F44C3
:10598800A8BF2A46BA42A8BF3A46002A03DDAD1A84
:10599800BF1AAAEB020A0A9B002B00F37781002D9D
:1059A80000F38D81099B002B00F3D481002F00F3B5
:1059B800B081BAF1000F08DD21465246404604F096
:1059C80031FC0446002800F0AD8112993246404669
:1059D80004F0BEFC8346002800F0A4810023C568BB
:1059E800C360214604F092FC0028C0F2B183059FF1
:1059F80000F04A832146584604F04CFEB0EE007B86
:105A0800B4EEC70BF1EE10FA00F23781002D40F02A
:105A1800BB81049B002B40F03882C7F31303002B93
:105A280040F0E481B7EE007BB4EEC70BF1EE10FA5C
:105A380000F1FF82B6EE00BB20EE0BBBB1EE4BAB24
:105A4800BF48DFF80CC307EA0001614553EC1A2B85
:105A580000F09F810898E0B1B1F1D46F19D8B4EE85
:105A6800C9BBF1EE10FA11D8BCEECBBB1BEE103A55
:105A7800012B38BF01230BEE103AB8EE4BBB002DBB
:105A880040F06B82B1EE4B7B53EC172B03F1D660E1
:105A9800431AB0EE480B43EC1A2B0C9104F00AFDA4
:105AA800AAEE008B8DED048B18EE907A0C99089B6A
:105AB80023B9A34B3B40994200F09D81129940467F
:105AC80004F058F93146404604F054F9214640465E
