:040000006F00C05479
:100004000000000000000000A0000020A00000206C
:10001400A9BDF9F3A00000200000000000000000CA
:10002400A0000020A000002000000000000000004C
:10003400A000002000000000A0000020000000003C
:1000440054010020A0000020A0000020A0000020F7
:10005400A0000020A0000020A0000020000000005C
:10006400A0000020A0000020A0000020A00000208C
:10007400A0000020A0000020A0000020A00000207C
:10008400A0000020A0000020A0000020A00000206C
:10009400A0000020A0000020A0000020A00000205C
:1000A40001A08280EFF0FFFF130580159705000083
:1000B4009385850A170600001306464963FAC500AE
:1000C4008322050023A0550011059105E3EAC5FE2E
:1000D400172500E01305C58E970500009385054795
:1000E400170600001306864663FAC500832205003E
:1000F40023A0550011059105E3EAC5FE170500008C
:100104001305C5449385418A6377B5002320050010
:100114001105E36DB5FE93025002739002BC8D424B
:10012400739042808542739012BC9302800873904E
:100134000230970200009382E2EC93E23200739063
:100144005230970200E09382424F7390123473004E
:040154002030000057
:100158003727004083476700858B89CB8547230372
:10016800F700938781849843290798C37300203048
:100178002303048015472303E48001002302A4809D
:10018800828083076480E3CE07FE23030480828095
:1001980083076480E3CE07FE03454480828083079B
:1001A8006480E3CE07FE2302A4808280411126C426
:1001B8004AC24EC006C61377F50BAD47AA892E89E9
:1001C80095446306F70019456537653F8D444E85AC
:1001D8004537FD59FD1463983401B240A2441249D1
:1001E800824941018280135509011375F50F453F76
:1001F8002209CDB7011126CC06CEB7040800513725
:100208001545BD37713769372AC6A53F32459377FB
:10021800150089EB136515001375F50FF240E244DC
:1002280005618280FD14E9FC0145CDBF3971B7F73E
:10023800070006DE26DC4ADA4ED852D656D45AD201
:100248005ED062CE03AB47027D57B7E700E083AAD2
:10025800070022C603AA470023A0E71823A2E7182D
:10026800B71B0040930770052380FB04930780FAAF
:100278002380FB0483C74B041147AA8993E7070E21
:100288002382FB04372400401305F00F2303E48086
:100298002E8C3289B684E93DED35938779FF93F743
:1002A800F70F0947137BFB006362F712A147370773
:1002B80008006307FB00B70707003E9C3787070065
:1002C8007955637EEC02B3878401636AF702A94714
:1002D8006398F90689E481446D3526850DA0E28589
:1002E8000945E93505090345F9FFFD14050C453DA8
:1002F80081C49377FC0FFDF7F53D69FD7D55B71770
:100308000040130770052380E704130780FA238051
:10031800E70403C74704418B2382E704F250B7E799
:1003280000E023A0571123A24711E2543244525946
:10033800C259325AA25A125B825B724C2161828086
:10034800A547639AF906A1478569631DFB02938750
:10035800F9FFB3869700B374FC00B69493C7F7FF10
:10036800FD8C33FC8701416B856B9387F9FFB3F7ED
:10037800870199E363FF340193D94900C147E3E654
:1003880037FF91BF9307F00FE9B78567C169FD177C
:10039800C9B71305800D63886901130500026384DA
:1003A800790113051008E2851135A93521D94E9C2C
:1003B800B3843441C1B7E2852D45CD3BCA94E30CE3
:1003C80099F00509F133A30FA9FED5BF9387F9FF6B
:1003D80093F7F70F636FF70AA1476319FB06B7078F
:1003E80008003E9C83C75B043707070093F70702A2
:1003F80099E337870700B70708003E977955E370F8
:10040800ECF0B3079C00E36CF7EE8947639AF904B4
:100418008980D549E38104ECE2850945413B11090E
:100428000327C9FF91472320E48003076480E34E34
:1004380007FE23033481FD17EDFBFD14110C81C465
:100448009377FC0FE9FF7D3371F54DBD83C75B04DE
:100458003707070093F70702D5F33787070079BFF7
:100468008547E384F9F2E2852D4589339389F4FFC2
:10047800E38304E6313B93F7390091EB832604804C
:100488000327090093074900E398E6E43E89CE84F0
:10049800F1BFB5476396F9001305900BD13925BD17
:1004A800B1471305B00AE38BF9FE99476394F90441
:1004B800A1476315FB00B70708003E9CE2852D4560
:1004C800F53181440D4BA149E131639664018327DD
:1004D80004802320F9008504E39834FF83270480EF
:1004E80013172C01635507002312F900EDB32322DB
:1004F800F900D5B39D476399F90281451305B00406
:100508007531BD442320090023220900FD594931D2
:1005180093F77400CA9703C70700FD14398D238029
:10052800A700E39634FF45BB91476399F90013058B
:1005380060063D39B931130590098DB7E38D09D8A7
:04054800F15459BB56
:10054C00970100209381C17F170102201301C1AADA
:10055C001305400097050020938505AA1706002077
:10056C001306C6BE63FAC5008322050023A05500FE
:10057C0011059105E3EAC5FE17050020130505B228
:10058C0002853D432A876373C3029377F700BDEF5F
:10059C00ADE5937606FF3D8ABA960CC34CC30CC7E7
:1005AC004CC74107E36BD7FE11E28280B306C34010
:1005BC008A069702000096966780A6002307B7006C
:1005CC00A306B7002306B700A305B7002305B700A1
:1005DC00A304B7002304B700A303B7002303B70099
:1005EC00A302B7002302B700A301B7002301B70091
:1005FC00A300B7002300B700828093F5F50F939604
:10060C008500D58D93960501D58D61B793962700FE
:10061C009702000096968682E78086FA9680C1172C
:10062C001D8F3E96E374C3F8A5B7397106DE22DC44
:10063C004AD826DA4ED6EF10A000EF10600FEF105C
:10064C0080110129EF00107B371500001305A5A6BA
:10065C00EF00D009EF1060133D22EF100013316949
:10066C001304D50713090935EF102012AA84EF00E3
:10067C0030202685818C392A9309D40763CE040255
:10068C009D241DC5EF00707905C5EF0070790DC173
:10069C006800692BAA84EF10400F2A84F12B81C4C7
:1006AC00098C6354890068006D236800EF00907713
:1006BC00EF10600F4E844DBFA289DDBF2384A18053
:1006CC006F10000D411122C426C223A6A18006C6BC
:1006DC0089472E84938401816308F50663E8A70299
:1006EC008547630EF502EF00106CEF00D06FB785F5
:1006FC001E0093850548A29523A0040023A2B18077
:10070C0001452244B240924441014DBF8D476308DC
:10071C00F5049147E319F5FC23A0040025A0EF0094
:10072C001066B797980093870768A297B7D5030010
:10073C009CC093850509B707002023A40754A295F4
:10074C0023A2B180054575BFEF00F065B7A5070082
:10075C0093850512A2958CC023A20180E5B7EF000A
:10076C00B064B7C72D009387076CA297B7D5030069
:10077C009CC093850509B707002023A407542E9429
:10078C0023A28180C1B7A3840180AA850145238A55
:10079C0001800DBF411122C406C626C24AC02A845C
:1007AC00EF0090649387418103C7070019CF238022
:1007BC000700A3840180EF00D008A2852244B24038
:1007CC009244024901454101F5BD83A7C1801147FF
:1007DC001389C1806369F70409678A071307479671
:1007EC00BA979C4382879387918003C7070019C7E8
:1007FC0023800700A2850545F1353DA8EF001004C4
:10080C0005CDA2850D45CDBF85476315F500A285A5
:10081C000945DDB789476308F50083A70181B30754
:10082C00F44063CB0700A2850145F9B783A701818A
:10083C00B307F440E3D707FC938441809C40330713
:10084C00F440634C07080327090021E337871E0097
:10085C0013070748BA979CC003C581802244B24055
:10086C009244024913451500410189BD8D4763151A
:10087C00F500A285114549B7914771BF9547E30231
:10088C00F5F8EF00407B4DF9ADBF759B85476316BE
:10089C00F704B70700209387875494436381E602DB
:1008AC0099C609476381E60223A0070019A898C3DB
:1008BC0001452935B7D703009387070929A80947AC
:1008CC0098C30545FDB70D47014598C3C53BB747D0
:1008DC000F00938707243E9480C0B2402244924478
:1008EC0002494101828003A5C180711513351500A1
:1008FC008280AA870145DDC3C5C503C72702E1462F
:10090C0063E0E60A13059700636BA60883C607002D
:10091C0003C617009A061376F603D18E2380D500F2
:10092C0083C62700A380D50083C637002381D5005A
:10093C0083C64700A381D50083D667002382D500E8
:10094C0083D66700A182A382D50083C68700238348
:10095C00D50083C69700A383D500814603C6270222
:10096C0063E4C60221073386E5008147814633885C
:10097C00D500034808008506C29793F7F70FE3E804
:10098C00E6FE2300F60082803386D7000348A600DB
:10099C003386D500850623040601C9B7828001453C
:1009AC008280814759C951CA21476378B708938619
:1009BC0075FF61476363D708FD1501473308F500E0
:1009CC0003480800850742971377F70FE3E8B7FE53
:1009DC00AA9583C5050081476391E5068347050009
:1009EC0099832300F600034705001377F703A30050
:1009FC00E600034715002301E60003472500A30189
:100A0C00E600034735002302E60003475500834503
:100A1C00450022074D8F2313E6000347650023048E
:100A2C00E600034775002301D602A304E600014744
:100A3C006367D700FD1793B717003E858280B30517
:100A4C00E50003C88500B305E6000507238505010D
:100A5C00C5B71306000381451385C1841DB641112A
:100A6C0022C406C61384C18401C5B94763E9B70023
:100A7C005C5485075CD4B240224441018280834798
:100A8C00050003473500034885002300F400834725
:100A9C00150022072208A300F40083472500834693
:100AAC004500034355005D8F8347750083486500FF
:100ABC008345A5003368F8004208135808412314F5
:100ACC00040183479500A2050346C500DD8DC205D0
:100ADC00C1852315B4008347B50022062311E40019
:100AEC005D8E420641868347E5002316C40003450C
:100AFC00D500A207231DC400C98FC2070565C18795
:100B0C00130505402317F400231EF4002302D40020
:100B1C00A3026400230314012318A400230A640015
:100B2C00A30A1401231B0401231CB40093770708A8
:100B3C00231F0400B337F000231004022311040216
:100B4C0013760704920719C293E70702137607106E
:100B5C0019C293E707041376072019C293E7070815
:100B6C00FD1693F6F60F1D46636BD60009668A06D2
:100B7C0013068697B2969442828693E71700935693
:100B8C00470013760702858A19C293E6260013766E
:100B9C00074019C293E646001376170019C293E674
:100BAC0006011376270019C293E606021376470056
:100BBC0019C293E606041376870019C293E6060859
:100BCC0013164701635906001306F00F6305C300A3
:100BDC007D56230AC4001316370163590600130708
:100BEC00F00F6385E8007D57A30AE4002309F400A5
:100BFC008547A309D4002302F402EF00103908D46E
:100C0C009DBD93E79700A5BF93E787008DBF93E742
:100C1C00A700B5B793E727009DB793E7670085B7A3
:100C2C0093E74700A9BF93E7570091BF411122C436
:100C3C0006C6014411C99385C18403C4450209C485
:100C4C005146C105EF0010432285B24022444101B8
:100C5C00828015C1411122C449462A848145090567
:100C6C0006C60532D14723000400A300F400B240AD
:100C7C00224441018280828003A54187828083C700
:100C8C00C1812A8781CF9387C18783C6070001451D
:100C9C0099C603C507013A953D898280014582803A
:100CAC0093878181984311E388C382808347150021
:100CBC0003470500A2075D8F8347250003453500D8
:100CCC00C207D98F62055D8D8280411106C622C490
:100CDC0003448500BD4763ED870283A601830D475E
:100CEC0085476392E60203453500513F3D4709C5F0
:100CFC009307F5FF13F7F70F85476306A400B307B7
:100D0C00E44093B71700B24022443E8541018280F3
:100D1C008147D5BF828089673D8993878799AA9738
:100D2C0003C50700C5BF411106C622C49387418481
:100D3C0003C40700C1463D8813071400630BD7009A
:100D4C002380E7002285C13F2285B2402244410125
:100D5C00828023800700FDB78280828001458280DB
:100D6C00054582805971A2D4A6D2CAD0AE842A89F4
:100D7C0032848145130620021305E10336C686D65C
:100D8C00EFF03F808547230EF1029387618403C700
:100D9C000700B246A30E2103130617002380C700D9
:100DAC0083C7F181A30FE10213F5F6002300F104D0
:100DBC009307F00F6394F6003A85D1352302A10412
:100DCC00EF00B01CA302A10403454104230F8104CE
:100DDC009937781881473A8593F6F70F050763E141
:100DEC0086022C08130610022936AA85014599C1E2
:100DFC002808BD37B6502654965406596561828032
:100E0C00B386F40083C606008507A304D700E9B7B0
:100E1C0015C12A8601458DC14111AE862D458145EE
:100E2C0006C697F0FF1FE7802040B240133515002F
:100E3C004101828001458280828035CD9387F5FF08
:100E4C001307F00F6369F7066D718A8723248110ED
:100E5C002326111018023E84FD5694C39107E39E7D
:100E6C00E7FE2E86AA852285EF00D020B7F7070073
:100E7C00DC532147BD8B6393E70001A09306001060
:100E8C0001468145254597F0FF1FE780E0398147F2
:100E9C0001ED9306001022868145294597F0FF1F2E
:100EAC00E7808038933715008320C110032481100C
:100EBC003E855161828081473E858280B7F707006D
:100ECC00DC532147BD8B6393E70001A041119306CE
:100EDC00001001468145254506C697F0FF1FE780A7
:100EEC00A034B240133515004101828023AEA1829B
:100EFC007971A38A018022D423AC018006D626D234
:100F0C0023A801829387C18723A0070023A207008F
:100F1C0023A4070023A6070023A8070023AA018205
:100F2C0023A0018223AC018223830184A38F01803F
:100F3C0023A0018423820184238F0180A38E01804E
:100F4C00239501822394018223960182238E0180B2
:100F5C00EF00B003B7170300938707D43E950546FF
:100F6C00854523A2A1820545CD3B09470945A382AE
:100F7C00E184DD33014545338145130600020A85C2
:100F8C00EFF02FE0930500020A85593545C1024662
:100F9C00B7474E4493874724631AF6081246C17725
:100FAC009387F70F7D8EB707200085076310F6082F
:100FBC009386C1811387C18701468147F1451395FB
:100FCC005700B307F5403305C1000345050005067E
:100FDC00AA97E316B6FE7246631AF604034641015D
:100FEC00A2483248C2451315860093178601C98F53
:100FFC0033C50801A98F13D395011395750033657B
:10100C006500A98F37555A6D1305556AA98F62452E
:10101C00631EF500854723221701232407014CC7C3
:10102C002308C7002300F7002380F600B250225497
:10103C0092544561828003C55181828003C5C18170
:10104C008280A38A0180238E018023AC018023A897
:10105C0001829387C18723A0070023A2070023A442
:10106C00070023A6070023A80700A38E0180B9B5AB
:10107C00357126CBB7345AA522CD4AC94EC752C5B5
:10108C0056C3DEDE06CF5AC1E2DCE6DAEAD8938438
:10109C00C43CEF00806FA98C2A8493FAF401130BE3
:1010AC0010024C0028105AC255396303052A924588
:1010BC00F0002810EFF0FF8E6DD58347F10403ACE0
:1010CC000183138B0183A38FF1808547631CFC1272
:1010DC00834CD10463918C050347E1068D47E3F003
:1010EC00E7FC13056105D9369387C187C8C384C74C
:1010FC002388570181469307002225462C00094579
:10110C0026C423065101A30691012317F1002308DD
:10111C000100893969B78D47E393FCF80347E10671
:10112C009D47E3FEE7F6130561054936138DC1872C
:10113C002326AD00AA8C1305A1058D3E83278D00B7
:10114C00631CF50AB7474E44938747243EC4B70740
:10115C002000938717103EC683274D0003470D01CF
:10116C0002CE3EC82ACA66CC3D8D93977C0093DC98
:10117C009C01B3EC9701230EE10093178701220722
:10118C00D98F3345950137575A6D1307576AA98F75
:10119C00B98F23008D01238E81813ED002D201476D
:1011AC008147138CC181F14613965700B307F64063
:1011BC0030003A96034606000507B297E316D7FEB1
:1011CC009305000228003ED28D3915E193870184E6
:1011DC00984323000D0023000C00050798C3938748
:1011EC00C18203D7070005072390E7004DBD2320DC
:1011FC000B000545753465B5938701849843050745
:10120C0098C371BD89476313FC0C0347D104954700
:10121C00E317F7E80347E1069D4763EFE700938781
:10122C0001849843050798C39387818203D70700ED
:10123C0005072390E700A5B513056105853C138CC4
:10124C00C18783274C00AA8CE31BF5FC1305A10571
:10125C00B13C03470C01931787012207D98F032751
:10126C00CC00B3CCEC0003278C00B3C797019316CA
:10127C0077006583558FB98F37575A6D1307576AA7
:10128C00B98FE31EF5F883C7C181D1DB83470C000E
:10129C00D9D7E8001D3C41D59387A18203D707001D
:1012AC0005072390E7000547A38AE1808D4723209B
:1012BC00FB00E12923A0A18203C5618405051375F8
:1012CC00F50FEFF0DF9B813C0D452DB78D47E318F3
:1012DC00FCDC83C7C181A1D783C7C187A9D3E80030
:1012EC00EFF0BF9EE30D05F2034541052D3423A01D
:1012FC0081829387A18203D7070005072390E7001B
:10130C008347D10419476390E7048345E106E388DA
:10131C0005D883A6C183E38406D803C5D1810346CF
:10132C00F1049387D1811387E18109C50345070037
:10133C00E307C5D62300C7001305610505472380C5
:10134C00E7008296A9BB2547E39BE7D4DD3981BB37
:10135C00138701831C438546938401836392D70AC8
:10136C0083A74183B307F44063C70700232007001A
:10137C000945EFF0FF92138741821C43B307F440F9
:10138C0063C20706B7170300938707D43E9400C3C4
:10139C0083D7C18203D7818283D6A1828607BA976D
:1013AC0013878600C2074207C18341831384C1821D
:1013BC00938481821389A182637BF7149387518470
:1013CC0003C5070009476369A70005051375F50FE9
:1013DC002380A700EFF05F982310090023900400EE
:1013EC0023100400FA406A44DA444A49BA492A4AAA
:1013FC009A4A0A4BF65B665CD65C465D0D61828050
:10140C000947639DE71283A7818393898183B3077F
:10141C00F44063C40708EFF01F911387C18783461C
:10142C00070150432A8A939786012306D100A2060E
:10143C00D58F1447584732C4358E93167700658381
:10144C00558FB18FB98F37575A6D1307576AB98FAC
:10145C0013D78700A306F1002307E10013D7070178
:10146C00E183A307E1002308F1000149930BF00F7E
:10147C008D4A9306F00F63087A01D2866305090042
:10148C00EFF07F8AAA8625462C001145EFF09F8D40
:10149C0019CD9307047D23A0F90083A74183B307DB
:1014AC00F44063CD070823A004001145D9B5138778
:1014BC00C1828357070005091379F90F850723109B
:1014CC00F700E31859FBF1B793175401E39507EABA
:1014DC009306F00F014681452145EFF0BF88E31CD0
:1014EC0005E89384C18283D704009306F00F01466C
:1014FC008507814521452390F400EFF0BF86E31C5E
:10150C0005E683D7040085072390F400ADB5E39579
:10151C0007ECD147E3F2D7EC83C75184138751848E
:10152C00E38C07EAFD1713F5F70F8D4693F7F70FCA
:10153C0063F3F6000D452300A70069BD98408D4765
:10154C00E31BF7E203A701829D67938707533307D9
:10155C00E440E3DBE7F6A38A018089479CC0B7C768
:10156C002D009387076CA29723AAF18223AC81826A
:10157C0083C7C1881545BD8B2382F184DDBB411126
:10158C00A38A0180054706C623A8E182FD2AB797E6
:10159C009800938707683E95B24023AAA182238EB8
:1015AC00018641018280828083C7C18185CF411130
:1015BC000947A38A018006C623A8E182F922B7C78E
:1015CC002D009387076C3E9523AAA1827D2A23AC1C
:1015DC00A18203C5C188B2403D892382A184410107
:1015EC006FF06FF38280828093878181884323A080
:1015FC00070082800547A383E1849387018923A098
:10160C000700514723A2070023A4070023A60700C5
:10161C0023A80700A380E700828003C57184828021
:10162C000545828001CDAA8541115146138501895A
:10163C0006C68924B240054541018280014582805D
:10164C00B7170040984B41111367070198CB03C79C
:10165C0007011377E70F2388E70013078008733718
:10166C000780137787083AC60F1000001307700520
:10167C002380E704130780FA2380E7040F1000008F
:10168C00B847B70600069506558FB8C703C7B70409
:10169C001377F70DA385E70403C7E7041377F70F58
:1016AC00936637002387D70483C6A70093E64600CA
:1016BC002385D70083D68700C206C18213E6060CA9
:1016CC002394C700A5470100FD1793F7F70FE5FF1B
:1016DC00B71700402394D7002387E70403C7A7005C
:1016EC00136707012385E700130750342394E700A1
:1016FC00372700408346578093F6F60EA302D78017
:10170C008546A303D78003C7F70213672700A38777
:10171C00E70203C70701136717002388E70023803C
:10172C000704B247F3A707800F1000004101828025
:10173C00411193050040054506C6012A8D45130548
:10174C0000409D20B240B71700401307004023AC67
:10175C00E70A4101828041111305002706C623A424
:10176C000184FD28B727004005472383E70003C702
:10177C002700136717002381E700B240B7E700E0AA
:10178C00416723A0E7104101828003A581848280F8
:10179C00B71700401307004001C523A6E70A828053
:1017AC0023ACE70A82808280914763ECB702896799
:1017BC009387879A8A05BE959C418287B71700400C
:1017CC0003A7470B1345F5FF698F23AAE70A03A765
:1017DC00070B698F23A8E70A03A7070A798D23A0B3
:1017EC00A70A8280B717004083A6470B1347F5FF63
:1017FC00F98E23AAD70A83A6070B558D23A8A70A0F
:10180C0083A6070A758F23A0E70A8280B7170040CA
:10181C0003A7470B498F23AAE70A03A7070B134516
:10182C00F5FF45BFB717004083A6470B1347F5FFDD
:10183C00758F23AAE70A03A7070A598D4DB7B71767
:10184C00004003A7470B498FEDB7B7170040D84F9F
:10185C0011C593C5F5FFF98DCCCF8280D98DEDBF25
:10186C00B7270040C8C709472380E70011472380EA
:10187C00E7008280B3C7A5008D8BB308C500A1E734
:10188C008D4763F2C704937735002A87A9EB13F6CB
:10189C00C8FF930706FE6367F7066373C702AE863D
:1018AC00BA8703A806009107910623AE07FFE3EA67
:1018BC00C7FE9307F6FF998FF19B91073E97BE9554
:1018CC006366170182802A87E37E15FF83C70500B4
:1018DC0005078505A30FF7FEE36A17FF828083C611
:1018EC000500050793773700A30FD7FE8505C5D3F1
:1018FC0083C60500050793773700A30FD7FE850530
:10190C00F9FF71B7944183A2450083AF850003AF03
:10191C00C50083AE050103AE450103A3850103A8F1
:10192C00C5019385450214C383A6C5FF2322570026
:10193C002324F7012326E7012328D701232AC701F3
:10194C00232C6700232E070113074702232ED7FEF3
:10195C00E36AF7FA99B70000F207000014080000D8
:10196C00380800007808000088080000860B00008A
:10197C000E0C0000140C00001A0C0000200C0000CF
:10198C00260C00002C0C0000320C00000205080B89
:10199C000E1114171A1D2023260C131FC817000034
:1019AC00F017000018180000301800004A1800004A
:00000001FF
