:040000006F10807489
:100004000000000000000000A00000205A050020AD
:10001400A9BDF9F3A00000200000000000000000CA
:10002400A0000020A000002000000000000000004C
:10003400A000002000000000A0000020000000003C
:10004400B0060020A0000020A0000020A000002096
:10005400A0000020A0000020A0000020000000005C
:10006400A0000020D2060020A0000020A000002054
:100074009A060020A0000020A0000020A00000207C
:10008400A0000020FE060020A0000020A000002008
:10009400A000002004080020A0000020A0000020F0
:1000A40001A0B7170040984B4111C107136707011E
:1000B40098C303C707001377E70F2380E7001307EC
:1000C400800873370780137787083AC60F1000003B
:1000D4003717004013070704930670052300D70061
:1000E400930680FA2300D7000F100000B7160040D3
:1000F400B046B705000695054D8EB0C6B71600404C
:1001040003C6B6041376F60DA385C604B7160040DD
:1001140003C6A600136626012385C600B716004051
:10012400130650142394C600B726004003C6568015
:100134001376F60EA382C680B72600400946A38331
:10014400C680371600408346E60493F6C60F93E64E
:1001540016002307D604B716004003C6F60213663A
:100164002600A387C60283C6070093E616002380F1
:10017400D70023000700B247F3A707800F10000041
:1001840041018280EFF0FFF1130580239705000001
:100194009385850A171600001306C65A63FAC5002C
:1001A4008322050023A0550011059105E3EAC5FE4D
:1001B40017F500E01305451D971500009385855834
:1001C40017260000130646DE63FAC50083220500E5
:1001D40023A0550011059105E3EAC5FE1385418866
:1001E400975500009385858D6377B500232005001E
:1001F4001105E36DB5FE93025002739002BC8D426B
:10020400739042808542739012BC9302800873906D
:100214000230970200009382E2DE93E23200739090
:100224005230973200E093826285739012347300E7
:040234002030000076
:10023800B717004041119387870398433AC6944300
:100248003247E39CE6FE324541018280411122C6D5
:1002580083A7818891C783A78188829723A401886F
:100268003244410173002030B7F70700D8534111D9
:1002780023A2E188B7170040984B1367070198CB72
:1002880003C707011377E70F2388E7009307800860
:10029800F3B7078093F787083EC60F100000B7171B
:1002A8000040130770052380E704130780FA2380B2
:1002B800E7040F1000009307000C631CF502B71742
:1002C800004003D78700498F2394E700B717004001
:1002D80003C70701136717002388E700B717004013
:1002E80023800704B247F3A707800F1000004101DD
:1002F8008280B717004003C7A70093760520A90797
:10030800C9C6118B39E7371700400346E704834510
:10031800E70493E535002307B70403C7070013670D
:1003280047002380E700B717004003D7870083D52D
:10033800870093E5050C2394B700A5470100FD1736
:1003480093F7F70FE5FFB71700402394E7002387DB
:10035800C70493770510E9C7B717004003C7A7007C
:10036800136707012385E700B72700401377F501D6
:100378009387578005E303C70700136707012380A6
:10038800E700B72700401D4715A013672700238003
:10039800E700C1B725466363E60603C7070013777E
:1003A800F70E2380E700B72700400547A383E780BF
:1003B800B71700401367050C2394E7002394A700A0
:1003C800B7170040D9CA03C757049387570483C790
:1003D8000700418B858BD98FE39A07EEB71700404A
:1003E80083C72701C18BE38307EEB717004003C714
:1003F800A7001377D70F2385E700C9BD1377050139
:1004080019EB03C707001377F70E2380E700B72718
:100418000040094761BF03C707001377F70E85B788
:10042800B7270040137785019387578001EF03C7EB
:1004380007001377F70E2380E700B727004013075C
:100448001005ADB703C707001377F70E2380E70041
:10045800B72700401307700591BF03C7A70013779C
:10046800B70F51BF37E700E01C4354437D56A183C3
:10047800E206D58F9306071890C2D0C2B7060020AF
:1004880037060020938606001306062503A8860370
:1004980090DE23A4A18891652320B7102320B720DC
:1004A80083A58188F5FD11662320C7180F10000069
:1004B80023AC0603939687002320D710E1832322D9
:1004C800F71082800111814601468145114506CE0B
:1004D800EF00307593078008F3B7078093F7870814
:1004E8003EC60F100000B717004093870704130794
:1004F80070052380E700130780FA2380E7000F10B8
:100508000000371700408346670493E6160023036C
:10051800D70423800700B247F3A707800F10000015
:10052800F2400561828037E700E01C435443A18311
:10053800E206D58F1CC1FD572320F7182322F71890
:10054800828013178500B7E700E023A0E7106181D8
:1005580023A2A71082804111814601468145114599
:10056800EF00306C13078008F3370780F98F3EC41B
:100578000F100000B7170040938707041306700593
:100588002380C700930680FA2380D7000F1000004D
:10059800B71500407D552396A50223800700A24584
:1005A800F3A505800F1000007337078013778708BD
:1005B8003AC60F1000002380C7002380D7000F1011
:1005C8000000371700408346670493E616002303AC
:1005D800D70423800700B247F3A707800F10000055
:1005E80001A09307E0043305F50295473355F5025A
:1005F80001007D1575FD8280411122C406C62A843A
:100608007D1442041305803E4180E13F75F8B240F5
:100618002244410182802E96AA870F70B678828084
:10062800B717004041119387870398433AC694430C
:100638003247E39CE6FE324541018280B7E700E09D
:100648003707001023A0E720828041119307800814
:10065800F3B7078093F787083EC60F100000B71757
:10066800004093870704130770052380E7001307EA
:1006780080FA2380E7000F1000003717004048DB9E
:1006880023800700B247F3A707800F10000023AAB2
:10069800018841018280B7170040130700032388AF
:1006A800E702054723AAE18873002030B7270040F6
:1006B80003C767009907058B09CB05472380E70027
:1006C80083A7818AA90723A4F18A73002030B7374A
:1006D800004003C7678093876780058B09CF05476C
:1006E8002380E700B7470020938707CF03D7C700C9
:1006F80005072396E70073002030011122CE02C4BB
:100708002316010023070100B747004083C747802D
:100718001947BD8B638CE70031476381E7081147B0
:100728006382E7027244056173002030B7470040D6
:1007380083C557803D651305059C974000E0E78019
:10074800809DCDB7B747002037460040B745002009
:100758001D47938707CF130686809385058F13055A
:10076800F03F83D6470013881600239207010348F9
:100778000600AE962380060183D647006374D50031
:10078800239207007D171377F70F61FF03D76700E0
:100798001D072393E7002396070069B720002285E9
:1007A800972000E0E78080DAB7470020374600202E
:1007B8009375F50F0147938707CF1306068F130824
:1007C800F03F9376F70F63E8B60003D76700137519
:1007D800F50F2A977DBF83D647009388160023928A
:1007E8001701B308E40083C80800B29623801601F5
:1007F80083D647006374D800239207000507D1B752
:10080800797122D63794004026D44AD24ED052CE9F
:1008180056CC83478400379700400347970093F6E8
:1008280007012104E388062C937607019377770064
:10083800E395060A0547E382E7021147E382E706E4
:100848006394077AB797004003C7F7099387F709B6
:10085800218B6307077A375500209309859183C751
:10086800090003D72900238DF19083C7190003D607
:100878004900A38DF19083D76900239AF190239CB6
:10088800E190239BC19083CAA19193FA0A06638ED3
:100898000A1A03C6A1919305000213760606631C83
:1008A800B60C83C6B1912D4613F7F60F6360D602D6
:1008B80005CF7D171377F70FA94663E7E602BD66F4
:1008C8000A079386C68F3697184302879307100244
:1008D800631CF700B72500201D46938585F24E85D9
:1008E800974000E0E780C08583C7A19103D7419175
:1008F800E207E18763DA076C9307000463E4E70023
:1009080083D7419103D741911D8F239AE19037975F
:100918000040231EF708BA871947238FE7086DADF3
:1009280023940190D1B72394019003D74191930761
:10093800F0031306000463E6E70003D6419142067C
:10094800418281454E85971000E0E78000E469BF49
:1009580083D78191A183A385F19079B783D78191BA
:100968002385F19051B783C7B1902380F900ADBFBB
:1009780083C7A190DDBF83C7A1911306000493F735
:100988000706639DC70A83C7A191E207E18763DF72
:10099800070403C6B191930700026319F60403D64E
:1009A800619191476314F60403D74191930780023C
:1009B80063F4E700239AF19003D741919307F0037A
:1009C8001304000463E6E70003D441914204418024
:1009D8003D6A130ACAB32286D2854E85973000E055
:1009E800E7800076529423AE8190FDBD83C7A19124
:1009F800E207E18763D4070483C6B1919307000235
:100A0800639EF60203D7619195476319F70203D7EE
:100A18004191A94763F4E700239AF19003D74191E4
:100A28009307F0031304000463E6E70003D441913D
:100A3800420441803D6A130A0AB371BF83C7A1917A
:100A4800E207E187E3D207EACDB583C6B191AD45A8
:100A580013F6F60F63ECD52CBD6593162600938527
:100A68008592AE969442828603D481919D462180D8
:100A780063E086021DC47D14420441801947636106
:100A880087023D67130787950A043A94184002873E
:100A9800930710026302F41E93072002630EF41AF0
:100AA8000144930AF00F85A0BD67938707D423AE4E
:100AB800F19003C4070081A8B797004083C7A70037
:100AC800E207E18763D5070885472387F1909307F5
:100AD80000202398F19089452392B19003D7419043
:100AE800998F2393F19003C7E19085476319F7061F
:100AF800BD679387C7CC03C4370003C7270023AE5D
:100B0800F1902204598C83D741916374F400239A9D
:100B1800819003D741919307F0031304000463E61F
:100B2800E70003D441914204418083A5C191228604
:100B38004E852EC6973000E0E7808060B245A295CA
:100B480023AEB1909307F00FE390FADAC5A223879A
:100B58000190930700042398F1908545B5BFBD67C0
:100B6800938787C549BF83D78191114793F7F70FBB
:100B7800636FF700FD17C207C1830D476364F7026F
:100B88003D678A0713074797BA979C4382871307DD
:100B9800E00EE397E7F0BD67938747B623AEF19081
:100BA800494495B79387018819B7BD67938787C16B
:100BB800FDBDBD67938747BEDDBDBD67938707BD94
:100BC800FDB5BD67938747B8DDB5BD67938787B720
:100BD800F9BD83C6E1900547639FE602BD67938729
:100BE80087C503C4370003C72700BD652204598C95
:100BF800371500201306E4FF9385A5C51305A577CF
:100C0800973000E0E780C053B717002093878777B5
:100C180023AEF190CDBD83C7E19093FAF70FE3912E
:100C280007E8BD679387C7CC03C4370003C727000D
:100C3800BD652204598C371500201306E4FF9385FF
:100C4800E5CC1305E57E973000E0E780604FB717E5
:100C580000209387C77E6DBF03C7E190854763195E
:100C6800F700BD67938707C423AEF190554461BD73
:100C7800BD67938787C2CDBF83D76191E39207E2AF
:100C880003C7E19085476316F700BD679387E7CDF3
:100C980039BDBD679387A7C619BD83D781912389BD
:100CA800F19099B183C731912380F90003D741911D
:100CB8008547E3FBE7C2239AF1903DB183D7819141
:100CC800A389F19005472386E19039B983C6A1919C
:100CD800FD8A99EE83D78191054793F7F70F6397BC
:100CE800E70483C7D19093F7E70FA386F190EDBE91
:100CF80083C6A1910946FD8A639AC60283D781916A
:100D080093F7F70F85E783D761911307100893F7D7
:100D1800F70F6387E7046363F7020D476387E70408
:100D28001547638EE70405476387E7023797004056
:100D38009547230FF708A30FF70879AC1307400866
:100D4800638AE70213076008E392E7FEB79700405B
:100D5800238B070A51BEB7970040A381D70A69B60B
:100D6800B79700402381070A41B6B7970040A3858B
:100D7800D70A9DBEB79700402387070AB5B6B7972D
:100D88000040A389D70A8DB683C6A191FD8AD1E612
:100D980083D68191054693F6F60F639AC60283C7F8
:100DA800E1906398D700BD6783C737CD93F70702F3
:100DB80091EB83C7E190BDFBBD6783C7F7C593F788
:100DC8000702ADD783C7D19093E7170039BF83D700
:100DD8008191894693F7F70FE39AD7F483D6619107
:100DE800930700106384F60283D66191930700206D
:100DF800638EF60083D66191930700306388F6000E
:100E080003D7619193070040E310F7AE83C70192BF
:100E180093E707F82380F192C1BC83C6A1910946E4
:100E2800FD8AE393C6AC83D7819193F7F70FE39DCF
:100E380007AA83D761911307100893F7F70F638BFD
:100E4800E7046366F7020D476381E7061547638485
:100E5800E7080547E39CE7EC379700408347370AE4
:100E680093F7C70F93E71700A301F70AB5BC130759
:100E780040086387E70413076008E399E7EA3797B0
:100E880000408347670B93F7C70F93E71700230BBF
:100E9800F70A99BC379700408347270A93F7C70F8B
:100EA80093E717002301F70A81B437970040834777
:100EB800B70A93F7C70F93E71700A305F70A2DB4EE
:100EC800379700408347E70A93F7C70F93E7170060
:100ED8002307F70A11BC379700408347370B93F76E
:100EE800C70F93E71700A309F70AFDBA2380090083
:100EF80075BB83C7A191231C05908946FD8B639A16
:100F0800D70A83D761911307100893F7F70F638205
:100F1800E7066366F7020D476389E70615476380AE
:100F2800E7080547638EE7021306F00F03D74191E0
:100F3800894763F4E700239AF190B28A21B1130735
:100F480040086389E70413076008638FE704130701
:100F58002008E39BE7FCB797004083C7670A31A8DE
:100F6800379700400347370A0D8B6314F700238037
:100F7800E900B797004083C7270A8D8B0547E39799
:100F8800E7FA85472380F90055B7B797004083C72C
:100F9800B70AE5B7B797004083C7E70AF9BFB7971D
:100FA800004083C7370BD1BFB797004083C7670B93
:100FB800E9B783C7A191FD8BB5FB83C7D190858B1A
:100FC800B5D72380D9009DB7994705EB37970040DF
:100FD800231E0708230FF708B797004003C7F70930
:100FE8001377F707A38FE7083254A254125982598E
:100FF800724AE24A4561730020303797004025BBAA
:1010080023800700B797004003D7C70783C7A1917C
:10101800420793F7070641838DCB239A019083C734
:10102800B1911337770093F7F70F05E3811791EF25
:10103800B7550020372500201D4693858591130557
:1010480085F2973000E0E780A00F83D74191C9F778
:10105800B7970040239E0708C1B0B797004003C761
:10106800370A9387370A418B1DC3379700400357C8
:1010780007082391E19003C707001347470023801F
:10108800E70003C707001377C70F2380E700B79768
:10109800004003C7370A1377F707A381E70AA9B700
:1010A800B797004003C7F70A9387F70A418B09CF20
:1010B80003C70700134747002380E70003C707005B
:1010C8001377C70F2380E700B797004003C7F70AD5
:1010D8001377F707A387E70A01BF8D46638BD71CF1
:1010E800118B21EBD9CB0947E390E7F0B797004084
:1010F8002392070A03C7670A134747002383E70AAF
:1011080003C7670A1377C70F2383E70A3747002007
:10111800130787F08346270093F6E60F2301D700CD
:101128002380019003C7670A1377F7072383E70A29
:1011380065BD1547E39AE7EAB79700402398070A81
:1011480003C7270B134747002389E70A03C7270B61
:101158001377C70F2389E70A37470020130787F05B
:101168008346570093F6E60FA302D70003C7270B61
:101178001377F7072389E70A85BD83D7419191E75C
:10118800B79700401947A38FE70883C7A19193F742
:101198000706CDCB83C7A1911307000293F7070673
:1011A800639FE70603C7B1918547631AF70603D71C
:1011B80041919307F0039304000463E6E70083D4A6
:1011C8004191C204C18083D58190B747002093879D
:1011D80087D037550020BE95268613058591973010
:1011E80000E0E780E0F583D74191858F239AF1905D
:1011F80083D78190A6972394F190B7970040239EB8
:10120800970803C7E70913474700238FE70803C771
:10121800E7091377C70F13672700238FE70883C7EA
:101228000192E207E18763D60700973000E0E78084
:10123800809BB797004003C7E7091377F707238F09
:10124800E7085DB383C7B191954613F7F70F638637
:10125800D7049947631AF70403D741919307F0031A
:101268009304000463E6E70083D44191C204C1807B
:1012780003A9C191375500202686CA851305859193
:10128800973000E0E780C0EB83D74191269923AEE1
:101298002191858F239AF1908DB783C72191379734
:1012A8000040A301F700A5BFB7970040239E070899
:1012B800BDB7B79700402394070A03C7A70A134787
:1012C80047002385E70A03C7A70A1377C70F2385B3
:1012D800E70A37470020130787F08346370093F65D
:1012E800E60FA301D70003C7A70A1377F7072385DB
:1012F800E70ADDB913F7070411C7930700042300B1
:10130800F400DDB113F7270015CB89472300F4005B
:10131800B797004003C7A700118B11CB03C7D19023
:1013280013672700A386E19083C7D19075B903C7D7
:10133800D1901377D70FA386E1907DB113F71700EB
:101348005DDFA389019023890190A38601902386FC
:101358000190B7970040A3810700973000E0E7802D
:101368008095854769BF2303048015472303E480DC
:1013780001002302A480828083076480E3CE07FEF5
:1013880023030480828083076480E3CE07FE03453D
:101398004480828083076480E3CE07FE2302A48012
:1013A8008280411126C44AC24EC006C61377F50B87
:1013B800AD47AA892E8995446306F7001945653714
:1013C800653F8D444E854537FD59FD1463983401BA
:1013D800B240A24412498249410182801355090151
:1013E8001375F50F453F2209CDB7011126CC06CE5E
:1013F800B704080051371545BD37713769372AC614
:10140800A53F32459377150089EB136515001375D1
:10141800F50FF240E24405618280FD14E9FC0145C4
:10142800CDBF3971B7F7070006DE26DC4ADA4ED899
:1014380052D656D45AD25ED062CE03AB47027D57FD
:10144800B7E700E083AA070022C603AA470023A043
:10145800E71823A2E718B71B0040930770052380FD
:10146800FB04930780FA2380FB0483C74B041147CE
:10147800AA8993E7070E2382FB043724004013054B
:10148800F00F2303E4802E8C3289B684E93DED35D4
:10149800938779FF93F7F70F0947137BFB00636284
:1014A800F712A147370708006307FB00B7070700D3
:1014B8003E9C378707007955637EEC02B387840129
:1014C800636AF702A9476398F90689E481446D3590
:1014D80026850DA0E2850945E93505090345F9FF8B
:1014E800FD14050C453D81C49377FC0FFDF7F53DD0
:1014F80069FD7D55B7170040130770052380E70481
:10150800130780FA2380E70403C74704418B23822B
:10151800E704F250B7E700E023A0571123A24711D0
:10152800E25432445259C259325AA25A125B825B6F
:10153800724C21618280A547639AF906A1478569A3
:10154800631DFB029387F9FFB3869700B374FC0011
:10155800B69493C7F7FFFD8C33FC8701416B856B0D
:101568009387F9FFB3F7870199E363FF340193D9B0
:101578004900C147E3E637FF91BF9307F00FE9B78A
:101588008567C169FD17C9B71305800D63886901AF
:10159800130500026384790113051008E2851135EB
:1015A800A93521D94E9CB3843441C1B7E2852D4574
:1015B800CD3BCA94E30C99F00509F133A30FA9FEBA
:1015C800D5BF9387F9FF93F7F70F636FF70AA14722
:1015D8006319FB06B70708003E9C83C75B043707FF
:1015E800070093F7070299E337870700B707080052
:1015F8003E977955E370ECF0B3079C00E36CF7EE87
:101608008947639AF9048980D549E38104ECE28526
:101618000945413B11090327C9FF91472320E4806D
:1016280003076480E34E07FE23033481FD17EDFBB7
:10163800FD14110C81C49377FC0FE9FF7D3371F51C
:101648004DBD83C75B043707070093F70702D5F33F
:101658003787070079BF8547E384F9F2E2852D458E
:1016680089339389F4FFE38304E6313B93F7390028
:1016780091EB832604800327090093074900E39828
:10168800E6E43E89CE84F1BFB5476396F9001305B9
:10169800900BD13925BDB1471305B00AE38BF9FE8C
:1016A80099476394F904A1476315FB00B70708003D
:1016B8003E9CE2852D45F53181440D4BA149E13130
:1016C80063966401832704802320F9008504E39846
:1016D80034FF8327048013172C0163550700231256
:1016E800F900EDB32322F900D5B39D476399F902B8
:1016F80081451305B0047531BD4423200900232218
:101708000900FD59493193F77400CA9703C70700C8
:10171800FD14398D2380A700E39634FF45BB91471C
:101728006399F900130560063D39B931130590092D
:0C1738008DB7E38D09D8F15459BB0000B7
:1017480097110020938181FD17F101201301018B6E
:101758001305400097F5FF1F9385458A17F6FF1F6D
:10176800130606AD63FAC5008322050023A05500C1
:1017780011059105E3EAC5FE17F5FF1F130545A0FE
:1017880002853D432A876373C3029377F700BDEF51
:10179800ADE5937606FF3D8ABA960CC34CC30CC7D9
:1017A8004CC74107E36BD7FE11E28280B306C34002
:1017B8008A069702000096966780A6002307B7005E
:1017C800A306B7002306B700A305B7002305B70093
:1017D800A304B7002304B700A303B7002303B7008B
:1017E800A302B7002302B700A301B7002301B70083
:1017F800A300B7002300B700828093F5F50F9396F6
:101808008500D58D93960501D58D61B793962700F0
:101818009702000096968682E78086FA9680C1171E
:101828001D8F3E96E374C3F8A5B7914763E4B706E6
:10183800BD67938787998A05BE959841B717004079
:101848009387470B028798431345F5FF698F98C321
:10185800B71700409387070B9843698F98C3B7174A
:1018680000409387070A9843798D88C38280944300
:101878001347F5FFF98E94C3B71700409387070BFA
:101888009443C98E94C3B71700409387070A9443BB
:10189800758F98C382809843498F98C3B7170040C3
:1018A8009387070B98431345F5FF45BF94431347A8
:1018B800F5FF758F98C3B71700409387070A9843B9
:1018C800498FC1BF9843498FF5B7B717004003D771
:1018D8008701E10709C54D8F2390E700828093C5F2
:1018E800F5FF6D8FD5BFB7170040D84FF10711C569
:1018F80093C5F5FFF98D8CC38280D98DEDBFB717DD
:10190800004003C777051377E70FA38BE704B717E2
:101918000040130700F8A38DE7043D47238CE70434
:1019280013075003A38CE70403C7A7051377D70F42
:10193800238DE7048280B7270040C8C70947238062
:10194800E70011472380E7008280B716004083C76D
:10195800E6020D89411193F7C70F9386E60233E734
:10196800A70093078008F3B7078093F787083EC658
:101978000F100000B717004093870704130670057F
:101988002380C700130680FA2380C7000F100000C9
:101998002380E60023800700B247F3A707800F10D3
:1019A80000004101828041112A838148130F407E43
:1019B800130E0019930F400613180301135808015A
:1019C800636D0F13337EC503854E0D4FA14FFD4246
:1019D80063EABE147D16B2987946C20893D8080106
:1019E8003307C70213D61700858BBE0732976146A7
:1019F800B3F6C60213068070B386C602369742074E
:101A0800D98F371700401307F7028346070093F66C
:101A18000608A303D100034671008346070093F626
:101A28000608E314D6FE0347710009EB3717004098
:101A38001307F702834671006385061213078008AF
:101A480073370780137787083AC40F1000003717D9
:101A5800004013070704930670052300D700930678
:101A680080FA2300D7000F100000B716004023AA01
:101A7800160337160040834516039386460393E5FD
:101A880005F8A308B602230007002247732707803A
:101A98000F100000371600401306C60398420C4288
:101AA8002D8F93152701FDF91307800873370780D9
:101AB800137787083AC60F1000003717004013073E
:101AC8000704130670052300C700130680FA2300D5
:101AD800C7000F1000009CC2B717004083C6170349
:101AE80093E60604A388D70223000700B247F3A7AA
:101AF80007800F100000410182807D13B36EC3037D
:101B08001308E016638E0E00B36EF3031308D016A5
:101B180063880E0013783300133818001308D8169A
:101B2800C29859BD6396E5030548630D0E0013037B
:101B380040063373650201486306030013783500D5
:101B4800133818007108FD15C205C298C18149B53E
:101B580013F3150033886240E3F7BFFE1308E3016F
:101B6800DDB78346070093F60608A303D1000346B2
:101B780071008346070093F60608E314D6FE5DBDA0
:101B8800317122DD26DB06DF4AD94ED752D556D32E
:101B98005AD15ECF62CD66CB6AC96EC7AA8402D815
:101BA80013048008EF00101DF3370480E18F3EDA3C
:101BB8000F1000003717004013070704930770053C
:101BC8002300F700930780FA2300F7000F100000A6
:101BD800B717004083C6F70293F6760FA387D7029C
:101BE80083C6F70293E68600A387D702230007007F
:101BF800D257F3A707800F100000930B80C1B34B97
:101C080075039167938707E813093002054C8149EA
:101C1800014AB347F50233892B033EC2FD873ECA0A
:101C2800BD67938707A63349F9021357F9413AC4A8
:101C3800330720413ACC935DF7411307A0FB338764
:101C4800EB02B347F702130750473EC6FD873ECE67
:101C5800E1679387076AB347F5023EC89387240074
:101C68003ED0B317FC008D87B387E7023ED2F33727
:101C7800048093F787083EDC0F100000B71C004073
:101C8800938C0C04130B700523806C01930A80FA63
:101C980023805C010F100000371D004083463D057E
:101CA800130D3D0593F6860F2300DD0083460D00D6
:101CB80093E616002300DD0023800C00E256F3A60D
:101CC80006800F100000F336048093F6860836DE8F
:101CD8000F100000930770052380FC0023805C012F
:101CE8000F10000083460D00916593E6060223005D
:101CF800DD00B716004003D606054D8E2398C604AE
:101D080003D60605E1754D8E2398C60423800C0082
:101D1800F256F3A606800F10000083460D0093F6D6
:101D280006026388064883460D00A18AEDDE08187E
:101D380097E0FF1FE780207FF336048093F686083C
:101D4800B6C20F10000023806C0123805C010F10C5
:101D5800000083460D00916593F6F60D2300DD0023
:101D680083460D0093E606022300DD00B716004007
:101D780003D606054D8E2398C60403D60605E175DD
:101D88004D8E2398C60423800C009646F3A6068041
:101D98000F10000083460D0093F606026382064486
:101DA80083460D00A18AEDFE97E0FF1FE7804048BB
:101DB8002AD497E0FF1FE780A047A257E30BF5FE60
:101DC800B716004003D60605916542554D8E2398F7
:101DD800C60497E0FF1FE780C07683460D00A18AFE
:101DE800EDDEB716004003D8060583C62605116642
:101DF8007D16B386C60292473378C80013D6F641DB
:101E0800C296B388F640D24733B8060132983308F1
:101E1800F840A247B3B616013308D84063C6070195
:101E2800631BF800637919016343B83F63950D019B
:101E3800E24763EEF83C894663FD463DF33704808C
:101E480093F78708BEC80F10000037170040130724
:101E58000704130670052300C700930580FA2300C2
:101E6800B7000F100000B717004083C637059387E7
:101E7800370593F6860F2380D70083C60700C58EE3
:101E88002380D70023000700C646F3A606800F105C
:101E9800000083C607009D8A6397964073370480C5
:101EA80013778708BACC0F100000371700401307C4
:101EB8000704130670052300C700930580FA230062
:101EC800B7000F10000083C60700116593F6F60DE2
:101ED8002380D70083C6070093E606022380D70035
:101EE800B717004083D60705C98E2398D70483D631
:101EF80007056175C98E2398D70423000700E647B4
:101F0800F3A707800F100000B71700409387370525
:101F180083C6070093F60602638D063AB71A004097
:101F2800938A3A0583C70A00A18BEDDF081897E06A
:101F3800FF1FE780405FF337048093F78708BED020
:101F48000F10000037170040130707041306700529
:101F58002300C700930580FA2300B7000F10000084
:101F680083C70A00116593F7F70D2380FA0083C72A
:101F78000A0093E707022380FA00B717004083D6C8
:101F88000705C98E2398D70483D607056175C98EBE
:101F98002398D704230007008657F3A707800F105C
:101FA8000000B71700409387370583C6070093F6EC
:101FB8000602638B0634371700401307370583473B
:101FC8000700A18BEDFF97E0FF1FE7806026AA8A34
:101FD80097E0FF1FE780C025E30C55FFB7170040C7
:101FE80003D7070591664255558F2398E70497E074
:101FF800FF1FE78000553717004013073705834751
:102008000700A18BEDDFF337048093F78708BED470
:102018000F100000B7170040938707049306700558
:102028002380D700930680FA2380D7000F10000082
:102038008346070093F6F60D2300D7002380070098
:10204800A657F3A707800F100000B717004003D763
:10205800070583C627059167FD17B386F6027D8FAE
:102068000566130606FA954593D7F641BA9633B72F
:10207800E6003E97B317960063F595008257B317AD
:10208800F60042469305800CB307F60213060010CB
:10209800B3C7C70213064006B387C7021306D007A3
:1020A800B3C7C70213D6F741B387F640B3B6F600F5
:1020B800118F158FB306B702330670413385B70207
:1020C800B3B5B702B69595466346E0006311072895
:1020D800638F072663F5962692573306F602BD6787
:1020E800938707A63346F6029356F641EF10B04F92
:1020F800130715003335A7002E959357F5013E9722
:10210800B337F700AA979396F7010583BA968587A0
:10211800371700401307C7026346F0006398072C7F
:102128006386062C0357070015833306D700333719
:10213800E6003E976348E000631307369307F00F05
:1021480063FFC734894763F83725733404801374F1
:102158008408A2D60F100000B71700409387070421
:10216800130770052380E700130780FA2380E70030
:102178000F100000371700408356C7020966011682
:10218800D18E2316D70223800700B657F3A70780FE
:102198000F100000FA506A54DA544A59BA592A5AA8
:1021A8009A5A0A5BFA4B6A4CDA4C4A4DBA4D296185
:1021B8008280F336048093F68608B6C00F100000BC
:1021C80023806C0123805C010F10000083460D0002
:1021D80093E606022300DD0023800C00864615BE28
:1021E800F336048093F68608B6C40F1000002380E7
:1021F8006C0123805C010F10000083460D0093E6FC
:1022080006022300DD0023800C00A64641B6E31732
:102218000AC23246F2469315180013D3F8011395F3
:1022280018009A9542D646D4EF10F03B3258050A6A
:10223800137AFA0F63470001631B0804A2586388E6
:102248000804130615003335A6002E959356F5019C
:102258003696B336D600AA960582FE06B29673362F
:10226800048013768608B2C60F10000023806C0124
:1022780023805C010F100000371600408355C6020A
:10228800AE962316D60223800C00B6460DBC130664
:10229800F5FF13351500898D93D6F5013696B336BB
:1022A800D600AE9655BFF336048093F68608B6CAB4
:1022B8000F1000002300C7002300B7000F10000014
:1022C80083C60700C58E2380D70023000700D646A3
:1022D8006DBEF336048093F68608B6CE0F10000064
:1022E8002300C7002300B7000F10000083C60700B3
:1022F80093E606022380D70023000700F646F3A6DC
:1023080006800F10000029B1F336048093F6860882
:10231800B6D20F1000002300C7002300B7000F102B
:10232800000083C6070093E606022380D700230037
:1023380007009656F3A606800F100000BDB1B3172C
:102348009C008D8713075047B387E70279B3B3170B
:102358009C0063F6960093872400B317FC001307CC
:1023680050478D87B387E7023306F602BD67938728
:1023780007A63346F6029356F641EF10D026130708
:10238800F5FF13351500898D93D7F5013E97B337BF
:10239800F700AE978DBBF337048093F78708BED854
:1023A8000F100000B7170040938707041307700544
:1023B8002380E700130780FA2380E7000F1000004E
:1023C800B716004003D7C602056601161377F70F44
:1023D800518F2396E60223800700C657F3A707808C
:1023E8000F100000850993F9F90F51B033E6F60094
:1023F8005DC6035707003336D000B307F040918F0E
:10240800B305D04015836345F000D1EB6379B70875
:10241800894763F237057334048013748408A2DA99
:102428000F100000B71700409387070413077005C3
:102438002380E700130780FA2380E7000F100000CD
:10244800371700408356C702FD8A2316D702238018
:102458000700D65725BBF337048093F78708BEDCFF
:102468000F100000B7170040938707041307700583
:102478002380E700130780FA2380E7000F1000008D
:10248800B716004003D7C602056601161377F70F83
:10249800518F2396E60223800700E65781B79307FA
:1024A8008008F3B7078093F78708BEDE0F10000097
:1024B8003717004013070704930770052300F70038
:1024C800930780FA2300F7000F100000371600402A
:1024D8008355C60293975600AE972316F60223003B
:1024E8000700F65765B1411122C406C62A8459204F
:1024F8002947B307E502B2408D83B3D78702224448
:102508009507B3D7E702373700402316F700410194
:102518008280716541111305052006C6E937B73772
:102528000040130770F82381E7000D47A381E700F7
:1025380013070004A380E70005472387E700B2409C
:102548004101828037470040B74600408147130762
:10255800A780938686800346070009E6139507013E
:102568004181828083C506003306F5008507230074
:10257800B600D5B7B717004003D787002165930683
:10258800000C1377070CA107130505D06300D704C7
:1025980003D70700137707101DCB03D7070083D78E
:1025A80007007D8B09EF3725F40093F70720130503
:1025B800054089CF3755E80113050580828037C566
:1025C8009812FD8B130505E03345F502828003D789
:1025D800070083D7070013770720FD8B11C73755EE
:1025E800E80113050580CDB73725F400130505402C
:1025F800E1BFB7F700E088478280B7260020AA87A6
:1026080003A506F237570020130787ABAA9763EA9A
:10261800E7000A87130707FC6365F70023A0F6F2B3
:1026280082807D55828011456FF08FD54111939638
:102638002500AA852D4506C697F0FF1FE78060DEB6
:10264800B2400145410182800111B717004006CE12
:1026580022CC26CA4AC84EC603C4770583C9B70523
:1026680003C9870583C49705EFF06FA9B717004022
:1026780003C7A7059387A705136717002380E700FB
:1026880003C70700058B6DFFB717004003D5C705C3
:10269800A38D3705238C2705A38C9704A38B870468
:1026A800F2406244D2444249B249056182804111F4
:1026B8009397050126C206C622C4C187AE8463D299
:1026C8000702B7070400FC57829709C5B70704003B
:1026D800BC5782972165258DB2402244924441011E
:1026E800828093F7150013C51500FDF79397250110
:1026F800096463D60702B707040083A7C71E829739
:102708001D37B7070400BC4F37F60200130606E072
:1027180003C50189A285829733C5840075BF1164FA
:1027280033F5850055D9B7070400BC4F130600647C
:10273800C5B72D71FD77232821113379F500232C96
:10274800811023263111232441112A84AE89328A2B
:10275800CA850A86930600102D45232E1110232AB8
:10276800911097F0FF1FE780C0CB85669387F6FF2F
:102778003375F400B7070400FC470A0513962900CF
:10278800D2850A958297CA8585660146254597F0C0
:10279800FF1FE78000C90A86CA85930600102945ED
:1027A80097F0FF1FE780E0C78320C1110324811140
:1027B80083244111032901118329C110032A81109F
:1027C8001561828083A74188011106CE22CC26CAD2
:1027D800BD8B21476399E700A93FF2406244D24488
:1027E800014505618280B7F70700DC532A84B2846B
:1027F800BD8B939625006398E70093D7260093F73F
:10280800F73F91C301A0A2850146254536C697F03A
:10281800FF1FE78000C1B2462686A285294597F0AA
:10282800FF1FE78000C055BF370704005C5F485BA7
:102838001D71BD6586CEA2CC49469385C59A8297FF
:1028480011E101A0B7F700E023A40700795798CB5E
:102858003D4798C30564B7E700E023A087180F1029
:1028680000003707002014471306C00323A6D188A9
:10287800130700F8A38AE740B7070400BC4781455F
:1028880048088297B7270020938787053ECA89673B
:1028980093870780231CF1009D673ECEB70701058B
:1028A800938707103ED0ED472312F1028547230393
:1028B800F102896793874763BEC489679387C77C9A
:1028C800BEC6930754D12314F10289679387A75F83
:1028D8003EDA8967938707653EDEB7F507008967A3
:1028E8009387E76281467000E1051945BEC097F0FD
:1028F800FF1FE78000B319466C001305E102EF10D3
:10290800B003D24789C78357810163F3870001A0C9
:10291800B707040083A7470A4808829711C101A096
:10292800F640664425618280B707040083A707083C
:102938004111096506C622C41305656B8297238871
:10294800A188292803C50189B70704002244B24099
:10295800BC4F13060032896541018287397106DE52
:1029680093068008F3B70680F58F3EC20F1000006B
:10297800B717004093870704130570052380A70045
:10298800930580FA2380B7000F1000003717004026
:102998000346F7021307F7021376A60F2300C700B2
:1029A800238007001246732606800F100000F3B636
:1029B800068093F6860836C40F1000002380A7000F
:1029C8002380B7000F1000008346070093E6260017
:1029D8002300D70023800700A247F3A707800F1022
:1029E80000000545EFE07FF63D3905460147814681
:1029F800B28581471305407EEFE0FFFAB707040070
:102A0800BC4768001306400281458297B707C0A8F3
:102A18003ECAB787E803938707D03ECCB7070020A4
:102A2800938747623EC6B7070020938707643EC86E
:102A3800B7070400FC5B68008297F250216182802E
:102A4800411106C622C4B7170040116423AC870A97
:102A5800C1450545EFE07FE785452165EFE0FFDCEF
:102A680022858D45EFE07FDC2244B240410155B418
:102A780079711305503406D622D426D24AD04ECEC8
:102A880052CC97D0FF1FE780207E5D3FA9248D2C74
:102A9800613B593DB707040083A7071CB704002012
:102AA800114482970145EF00B00B6524DD2837E912
:102AB80000E093090002130A800851249C40829781
:102AC800492C2AC6EF00D0223245D5281124E31616
:102AD80085FEEF009072EF00F0770545EF100027B4
:102AE8002322391173100A80EF0090209D24C128F9
:102AF800C52263048500A52CC9B7952CF5B7238F8B
:102B0800A18899AC011122CC26CA23A2A18A06CE9B
:102B18004AC88D472E846309F50691476300F50876
:102B280005496308250389476306F504EF00F06C3F
:102B3800EF00507223A0018AEF001018814711E5B9
:102B4800B7E7160093870736A29723ACF1880545A7
:102B580021A82AC6EF009067B7979800938707685F
:102B68003245A29723A0F18A6244F240D2444249F6
:102B7800056171B7EF007068B7A707009387071260
:102B8800A29723A0F18AE1B7EF007068B7C72D00BC
:102B98009387076C3E9423A0818A55BF23A0018A9E
:102BA8007DB7A38E0188238E0188B7A70700938776
:102BB8000712AA97AA85014523ACF188A1B741114C
:102BC80022C406C626C22A84EF00506A03C7C189F8
:102BD80011CF238E0188A38E0188EF00500EA285A5
:102BE8002244B24092440145410129BF83A7418A4A
:102BF80011476363F7083D678A071307C7B0BA9799
:102C08009C43828703C7D18911C7A38E0188A285F7
:102C1800054531A0EF00500A09C5A2850D45DD35EF
:102C280001A883A7818989C7B307F440E3D107FEC8
:102C380083A7418ABDEB37851E0013050548335528
:102C4800A4021345F5FF058983C7E189638DA706AB
:102C58002244B240924441015DB585476315F500B1
:102C6800A28509456DBF89476308F50083A7018AD6
:102C7800B307F440E3CE07FAA28501454DB783A711
:102C8800018AB307F440E3C507FA41BF8D476315CE
:102C9800F500A285114561B79147F9B79547E30E4D
:102CA800F5F6EF00100149F58DBFF59B0547639CCC
:102CB800E700B7A70700938707123355F4021345B7
:102CC800F5FF798D51B7B240224492444101828088
:102CD80003A5418A8280411193050040054506C637
:102CE800EFE07FC08D4513050040EFE01FB4B24010
:102CF800B71700401307004023ACE70A4101828060
:102D080041111305002706C623A4018AEFE0BFC2BC
:102D1800B727004005472383E70003C72700136749
:102D280017002381E700B7E700E0416723A0E71019
:102D38009307800873900780B24041018280B7E70B
:102D480000E0416723A0E71093078008739007808D
:102D5800828003A5818A828093070040371700404C
:102D680001C52326F70A8280232CF70A82808280F5
:102D78008D476313F508E1E579C283481600130708
:102D880000029387F8FF93F7F70F6361F70683C78D
:102D9800C18A636DF50483C5E18A13031002B7463F
:102DA800002093F7F50FB385650293868685014762
:102DB800AE96B305E60003C32500B385E600050714
:102DC800238065009375F70FE3E515FF93961700C9
:102DD8001387018B36978507231017018D8B23875F
:102DE800F18A83C7C18A85072386F18A2382018CE9
:102DF8000547A381E18C82801307F5FF1377F70F4E
:102E0800854763EDE7002380018CA380F18C238143
:102E1800F18C2382018CA381F18C82801307F5FE4B
:102E28001337270001E71307C5FE19E72380018C34
:102E3800A380018C8547E1BF1147E30CE5FC828044
:102E4800397126DA83C7518C06DE22DC4AD8D9E3E9
:102E5800130600028145080813F4F70F37290020EC
:102E6800EFE03F92834749F20808A308F100B7470B
:102E78007671938797123ECCB7575500938757556D
:102E88003ECE8D67938787D73ED0FD573ED2914778
:102E9800A304F1028567938787102315F1028967D8
:102EA800938717122316F102B707040083A7471C5C
:102EB80082972AC66935324519EDB707040083A7FA
:102EC8000720034549F282979D3D8547A381F18CF0
:102ED800A382F18C0544F25022856254D25442599F
:102EE8002161828003C7018C19CF03A7C18B198D7B
:102EF800634B05002380018C05472381E18CA38067
:102F0800018CA381E18C03C7518C35C783C7018C21
:102F1800BDE3411122C483C7318C06C681E783C74C
:102F2800418CB1E73D3583A7818B9306703EB3078B
:102F3800F54063DEF60223ACA18AB707040083A735
:102F4800071D8297ED3BB707040083A7871C9306EC
:102F5800F00F368681450145829711E505472382A2
:102F6800E18CA381018C2244B2404101C9BBB2402B
:102F78002244410182808280411122C406C6C9359B
:102F88002A8419C1F933B93FB2402285224441014C
:102F98008280930780023375F502411122C43724D9
:102FA800002006C62302A4F2613D19C9B707040030
:102FB80083A70720034544F282970547A381E18C44
:102FC800B24022444101828082807DB7411106C609
:102FD80022C426C24AC091C109E90144B2402285EF
:102FE80022449244024941018280AE842A89893D63
:102FF8002A8465D5B93BFD3583C7C18AF9DF83C605
:10300800D18A1387018B93F7F60F860636970357F5
:1030180007009440131507014181E3E0E6FC13061D
:1030280010023386C702B74600209386868501477B
:10303800B296131607014182636DA60085078D8B32
:10304800A386F18A83C7C18A88C0FD172386F18ABF
:1030580071B73386E600834806003306E9000507A2
:1030680023001601F9B701119387F5FF06CE22CC8C
:1030780026CA4AC84EC652C493B7170291C319E963
:103088000144F24022856244D2444249B249224A6C
:1030980005618280AE892A8965332A8475D15539BC
:1030A8002A8A893583C7018CE1FF2381018CA3809B
:1030B800018CB707040083A7071D2380018C829722
:1030C800BD392382018CB707040083A7C71C930668
:1030D800F00F4A85368693F5F90F8297054919C589
:1030E800B9395285A381218DF53B59BF8939856747
:1030F800938787382380218DD29723AEF18A51B7E1
:1031080083C7818F014791CFB74700209387C78D29
:1031180083C60700014791C683C707013E95137709
:10312800F5003A85828003A7418F19E323AAA18E6F
:1031380082808357250003570500C20733E5E7005F
:10314800828083C7818FA9CFB747002083C7C78DE7
:10315800A1CB411122C406C626C2834485003D4442
:10316800636E940283A6018F0D476393E6020345BD
:103178003500793709C51304F5FF1374F40F338448
:103188008440898C1334140093B41400B3679400FA
:10319800B240224492443E85410182808147CDBF9E
:1031A8003E858280BD673D89938707B2AA9703C58C
:1031B8000700C5B303C5818D011106CE3D8993076C
:1031C8001500C1466393D70081472AC6238CF18C2A
:1031D800D13FF2403245056182805971A2D4A6D20E
:1031E800CAD0AA842E893284814513062002130589
:1031F800E10336C686D6EFE0CFD88547230EF10225
:1032080003C5118EB246A30E910213071500A380C1
:10321800E18E83C7018EA30FA1021307F00F2300CD
:10322800F10493F7F6006394E600D93DAA872302D8
:10323800F1040536A302A10403454104230F8104C8
:1032480095377818814793F6F70F63E386022C08C1
:10325800130610026818EF001002AA85014599C1EB
:1032680028081135B650265496540659656182804F
:10327800B306F90083C6060005078507A304D7002F
:10328800D9B70DC185C14111AE862A8681452D4524
:1032980006C697E0FF1FE780C018B2401335150037
:1032A80041018280014582809387F5FF93B707101B
:1032B80091C301ED0145828001458320C11003249B
:1032C800811083244110516182806D712324811003
:1032D800232291102A84AE84130600109305F00F60
:1032E8000A8523261110EFE0CFC92686A2850A8514
:1032F800EF009064B7F70700DC532147BD8B639359
:10330800E70001A09306001001468145254597E096
:10331800FF1FE78000114DF1930600100A868145D2
:10332800294597E0FF1FE780C00F1335150071B7D7
:10333800B7F70700DC532147BD8B6393E70001A073
:1033480041119306001001468145254506C697E0C0
:10335800FF1FE780000DB240133515004101828040
:10336800797123AEA18EA38C018E23AA018E23A886
:10337800018E23A6018E23A4018E23A2018EA38091
:10338800018E2380018E23AE018C238C018CA38BAC
:10339800018C238B018C22D4239A018C3744002082
:1033A80006D64AD026D21304C48D2399018C2398BB
:1033B800018C238C018E2320040023220400232463
:1033C80004002326040023280400EFF09F98B71771
:1033D8000300938707D4AA9723A6F18C896793875C
:1033E80007F43E9523A4A18C413E0546B28532855B
:1033F800E93E09452383A18CC13E014565338145DA
:10340800130600020A85EFE0CFB7930500020A858C
:103418008D3D51C90247B7474E44938747246314EB
:10342800F7081247C1779387F70F7D8FB7072000FA
:103438008507631AF70601478147F1461396570037
:10344800B307F6403306E100034606000507B297C6
:10345800E316D7FE72476318F7040346410137079E
:103468000001130707103307E6022245B245C2469A
:10347800B347B50013987600B98F13D796014297D2
:10348800B98F37575A6D1307576AB98F6247631C4C
:10349800F700854748C00CC454C42308C40023005F
:1034A800F400238CF18EB250225492540259456193
:1034B800828003C5918F828003C5818F8280A38C0F
:1034C800018E238C018E23AA018E23A8018EB74773
:1034D80000209387C78D23A0070023A2070023A4F9
:1034E800070023A6070023A80700238B018C89B5B2
:1034F800357122CD4AC94EC752C556C306CF26CB11
:103508005AC1DEDEE2DCEFF0DF842A841149130AB7
:1035180010024C00281052C2EFF05FAB59E983A7A4
:10352800018F05476395E73283A7C18EB307F4403F
:1035380063C6070023A8018E0945F53683A7C18C09
:10354800B307F44063CB0704B7170300938707D486
:10355800A29723A6F18C83D7018D03D7218D8607E7
:10356800BA9703D7418DC207C18393068700C20665
:10357800C18263FBF63C03C5618C09476369A700F8
:1035880005051375F50F2383A18CEFF0FFA3239A8C
:10359800018C2399018C2398018CFA406A44DA44FF
:1035A8004A49BA492A4A9A4A0A4BF65B665C0D614F
:1035B80082809245F0002810A5233DC58347F10479
:1035C80003AB018F85442380F18E63199B148344D8
:1035D800D1048D47639064070347E10663F6E70467
:1035E80013056105EFF0FFB4B7375AA59387C73CB9
:1035F800A18F3747002093F6F7011307C78D48C3FB
:103608001CC72308D7003EC42306D1009307002215
:10361800814625462C000945A30691002317F10091
:1036280023080100EFF07FBB7D191379F90FE3122E
:1036380009EEF5B5E39AF4FE0347E1069D47E3F585
:10364800E7FE13056105B7440020EFF09FAE9384B1
:10365800C48DC8C4AA8B1305A105EFF09FAD9C4487
:103668006318F50AD840B7474E44938747243EC4A9
:10367800B7072000938717103AC82ACA5ECC398D3D
:1036880013D79B019E0B5E973EC683C70401398DF5
:10369800370700011307071002CE230EF100B38786
:1036A800E70237575A6D1307576A23806401238C42
:1036B800618F02D2F146A98FB98F3ED00147814769
:1036C800280013965700B307F6403306E500034673
:1036D80006000507B297E316D7FE930500023ED20F
:1036E800EFF09FBC05E183A7C18D23800400238CE4
:1036F800018E850723AEF18C83D7018D850723982A
:10370800F18C1DB723A8018E0545EFF0DFA129BF75
:1037180083A7C18D850723AEF18C39B7894763121A
:10372800FB0C0347D1049547E310F7F00347E10684
:103738009D4763EDE70083A7C18D850723AEF18C14
:1037480083D7218D85072399F18CF9BD1305610570
:10375800EFF03F9E2A8B1305A105EFF09F9D374799
:1037680000201307C78D834607013706000113069B
:103778000610B386C6024C435C471847AD8FB58F19
:10378800935697011E073697B98F37575A6D130707
:10379800576AB98FE391A7FAE31FBBF8E800EFF087
:1037A8005F9A51D983D7418D8507239AF18CA38CD1
:1037B800918E8D4423A8918EEFF0AFD923A4A18ECA
:1037C8008967938707F43E9523A4A18C03C5118EBE
:1037D80005051375F50FEFF0BF92EFF0BF9C268536
:1037E8002DB78D47E312FBE4E800EFF09F9521D554
:1037F80003454105EFF01F9B23A4818E83D7418D9C
:103808008507239AF18C8347D1041947639CE70203
:103818008345E106E38A05E083A7C18FE38607E0D5
:1038280003C5618D0346F10409C503C5718DE30D18
:10383800C5DEA38BC18C130561058546238BD18C0E
:103848008297DDB32547E391E7DE9539F1BB094758
:103858006393E71283A7418EB307F44063CC07064E
:10386800EFF05F95374700201307C78D5C430C477F
:10387800034607013EC4AD8FB705000193850510C7
:103888002306C1003306B6025847AA8681498D4AE5
:10389800B18F135697011E073297B98F37575A6D54
:1038A8001307576AB98F13D78700A306F1002307B8
:1038B800E10013D70701E183A307E1002308F10022
:1038C80025462C001145EFF05F9119CD9307047D33
:1038D80023A2F18E83A7C18EB307F44063CD0708F6
:1038E80023A8018E114591B983D7018D850993F9D4
:1038F800F90F85072398F18CE38A59FDEFF09F8B28
:10390800AA867DBF83A7818CB307F440E3C807C2AA
:103918008944054A9306F00F014681452145EFF099
:10392800DF8B11C983A7818C0967130707F4BA973E
:1039380023A4F18C21B183D7018D85072398F18CBD
:10394800E38244FF8544F9B713375701E31107C4ED
:10395800E39F07C283C7618CE38B07C2FD1713F58A
:10396800F70F8D4693F7F70F63F4F60013F5F60F8C
:103978002383A18C19B903A7018F8D47E310F7BCE6
:1039880003A7818E9D67938707533307E440E3DBE2
:10399800E7F6A38C018E894723A8F18EB7C72D00BF
:1039A8009387076CA29723A6F18E23A2818EB7472F
:1039B800002083C7C78E1545BD8B238CF18C896782
:1039C800938707F4A29723A4F18C85BE411105477C
:1039D800A38C018E06C623A8E18EEFF08FB7B797A8
:1039E800980093870768B2403E9523A6A18EB747F3
:1039F8000020238E078C4101828083A6018F054712
:103A08006396E60023A8018E23A6018E828083C7D1
:103A1800818FA1C341110947A38C018E06C623A833
:103A2800E18EEFF00FB3B7C72D009387076C3E9573
:103A380023A6A18EEFF0EFB123A2A18EB7470020F5
:103A480003C5C78EB2403D89238CA18C41016FF01C
:103A58006FF5828083A6018F09476398E60023A843
:103A6800018E23A6018E23A2018E828003A5418F99
:103A780023AA018E8280AA87D5C14DC1034725029A
:103A8800E146014563EDE608130597006368A6085B
:103A980083C6070003C617009A061376F603D18E6D
:103AA8002380D50083C62700A380D50083C63700AE
:103AB8002381D50083C64700A381D50083D667003C
:103AC8002382D50083D66700A182A382D50083C64E
:103AD80087002383D50083C69700A383D50081463A
:103AE80003C6270263E2C60221073386E500814642
:103AF80081473388F500034808008507C296E3EA42
:103B0800E7FE2300D60082803386D7000348A6004C
:103B18003386D500850623040601D9B7014582807E
:103B280093B7950093361600DD8E933715002A87D4
:103B380033E5D7005DE1138875FFE14763E0070BC4
:103B4800FD1581478146B308D70083C8080085065C
:103B5800C69793F7F70FE3E8B6FEBA9583C6050054
:103B6800639EF6068347070099832300F600834681
:103B7800070093F6F603A300D60083461700230137
:103B8800D60083462700A301D600834637002302C8
:103B9800D6008346570083454700A206CD8E2313DF
:103BA800D600834667002304D600834677002301A6
:103BB8000603A304D600814663E706011385F7FFD1
:103BC800133515008280B305D70003C58500B305FA
:103BD800D60085062385A500C5B70145828083C721
:103BE800019293F7F7072380F19283D66191130727
:103BF80000106399E602B797004003C75700137790
:103C0800070FA382E70003C7570013671700A382B3
:103C1800E700B797004003C75700136707F8A38268
:103C2800E700828083D6619113070020639FE60036
:103C3800B797004003C757001377070FA382E70021
:103C480003C7570013672700D9B783D661911307B5
:103C58000030639FE600B797004003C7570013770B
:103C6800070FA382E70003C757001367870045B70C
:103C780003D7619193070040E31DF7F8B797004019
:103C880003C75700930650031377070FA382E70073
:103C98003717002013070774F8C72396D70A8946F1
:103CA8002387D70A03C75700136747008DB7B7970D
:103CB80000401307D0022398E7004D472399E700F7
:103CC80013070004F8CF3E87930700203CD37CD32A
:103CD8003CD77CD73CDBB7570020938787911CD310
:103CE800B7470020938787715CD3B7470020938735
:103CF80087517CC3B7470020938787313CC7B747B4
:103D08000020938787111CDBB7470020938787F132
:103D18003CCB230F07088947A30FF708A301F70A2D
:103D28002303070A2305070AA307F70A2309070A33
:103D3800374700208147130787F0C1463306F7004D
:103D4800230006008507E39BD7FE8280411122C429
:103D580006C6379400409307042029C511472380DD
:103D6800E700B717004003D7A70113670702239D91
:103D7800E700A5472300F4001307F0052301E4003A
:103D88003D370547A300E400930780FB2300F400B8
:103D980013070002B7E700E023A2E710B24022446D
:103DA8004101828003C707001377B70F2380E7001C
:103DB800B7170040984F1377F7FD98CF8347040053
:103DC8001307000293E727002300F4008347040049
:103DD80093F7D70F2300F400B7E700E023A2E71812
:103DE8000F10000065BF2A8E2E83014763DB050094
:103DF800B337A0003303B0403303F340330EA04081
:103E08007D5763DB0600B337C000B306D0401347C5
:103E1800F7FF9D8E3306C0403288B685F2889A87B0
:103E28006398061A3D65130545D5637EC30AC166C6
:103E38006374D60A9336061093B616008E06B35EE0
:103E4800D600769503450500AA9613050002638CF3
:103E5800A600158DB317A300B356DE003318A600CD
:103E6800D58FB318AE001353080133D56702131664
:103E780008014182B3F76702330EA6029396070141
:103E880093D70801D58F63F8C701C29763F4C701B8
:103E980063FB07137D15B387C741B3D66702C20812
:103EA80093D80801B3F767023306D602C207B3E80E
:103EB800F80063F8C800C29863F4C80063F80811F2
:103EC800FD164205558D01CBB337A000B305B040B0
:103ED8009D8D3305A0408280B70E0001E146E37056
:103EE800D6F7C146A9BF814609CAC1676373F604FC
:103EF8009336061093B616008E06B357D6003E9535
:103F08008347050093050002B697639BB702B30782
:103F1800C34085451353080133D5670213160801BA
:103F2800418293D60801B3F76702330EA602C2078F
:103F380091BFB7070001E146E371F6FCC14675BFC2
:103F48009D8D3318B600B356F3003313B300B3573F
:103F5800FE00B3E7670013530801B318BE00B3D5DA
:103F68006602131508014181B3F66602330EB502E5
:103F78001396060193D60701D18E63F8C601C2963F
:103F880063F4C60163FB0603FD15B386C64133D649
:103F98006602C207C183B3F666023305C502C206CC
:103FA800D58F63F8A700C29763F4A70063FA0701E7
:103FB8007D16C205898FD18DB1BFF915C296F1B7AB
:103FC8007916C297FDB77915C297F1B5F916D5BD1F
:103FD800636CD312C16763FDF60293B5061093B5FF
:103FE80015008E05BD6733D5B600938747D5AA97C8
:103FF80083C70700930E0002AE976392D703333549
:10400800CE0013351500B3B66600558D814565BDE4
:10401800B7070001E145E3F7F6FCC145E1B7B38E08
:10402800FE40B355F600B396D6013358F300CD8E53
:104038003313D301B357FE00B3E5670013D306016A
:10404800B35768021395060141813316D6013378B8
:104058006802330FF5029318080113D80501336875
:1040680018016378E80136986374E8016378D80822
:10407800FD173308E841B3586802C205C181337897
:104088006802330515034208B3E5050163F8A50086
:10409800B69563F4A50063F6D506FD18C207131894
:1040A8000601898D33E51701C20893D80801935694
:1040B8000501135808014182338308033388060336
:1040C80093570301B388C802C298C697B386C6023D
:1040D80063F407014166B29613D60701B29663ED01
:1040E800D5004203C20713530301331EDE019A971A
:1040F800E37EFEF0E39CD5F07D1509BFF9173698ED
:104108008DBFF918B69559BF814501456DBB03A30D
:104118000181397132D436D62ED23AD83EDA42DC11
:1041280046DE8325830054102A861A8506CE36C6B5
:10413800C528F24021618280B3C7A5008D8BB308E2
:10414800C500B1E71336460039E2937735002A8770
:10415800CDE713F6C8FFB306E6409307000263C431
:10416800D704AE86BA876371C70203A80600910711
:10417800910623AE07FFE3EAC7FE7D16198E719AF2
:1041880091051107B29532976366170182802A87D5
:10419800E37E15FF83C7050005078505A30FF7FE16
:1041A800E39AE8FE8280944183A2450083AF8500AC
:1041B80003AFC50083AE050103AE450103A3850126
:1041C80003A8C50114C3945113074702232057FEBF
:1041D800232ED7FE2322F7FFB306E6402324E7FF6A
:1041E8002326D7FF2328C7FF232A67FE232C07FF90
:1041F80093854502E3C9D7FAADB783C6050005071D
:1042080093773700A30FD7FE8505A1D783C605008E
:10421800050793773700A30FD7FE8505F9FF15BF6C
:104228002171232E111A232A911A2328211B2328AE
:10423800A11936C6328DAE842A89EF2050381C4128
:104248003E853ED4EF2090542AD282C163070900EC
:104258008327490399E36F1080430397C400FC50F8
:1042680009669316270163C90600F976FD16518F72
:10427800F58F2396E400FCD01397270163540700B9
:104288006F10D0508397C40013F787006302071E8E
:104298009848630F071CE98B29476388E71EBD67A9
:1042A8002326311B2324411B9309C10D3D6A9387A3
:1042B80047E5232C811A2320611B2322511B232E1F
:1042C8007119232C8119232A91192326B11902DF88
:1042D80002DD4EDB4E8B3ECA130A0AFC02CC02D624
:1042E80002D882C202DA02C4414426C283470D00C2
:1042F800EA8A1387B7FD29C3A1C3568C83C71A005E
:10430800850A81C71387B7FD6DFBB38CAA41638506
:10431800AA03FA576A552320AB01E697050523221D
:104328009B013EDF2ADD9D47210B63C5A718A247E5
:10433800E6973EC483471C0099E36F10A04283C8E8
:104348001A00138D1A00A3090108FD5A02C0814BF7
:10435800130CA005050D938708FE636DFC025247F8
:104368008A07BA979C438287938708FD02C0A546AF
:104378000247024683480D000A0732970607BA9794
:104388003EC0938708FD050DE3F4F6FE938708FE0B
:10439800E377FCFC639408006F10C03C854C230E47
:1043A8001111A3090108668C02C8814A02D002CE05
:1043B80001437C0A7A5693FD4B08328863870D5077
:1043C8000347310931C3EA55014713053109232051
:1043D800AB000506054585052322AB0032DF2EDD3F
:1043E8001D45210B634FB53805C3EA5558092320ED
:1043F800EB000906094785052322EB0032DF2EDD95
:104408001D47210BE34CB74013070008E383ED2E4B
:10441800B38A9A416348504D13F70B10631107563E
:104428002320FB00EA57669632DF850723229B018B
:104438001D473EDD6342F742210B13FE4B00630725
:104448000E008247B38A8741E34A503F02436353D1
:1044580083016283A2479A973EC4E3130634C24796
:1044680002DD89C7C2454A85EF2070534E8BBDBD1A
:10447800A6854A85EF20A07619C16F103031839741
:10448800C4002947E98BE39CE7E08397E400E3C88D
:1044980007E0B2466A86A6854A85EF10F0692AC405
:1044A8006F00D03483480D0075B583480D0093EB39
:1044B8000B024DB5924550194A85EF10F07019C19D
:1044C8006F1070454E8BA5B593F78B00E390076C82
:1044D800B247080146C89D07E19BD0438C43A1071A
:1044E8003EC6EFA040280A469A462A47BA47C2481D
:1044F800880146C8BEC7B2C1B6C3BAC5EF30A00569
:104508002ACD8947C2486314F5006F10001F8547FC
:104518006314F5006F10202F13FCF8FD93071004A7
:104528006304FC006F10C03193070003230AF108ED
:1045380013071006930780056394E8006F10606BFB
:10454800A30AF1089307300663D457016F10E06798
:104558003E478E461E46AE45635407006F109035A1
:1045680002DC02C87C0A930D0108BEC0B2DA93E7E8
:104578002B00AEDC6E858C18300946DE3ECEB6D8F0
:10458800BADEEF20F0262A470A469A46BADC3A47AE
:10459800B2D8B6DA9010B706FC3F8C186E85B6D63E
:1045A800BADE82D082D282D4EF80F0030A4E1A4853
:1045B8002A468C186E8572D642D032CC82D882DADE
:1045C80082DC82DEEF80C057BA4B62460258325E08
:1045D800F258864719E1854636CD9306100663944E
:1045E800D8006F10104CBD661387069F3ACC5AD07E
:1045F800DE8CCAC4E2443E8C46D63EDEEAC0428B1C
:10460800B28B72890DA08C186E854AC15AC35EC5DB
:1046180066C782D882DA82DC82DEEF80605219E1D6
:104628006F105034FD1AB707034090108C186E8530
:10463800BED6CAD8DADADEDCE6DE82D082D282D40E
:10464800EF80607A6E85EF90107CAA852A8D6E8542
:104658008A4C9A4B2A4B3A49EFA06004AA470A466B
:104668009A46BECCBA47B2C88C1090088818E6D0D3
:10467800DED2DAD4CAD6B6CABECEEF90401DB38712
:10468800A40183C60700E285050C4659565BE65B24
:10469800F65CA30FDCFEE3980AF6B258F2574A8E8E
:1046A8005A885E86AE84E68BB70AFE3F8C186E8504
:1046B800C6C63ED62649EA8C72C1064DF2C442C32C
:1046C800C2C032C532DE5EC782D882DA82DCD6DE6C
:1046D800EF802053025BB257B648634EA0008C1897
:1046E8006E8546D0EF80C0458258B25731E593FCBD
:1046F8001C0063830C04624726D10346FCFF8345F4
:10470800F7006287639EC50013050003A30FA7FE89
:104718000A579306F7FF36D10346F7FFE388C5FE2D
:10472800930516001305900393F5F50F6314A6007F
:104738006F10A071A30FB7FE6A461387F800230213
:10474800E10AB306FC401307F6FF3ACD36CC6354B2
:1047580007006F10D0359306B002A302D10AA54610
:1047680063D4E6006F10E0639306610A130707033A
:104778002380E6001803998E1387D60D3AD66F105A
:10478800C068924550194A859AC4BEC046DE3ADCD4
:10479800EF109043E31D05007A5626438647F258EA
:1047A80062574E8B91B1EA5AE24605473A96BA9A51
:1047B800930D8B00E352D72C05472322EB002320CF
:1047C800FB0032DF56DD1D47E349575D1257850A66
:1047D80056DD3A96225732DFA10D23ACEDFE125773
:1047E80023AEEDFE1D47E34C57592E470E459E4517
:1047F8003ED03AC5E2473E472AC12EC308018C186D
:1048080032CE82D882DA82DC82DE3AC7138BF7FF97
:10481800EF8000337246E30A05288257850A5A96C4
:10482800850756DD32DF23A0FD0023A26D019D47D9
:10483800E3C15727A10DB257B25658113E96938738
:104848001A0023A0ED0032DF3EDD23A2DD001D4764
:10485800138B8D00E353F7BE924550194A85EF102C
:10486800B036631605747A564E8BC1BEB2473247CE
:10487800A30901089C4393044700E3800742E3CD62
:104888000A4A3E855686814546CE3EC6EF200044FC
:104898002AC803473109B247F24819E16F1060701E
:1048A800B30CF54093C6FCFFFD8633FCDC00E31631
:1048B800074A26C67A5602C802D002CE93FD4B0894
:1048C800814A01433288E39D0DAE02473307874191
:1048D800E349E01803473109E31707AEB38A9A4161
:1048E800E35C50B33D68EA55130808FC635A540565
:1048F800D6843EDE9D4DDA8746DC9A8A528B21A00B
:10490800C114635994024106850523A04701C0C319
:1049180032DF2EDDA107E3D5BDFE924550194A8549
:10492800EF10902A63150568C1147A56EA55CE87A8
:10493800E34B94FC5A88E2583E8BF2575683A68A7A
:104948005696850523200B0123225B0132DF2EDDDD
:104958001D47210BE352B7AC924550194A859AC0BE
:104968003EDE46DCEF1050266313056413F70B1088
:104978007A560643F257E2584E8BE30307AA130709
:104988005006E35217E31E478E452E453AC33E476D
:104998002EC12AC58C18080132DE3EDC9AC082D8A6
:1049A80082DA82DC82DE3AC7EF808019E2577256DB
:1049B800064363160574EA573D671307C7A023200B
:1049C800EB000506054785072322EB0032DF3EDDB5
:1049D8001D47210BE342F74CEA476247E3D0E71251
:1049E8001257EA57210B3A962257850732DF232CB4
:1049F800EBFE12573EDD232EEBFE1D47E34EF7205C
:104A0800E247938AF7FFE35A50A33D68C14CEA573F
:104A18009D4D930408FC63C65C0145AFC11AE3DEF3
:104A28005C4B4106850723209B0023229B0132DF34
:104A38003EDD210BE3D4FDFE924550194A85EF1067
:104A4800B018631605567A56EA574E8BC1BF93F7CE
:104A58000B02D5E3B24713F70B01910719C36F1087
:104A6800205AB24613F70B0403AC0600E3070756B7
:104A7800420C135C0C41935EFC413EC6768763484A
:104A8800070863C60A0AB367DC0193FBFBF7C5E3B3
:104A9800639F0A08834E3109E38E0E54014C01438B
:104AA80002C8814C814A1C03050C631403006F1073
:104AB800F0077A56EA5593FD4B08090C32882E8583
:104AC80063810D5402D002CE0143E3810E9209475F
:104AD800EDB8B247854CA30901089C43230EF11099
:104AE800B24791073EC6C1B093F70B0213EE0B0114
:104AF800E3820708F28BB2479D07E19BD843938670
:104B0800870036C603AC0700BA8EE35C07F6B337F6
:104B18008001B30ED041B38EFE409307D002A309A3
:104B2800F108330C804163C40A0093FBFBF76394DC
:104B38000E20A54763E18721130C0C03A30F8117EF
:104B4800568CE3525007834E31090143854C930735
:104B5800F11702C8E38B0EF4050C81BFB2479C43E2
:104B68003EC063D3077A8247B307F0403EC0B247DE
:104B780091073EC683480D0093EB4B006FF08FFD05
:104B88009307B00283480D00A309F1086FF08FFC6A
:104B980083480D0093EB0B086FF0CFFB83480D00A3
:104BA8009307A00293061D006394F8006F10006D30
:104BB800938708FD2546814A6360F60213972A0009
:104BC80083C80600BA9A860ABE9A938708FD8506A6
:104BD800E376F6FEE3CE0A02368D6FF0CFF74A850C
:104BE800EF20E01D5C413E853EDAEF20203AAA84A2
:104BF8004A85A6C2EF20A01C184583480D003AD864
:104C0800638A04F4630807F483470700638407F49E
:104C180093EB0B406FF00FF483480D0093EB1B00F0
:104C28006FF04FF38347310983480D00639407F20F
:104C380093070002A309F1086FF0CFF193F70B0275
:104C480093E60B016384076EB2479D07E19B1387C8
:104C580087003AC6D0439843A309010893FBF6BFDF
:104C680063CB0A44B367C70093FBF6B76395074461
:104C780063930A4413FC160063070C5E9307000352
:104C8800A30FF116E28C02C802D002CE01439307AB
:104C9800F1176FF02FF283480D0093078006638F9A
:104CA800F87893EB0B046FF0EFEA324793F70B02B7
:104CB80011076394076893F70B01E394072893F7A8
:104CC8000B04E392075C13FE0B20E30C0E26B2479D
:104CD800A2463AC69C432380D7006FF02FE1834851
:104CE8000D009307C0066384F87493EB0B016FF013
:104CF8006FE693F70B02639F071A93F70B0199C3AB
:104D08006F10A02F324793F70B04032C07001107ED
:104D18003AC6E383072A420CA3090108135C0C0175
:104D2800814EE3C60AE033E38A0193FBFBF7630C89
:104D38000310E3800EE0B7DCCCCCB7DDCCCC938C91
:104D4800DCCC938DCDCC13F80B4081451003C68481
:104D580095A0425703470700930617F099C2E30A44
:104D6800B714628376853E863307DC01B336870144
:104D78003697B336970313DE2600F19AF296158F0D
:104D88003307EC40B336EC00B386DE40B3869603B7
:104D9800B30EB703333E9703F69633079703F2969D
:104DA800139EF60193DE16000583330CEE0019E11D
:104DB8006F10401E3307DC01B3368701BA9633B54E
:104DC800960385059307F6FF1353250071991A95E5
:104DD800898EB306DC403335DC003385AE4033B30F
:104DE800960333059503B38696031A957E05858247
:104DF800AA9613952600AA968606B306DC409386E3
:104E08000603A30FD6FEE31608F4628376853E8672
:104E1800B1BFA167938707833247231AF108B247C6
:104E2800A309010818439107014663C70A5813FEEE
:104E3800FBF7936B2E00E31D0710E39B0A103EC699
:104E4800094393088007834E3109814A014C814CFC
:104E58001C0302C801B393F70B0263940754B247CB
:104E680013F70B01910719C36F104018324793F6D7
:104E78000B041843E3870612420741833EC6DE86C9
:104E88000146D9BB93F70B0213EE0B018DE7B2472E
:104E98003247A30901089107032C0700814EE3C498
:104EA8000A1C3EC6937BFEF7E3150CC8E3930AC8B9
:104EB800014351BF5E8EB247A30901089D07E19BDC
:104EC800138787003AC603AC070083AE470063CE5A
:104ED8000A52937BFEF7E39C0AC4B367DC01E398AC
:104EE80007C401438DB783480D0093EB8B006FF027
:104EF8006FC60247B30D8741635CB0D1C14EEA5516
:104F08003D6863C4BE016F100018EE843EDEEA8D72
:104F1800DA879D42568B46DC1A8D930A08FC21A03D
:104F2800C11463DB9E024106850523A0570123A215
:104F3800D70132DF2EDDA107E3D4B2FE9245501926
:104F48004A85EF10604825E5C14EC1147A56EA55E6
:104F5800CE879D42E3C99EFC5688E258DA8A3E8B8A
:104F6800F2576A836E8DA68D6E96850523200B01F8
:104F78002322BB0132DF2EDD1D47210B635AB7C840
:104F8800924550194A859AC03EDE46DCEF10C04370
:104F980019ED7A56E258F25706434E8B6FF04FC719
:104FA800924550194A85EF102042630A05CAC24546
:104FB800924481C54A85EF20801E83D7C40003240C
:104FC800811B8329C11A93F70704032A811A832AAC
:104FD800411A032B011A832BC119032C8119832C25
:104FE8004119832DC11899C36F00507A8320C11BC2
:104FF80022458324411B0329011B032D0119396113
:105008008280024702D002CE3307874101436341C1
:10501800E01C638D0EBC09476FF02FBB92455019F9
:105028004A859AC03EDE46DCEF10003A49F17A56CE
:105038000643F257E2584E8B6FF00FBDC14CEA574A
:105048003D6863C45C016F00D07A92449D4D930B18
:1050580008FD21A0C11A63DA5C03410685072320F5
:105068007B0123229B0132DF3EDD210BE3D4FDFED1
:105078005019A6854A85EF102035631A0562C11AB2
:105088007A56EA574E8BE3CA5CFD5E8856968507CA
:1050980032DF3EDD23200B0123225B011D476357CE
:1050A800F7BA924550194A85EF100032E31105F01E
:1050B8007A566FF0AFB91C039315D6019376770033
:1050C8000D833E852E97938606030D82B365C70030
:1050D800A38FD7FEFD17EDF1938606FD89C613F75A
:1050E8001B00631607261803B30CF740568C63C8D9
:1050F8009A2302C802D002CE01436FF0AFAB6A45D3
:10510800635EA04E62479A8A634D672E635F5001C3
:105118006A5756962320FB00050723225B0132DFDE
:105128003ADD9D45210BE3C1E50E13C7FAFF7D87E4
:10513800B3FAEA00B30A53416341503913F70B40FD
:10514800B38D6700631C0772EA4A624763C6EA00C8
:1051580013F71B00E30B071092566A579D453696C6
:10516800A256050732DF2320DB0092563ADD210BD9
:10517800232EDBFEE3C4E5566247BA97B38CB741EA
:10518800B30A574163D39A01D68C635F90016A577B
:1051980066962320BB01050723229B0132DF3ADDF7
:1051A8009D47210BE3CFE76013C7FCFF7D87B3F76B
:1051B800EC00B38AFA40635250A93D68C14CEA57E3
:1051C8009D4D930408FC63CD5C35130808FC39A396
:1051D800894DC14E4286AA853D68E3D0EE5E3EDE2B
:1051E800D6C0DA879D43BA8446DC1A8B930A08FD39
:1051F80021A0C11463DC9E024106850523A0570146
:1052080023A2D70132DF2EDDA107E3D4B3FE9245F6
:1052180050194A85EF10401BE31B05D8C14EC11435
:105228007A56EA55CE879D43E3C89EFC5A83568832
:105238003E8BE258F257864A26873A9685052322FE
:10524800EB0032DF2EDD23200B011D476340B7380A
:1052580003473109210B61E3638C0D9A814D6FF08F
:10526800EF986A55BDB7814C814A02D002CE0143FE
:1052780002C81C036FF00F94B3F5EB00639E05D2D0
:105288002320FB002322EB0032DF56DD9D4763D449
:1052980057DB924550194A85EF100013E31905D0E2
:1052A8007A56EA5ACE8D6FF00FD96247854763D494
:1052B800E7D8C5473D6863C4E7006F00D07DC14C9F
:1052C8009D47930408FC21A0411B63DF6C4B4106FA
:1052D800850A23A09D0023A29D0132DF56DDA10D82
:1052E800E3D457FF924550194A85EF10E00DE310BB
:1052F80005CC7A56EA5ACE8D9D47F9B793F71B002D
:10530800638D07926FF0CFEDB24783480D00910788
:105318003EC66FF02F846E87814D6FF00F8B668CC1
:1053280002C802D002CE01436FF0CF88B24791077E
:10533800324701463EC6184305B2B247A246224646
:105348009C43FD863AC690C3D4C36FE03FFA7915F3
:10535800130700031403B38CA640A38FE7FE568CF3
:1053680063D39A01668CAA8702C802D002CE014391
:105378006FF04F84B24791073247F28B3EC6032C39
:105388000700935EFC4176876FF06FEFB2473247B4
:105398009C4311073AC69043D4439847DC476FF0C3
:1053A8002F95DE8655B0834E3109054C0143854C57
:1053B8009307F1176FF0EFF9BD6593EB2B003EC62D
:1053C8009385C59D0943814E930880071C039376F6
:1053D800F700AE9683C606001183FD172380D70019
:1053E8009316C60136971182B366C700EDF218030B
:1053F800B30CF740568C63DE9AF5668C02C86FF0E2
:105408006FF5BA8AE34650D10DB3F28B6FF02FF2E5
:10541800FD5A368D6FE03FF4924550194A85EF00EA
:10542800B07AE31605B87A564E8B6FF06FDD834875
:105438001D0093EB0B02050D6FE0DFF183481D00A3
:1054480093EB0B20050D6FE0FFF0BD659385059F7D
:1054580093F70B0263860710B2479D07E19B1387FA
:1054680087003AC6D043984393F71B00B366C7003A
:1054780099C3639C061EA309010863C40A1493FB1D
:10548800FBB7014363940A00E38F069A834E310900
:1054980035BFBD659385C59D65BF9947568C63E348
:1054A8005757BD6726C6938747A002C8E28C814A32
:1054B80002D002CE01436FE0FFEFC1486A573D6852
:1054C800E3DE5861D6849D4CBE8D1ADC930A08FC35
:1054D80021A0C11463D9984E4106050723205B011A
:1054E80023221B0132DF3ADD210BE3D4ECFE924587
:1054F80050194A85EF00506DE31B05AA7A566A5782
:105508004E8BC148F9B7924550194A85EF00D06BC8
:10551800E31F05A87A56EA574E8BC11A63DF5C1B56
:105528004106850723209B0023229B0132DF3EDDB5
:10553800210BE3D4FDFEC1BF3E8546C83EC6EF1031
:10554800F024034731099346F5FFFD86B247C24868
:10555800AA8C337CD500630E07B4050C6FF06FB5C9
:10556800B246324793F70B01910636C61843A1EBB2
:1055780093F70B04A9C3420741830146F5B5924549
:1055880050194A853ECEEF003064E31205A27A56E0
:10559800EA5AF247CE8D6FF04FA5924550194A85C9
:1055A8003ECEEF007062E31405A07A56EA5AF2473D
:1055B800CE8D6FF0AFA193F70B20639B074E01468A
:1055C80065B593FBFBBF0143814E09B59245501960
:1055D8004A859AC03EDE46DCEF00105FE319059C61
:1055E800034731097A56E258F2570643630707180A
:1055F8006E87EA55814D4E8B6FE03FDD6A57BD657A
:105608009385C5A02320BB000506854505072322F1
:10561800BB0032DF3ADD9D45210BE3C0E508624758
:10562800498F6302074092566A579D453696A2569F
:10563800050732DF2320DB0092563ADD210B232EAB
:10564800DBFE63C6E540E340051CE2460507232070
:10565800FB00369632DF3ADD2322DB009D4763C428
:10566800E7006FE07FDD6FF02F9F93070003A30A29
:105678001109A3090108230AF10863CA0A1E13FEC7
:10568800FBB7834E3109936B2E00094381B34A85DA
:10569800EF10400C6FE07FBC924550194A85EF002F
:1056A800B052E31605907A564E8B6FF0EFB2C245B2
:1056B80009B2639F0E422547636C874318032ECCBB
:1056C800B30CF740A688568C63D39A01668C834E38
:1056D8003109014302C86FF0EFC72688569685073F
:1056E80032DF3EDD23200B0123225B011D4763448B
:1056F800F7006FE07FD46FF02F960E479E478C1807
:105708003AC13EC32E47BE47080182D882DA82DCFE
:1057180082DE3AC53EC7EF70E05DC24893FBFBF7F7
:10572800634B057C930770040347310963CE173B2D
:10573800BD679387C79C631C070E8D4C668C6FF002
:105748006F97B247A2469C4394C33AC66FE01FBA0C
:10575800BD65834E31093EC69385C59D09439308AF
:105768008007ADB1FA579244E38907844A855019F6
:10577800A685EF0070456FF05F8463830D30EA55AE
:10578800814D4E8B6FE09FC626885A96850A32DF78
:1057980056DD23A00D0123A26D019D4763DC5789C7
:1057A800CDBC93F60B20638906301377F70F3EC6FE
:1057B800DE8601466FF04FCA13F30B20A3090108D8
:1057C8006311032E814E63C60AB693FBFBF76392FF
:1057D8000AB6630A0CE66FF0CFB513F70B20630C1B
:1057E800072A620C135C8C41935EFC413EC67687A7
:1057F8006FF0EFA802C8814C02D002CE01431C030F
:10580800014C6FE03FBBBE4FB707008093FBFBF72F
:1058180033F3FF006307032A9307D002A309F108B3
:1058280093077004E3DB1713BD679387879D02C84E
:105838008D4C814A02D002CE0143114C6FE09FB7D4
:1058480013E70B10FD573AC88E4E1E4FAE42BE4CA2
:105858006385FA3A93079CFB99E3638E0A46E3C98A
:105868000C0202DC79AE3EC6F28B6FF08FAC13FEF1
:10587800FBBF936B2E000943814E89BE7247825647
:10588800558FE30E072662475EDEE2C0EE8BEAC460
:10589800F24A825D164C425DBD68DA86938808FC40
:1058A8001D48C14C3EDC338BE7006345B0077D1DC6
:1058B800FD1AEA5752576296850798C223A28601B5
:1058C80032DF3EDDA1066340F80C83450D00B304CA
:1058D8007B415A8763D39500AE84635F9000EA5595
:1058E800269632DF850523A07601C4C22EDD634AE1
:1058F800B80A83450D00A10613C5F4FF7D85B3F7EB
:10590800A400B384F54063499000AE9BE34F50F97F
:105918006357B03BFD1D71BFBD62EA55938202FC1F
:1059280063D69C043ACE46D021A0C11463DE9C0203
:105938004106850523A0160123A2960132DF2EDD3C
:10594800A106E354B8FE924550194A85EF00D027C6
:10595800631F05E4BD67C1147A56EA55CE8693885D
:1059680007FC1D48E3C69CFC7247825226968505B3
:1059780032DF2EDD23A05600C4C26340B8548345ED
:105988000D00A10659B7924550194A85EF00D0235A
:10599800631F05E0BD677A56CE86938807FC1D48CD
:1059A8002DB7924550194A853ACEEF00F021631081
:1059B80005E0BD6783450D007A567247CE86938809
:1059C80007FC1D4815BF62535688EE87A68A56966F
:1059D800050723200B0123225B0132DF3ADD9D45B9
:1059E800210B63DDE5F4924550194A851ADE3EDC49
:1059F800EF00901D631D05DA7A567253E2574E8BFD
:105A08006FF0CFF33E8C71BC924550194A851ADE6F
:105A18003EDCEF00701B631C05D87A567253E257C0
:105A28004E8B6FF08FF013F71B0019E36FE0FFA0A8
:105A380092566A579D453696A256050732DF2320AF
:105A4800DB0092563ADD2322DB0063D5E54692451A
:105A580050194A853ECEEF003017631A05D46A45BF
:105A68007A566A57F2474E8BF9BE6247BA97B38C9B
:105A7800B741B30A574163D99AF3D68C6FF0CFF286
:105A88004E8B6FE0FF98B247A2463AC69C432390DC
:105A9800D7006FE0BF85935EFC413EC676876FE016
:105AA8001FFE137CFC0F814E63DF0AA66FF02F8860
:105AB8001377F70F01464DBA3EC6DE8601466FF0F2
:105AC800AF99930770040347310963D21765BD671F
