:040000006F10007607
:100004000000000000000000A0000020FA0400200E
:10001400A9BDF9F344060020000000000000000020
:1000240044060020A00000200000000000000000A2
:10003400A000002000000000A0000020000000003C
:1000440092060020A0000020A0000020A0000020B4
:10005400A0000020FC120020842D000000000000FD
:10006400A0000020B0060020A0000020A000002076
:100074002C060020A0000020A0000020A0000020EA
:10008400A0000020D6060020A0000020A000002030
:10009400A0000020CE070020A0000020A000002027
:1000A40001A0B7170040984B4111C107136707011E
:1000B40098C398231377E70F98A31307800873371F
:1000C4000780137787083AC60F10000037170040DF
:1000D400130707049306700514A3930680FA14A368
:1000E4000F100000B7160040B046B705000695058E
:1000F4004D8EB0C6B716004003C6B6041376F60D8F
:10010400A385C604B7160040B02613662601B0A620
:10011400B71600401306501492A6B726004003C633
:1001240056801376F60EA382C680B7260040094691
:10013400A383C680371600408346E60493F6C60FB1
:1001440093E616002307D604B716004003C6F6024A
:1001540013662600A387C602942393E6160094A38D
:1001640023000700B247F3A707800F1000004101E6
:100174008280EFF01FF3130540229705000093855A
:10018400650A171600001306665D63FAC50083222C
:10019400050023A0550011059105E3EAC5FE1715D6
:1001A40001E0130565A3971500009385255B1726C9
:1001B40000001306A6E063FAC5008322050023A00D
:1001C400550011059105E3EAC5FE1385018897558D
:1001D40000009385E5936377B5002320050011059E
:1001E400E36DB5FE93025002739002BC8D4273908E
:1001F40042808542739012BC93028008739002304F
:1002040097020000938202E093E23200739052302E
:10021400972200E09382227B739012347300203083
:10022400B717004041119387870398433AC6944314
:100234003247E39CE6FE324541018280411122C6E9
:1002440083A7818891C783A78188829723A4018883
:100254003244410173002030B7F70700D8534111ED
:1002640023A2E188B7170040984B1367070198CB86
:10027400982B1377E70F98AB93078008F3B70780A1
:1002840093F787083EC60F100000B7170040130706
:1002940070052380E704130780FA2380E7040F1016
:1002A40000009307000C6318F502B71700409A2763
:1002B400498F9AA7B7170040982B1367170098AB7C
:1002C400B717004023800704B247F3A707800F1035
:1002D400000041018280B7170040B82793760520BB
:1002E400A907BDCA118B29E3371700400346E70469
:1002F4008345E70493E535002307B7049823136780
:10030400470098A3B71700409A278E2793E5050C5A
:100314008EA7A5470100FD1793F7F70FE5FFB71761
:1003240000409AA72387C70493770510DDC3B71746
:100334000040B82713670701B8A7B7270040137711
:10034400F5019387578009EF98231367070198A352
:10035400B72700401D4739A81367270098A3E9B7BA
:1003640025466369E60498231377F70E98A3B72705
:1003740000400547A383E780B71700401367050CC7
:100384009AA78AA7B7170040B5CE03C75704938727
:1003940057049C23418B858BD98F89FFB717004065
:1003A400BC2BC18B81DBB7170040B8271377D70F5D
:1003B400B8A709B71377050109EB98231377F70E4C
:1003C40098A3B7270040094775B798231377F70E0A
:1003D400BDBFB7270040137785019387578011EB82
:1003E40098231377F70E98A3B72700401307100537
:1003F40051B798231377F70E98A3B7270040130734
:1004040070058DBFB8271377B70F5DB737E700E0E6
:100414001C4354437D56A183E206D58F93060718E7
:1004240090C2D0C2B706002037060020938606008B
:100434001306C62303A8860390DE23A4A18891652E
:100444002320B7102320B72083A58188F5FD1166EA
:100454002320C7180F10000023AC060393968700CF
:100464002320D710E1832322F710828001118146D3
:1004740001468145114506CEEF00707C9307800844
:10048400F3B7078093F787083EC60F100000B7172D
:100494000040938707041307700598A3130780FA95
:1004A40098A30F100000371700408346670493E6B3
:1004B40016002303D70423800700B247F3A707805D
:1004C4000F100000F2400561828037E700E01C4312
:1004D4005443A183E206D58F1CC1FD572320F7188E
:1004E4002322F718828013178500B7E700E023A0C2
:1004F400E710618123A2A710828041118146014641
:1005040081451145EF00B07313078008F337078066
:10051400F98F3EC40F100000B717004093870704FB
:100524001306700590A3930680FA94A30F1000009D
:10053400B71500407D55CAB523800700A245F3A531
:1005440005800F10000073370780137787083AC6B9
:100554000F10000090A394A30F1000003717004061
:100564008346670493E616002303D7042380070019
:10057400B247F3A707800F10000001A09307E0041F
:100584003305F50295473355F50201007D1575FDD8
:100594008280411122C406C62A847D141305803E3C
:1005A40033440408E13F75F8B2402244410182809B
:1005B4002E96AA870F70B6788280B7170040411133
:1005C4009387870398433AC694433247E39CE6FEF5
:1005D400324541018280B7E700E03707001023A0CD
:1005E400E7208280411193078008F3B7078093F7CF
:1005F40087083EC60F100000B71700409387070412
:100604001307700598A3130780FA98A30F1000002E
:100614003717004048DB23800700B247F3A7078061
:100624000F10000023AA018841018280B7170040FF
:10063400130700032388E702054723AAE188730010
:10064400203000009305000273A04580824573901A
:10065400153492402242B2424243D2436244F244AD
:10066400025592552256B2564257D2576258F25802
:1006740006499649264AB64A464BD64B664CF64C32
:10068400065D965D265EB65E465FD65F09617300C1
:100694002030B7270040F8239907058B01CB054785
:1006A40098A383A78189A90723ACF188730020301C
:1006B400B737004003C7678093876780058B11CBEA
:1006C400054798A3B7470020938747D4DA2705073F
:1006D400DAA773002030011122CE02C423160100D0
:1006E40023070100B747004083C747801947BD8BE4
:1006F400638CE7003147638DE70611476382E702A5
:100704007244056173002030B747004083C55780A9
:10071400416513058501973000E0E78000DACDB725
:10072400B747002037460040B74500201D47938750
:1007340047D413068680938545941305F03FD6234A
:10074400138816002392070103480600AE962380FF
:100754000601D6236374D500239207007D1713770F
:10076400F70F71FFFA231D07FAA32396070049BF69
:1007740020002285972000E0E780E0D2B7470020E0
:10078400374600209375F50F0147938747D4130626
:1007940046941308F03F9376F70F63E7B600FA2305
:1007A4001375F50F2A97C9B7D62393881600239299
:1007B4001701B308E40083C80800B2962380160129
:1007C400D6236374D800239207000507E9B779712B
:1007D40022D63794004026D44AD24ED052CE56CC9C
:1007E4001C2437970040183793F607012104E3804F
:1007F400062A9376070193777700E3940608054762
:10080400E389E7001147E385E704639B0778B7971B
:10081400004003C7F7099387F709218B630E077814
:10082400B75500209389C59683C7090003D72900CB
:100834002385F18C83C7190003D64900A385F18C65
:1008440083D769002392F18C2394E18C2393C18C88
:1008540083CAA18C93FA0A06638E0A1A03C6A18C72
:100864009305000213760606631CB60C83C6B18C8E
:100874002D4613F7F60F6360D60205CF7D17137765
:10088400F70FA94663E7E602C166938646EE33474F
:10089400D7201843028793071002631CF700B7257B
:1008A40000201D469385C5F34E85973000E0E78010
:1008B40060D283C7A18C03D7418C9397476063D1DF
:1008C400076C9307000463E4E70083D7418C03D7E4
:1008D400418C1D8F2392E18C37970040231EF7082B
:1008E400BA871947238FE70865A5239C018AD1B7E6
:1008F400239C018A03D7418C9307F0031306000459
:1009040063E6E70003D6418C3346060881454E85ED
:10091400971000E0E78020E969BF83D7818CA18329
:10092400A38DF18A79B783D7818C238DF18A51B74E
:1009340083C7B18B2380F900ADBF83C7A18BDDBF13
:1009440083C7A18C1306000493F70706639DC70AA7
:1009540083C7A18C9397476063DF070403C6B18CF8
:10096400930700026319F60403D6618C914763145C
:10097400F60403D7418C9307800263F4E7002392C3
:10098400F18C03D7418C9307F0031304000463E64E
:10099400E70003D4418C33440408416A130A4A2013
:1009A4002286D2854E85973000E0E780A0C252941B
:1009B40023A6818CFDBD83C7A18C9397476063D424
:1009C400070483C6B18C93070002639EF60203D723
:1009D400618C95476319F70203D7418CA94763F4E7
:1009E400E7002392F18C03D7418C9307F00313049F
:1009F400000463E6E70003D4418C33440408416AED
:100A0400130A8A1F71BF83C7A18C93974760E3D2EF
:100A140007EACDB583C6B18C2D4513F6F60F636393
:100A2400D52CC166938606F1B346D62094428286BD
:100A340003D4818C9D46218063E086021DC47D140D
:100A4400334404081947636187024167130707F4B5
:100A54003344E4201840028793071002630AF41C0D
:100A6400930720026306F41A0144930AF00FA1A825
:100A7400C1679387874023A6F18C8023A9A0B797E9
:100A84000040BC279397476063D307088547238FAB
:100A9400F18A930700202390F18C8945239AB18A27
:100AA40003D7418B998F239BF18A03C7E18B854739
:100AB4006317F706C16793874739A033B82323A682
:100AC400F18C2204598C83D7418C6374F4002392F3
:100AD400818C03D7418C9307F0031304000463E66D
:100AE400E70003D4418C3344040883A5C18C2286D7
:100AF4004E852EC6973000E0E780C0ADB245A29582
:100B040023A6B18C9307F00FE395FADAE1AA238FB9
:100B1400018A930700042390F18C854541B7C1678E
:100B24009387073259BF83D7818C114793F7F70F07
:100B3400636FF700FD17B3C707080D476364F70237
:100B440041671307C7F5B3C7E7209C4382871307A0
:100B5400E00EE39BE7F0C1679387C72223A6F18CDD
:100B6400494495B79387C18739B7C1679387072EDF
:100B740019B7C1679387C72AFDBDC16793878729C2
:100B8400DDBDC1679387C724FDB5C167938707247B
:100B9400DDB583C6E18B0547639DE602C167938794
:100BA4000732A033B823C1652204598C37150020BD
:100BB4001306E4FF9385253213052579973000E069
:100BC400E78040A1B71700209387077923A6F18C0B
:100BD400DDBD83C7E18B93FAF70FE39707E8C1679D
:100BE40093874739A033B823C1652204598C37252C
:100BF40000201306E4FF938565391305658097305B
:100C040000E0E780209DB7270020938747807DBFC1
:100C140003C7E18B85476319F700C1679387873062
:100C240023A6F18C554445B5C1679387072FCDBFE3
:100C340083D7618CE39A07E203C7E18B8547631688
:100C4400F700C1679387673A3DB5C1679387273338
:100C54001DB583D7818C2381F18CA1B983C7318CD5
:100C64002380F90003D7418C8547E3F4E7C423923A
:100C7400F18C81B183D7818CA381F18C0547238EBC
:100C8400E18A05B983C6A18CFD8A99EE83D7818C4C
:100C9400054793F7F70F6397E70483C7D18B93F75F
:100CA400E70FA38EF18A31B183C6A18C0946FD8A70
:100CB400639AC60283D7818C93F7F70F85E783D7AE
:100CC400618C1307100893F7F70F6387E7046363D6
:100CD400F7020D476387E7041547638EE70405476A
:100CE4006387E702379700409547230FF708A30F60
:100CF400F70879AC13074008638AE7021307600812
:100D0400E392E7FEB7970040238B070A5DB6B797D7
:100D14000040A381D70A71BEB79700402381070A18
:100D240049BEB7970040A385D70A61B6B79700407C
:100D34002387070ABDBEB7970040A389D70A95BE8B
:100D440083C6A18CFD8AD1E683D6818C054693F6B1
:100D5400F60F639AC60283C7E18B6398D700C16715
:100D640083C7B73993F7070291EB83C7E18BBDFBC8
:100D7400C16783C7773293F70702ADD783C7D18B97
:100D840093E7170039BF83D7818C894693F7F70F10
:100D9400E39AD7F483D6618C930700106384F60238
:100DA40083D6618C93070020638EF60083D6618C12
:100DB400930700306388F60003D7618C93070040E3
:100DC400E319F7AE83C7018D93E707F82388F18C05
:100DD400CDB483C6A18C0946FD8AE39CC6AC83D7F7
:100DE400818C93F7F70FE39607AC83D7618C1307D5
:100DF400100893F7F70F638BE7046366F7020D4758
:100E04006381E70615476384E7080547E39CE7EC3D
:100E1400379700408347370A93F7C70F93E71700C4
:100E2400A301F70A79B4130740086387E70413079B
:100E34006008E399E7EA379700408347670B93F725
:100E4400C70F93E71700230BF70AA5B437970040A1
:100E54008347270A93F7C70F93E717002301F70A7D
:100E640089BC379700408347B70A93F7C70F93E7C6
:100E74001700A305F70A35BC379700408347E70AF4
:100E840093F7C70F93E717002307F70A1DB43797A3
:100E940000408347370B93F7C70F93E71700A30965
:100EA400F70A01BC2380090075BB83C7A18C239674
:100EB40005968946FD8B639AD70A83D7618C1307FD
:100EC400100893F7F70F6382E7066366F7020D478E
:100ED4006389E70615476380E7080547638EE702E1
:100EE4001306F00F03D7418C894763F4E70023927C
:100EF400F18CB28A01B9130740086389E704130728
:100F04006008638FE70413072008E39BE7FCB797A7
:100F1400004083C7670A31A8379700400347370A60
:100F24000D8B6314F7002380E900B797004083C753
:100F3400270A8D8B0547E397E7FA85472380F90055
:100F440055B7B797004083C7B70AE5B7B7970040CE
:100F540083C7E70AF9BFB797004083C7370BD1BFF0
:100F6400B797004083C7670BE9B783C7A18CFD8B94
:100F7400B5FB83C7D18B858BB5D72380D9009DB7AB
:100F8400994705EB37970040231E0708230FF708FE
:100F9400B797004003C7F7091377F707A38FE7084C
:100FA4003254A25412598259724AE24A456173007A
:100FB40020303797004025BB23800700B7970040B7
:100FC40003D7C70783C7A18C3347070893F70706DE
:100FD4008DCB2392018C83C7B18C1337770093F7A1
:100FE400F70F05E3811791EFB7550020372500204F
:100FF4001D469385C5961305C5F3972000E0E78049
:10100400605D83D7418CC9F7B7970040239E0708DA
:10101400C9B8B797004003C7370A9387370A418B8B
:1010240019CF37970040035707082399E18A98237B
:101034001347470098A398231377C70F98A3B7972C
:10104400004003C7370A1377F707A381E70A89BF6C
:10105400B797004003C7F70A9387F70A418B09CB78
:1010640098231347470098A398231377C70F98A38F
:10107400B797004003C7F70A1377F707A387E70A70
:1010840005B78D466386D71C118B31E7D9C709474D
:10109400E398E7F0B79700402392070A03C7670A6B
:1010A400134747002383E70A03C7670A1377C70F69
:1010B4002383E70A374700201307C7F5342393F641
:1010C400E60F34A3A388018A03C7670A1377F707D7
:1010D4002383E70AF1B51547E394E7ECB79700409B
:1010E4002398070A03C7270B134747002389E70AF6
:1010F40003C7270B1377C70F2389E70A3747002055
:101104001307C7F5543393F6E60F54B303C7270BFD
:101114001377F7072389E70A61B583D7418C91E7F1
:10112400B79700401947A38FE70883C7A18C93F7AB
:101134000706CDCB83C7A18C1307000293F70706DC
:10114400639FE70603C7B18C8547631AF70603D785
:10115400418C9307F0039304000463E6E70083D40F
:10116400418CB3C4040883D5818BB747002093878F
:10117400C7D537550020BE9526861305C5969720FA
:1011840000E0E780204583D7418C858F2392F18C42
:1011940083D7818BA697239CF18AB7970040239E1F
:1011A400970803C7E70913474700238FE70803C7D6
:1011B400E7091377C70F13672700238FE70883C74F
:1011C400018D9397476063D60700972000E0E7807E
:1011D400E0D4B797004003C7E7091377F707238FD5
:1011E400E7087DBB83C7B18C954613F7F70F638679
:1011F400D70499476319F70403D7418C9307F00385
:101204009304000463E6E70083D4418CB3C4040868
:1012140003A9C18C375500202686CA851305C596B7
:10122400972000E0E780003B83D7418C269923A6D2
:10123400218D858F2392F18C8DB783C7218C3797AD
:1012440000403CB3ADBFB7970040239E070885BF5D
:10125400B79700402394070A03C7A70A1347470018
:101264002385E70A03C7A70A1377C70F2385E70A6D
:10127400374700201307C7F5343393F6E60F34B32A
:1012840003C7A70A1377F7072385E70A11BB13F7E8
:10129400070409C7930700041CA019B313F7270018
:1012A40005CB89471CA0B7970040B827118B11CBF9
:1012B40003C7D18B13672700A38EE18A83C7D18B21
:1012C400C5B103C7D18B1377D70FA38EE18AC9B9F0
:1012D40013F7170071D3A381018C2381018CA38E92
:1012E400018A238E018AB7970040A38107009720C3
:1012F40000E0E780C0CD854745B70000197106C2FC
:1013040012C416C61AC81ECA22CC26CE2AD02ED281
:1013140032D436D63AD83EDA42DC46DECAC0CEC231
:10132400D2C4D6C6DAC8DECAE2CCE6CEEAD0EED261
:10133400F2D4F6D6FAD8FEDA9385C1888841E7005C
:10134400050092402242B2424243D2436244F244F4
:10135400025592552256B2564257D2576258F25805
:1013640006499649264AB64A464BD64B664CF64C35
:10137400065D965D265EB65E465FD65F09617300C4
:1013840020302303048015472303E4800100230253
:10139400A480828083076480E3CE07FE2303048055
:1013A400828083076480E3CE07FE03454480828005
:1013B40083076480E3CE07FE2302A4808280411168
:1013C40026C44AC24EC006C61377F50BAD47AA8998
:1013D4002E8995446306F70019456537653F8D44AA
:1013E4004E854537FD59FD1463983401B240A2443B
:1013F4001249824941018280135509011375F50F81
:10140400453F2209CDB7011126CC06CEB70408000A
:1014140051371545BD37713769372AC6A53F32455F
:101424009377150089EB136515001375F50FF240DA
:10143400E24405618280FD14E9FC0145CDBF3971A8
:10144400B7F7070006DE26DC4ADA4ED852D656D461
:101454005AD25ED062CE03AB47027D57B7E700E0B5
:1014640083AA070022C603AA470023A0E71823A2E1
:10147400E718B71B0040930770052380FB0493070C
:1014840080FA2380FB0483C74B041147AA8993E79E
:10149400070E2382FB04372400401305F00F2303B7
:1014A400E4802E8C3289B684E93DED35938779FF4B
:1014B40093F7F70F0947137BFB006362F712A14709
:1014C400370708006307FB00B70707003E9C378710
:1014D40007007955637EEC02B3878401636AF702DF
:1014E400A9476398F90689E481446D3526850DA0E2
:1014F400E2850945E93505090345F9FFFD14050CA5
:10150400453D81C49377FC0FFDF7F53D69FD7D559D
:10151400B7170040130770052380E704130780FA08
:101524002380E70403C74704418B2382E704F25076
:10153400B7E700E023A0571123A24711E254324435
:101544005259C259325AA25A125B825B724C2161BF
:101554008280A547639AF906A1478569631DFB024A
:101564009387F9FFB3869700B374FC00B69493C7CE
:10157400F7FFFD8C33FC8701416B856B9387F9FF83
:10158400B3F7870199E363FF340193D94900C14755
:10159400E3E637FF91BF9307F00FE9B78567C169A9
:1015A400FD17C9B71305800D63886901130500028F
:1015B4006384790113051008E2851135A93521D911
:1015C4004E9CB3843441C1B7E2852D45CD3BCA94CA
:1015D400E30C99F00509F133A30FA9FED5BF938756
:1015E400F9FF93F7F70F636FF70AA1476319FB0637
:1015F400B70708003E9C83C75B043707070093F7CF
:10160400070299E337870700B70708003E97795523
:10161400E370ECF0B3079C00E36CF7EE8947639A40
:10162400F9048980D549E38104ECE2850945413B0D
:1016340011090327C9FF91472320E480030764802D
:10164400E34E07FE23033481FD17EDFBFD14110C5B
:1016540081C49377FC0FE9FF7D3371F54DBD83C7DA
:101664005B043707070093F70702D5F337870700B2
:1016740079BF8547E384F9F2E2852D45893393895F
:10168400F4FFE38304E6313B93F7390091EB8326BF
:1016940004800327090093074900E398E6E43E89A0
:1016A400CE84F1BFB5476396F9001305900BD13989
:1016B40025BDB1471305B00AE38BF9FE994763943E
:1016C400F904A1476315FB00B70708003E9CE285B7
:1016D4002D45F53181440D4BA149E13163966401F7
:1016E400832704802320F9008504E39834FF8327AB
:1016F400048013172C01635507002312F900EDB37E
:101704002322F900D5B39D476399F9028145130556
:10171400B0047531BD442320090023220900FD597A
:10172400493193F77400CA9703C70700FD14398D34
:101734002380A700E39634FF45BB91476399F900E2
:10174400130560063D39B931130590098DB7E38D52
:0817540009D8F15459BB000053
:1017600097110020938181FD17F1012013018189D8
:101770001305400097F5FF1F9385C58817F6FF1FD7
:10178000130646AA63FAC5008322050023A055006C
:1017900011059105E3EAC5FE17F5FF1F1305A59D89
:1017A00002853D432A876373C3029377F700BDEF39
:1017B000ADE5937606FF3D8ABA960CC34CC30CC7C1
:1017C0004CC74107E36BD7FE11E28280B306C340EA
:1017D0008A069702000096966780A6002307B70046
:1017E000A306B7002306B700A305B7002305B7007B
:1017F000A304B7002304B700A303B7002303B70073
:10180000A302B7002302B700A301B7002301B7006A
:10181000A300B7002300B700828093F5F50F9396DD
:101820008500D58D93960501D58D61B793962700D8
:101830009702000096968682E78086FA9680C11706
:101840001D8F3E96E374C3F8A5B7914763ECB704C8
:10185000C167938707F8B3C5F5209841B7170040D3
:101860009387470B028798433377A74098C3B717EE
:1018700000409387070B98433377A74019A89843F4
:101880003377A74098C3B71700409387070B984357
:10189000498F98C3B71700409387070A9843337757
:1018A000A74098C382809843498FC9B7984333773C
:1018B000A74098C3B71700409387070A9843498FFA
:1018C000CDB79843498FF5B7B71700409A2FE10776
:1018D00001C54D8F9AA38280B375B7408EA38280D5
:1018E000B7170040D84FF10709C5B375B7408CC38F
:1018F0008280D98DEDBFB717004003C777051377F6
:10190000E70FA38BE704B7170040130700F8A38D78
:10191000E7043D47238CE70413075003A38CE70437
:1019200003C7A7051377D70F238DE7048280B71667
:10193000004083C7E60412054111BD8B9386E6047F
:1019400033E7A70093078008F3B7078093F787086A
:101950003EC60F100000B717004093870704130618
:10196000700590A3130680FA90A30F10000098A2B0
:1019700023800700B247F3A707800F100000410142
:101980008280B716004083C7E6020D89411193F7A4
:10199000C70F9386E60233E7A70093078008F3B7E3
:1019A000078093F787083EC60F100000B717004066
:1019B000938707041306700590A3130680FA90A37B
:1019C0000F10000098A223800700B247F3A70780FA
:1019D0000F1000004101828041112A838148130FBA
:1019E000407E130E0019930F4006334803086363CB
:1019F0000F13337EC503854E0D4FA14FFD4263E0AB
:101A0000BE147D16B2987946B3C808083307C702DA
:101A100013D61700BE07B3C7070832976146B3F65F
:101A2000C60213068070B386C60236974207D98F66
:101A3000371700401307F702142393F60608D483E0
:101A40009083142393F60608E318D6FE988301EBDF
:101A5000371700401307F7029483638106121307B8
:101A6000800873370780137787083AC40F10000087
:101A700037170040130707049306700514A3930655
:101A800080FA14A30F100000B716004023AA160313
:101A900037160040834516039386460393E505F801
:101AA000A308B602230007002247732707800F1000
:101AB0000000371600401306C60398420C422D8FD3
:101AC00093152701FDF913078008733707801377F3
:101AD00087083AC60F1000003717004013070704A5
:101AE0001306700510A3130680FA10A30F10000050
:101AF0009CC2B717004083C6170393E60604A38869
:101B0000D70223000700B247F3A707800F10000099
:101B1000410182807D13B36EC3031308E016638E08
:101B20000E00B36EF3031308D01663880E0013780B
:101B30003300133818001308D816C2987DB5639681
:101B4000E5030548630D0E00130340063373650279
:101B50000148630603001378350013381800710834
:101B6000FD15C298B3C5050859BD13F31500338898
:101B70006240E3F7BFFE1308E301DDB7142393F6D9
:101B80000608D4839083142393F60608E318D6FE40
:101B9000E1B5717122D54AD106D726D34ECF52CDA9
:101BA00056CB5AC95EC762C566C36AC1EEDE2A89D2
:101BB00002D013048008EF005011F3370480E18F46
:101BC0003ED20F100000371C0040130C0C0413070A
:101BD00070052300EC00930480FA23009C000F1092
:101BE0000000371700408346F70293F6760FA307ED
:101BF000D7028346F70293E68600A307D7022300A5
:101C00000C001257732707800F1000009309803EC5
:101C1000B34935031307007D130AD0FDA166814A3D
:101C2000014B3387E902338A4903B34DD7023D673D
:101C3000130707A693066004334AEA0293D7FD41CF
:101C40003EC6B386D9029357FA413EC0B30740411E
:101C50003EC813DDF741B3C7E60261671307076AA1
:101C60003EC2FD873ECAB347E5023EC473370480D7
:101C7000137787083AD40F100000930B70052300E8
:101C80007C0123009C000F100000B71C004083C69D
:101C90003C05938C3C0593F6860F2380DC0083C6BD
:101CA0000C0093E616002380DC0023000C00A256F3
:101CB000F3A606800F100000F336048093F6860822
:101CC00036D60F100000930770052300FC00230098
:101CD0009C000F10000083C60C00E17593E606021D
:101CE0002380DC00B716004003D606051316E6284D
:101CF0002398C60403D606054D8E2398C6042300F8
:101D00000C00B256F3A606800F10000083C60C002C
:101D100093F606026386064483C60C00A18AEDDEB4
:101D2000081097E0FF1FE780807AF336048093F66F
:101D3000860836DA0F10000023007C0123009C0087
:101D40000F10000083C60C00E17593F6F60D23809A
:101D5000DC0083C60C0093E606022380DC00B71685
:101D6000004003D606051316E6282398C60403D6BA
:101D700006054D8E2398C60423000C00D256F3A608
:101D800006800F10000083C60C0093F606026380E5
:101D9000064083C60C00A18AEDFE97E0FF1FE78096
:101DA00060482ACC97E0FF1FE780C047E247E30B7B
:101DB000F5FEB716004003D6060502551316E628B1
:101DC0002398C60497E0FF1FE780207283C60C00AB
:101DD000A18AEDDEB716004003D8060583C62605A6
:101DE00011667D16B386C6023378C800B24713D693
:101DF000F641C29633B8060132983308F840B388EA
:101E0000B6418247B3B616013308D84063C607010E
:101E1000631BF80063791A016342A83B63150D0147
:101E2000C24763EDF838894663FC6639733704802E
:101E300013778708BAC00F1000001306700523003F
:101E4000CC0023009C000F10000037170040834691
:101E500037051307370593F6860F14A31423B3E64B
:101E6000260114A323000C008646F3A606800F105B
:101E7000000014239D8A639C263DF336048093F66C
:101E80008608B6C40F100000130670052300CC00AE
:101E900023009C000F1000001423E17593F6F60D4B
:101EA00014A3142393E6060214A3371700408356A5
:101EB00007059396E6282318D70483560705CD8E89
:101EC0002318D70423000C002647732707800F1020
:101ED00000003717004013073705142393F6060256
:101EE000638C0638B71B0040938B3B0503C70B0080
:101EF000218B6DDF081097E0FF1FE780405D73378F
:101F0000048013778708BAC80F1000001306700505
:101F10002300CC0023009C000F10000003C70B001F
:101F2000E1751377F70D2380EB0003C70B001367F0
:101F300007022380EB00371700408356070593966E
:101F4000E6282318D70483560705CD8E2318D70417
:101F500023000C004647732707800F100000371737
:101F6000004013073705142393F60602638F0632E9
:101F7000B7160040938636059822218B75FF97E0AF
:101F8000FF1FE780202AAA8B97E0FF1FE7808029A8
:101F9000E30C75FF371700408356070502559396EB
:101FA000E6282318D70497E0FF1FE780005437176F
:101FB0000040130737051423A18AF5DEF3360480A9
:101FC00093F68608B6CC0F10000093067005230028
:101FD000DC0023009C000F100000142393F6F60D84
:101FE00014A323000C006647732707800F1000001E
:101FF00037170040835607050346270511677D17ED
:102000003306E602F98E8565938505FA1545135763
:10201000F6413696B336D600BA96339725016376E5
:102020002501130729003397E500A2479305001007
:1020300015483387E7023347B70293054006330755
:10204000B702930500083347B7029355F7413307AA
:10205000E6403336E6008D8E918E9305800C3386F4
:10206000B6023305B702B335B702B2956346D00066
:102070006396062663040726130650473317202964
:1020800063762801130729003317E0280D873306EC
:10209000C7023D67130707A63386C9023346E60227
:1020A0009356F641EF10000F9306150033B5A600C6
:1020B0002E951357F501BA9633B7E6002A971316F3
:1020C000F701858236960587B71600409386C602CB
:1020D0006346E0006310072A630E06289622958265
:1020E000B385C600B3B6D50036976348E0006310E9
:1020F00007321307F00F637CB73009476374572327
:102100007334048013748408A2CE0F100000B71734
:102110000040938707041307700598A3130780FAFC
:1021200098A30F10000037170040563709660116B4
:10213000D18E56B723800700F647F3A707800F100C
:102140000000BA502A549A540A59FA496A4ADA4A9B
:102150004A4BBA4B2A4C9A4C0A4DF65D4D6182802F
:10216000F336048093F6860836D80F10000023005B
:102170007C0123009C000F10000083C60C0093E636
:1021800006022380DC0023000C00C256A5BEF336F5
:10219000048093F6860836DC0F10000023007C01D3
:1021A00023009C000F10000083C60C0093E606027B
:1021B0002380DC0023000C00E256D1B6E3180BC6E6
:1021C0001246D24693D5F801B325B82013951800CE
:1021D00042CC46CEEF00107C6248050B137BFB0F10
:1021E0006347000163190804F24863860804130674
:1021F00015003335A6002E959356F5013696B33665
:10220000D600AA960582FE06B2967336048013762F
:10221000860832DE0F10000023007C0123009C00A2
:102220000F100000371600404E36AE9656B623000B
:102230000C00F256B5BC1306F5FF13351500898D59
:1022400093D6F5013696B336D600AE9665BFF33613
:10225000048093F68608B6C20F1000002300CC005D
:1022600023009C000F1000001423B366D90014A3B0
:1022700023000C009646D5BEF336048093F68608FC
:10228000B6C60F1000002300CC0023009C000F10E6
:102290000000142393E6060214A323000C00B646A4
:1022A000F3A606800F1000000DB9F336048093F6F4
:1022B0008608B6CA0F1000002300CC0023009C0043
:1022C0000F100000142393E6060214A323000C0051
:1022D000D646F3A606800F10000071B113065047D2
:1022E0003317202963762801130729003317E028C4
:1022F0000D873306C7023D67130707A63386C90259
:102300003346E6029356F641EF00D0689306F5FF98
:1023100013351500898D13D7F501BA9633B7E6004A
:102320002E9771BB7337048013778708BAD00F10CC
:10233000000037170040130707049306700514A325
:10234000930680FA14A30F1000003716004056368B
:1023500093F6F60F93E6067E9396B62856B62300BC
:1023600007000657732707800F100000850A93FAAD
:10237000FA0FEDB8B365E600D9C99622B335C000AF
:102380003307E0400D8F3305C04095826345E00080
:102390003DEF63FEA6060947637E5703733404804E
:1023A00013748408A2D20F100000B717004093875F
:1023B00007041307700598A3130780FA98A30F105A
:1023C0000000371700405637FD8A56B723800700B4
:1023D0009657A5B37337048013778708BAD40F10C4
:1023E0000000130770052300EC0023009C000F1071
:1023F0000000B7160040DA361377F70F1367077E31
:102400001317B728DAB623000C002657A1BF93078D
:102410008008F3B7078093F78708BED60F10000037
:102420003717004013070704930770051CA3930791
:1024300080FA1CA30F100000B7160040CE36931789
:102440005600AE97DEB623000700B657FDB1411126
:1024500022C406C62A8495282947B307E502B2405C
:102460008D83B3D7870222449507B3D7E702373766
:1024700000405EA74101828071654111130505206E
:1024800006C6F137B7370040130770F8B8A30D47F9
:10249000B8B31307000498B30547F8A7B240410149
:1024A000828037470040B746004081471307A78026
:1024B00093868680102301E633C5070882808C222C
:1024C0003306F50085070CA2F5B7B71700409A2729
:1024D0009306000CA1071377070C2165630DD70243
:1024E0009A23137707100DCB9A239E237D8B09EF38
:1024F0003725F40093F707201305054089CF37559A
:10250000E80113050580828037C59812FD8B1305FD
:1025100005E03345F50282809A239E231377072036
:10252000FD8B11C73755E80113050580DDB7372549
:10253000F40013050540F1BFB7F700E0884782803B
:10254000373700402145B736004081472D07AA960E
:1025500063C4C7003285828003480700E30EA8FEEB
:102560003388F50003480800850723800601CDB7AE
:10257000B7260020AA8703A586F337570020130744
:10258000C7B0AA9763EAE7000A87130707FC6365E9
:10259000F70023ACF6F282807D55828011456FF002
:1025A0004FDF411193962500AA852D4506C697F069
:1025B000FF1FE78000E9B24001454101828001111F
:1025C000B717004006CE22CC26CA4AC84EC603C45E
:1025D000770583C9B70503C9870583C49705EFF05D
:1025E0008FB1B717004003C7A7059387A7051367E7
:1025F000170098A39823058B75FFB717004003D5E4
:10260000C705A38D3705238C2705A38C9704A38BBF
:102610008704F2406244D2444249B2490561828053
:10262000411122C406C6939755602E8463D10702D8
:10263000B7070400FC57829709C5B7070400BC57C9
:1026400082971315F468B24022444101828093F7C7
:10265000150013C51500E5FB9397250163D6070206
:10266000B707040083A7C71E82970D3FB707040072
:10267000BC4F03C5018937F60200130606E08965E1
:1026800082971315D468C1B791653375B40045DDE1
:102690004165130545F9EF00906CB7070400BC4F86
:1026A00003C5018913060064916582971315E468D8
:1026B00059BF2D7123282111137905801319B948A9
:1026C000232C811023263111232441112A84AE8921
:1026D000328ACA850A86930600102D45232E1110D2
:1026E000232A911097F0FF1FE780A0D58566938776
:1026F000F6FF3375F400B7070400FC471396290072
:10270000D285334525208297CA85856601462545B1
:1027100097F0FF1FE780E0D20A86CA859306001073
:10272000294597F0FF1FE780C0D18320C111032402
:10273000811183244111032901118329C110032A26
:1027400081101561828083A74188011106CE22CCB9
:1027500026CABD8B21476399E700A13FF24062443E
:10276000D244014505618280B7F70700DC532A8413
:10277000B284BD8B939625006398E70093D726001B
:1027800093F7F73F91C301A0A2850146254536C6C0
:1027900097F0FF1FE780E0CAB2462686A28529454A
:1027A00097F0FF1FE780E0C955BF370704005C5F63
:1027B000485B1D71C16586CEA2CC4946938585F9DB
:1027C000829719E541651305C5FAEF00505901A03C
:1027D000B7F700E023A40700795798CB3D4798C38B
:1027E0000564B7E700E023A087180F100000370743
:1027F000002014471306C00323A6D188130700F84E
:10280000A38AE740B7070400BC4781454808829780
:10281000B7270020938707023ECA896793870780FE
:10282000FC849D673ECEB7070105938707103ED015
:10283000ED472312F10285472303F102896793874D
:10284000275ABEC4896793876774BEC6930754D15D
:102850002314F1028967938787533EDA8967938748
:10286000E75B3EDEB7F5070089679387C759814666
:102870007000E1051945BEC097F0FF1FE78060BCFE
:1028800019466C001305E102EF009054D24781C74E
:10289000BC8463F3870001A0B707040083A7470A3D
:1028A00048088297AA8519C54165130505FCEF0004
:1028B000904001A0F640664425618280B70704007D
:1028C00083A707084111096506C622C413050562DE
:1028D00082972388A188292803C50189B7070400A6
:1028E0002244B240BC4F1306003289654101828701
:1028F000397106DE93068008F3B70680F58F3EC275
:102900000F100000B71700409387070413057005E8
:1029100088A3930580FA8CA30F100000371700409E
:102920000346F7021307F7021376A60F10A32380BE
:1029300007001246732606800F100000F3B60680CB
:1029400093F6860836C40F10000088A38CA30F10DE
:102950000000142393E6260014A323800700A24757
:10296000F3A707800F1000000545EFF08F813D3180
:10297000054601478146B28581471305407EEFF049
:10298000AF85B7070400BC476800130640028145C5
:102990008297B707C0A83ECAB787E8033ECCB707FF
:1029A00000209387A75B3EC6B70700209387675D2B
:1029B0003EC8B7070400FC5B68008297F2502161B3
:1029C0008280411106C622C44D206D280545FD2098
:1029D0001305803E97E0FF1FE780E0BB0145F92823
:1029E0001305803E97E0FF1FE780E0BAB71700406D
:1029F000116423AC870AC1450545EFE0FFEC85452E
:102A00002165EFE09FE48D452285EFE01FE4AD34C2
:102A10004165130505FEEF009034B7070400CC5B59
:102A20004165130585FEEF001029413305457920E6
:102A30000565130505FA97E0FF1FE780C0B501455E
:102A4000B5280565130505FA97E0FF1FE780A0B4D8
:102A5000B535592E4165130505FF95213704002032
:102A6000B9201C408297F12EE5BF4111114506C6E1
:102A7000EFE0FFEBB24013055034410117D3FF1FC5
:102A80006700C37D411193050040054506C6EFE090
:102A90003FE58D4513050040EFE03FDBB240B7173F
:102AA00000401307004023ACE70A41018280B7E7EA
:102AB00000E01307000223A2E7108280411122C424
:102AC000930500402A84054506C6EFE07FE18D4569
:102AD00013050040EFE07FD7930700403717004011
:102AE00019C42326F70AB240224441018280232CD4
:102AF000F70AD5BF2E8695C10DC1AA8503A5018809
:102B0000011106CE32C6EF00B02C3246B787004026
:102B10002380C702F24005618280B787004023808E
:102B2000C7028280B7870040F82399079376270071
:102B30006381062279713787004006D622D426D2D7
:102B40004AD04ECE7C331D079397476063DB071056
:102B5000B7870040130720FC2381E70283A7018881
:102B6000E033F8232204598C98332390818A2381FF
:102B7000E18A9023137606060DEA25466367E6028E
:102B80004166130646163347C72018430287B82309
:102B9000BC338946A2075D8FA183638DD7048D4521
:102BA0000546638BB700638DC704B78700401307E2
:102BB000F0FC2381E702E9A09377F70F6387C7044E
:102BC0006389D704FDF393898187114963742401D4
:102BD0001379F40F4E85CA85313F338529013304BB
:102BE000244123AEA1882390818AB7870040130730
:102BF00000FCC1B741659309451C13090002F9B7F0
:102C000041659309451E4949D1B741659309451B63
:102C1000DDBF41659309C5181309400245BFBC23B8
:102C200093F7F7072390F18AB787004023800702C4
:102C30006DBF03C7318A854598A303A501885D3D13
:102C40006DB7BC23A381F18AB337F0002388F18AE2
:102C5000E1BF2380070083A701888945A38007007F
:102C6000E9BF1C239306000293F7F703638AD70496
:102C700063E3F60285466386D70A8946638ED70AE0
:102C8000B78700400947F8A3B25022549254025922
:102C9000F2494561828013071002E393E7FEB7878C
:102CA000004003C76702134707042383E70203C7F3
:102CB00067021377C70F136727002383E702C9B79B
:102CC00083C7218A1947639CE70283D4018A03A53D
:102CD000C1891304000433D4840A9375F40F2AC6FF
:102CE000113D3245818C2390918A229523AEA18893
:102CF000B787004003C72702134707045DBD154788
:102D0000639DE70037870040343383D7018A93F609
:102D1000060893F7F707D58F3CB3B78700400947FC
:102D200049BD1C2393F70704A1DFB787004003C701
:102D30006702134707F851B71C2393F70704A9D379
:102D4000B787004003C7A702134707F82385E702A8
:102D500005BF9376170095C237870040A30107008F
:102D600089462301D702C9462303D702A381018ADA
:102D70002388018A054798A3828093764700E5DE81
:102D80001147D5BF45337300203003C5C18B3335A0
:102D9000A000828083C7C18B014589CBB747002043
:102DA0009387C7F5C8331345F5FF0589828093B72C
:102DB000150013371500D98F8DE703C7C18B1DC3CD
:102DC000930700042E864111AA853356F60A8546DC
:102DD000154506C63126B240933715003E854101A0
:102DE000828081473E8582804111B747002006C618
:102DF00093870793514723A0070098B323A20700A6
:102E000023A4070023A6070023A8070023A6018AFE
:102E100023A4018A2383018AA382018A2382018A4F
:102E200005452388A18A239BE18A239A018A0D2CD8
:102E3000B240B7E700E01307000223A2E710410108
:102E4000828083C7018BBDCB411126C283C7418AD3
:102E500006C622C44AC0A1C30D3F15CD253F05CDEE
:102E600083C7518A13072002374400203387E702C3
:102E7000130404823A940E308DE503C7418A7D170E
:102E80002382E18A850793F7F70F1D476373F700E5
:102E90008147A382F18AB24022449244024941010F
:102EA00082802285293765D983C7418A231004028D
:102EB000FD172382F18A83C7518AE9B78280357171
:102EC00086DE2EC332C536C73AC93ECB42CD46CF89
:102ED00029C12A86540193050006080836C66125D3
:102EE0006359A0029307F00563D5A700A307010665
:102EF0003E8583C7C18B91CFB74700209387C7F525
:102F0000DC33858B99E73346050885460C08154563
:102F1000C12AF6500D61828083C7018D93F7F707B0
:102F20002388F18C83D6618C130700106393E6022B
:102F3000B7970040D8331377070FD8B3D833136748
:102F40001700D8B3B7970040D833136707F8D8B342
:102F5000828083D6618C13070020639CE600B797BC
:102F60000040D8331377070FD8B3D833136727003F
:102F7000C9BF83D6618C13070030639CE600B79706
:102F80000040D8331377070FD8B3D83313678700BF
:102F90004DBF03D7618C93070040E315F7FAB7974D
:102FA0000040D833930650031377070FD8B3371771
:102FB000002013078775F8C72396D70A8946238709
:102FC000D70AD83313674700ADBFB7970040130740
:102FD000D0029AAB4D47BAAB3E87930700047CCF33
:102FE0003CD37CD33CD77CD73CDBB75700209387BE
:102FF000C7961CD3B74700209387C7765CD3B747E3
:1030000000209387C7567CC3B74700209387C736F5
:103010003CC7B74700209387C7161CDBB747002083
:103020009387C7F63CCB230F07088947A30FF70800
:10303000A301F70A2303070A2305070AA307F70AD0
:103040002309070A3747002081471307C7F5C14600
:103050003306F700230006008507E39BD7FE828036
:10306000411122C406C6379400409307042015CDB1
:10307000114798A3B7170040BA2F13670702BAAFDA
:10308000A5471CA01307F00538A08137930780FBE4
:10309000A30004001CA013070002B7E700E023A26E
:1030A000E710B24022444101828098231377B70F82
:1030B00098A3B7170040984F1377F7FD98CF1C20BF
:1030C0001307000293E727001CA01C2093F7D70FDB
:1030D0001CA0B7E700E023A2E7180F100000D1B74B
:1030E00001119307F5FF26CA06CE22CC4AC84EC668
:1030F00093F7F70F394785446366F706B7970040A3
:103100009E2B0547BA8493F7F70FB3D7A748B9CBDF
:10311000374900201309C9F5B307A9008423F98CA6
:10312000B1E0B2892A84B9E6B72700109387F74047
:10313000AA978A078CC322998347090093E717004F
:103140002300F900B7271010938777423305F40066
:103150000A05231035013C2193F7C70F3CA193E7E3
:1031600027003CA1F24062444249B2492685D2443C
:1031700005618280639EE600B72700109387F740C1
:10318000AA978A078843B70700203E95912165B723
:10319000BA84C9BF2A8E2E83014763DB0500B3378B
:1031A000A0003303B0403303F340330EA0407D57FB
:1031B00063DB0600B337C000B306D0401347F7FF08
:1031C0009D8E3306C0403288B685F2889A87639612
:1031D000061A41651305C541637DC30AC166637361
:1031E000D60A9336061093B616008E06B35ED60046
:1031F00076950821AA9613050002638CA600158D0A
:10320000B317A300B356DE003318A600D58FB3184A
:10321000AE001353080133D567021316080141822B
:10322000B3F76702330EA6029396070193D70801FE
:10323000D58F63F8C701C29763F4C70163FA071318
:103240007D15B387C741B3D66702C20893D808017A
:10325000B3F767023306D602C207B3E8F80063F893
:10326000C800C29863F4C80063F70811FD16420550
:10327000558D01CBB337A000B305B0409D8D33050C
:10328000A0408280B70E0001E146E371D6F7C14647
:10329000B1BF814609CAC1676372F604933606104E
:1032A00093B616008E06B357D6003E951C219305A3
:1032B0000002B697639BB702B307C340854513531B
:1032C000080133D5670213160801418293D608011D
:1032D000B3F76702330EA602C20799BFB707000112
:1032E000E146E372F6FCC1467DBF9D8D3318B60002
:1032F000B356F3003313B300B357FE00B3E76700D0
:1033000013530801B318BE00B3D5660213150801A4
:103310004181B3F66602330EB5021396060193D6C9
:103320000701D18E63F8C601C29663F4C60163FB40
:103330000603FD15B386C64133D66602C207C183B4
:10334000B3F666023305C502C206D58F63F8A7003F
:10335000C29763F4A70063FA07017D16C205898F3F
:10336000D18DB1BFF915C296F1B77916C297FDB7E5
:103370007915C297F9B5F916DDBD636BD312C16734
:1033800063FCF60293B5061093B515008E05C16770
:1033900033D5B6009387C741AA979C23930E0002AA
:1033A000AE976392D7033335CE0013351500B3B60D
:1033B0006600558D814575BDB7070001E145E3F80D
:1033C000F6FCC145E9B7B38EFE40B355F600B3969F
:1033D000D6013358F300CD8E3313D301B357FE001B
:1033E000B3E5670013D30601B357680213950601CE
:1033F00041813316D60133786802330FF5029318F2
:10340000080113D80501336818016378E80136987C
:103410006374E8016378D808FD173308E841B358AE
:103420006802C205C181337868023305150342087A
:10343000B3E5050163F8A500B69563F4A50063F64E
:10344000D506FD18C20713180601898D33E517014B
:10345000C20893D808019356050113580801418208
:10346000338308033388060393570301B388C802E4
:10347000C298C697B386C60263F407014166B29646
:1034800013D60701B29663EDD5004203C20713536A
:103490000301331EDE019A97E37EFEF0E39CD5F034
:1034A0007D1509BFF91736988DBFF918B69559BF24
:1034B000814501457DBB03A3C180397132D436D625
:1034C0002ED23AD83EDA42DC46DE83258300541001
:1034D0002A861A8506CE36C6EF206031F240216179
:1034E0008280397122DC2A842E852EC606DED12206
:1034F000B245C167585893081500938707020548DD
:10350000101089462ED02AD246CE3ED442D632CA98
:1035100036CC0C440DCF0397C500FC5109669316B9
:10352000270163C80600F976FD16518FF58FDAA5DD
:10353000FCD1139727016342070222855008EF4010
:10354000D00401ED2945F250625421618280228528
:103550002EC6EF40F001B2457DBF7D55EDB7AA857F
:1035600003A5C180BDBF1971A6DA86DE83A4C18020
:1035700063CB05043337B0004178AA873387E54031
:10358000A2DC130888202E8426852C003EC43ECC65
:1035900082D63AC83ACE42CAB52AFD576340F502F0
:1035A00011E46654F650D65409618280A247238004
:1035B00007006654F650D654096182809307B0081C
:1035C0009CC065D0E5B79307B0089CC07D55D9BFB6
:1035D000B3C7A5008D8BB308C500B1E7133646000D
:1035E00039E2937735002A87C5E713F6C8FFB3069B
:1035F000E6409307000263C3D704AE86BA876371BF
:10360000C70203A806009107910623AE07FFE3EA6D
:10361000C7FE7D16198E719A91051107B2953297E2
:103620006366170182802A87E37E15FF9C210507C8
:103630008505A30FF7FEE39BE8FE8280944183A2F9
:10364000450083AF850003AFC50083AE050103AE1F
:10365000450103A3850103A8C50114C394511307B1
:103660004702232057FE232ED7FE2322F7FFB3065F
:10367000E6402324E7FF2326D7FF2328C7FF232A7A
:1036800067FE232C07FF93854502E3C9D7FAB5B738
:103690009421050793773700A30FD7FE8505B1D78F
:1036A0009421050793773700A30FD7FE8505EDF327
:1036B0002DBF937735002A879DEFB7867F7F93864E
:1036C000F6F7FD5510431107B377D600B697D18FA3
:1036D000D58FE389B7FE8346C7FFB307A74085CAE6
:1036E0008346D7FF95C20345E7FF3335A0003E95DB
:1036F00079158280F9D21C23050793763700FDFBEC
:10370000098F1305F7FF82801385D7FF8280138509
:10371000C7FF82802171232E111A2328211B232801
:10372000A1192E89328D36C6232A911A2AC0EF405C
:10373000F0481C413E853ED4AD3F8357C9002AD294
:1037400082C193F7070891C78327090199E36F1096
:10375000E022232C811A2326311B2324411B232200
:10376000511B2320611B232E7119232C8119232A1D
:1037700091192326B119C1679309C10D416A938735
:10378000C75102DF02DD4EDB4E8B3ECA130A8A6848
:1037900002CC02D602D882C202DA414402C4834774
:1037A0000D00EA8A1387B7FD29C3A1C3568C83C7CE
:1037B0001A00850A81C71387B7FD6DFBB38CAA4138
:1037C0006385AA03FA576A552320AB01E6970505DE
:1037D00023229B013EDF2ADD9D47210B63CBA714EB
:1037E000A247E6973EC483471C0099E36F1020551B
:1037F00083C81A00138D1A00A3090108FD5A02C2DA
:10380000814B130CA005050D938708FE636DFC0228
:1038100052478A07BA979C438287938708FD02C262
:10382000A5461247124683480D000A07329706073D
:10383000BA973EC2938708FD050DE3F4F6FE938721
:1038400008FEE377FCFC639408006F10404F854C42
:10385000230E1111A3090108668C02C8814A02D007
:1038600002CE01437C0A7A5693FD4B083288638668
:103870000D560347310931C3EA5501471305310994
:103880002320AB000506054585052322AB0032DF6A
:103890002EDD1D45210B634BB53405C3EA55580990
:1038A0002320EB000906094785052322EB0032DFC0
:1038B0002EDD1D47210BE34FB73813070008E386C1
:1038C000ED26B38A9A416347505313F70B106310E8
:1038D000075C2320FB00EA57669632DF8507232228
:1038E0009B011D473EDD634EF73C210B13FE4B0051
:1038F00063070E009247B38A8741E34D5037124366
:10390000635383016283A2479A973EC4E316062C51
:10391000C24702DD89C7C2450245EF40B0614E8B08
:10392000BDBD83480D00C5B583480D0093EB0B0268
:10393000D9BD02455019CA85EF40200519C16F1045
:10394000304C4E8B71BD93F78B00E381076EB2470D
:1039500032479C4311073AC69043D4439847DC470B
:10396000880146C8BEC7B2C1B6C3BAC5EF50001879
:103970002ACD8947C2486314F5006F10603385472C
:103980006314F5006F10404913FCF8FD9307100411
:103990006304FC006F10E04593070003230AF1085D
:1039A00013071006930780056394E8006F10206DDD
:1039B000A30AF1089307300663D457016F10A06C77
:1039C0003E478E461E46AE45635407006F10703C5E
:1039D00002DC02C87C0A930D0108BEC0B2DA93E78C
:1039E0002B00AEDC6E858C18300946DE3ECEB6D894
:1039F000BADEEF4050392A470A469A46BADC3A47BF
:103A0000B2D8B6DA9010B706FC3F8C186E85B6D6E1
:103A1000BADE82D082D282D4EFA0B01C0A4E1A48FD
:103A20002A468C186E8572D642D032CC82D882DA81
:103A300082DC82DEEFA08070BA4B62460258325EB2
:103A4000F258864719E1854636CD930610066394F1
:103A5000D8006F10304EC166138786043ACC5AD016
:103A6000DE8CCAC4E2443E8C46D63EDEEAC0428BBF
:103A7000B28B72890DA08C186E854AC15AC35EC57F
:103A800066C782D882DA82DC82DEEFA0206B19E181
:103A90006F10303FFD1AB707034090108C186E85E9
:103AA000BED6CAD8DADADEDCE6DE82D082D282D4B2
:103AB000EFA030136E85EFC08014AA852A8D6E8525
:103AC0008A4C9A4B2A4B3A49EFC0E01CAA470A4657
:103AD0009A46BECCBA47B2C88C1090088818E6D077
:103AE000DED2DAD4CAD6B6CABECEEFB00036B387BD
:103AF000A4019423E285050C4659565BE65BF65C0F
:103B0000A30FDCFEE3990AF6B258F2574A8E5A88A0
:103B10005E86AE84E68BB70AFE3F8C186E85C6C6FD
:103B20003ED62649EA8C72C1064DF2C442C3C2C0D9
:103B300032C532DE5EC782D882DA82DCD6DEEFA002
:103B4000006C025BB257B648634EA0008C186E85BD
:103B500046D0EFA0A05E8258B25729E593FC1C0026
:103B600063820C04624726D10346FCFF6C376287F0
:103B7000639EC50013050003A30FA7FE0A57930613
:103B8000F7FF36D10346F7FFE388C5FE930516001D
:103B90001305900393F5F50F6314A6006F10A06949
:103BA000A30FB7FE6A461387F8002302E10AB306A3
:103BB000FC401307F6FF3ACD36CC635407006F1074
:103BC00010329306B002A302D10AA54663D4E600E0
:103BD0006F10805A9306610A1307070398A218030F
:103BE000998E1387D60D3AD66F10605F0245501933
:103BF000CA859AC4BEC046DE3ADCEF301059631461
:103C0000057E7A5626438647F25862574E8B71B12D
:103C1000EA5AE24605473A96BA9A930D8B00E35169
:103C2000D72C05472322EB002320FB0032DF56DD93
:103C30001D47E34757351257850A56DD3A962257F6
:103C400032DFA10D23ACEDFE125723AEEDFE1D4772
:103C5000E34A57312E470E459E453ED03AC5E247CE
:103C60003E472AC12EC308018C1832CE82D882DA90
:103C700082DC82DE3AC7138BF7FFEFA0204C72463E
:103C8000E30905288257850A5A96850756DD32DFF3
:103C900023A0FD0023A26D019D47E3C05727A10D7E
:103CA000B257B25658113E9693871A0023A0ED00E2
:103CB00032DF3EDD23A2DD001D47138B8D00E3576D
:103CC000F7C202455019CA85EF30304C631D0570AC
:103CD0007A564E8B21B9B247854CA30901089C4303
:103CE000230EF110B24791073EC6BDB693F70B0203
:103CF000639F0726B24713F70B01910719C36F1093
:103D00004079B24613F70B0403AC060019E36F10B9
:103D1000A00C420C135C0C41935EFC413EC67687BE
:103D20006343072663C10A28B367DC0193FBFBF7F3
:103D3000639B072663990A26834E310963940E001C
:103D40006F102011014C014302C8814C814A1C03B1
:103D5000050C631403006F1010297A56EA5593FD81
:103D60004B08090C32882E8563890D6C02D002CE77
:103D70000143E3860EB2094711B6B2473247A309A1
:103D800001089C439304470099E36F00B07CE3CAA9
:103D90000A423E855686814546CE3EC6EF402053B8
:103DA0002AC803473109B247F24819E16F10405B56
:103DB000B30CF54093C6FCFFFD8633FCDC00E31337
:103DC000074226C67A5602C802D002CE93FD4B089F
:103DD000814A01433288E39E0DA812473307874189
:103DE000E34BE00403473109E31807A8B38A9A417B
:103DF000E35D50AD4168EA5513088868635A54057D
:103E0000D6843EDE9D4DDA8746DC9A8A528B21A00D
:103E1000C114635994024106850523A04701C0C31C
:103E200032DF2EDDA107E3D5BDFE02455019CA855C
:103E3000EF30B0356319055AC1147A56EA55CE876A
:103E4000E34B94FC5A88E2583E8BF2575683A68A7D
:103E50005696850523200B0123225B0132DF2EDDE0
:103E60001D47210BE353B7A602455019CA859AC0D6
:103E70003EDE46DCEF3070316317055613F70B104A
:103E80007A560643F257E2584E8BE30407A4130711
:103E90005006E35F17D71E478E452E453AC33E476F
:103EA0002EC12AC58C18080132DE3EDC9AC082D8A9
:103EB00082DA82DC82DE3AC7EFA04028E2577256EF
:103EC000064363190566EA5741671307470623202F
:103ED000EB000506054785072322EB0032DF3EDDB8
:103EE0001D47210BE347F756EA476247E3D8E70A45
:103EF0001257EA57210B3A962257850732DF232CB7
:103F0000EBFE12573EDD232EEBFE1D47E34EF71E60
:103F1000E247938AF7FFE35B509D4168C14CEA5743
:103F20009D4D9304886863C75C016F10807EC11A41
:103F3000E3D05C574106850723209B0023229B0189
:103F400032DF3EDD210BE3D4FDFE02455019CA8568
:103F5000EF30B023631905487A56EA574E8BC1BF3C
:103F600093F70B0213EE0B01E386070AF28BB247BD
:103F70009D07E19BD8439386870036C603AC0700B4
:103F8000BA8EE35107DAB3378001B30ED041B38E56
:103F9000FE409307D002A309F108330C804163C4AB
:103FA0000A0093FBFBF7639D0E0AA54763EA870BA4
:103FB000130C0C03A30F8117568CE359500D834E3D
:103FC00031090143854C9307F11702C8E3830ED8EA
:103FD000050C41B3B2479C433EC263D7077C92476E
:103FE000B307F0403EC2B24791073EC683480D007A
:103FF00093EB4B006FF03F8193F70B0213EE0B0135
:104000008DEBB2473247A30901089107032C070043
:10401000814EE3C90A643EC6937BFEF7E3170CF8B2
:10402000E3950AF801436DAC93F70B02E3820702B4
:104030005E8EB247A30901089D07E19B13878700A5
:104040003AC603AC070083AE4700E3C10A0A937B7C
:10405000FEF7E39A0AF4B367DC01B1F7014349A420
:10406000B7DCCCCCB7DDCCCC938CDCCC938DCDCC79
:1040700013F80B4081451003C6848DA042571823C6
:10408000930617F099C2E301B73E628376853E86B8
:104090003307DC01B33687013697B336970313DE57
:1040A0002600F19AF296158F3307EC40B336EC00F8
:1040B000B386DE40B3869603B30EB703333E970351
:1040C000F69633079703F296139EF60193DE1600D9
:1040D0000583330CEE0019E16F1000383307DC0163
:1040E000B3368701BA9633B5960385059307F6FF75
:1040F0001353250071991A95898EB306DC40333528
:10410000DC003385AE4033B3960333059503B386A5
:1041100096031A957E058582AA9613952600AA967F
:104120008606B306DC4093860603A30FD6FEE3178C
:1041300008F4628376853E86B1BF93F70B0293E65F
:104140000B016382076CB2479D07E19B13878700D1
:104150003AC6D0439843A309010893FBF6BF63C74F
:104160000A38B367C70093FBF6B763910738639FBC
:104170000A3613FC1600630C0C5493070003A30FBC
:10418000F116E28C02C802D002CE01439307F11768
:104190006FF06FED9307B00283480D00A309F1089B
:1041A0006FF06FE682442685EF4040215C413E85FA
:1041B0003EDAEFF00FD0AA872685BEC2BE84EF405C
:1041C000E01F184583480D003AD8638E04E2630C63
:1041D00007E21C23638907E293EB0B406FF0AFE229
:1041E00083480D0093EB1B006FF0EFE1834731092B
:1041F00083480D00639907E093070002A309F108C3
:104200006FF06FE083480D0093EB0B086FF0AFDFAA
:1042100083480D009307A00293061D006394F800E5
:104220006F106054938708FD2546814A6360F6024B
:1042300013972A0083C80600BA9A860ABE9A938703
:1042400008FD8506E376F6FE63C50A6A368D6FF0D3
:10425000AFDB83480D00930780066380F86A93EB19
:104260000B046FF04FDA324793F70B02110763929A
:10427000075893F70B01E393072A93F70B04E39195
:10428000075013FE0B20E30B0E28B247A2463AC696
:104290009C4394A36FF0AFD083480D009307C006F2
:1042A000638FF86693EB0B016FF0EFD5A1679387EF
:1042B00007833247231AF108B247A30901081843BC
:1042C0009107014663C10A5E13FEFBF7936B2E0054
:1042D000E39D0A24E31B07243EC609439308800795
:1042E000834E3109814A014C814C1C0302C8F9B943
:1042F00093F70B02639A0758B24713F70B01910724
:1043000019C36F10001F324793F60B041843E38A5A
:10431000062A420741833EC6DE8601462DBD8348FC
:104320000D0093EB8B006FF00FCE1247B30D87415A
:104330006359B0D9C14EEA55416863C4BE016F10DC
:10434000E01DEE843EDEEA8DDA879D42568B46DC28
:104350001A8D930A886821A0C11463DB9E0241066E
:10436000850523A0570123A2D70132DF2EDDA10747
:10437000E3D4B2FE02455019CA85EF30006125E54D
:10438000C14EC1147A56EA55CE879D42E3C99EFCC0
:104390005688E258DA8A3E8BF2576A836E8DA68D74
:1043A0006E96850523200B012322BB0132DF2EDD13
:1043B0001D47210B6357B7D002455019CA859AC0D3
:1043C0003EDE46DCEF30605C19ED7A56E258F2577B
:1043D00006434E8B6FF0EFCE02455019CA85EF3081
:1043E000C05A630705D2C245A24481C50245EF40C9
:1043F00060348357C9000324811B8329C11A93F7B2
:104400000704032A811A832A411A032B011A832BDA
:10441000C119032C8119832C4119832DC11899C30B
:104420006F10C03A8320C11B0329011B032D011902
:1044300026858324411B39618280124702D002CE37
:104440003307874101436342E028638A0EC409476A
:104450006FF0CFC202455019CA859AC03EDE46DCD5
:10446000EF30A05249F17A560643F257E2584E8B8C
:104470006FF0AFC4C14CEA57416863C45C016F1070
:10448000600682449D4D930B886921A0C11A63D9AF
:104490005C034106850723207B0123229B0132DF39
:1044A0003EDD210BE3D4FDFE5019CA852685EF3091
:1044B000C04D15F9C11A7A56EA574E8BE3CB5CFD15
:1044C0005E885696850732DF3EDD23200B012322CE
:1044D0005B011D476355F7C202455019CA85EF308D
:1044E000C04AE31205F07A566FF06FC11C039315B2
:1044F000D601937677000D833E852E97938606032B
:104500000D82B365C700A38FD7FEFD17EDF193862B
:1045100006FD89C613F71B00631A072A1803B30C9C
:10452000F740568C63CD9A2902C802D002CE0143CF
:104530006FF06FB36A456357A06662479A8A63401B
:104540006736635F50016A5756962320FB000507C4
:1045500023225B0132DF3ADD9D45210BE3CBE516DB
:1045600013C7FAFF7D87B3FAEA00B30A5341634EDB
:10457000504713F70B40B38D6700631E074AEA4AA2
:10458000624763C6EA0013F71B00E307071A925657
:104590006A579D453696A256050732DF2320DB0079
:1045A00092563ADD210B232EDBFEE3CDE54C62472C
:1045B000BA97B38CB741B30A574163D39A01D68CEB
:1045C000635F90016A5766962320BB01050723228B
:1045D0009B0132DF3ADD9D47210BE3C6E76813C735
:1045E000FCFF7D87B3F7EC00B38AFA40635050B10B
:1045F0004168C14CEA579D4D9304886863C75C01CC
:104600006F102011C11A63D55C694106850723200C
:104610009B0023229B0132DF3EDD210BE3D4FDFE14
:1046200002455019CA85EF304036E31E05DA7A5646
:10463000EA574E8BC1BF6A55C14E4286AA85416872
:10464000E3D8EE603EDED6C0DA879D43BA8446DC0E
:104650001A8B930A886921A0C11463DC9E0241066B
:10466000850523A0570123A2D70132DF2EDDA10744
:10467000E3D4B3FE02455019CA85EF300031E3148C
:1046800005D6C14EC1147A56EA55CE879D43E3C87C
:104690009EFC5A8356883E8BE258F257864A2687FC
:1046A0003A9685052322EB0032DF2EDD23200B0115
:1046B0001D476341B74C03473109210B631D070EAA
:1046C00063810DA0814D6FF08F9D894DB5B7814CF1
:1046D000814A02D002CE014302C81C036FF0AF989A
:1046E000B3F5EB00639F05D22320FB002322EB00F0
:1046F00032DF56DD9D4763D557DB02455019CA8529
:10470000EF30A028E31105CE7A56EA5ACE8D6FF02D
:104710002FD96247854763D5E7D8C547416863C449
:10472000E7006F10C003C14C9D479304886821A027
:10473000411B63D86C654106850A23A09D0023A216
:104740009D0132DF56DDA10DE3D457FF024550191C
:10475000CA85EF308023E31805C87A56EA5ACE8D11
:104760009D47F9B702455019CA853ECEEF30E0218A
:10477000E31B05C67A56EA5AF247CE8D6FF08FCD0D
:1047800002455019CA853ECEEF302020E31D05C4F6
:104790007A56EA5AF247CE8D6FF0EFC993F71B00B5
:1047A000638607946FF0CFF4B24783480D009107FA
:1047B0003EC66FF04F856E87814D6FF02F8C668CF3
:1047C00002C802D002CE01436FF0EF8979151307BA
:1047D00000031403B38CA640A38FE7FE568C63D36B
:1047E0009A01668CAA8702C802D002CE01436FF0FC
:1047F0008F87B247A24622469C43FD863AC690C3A5
:10480000D4C36FE0DFF9B2479107324701463EC695
:10481000184391B2B24791073247F28B3EC6032C40
:104820000700935EFC4176876FF08FCFB247080197
:1048300046C89D07E19BD0438C43A1073EC6EFB01D
:10484000C0510A469A462A47BA47C2486FF04F916C
:1048500093F70B01E39C0748324793F70B04032CB3
:10486000070011073AC6638D0752420CA3090108DD
:10487000135C0C01814E63C80AF233E38A0193FB97
:10488000FBF7631203F2A9BCDE8675B8834E3109CB
:10489000054C0143854C9307F1176FF00FF3BA8A6B
:1048A000E34350CB75B9C16593EB2B003EC69385AE
:1048B00045030943814E930880071C039376F70054
:1048C000AE9694221183FD1794A39316C6013697D2
:1048D0001182B366C700FDF21803B30CF740568C83
:1048E00063D59AEF668C02C86FF04FEEF28B6FF0D3
:1048F0008FEBFD5A368D6FE03FF183481D0093EB3F
:104900000B20050D6FE03FF002455019CA85EF30CE
:10491000C007E31A05AC7A564E8B6FF06FDF834801
:104920001D0093EB0B02050D6FE0FFEDC165938554
:10493000850493F70B02638E0718B2479D07E19B2E
:10494000138787003AC6D043984393F71B00B3669A
:10495000C70099C3639D062CA309010863C00A1A06
:1049600093FBFBB7014363940A00E38B0696834EE7
:104970003109A1B7C1659385450365BF024593051C
:104980000004EF5040772320A9002328A900E30C5E
:104990000562232C811A2326311B2324411B232249
:1049A000511B2320611B232E7119232C8119232ACB
:1049B00091192326B11993070004232AF9006FE007
:1049C0009FDB3E8546C83EC6EFE0BFCE03473109B8
:1049D0009346F5FFFD86B247C248AA8C337CD500CA
:1049E000630107BE050C6FF0CFBDC1486A5741682F
:1049F000E3D0585BD6849D4CBE8D1ADC930A886840
:104A000021A0C11463DB98464106050723205B0102
:104A100023221B0132DF3ADD210BE3D4ECFE0245F9
:104A20005019CA85EF207076E31F059A7A566A57A7
:104A30004E8BC148F9B772478256558FE30E075423
:104A400062475EDEE2C0EAC46E8C964BF24A825D3B
:104A5000425DC168DA86938888681D48C14C3EDC97
:104A6000338BE7006345B0077D1DFD1AEA575257A7
:104A70005E96850798C223A2760132DF3EDDA1064D
:104A80006349F81883450D00B3048B415A8763D3FB
:104A90009500AE84635F9000EA55269632DF850567
:104AA00023A08601C4C22EDD6348B82483450D00CF
:104AB000A10613C5F4FF7D85B3F7A400B384F540C8
:104AC000634390042E9CE34F50F9635AB075FD1D6B
:104AD00071BFB246324793F70B01910636C61843B1
:104AE00081EF93F70B0489C7420741830146B1BDAB
:104AF00093F70B20639B0746014681BD93FBFBBFE9
:104B00000143814E5DBBC162EA559382826863D6E0
:104B10009C043ACE46D021A0C11463DE9C0241061B
:104B2000850523A0160123A2960132DF2EDDA10602
:104B3000E354B8FE02455019CA85EF201065E3140E
:104B4000058AC167C1147A56EA55CE86938887686C
:104B50001D48E3C69CFC724782522696850532DFCB
:104B60002EDD23A05600C4C2634AB87483450D00ED
:104B7000A10689BF02455019CA859AC03EDE46DCAF
:104B8000EF20B060E3110586034731097A56E258F9
:104B9000F25706436300071E6E87EA55814D4E8B20
:104BA0006FE0DFCD6A57C165938545062320BB00C2
:104BB0000506854505072322BB0032DF3ADD9D450A
:104BC000210B63CBE52E6247498F6305073292566E
:104BD0006A579D453696A256050732DF2320DB0033
:104BE00092563ADD210B232EDBFE63C9E532E34505
:104BF000050AE24605072320FB00369632DF3ADD40
:104C00002322DB009D4763C4E7006FE01FCE6FF0F7
:104C10004F8B02455019CA85EF203057631505FCAC
:104C2000C1677A56CE86938887681D48A1BD9307D1
:104C30000003A30A1109A3090108230AF10863C7A5
:104C40000A2213FEFBB7834E3109936B2E000943F2
:104C5000ADB102455019CA85EF203053631505F8F0
:104C60007A564E8B6FF04FA863980E702547636598
:104C7000877118032ECCB30CF740A688568C63D3EB
:104C80009A01668C834E3109014302C86FF00FB45C
:104C900026885696850732DF3EDD23200B0123222E
:104CA0005B011D476344F7006FE03FC46FF06F8105
:104CB0000E479E478C183AC13EC32E47BE47080197
:104CC00082D882DA82DC82DE3AC53EC7EF9040624B
:104CD000C24893FBFBF76347055C930770040347E7
:104CE000310963C9172DC16793874702631A0714F7
:104CF0008D4C668C6FF00F8D02455019CA853ACEE7
:104D0000EF20B048631105EEC16783450D007A5668
:104D10007247CE86938887681D4861BBB247A2461A
:104D20009C4394C33AC66FE09FA7C165834E310987
:104D30003EC693854503094393088007BDBEFA57D5
:104D4000A244638807EA02455019CA85EF20F04360
:104D50006FF02FEA9947568C63EC5719C16726C646
:104D60009387C70502C8E28C814A02D002CE014374
:104D70006FE07FAF638D0D1CEA55814D4E8B6FE068
:104D80001FB226885A96850A32DF56DD23A00D0110
:104D900023A26D019D4763C457016FE05FF0B1BA74
:104DA00013F30B20A30901086315031C814E63CE86
:104DB0000A9E93FBFBF7639A0A9E63030CD26FF083
:104DC000CF9E93F60B20638D06181377F70F3EC620
:104DD000DE8601466FF02FB813F70B20630C071621
:104DE000620C135C8C41935EFC413EC676876FE09B
:104DF0003FF313E70B10FD573AC88E4E1E4FAE42DD
:104E0000BE4C638DFA1A93079CFB99E363810A2ACF
:104E100063CB0C7002DC7DA2BE4FB707008093FB12
:104E2000FBF733F3FF00630403169307D002A309D3
:104E3000F1089307700463D0177DC1679387070358
:104E400002C88D4C814A02D002CE0143114C6FE062
:104E50009FA102C8814C02D002CE01431C03014C29
:104E60006FE07FA03EC6F28B6FF02F9413FEFBBF66
:104E7000936B2E000943814E89B462535688EE87A6
:104E8000A68A5696050723200B0123225B0132DFF9
:104E90003ADD9D45210B63DEE5EC02455019CA85DC
:104EA0001ADE3EDCEF20702E631F05D27A56725355
:104EB000E2574E8B6FF0EFEB02455019CA853ECE9C
:104EC000EF20B02C631105D26A457A56F2474E8B1B
:104ED000DDB902455019CA851ADE3EDCEF20F02A02
:104EE000631305D07A567253E2574E8B6FF04FE73B
:104EF0003E8CADB513F71B0019E36FE03F9F925650
:104F00006A579D453696A256050732DF2320DB00FF
:104F100092563ADD2322DB0063D4E538024550196E
:104F2000CA853ECEEF207026631F05CA6A457A56B1
:104F30006A57F2474E8B65B96247BA97B38CB7414F
:104F4000B30A574163DD9AE9D68C6FF04FE94E8B77
:104F50006FE03F97935EFC413EC676876FE05FDC73
:104F60003EC6DE8601466FF00F9F1377F70F0146AE
:104F7000E9BA137CFC0F814EE3D10A906FF0AF8247
:104F8000B247A2463AC69C4396A36FE05F8193075F
:104F900070040347310963DC1765C1679387070312
:104FA000E31807008D4C668C814A02D002CE02C8FD
:104FB0006FE07F8BC167938787020DBB63C40C567C
:104FC00002DC994A93076004631DFC3002457C09AA
:104FD0003809D6860C011308010A0D4646DE76C153
:104FE00076D07AC37ACE16C516CC66C7EF301017C6
:104FF000142113070003E242724F825EF258AA871F
:10500000B3045501638AE664EA4D08018C183ECE6C
:1050100066C746CC76C17AC316C582D882DA82DCEE
:1050200082DEEF90A011F247B38CB4016E83631659
:1050300005603387FC403ACC13F71B0033675701F8
:10504000635A606A631207609A8C9308600613FEC5
:105050000B4063140E5693C6FCFFFD8633FCDC0048
:105060006257630207421307D002A309E108050C47
:10507000C24B814A02C802D002CE6FE0CFFE930736
:1050800080076FE0FF92024593851A0046C8EF50F3
:105090008006C248AA87630405703E472AC88E4628
:1050A0001E46AE456349074E02DC6FE0DF9202DC2C
:1050B00063D90C00B7070080B3CCFC009307D00283
:1050C0003EDC0245930D01087C09EE851308010AB8
:1050D000380985460946C6C076C176DE7AC37AD0DD
:1050E00016C516CE66C7EF307007F242025FF25E59
:1050F0008648854AAA8756CC13F71B00630107141C
:105100006E858C183ED046CE76C17AC316C566C76A
:1051100082D882DA82DC82DEEF904002F248825747
:1051200063000562E2460A57B38CD7006379976B38
:10513000130600039306170036D110A30A57E36B3A
:1051400097FF1D8F930670043ACC6A43630DDC0E03
:1051500013076004E302ECEE1307F3FF2302110BC5
:105160003ACD634A07549306B002A302D10AA5467A
:1051700063DDE6545ECE02C8930E310B37DECCCC35
:105180007685130EDECC130F3006B336C7033A888C
:10519000AA857D158D821396260036960606118FF8
:1051A00013070703A38FE5FE3687E3400FFF13873E
:1051B0000603A30FE5FE1387E5FF6378D75D1305AC
:1051C000610AAA86102305078506A38FC6FEE31B86
:1051D000D7FF2A9709070D8F5411158F3AD6E2464B
:1051E00032560547B38CC6006350D7361257BA9C67
:1051F000724793C6FCFFFD86137EF7BF137327002B
:10520000625733FCDC00936B0E1063060732930E7B
:10521000D002A309D109814A050C6FE09FB3E28D4A
:105220006AD8E257F25B064C264D368B6379B7B5E8
:10523000BA8D6FF0CFB4E246AC266FE07F960A5786
:105240006A431D8F3ACC1327D3FF19E363D46A0056
:10525000F91819B762476341E32A13F71B009A8CC8
:1052600001C71257B30CE30013FE0B4063040E009A
:105270006343603493C6FCFFFD8633FCDC00930877
:105280007006F9BB02455019CA853ECEEF20E06F8B
:10529000631B0594EA4A7A56F2474E8B6FF02FB1A2
:1052A000210B81BA9307D002A309F1089307700478
:1052B00063DD172DC1679387870259B602455019E0
:1052C000CA853ACEEF20606C631F0590C1678345A5
:1052D0000D007A567247CE86938887681D486FF016
:1052E0006FFE9307BCFB024593B71700D697930D4B
:1052F00001083ECCBE8638097C09EE851308010AF8
:105300000946C6C076C176DE7AC37AD016C516CEF7
:1053100066C7EF30A06413077004F242025FF25ECA
:105320008648AA87E30AECDC2AD08C186E8546CE24
:1053300076C17AC316C566C782D882DA82DC82DE7D
:10534000EF80D05FF248825763050548E2460A576E
:10535000B38CD700E36E97DD1D8F6A433ACCEDBB6B
:1053600026C663020724138C1A00D68C02D0814A09
:1053700002CE01436FE02FCF1647D25576CEB386CB
:10538000E7403A86368542CC36C8EF20B07BF24EF5
:1053900037D6CCCC1306D6CC3307DC01B337870124
:1053A0003E97B335C70237D5CCCC1305C5CCC25711
:1053B000C25662489C33B337F00093D82500F19968
:1053C000C6950D8F3307EC40B335EC00B385BE4076
:1053D0003305A702B697C2463ED89387F6FFB3853A
:1053E000C502AA953335C7023307C702AA9513959C
:1053F000F50193DE150085450583330CE500330781
:10540000DC01333587012A973335C70293582500CD
:1054100071994695098F3307EC403335EC0033859D
:10542000AE40B338C7023305C5023307C70233069F
:1054300015017E060583329713162700329706075B
:105440003307EC4013070703A38FE6FE6FE01FC38B
:10545000130888696FF0CFA42547637467006FE075
:10546000FFC76FF01F8102455019CA85EF20E05138
:1054700019C16FE05FF7EA4AE2477A564E8BB38A6A
:1054800057416FF0CF9503473109E30307BE050C81
:10549000C5B65E8E6FF04FB8C155B30AA0404168E3
:1054A0006350B532C14C9D4D3ECE9304886821A017
:1054B000C11A63D05C0B4106050723209B00232201
:1054C0009B0132DF3ADD210BE3D4EDFE024550199A
:1054D000CA85EF20804B19C16FE0FFF07A566A57FA
:1054E0004E8BF9B7130888696FE0BFFD5E8E6FE0E1
:1054F0005FB1DE866FF06FB1624792569308700617
:10550000B30CD700E34560B4338F6C40930C1F009D
:1055100093C6FCFFFD8633FCDC0099B6130888684F
:105520006FE01FE8994AB7070080B3CCFC009307EF
:10553000D0023EDC41BC834E3109814A63840E00B7
:105540006FE01FA96FE0FF807247058BE30207CA77
:1055500071B9F24726885696050732DF3ADD2320D7
:105560000B0123225B019D45E3DCE5D20245501986
:10557000CA853ECEEF20604119C16FE0DFE67A5662
:105580006A57F2474E8B6FF0CFE6C16793874702A9
:1055900045B802C87C0A37050080298F1305D00260
:1055A0002ADC6FE04FC3D68C568C02D0814A02CEE3
:1055B00001436FE04FAB93087006425718239306E0
:1055C00017F0638A062063586720C256014581455B
:1055D00001A885058506130617F015C663556702F1
:1055E0003303E340983275F798220505EDB7C1679C
:1055F0009387C70275B2C1679387C7026FF05F8454
:10560000A2446FE01FDF36D896463307B5002ECE92
:105610003307D7022AD0BA9C625793C6FCFFFD8697
:1056200033FCDC0071CF1307D002C24BA309E108A1
:10563000050C02C8814A6FE00FA30A57E248E369EC
:1056400097AF1D8F3ACC29B61257338F6A00930853
:105650006006B30CEF00E5BA08018C183ECE46CCCC
:1056600076C17AC316C566C782D882DA82DC82DE4A
:10567000EF80D02CE248F24771E56A43B38C6400B6
:105680004DBA938CFAFF025BB258F257064D264989
:10569000E29A62871306000363D40C006FE08FD098
:1056A0000507A30FC7FEE39DEAFE33079C01130C19
:1056B00017006FE02FCF1307D002A302E10AE156D3
:1056C000054733076740E347D3AA93060003230344
:1056D000D10A5ECE02C89306710A6FE0EFCF1307BE
:1056E000D002A302E10AE1560547118FE346D6A88E
:1056F0006FE04FCE1DE3054CE28C930860068DB23F
:105700000347310935CFC24B050C02C8814A6FE00F
:105710008F95130888686FF0CFD7125793086006EB
:10572000130F1700B30C5F0193C6FCFFFD8633FC1B
:10573000DC003DB2C166138746033ACC6FE02FB25E
:105740006A4311B6854F0A57B38F5F417ECD938C64
:105750001700E36F979D1D8F7E833ACCF1B8130835
:1057600088686FF02FE2B24783AA0700910763D3DE
:105770000A00FD5A83481D003EC6368D6FE0AF8893
:10578000C24B814A02C86FE00F8E09473AD681BCEE
:10579000130888686FF0EFEE62473E9741BC83576D
:1057A000C900A24493E707042316F9006FE07FC401
:1057B000814A02D002CE02C88D4C114C6FE0AF8AF4
:1057C0001308886849BB0247B1471CC3FD546FE00A
:1057D0007FC56A4351B2014702D002CE2DBD1D8F55
:1057E0006A433ACC8DB402D002CE6FE0CF872171EC
:1057F000232E111A232A911A2328211B2328A119A9
:1058000036C6328DAE842A89EF20503B1C413E853E
:105810003ED4EFD01FEA2AD282C163070900832752
:10582000490399E36F1040420397C400FC50096696
:105830009316270163C80600F976FD16518FF58F80
:10584000DAA4FCD013972701635407006F10F04EC1
:105850008397C40013F787006302071E9848630FFD
:10586000071CE98B29476388E71EC1672326311B84
:105870002324411B9309C10D456A9387876A232C12
:10588000811A2320611B2322511B232E7119232CE3
:105890008119232A91192326B11902DF02DD4EDB7B
:1058A0004E8B3ECA130A4A8102CC02D602D882C26B
:1058B00002DA02C4414426C283470D00EA8A1387F4
:1058C000B7FD29C3A1C3568C83C71A00850A81C7B7
:1058D0001387B7FD6DFBB38CAA416385AA03FA5702
:1058E0006A552320AB01E697050523229B013EDF85
:1058F0002ADD9D47210B63C5A718A247E6973EC442
:1059000083471C0099E36F10804183C81A00138DF0
:105910001A00A3090108FD5A02C0814B130CA0050F
:10592000050D938708FE636DFC0252478A07BA97FC
:105930009C438287938708FD02C0A5460247024622
:1059400083480D000A0732970607BA973EC093872F
:1059500008FD050DE3F4F6FE938708FEE377FCFCF3
:10596000639408006F10A03B854C230E1111A3090E
:105970000108668C02C8814A02D002CE01437C0A2B
:105980007A5693FD4B08328863840D5003473109E2
:1059900031C3EA550147130531092320AB00050641
:1059A000054585052322AB0032DF2EDD1D45210B89
:1059B000634CB53805C3EA5558092320EB000906A6
:1059C000094785052322EB0032DF2EDD1D47210B21
:1059D000E345B74013070008E38DED2CB38A9A41E5
:1059E0006345504D13F70B10631E07542320FB0033
:1059F000EA57669632DF850723229B011D473EDD6D
:105A0000634FF740210B13FE4B0063070E008247E4
:105A1000B38A8741E343503F024363538301628368
:105A2000A2479A973EC4E31D0632C24702DD89C7EA
:105A3000C2454A85EF2010504E8BBDBDA6854A85D4
:105A4000EF20607A19C16F10502F8397C400294747
:105A5000E98BE39CE7E08397E400E3C807E0B24604
:105A60006A86A6854A85EF1070672AC46F00F033F6
:105A700083480D0075B583480D0093EB0B024DB5BF
:105A8000924550194A85EF10106E19C16F1090435E
:105A90004E8BA5B593F78B00E399076AB2470801CF
:105AA00046C89D07E19BD0438C43A1073EC6EFA0AB
:105AB000C02A0A469A462A47BA47C248880146C8B9
:105AC000BEC7B2C1B6C3BAC5EF3040022ACD8947BE
:105AD000C2486314F5006F10E01D85476314F5009C
