:040000006F10006617
:100004000000000000000000A00000203E050020C9
:10001400A9BDF9F3A00000200000000000000000CA
:10002400A0000020A000002000000000000000004C
:10003400A000002000000000A0000020000000003C
:10004400A0000020A0000020A0000020A0000020AC
:10005400A0000020A0000020A0000020000000005C
:10006400A000002008060020A0000020A00000201E
:10007400A0000020A0000020A0000020A00000207C
:10008400A000002030060020A0000020A0000020D6
:10009400A00000202E070020A0000020A0000020C7
:1000A40001A0B7170040984B4111C107136707011E
:1000B40098C303C707001377E70F2380E7001307EC
:1000C400800873370780137787083AC60F1000003B
:1000D4003717004013070704930670052300D70061
:1000E400930680FA2300D7000F100000B7160040D3
:1000F400B046B705000695054D8EB0C6B71600404C
:1001040003C6B6041376F60DA385C604B7160040DD
:1001140003C6A600136626012385C600B716004051
:10012400130650142394C600B726004003C6568015
:100134001376F60EA382C680B72600400946A38331
:10014400C680371600408346E60493F6C60F93E64E
:1001540016002307D604B716004003C6F60213663A
:100164002600A387C60283C6070093E616002380F1
:10017400D70023000700B247F3A707800F10000041
:1001840041018280EFF0FFF1130580239705000001
:100194009385850A171600001306464C63FAC500BA
:1001A4008322050023A0550011059105E3EAC5FE4D
:1001B40017F500E01305C51C971500009385054A43
:1001C40017260000130646CF63FAC50083220500F4
:1001D40023A0550011059105E3EAC5FE1385C187E7
:1001E400973500009385C5ED6377B500232005009E
:1001F4001105E36DB5FE93025002739002BC8D426B
:10020400739042808542739012BC9302800873906D
:100214000230970200009382E2DE93E23200739090
:100224005230971200E09382627473901234730018
:040234002030000076
:10023800411122C683A7018891C783A701888297A5
:1002480023A001883244410173002030B7F707002A
:10025800D853411123AEE186B7170040984B136776
:10026800070198CB03C707011377E70F2388E70037
:1002780093078008F3B7078093F787083EC60F10E7
:100288000000B7170040130770052380E704130721
:1002980080FA2380E7040F1000009307000C631C0A
:1002A800F502B717004003D78700498F2394E7006A
:1002B800B717004003C70701136717002388E70033
:1002C800B717004023800704B247F3A707800F1031
:1002D800000041018280B717004003C7A70093764A
:1002E8000520A907C9C6118B39E73717004003460F
:1002F800E7048345E70493E535002307B70403C7FC
:100308000700136747002380E700B717004003D7AB
:10031800870083D5870093E5050C2394B700A5478C
:100328000100FD1793F7F70FE5FFB7170040239477
:10033800E7002387C70493770510E9C7B71700407C
:1003480003C7A700136707012385E700B727004005
:100358001377F5019387578005E303C707001367F1
:1003680007012380E700B72700401D4715A0136742
:1003780027002380E700C1B725466363E60603C765
:1003880007001377F70E2380E700B72700400547DB
:10039800A383E780B71700401367050C2394E70091
:1003A8002394A700B7170040D9CA03C757049387F7
:1003B800570483C70700418B858BD98FE39A07EED3
:1003C800B717004083C72701C18BE38307EEB71730
:1003D800004003C7A7001377D70F2385E700C9BDDF
:1003E8001377050119EB03C707001377F70E23806E
:1003F800E700B7270040094761BF03C70700137725
:10040800F70E85B7B7270040137785019387578084
:1004180001EF03C707001377F70E2380E700B7271C
:10042800004013071005ADB703C707001377F70E91
:100438002380E700B72700401307700591BF03C763
:10044800A7001377B70F51BF37E700E01C435443A9
:100458007D56A183E206D58F9306071890C2D0C2B5
:10046800B7060020370600209386060013064623A9
:1004780003A8860390DE23A0A18891652320B710E6
:100488002320B72083A50188F5FD11662320C7180E
:100498000F10000023AC0603939687002320D71083
:1004A800E1832322F71082800111814601468145AC
:1004B800114506CEEF00906893078008F3B70780D0
:1004C80093F787083EC60F100000B71700409387C0
:1004D8000704130770052380E700130780FA2380B9
:1004E800E7000F100000371700408346670493E6C3
:1004F80016002303D70423800700B247F3A7078019
:100508000F100000F2400561828037E700E01C43CD
:100518005443A183E206D58F1CC1FD572320F71849
:100528002322F718828013178500B7E700E023A07D
:10053800E710618123A2A7108280411181460146FC
:1005480081451145EF00905F13078008F337078056
:10055800F98F3EC40F100000B717004093870704B7
:10056800130670052380C700930680FA2380D700FE
:100578000F100000B71500407D552396A502238073
:100588000700A245F3A505800F1000007337078008
:10059800137787083AC60F1000002380C70023800E
:1005A800D7000F100000371700408346670493E612
:1005B80016002303D70423800700B247F3A7078058
:1005C8000F10000001A09307E0043305F5029547DA
:1005D8003355F50201007D1575FD8280411122C455
:1005E80006C62A847D1442041305803E4180E13FFB
:1005F80075F8B2402244410182802E96AA870F7076
:10060800B6788280B737004003C7678093876780D2
:10061800058B19CB05472380E7009387C1CB03D708
:10062800C70005072396E70073002030011122CE8A
:1006380002C42316010023070100B747004083C7FF
:1006480047801947BD8B638CE7003147638FE70606
:1006580011476382E7027244056173002030B7478F
:10066800004083C557803D651305C583971000E09A
:10067800E7808064CDB737460040B72500201D4786
:100688009387C1CB13068680938545EF1305F03F0A
:1006980083D64700138816002392070103480600F3
:1006A800AE962380060183D647006374D500239253
:1006B80007007D171377F70F61FF03D767001D0742
:1006C8002393E7002396070079B720002285971027
:1006D80000E0E7802019372600209375F50F0147C1
:1006E8009387C1CB130646EF1308F03F9376F70FB5
:1006F80063E8B60003D767001375F50F2A97C9B7E3
:1007080083D647009388160023921701B308E400A4
:1007180083C80800B2962380160183D64700637405
:10072800D800239207000507D1B7797122D63794EC
:10073800004026D44AD24ED052CE56CC83478400AD
:10074800379700400347970093F607012104E38099
:10075800062C9376070193777700E395060A0547F9
:10076800E382E7021147E382E7066394077AB797C3
:10077800004003C7F7099387F709218B6307077AB6
:10078800373500209309C5F183C7090003D729002D
:10079800238FF18883C7190003D64900A38FF188F6
:1007A80083D76900239CF188239EE188239DC18813
:1007B80083CAE18993FA0A06638E0A1A03C6E18995
:1007C8009305000213760606631CB60C83C6F189EE
:1007D8002D4613F7F60F6360D60205CF7D17137702
:1007E800F70FA94663E7E602B9660A079386C67853
:1007F80036971843028793071002631CF700B72542
:1008080000201D469385C5E34E85971000E0E780DC
:10081800005483C7E18903D78189E207E18763DA56
:10082800076C9307000463E4E70083D7818903D743
:1008380081891D8F239CE18837970040231EF70884
:10084800BA871947238FE7086DAD23960188D1B77A
:100858002396018803D781899307F00313060004C0
:1008680063E6E70003D681894206418281454E85C9
:10087800971000E0E780E0E269BF83D7C189A183D0
:10088800A387F18879B783D7C1892387F18851B7BE
:1008980083C7F1882380F900ADBF83C7E188DDBF36
:1008A80083C7E1891306000493F70706639DC70A07
:1008B80083C7E189E207E18763DF070403C6F1899B
:1008C800930700026319F60403D6A18991476314BC
:1008D800F60403D781899307800263F4E700239C19
:1008E800F18803D781899307F0031304000463E6B2
:1008F800E70003D48189420441803D6A130ACA9AF9
:100908002286D2854E85971000E0E78040445294B5
:1009180023A0818AFDBD83C7E189E207E18763D40B
:10092800070483C6F18993070002639EF60203D782
:10093800A18995476319F70203D78189A94763F409
:10094800E700239CF18803D781899307F0031304F8
:10095800000463E6E70003D48189420441803D6ACC
:10096800130A0A9A71BF83C7E189E207E187E3D2D4
:1009780007EACDB583C6F189AD4513F6F60F63ECEA
:10098800D52CB965931626009385857BAE9694423F
:10099800828603D4C1899D46218063E086021DC4F6
:1009A8007D14420441801947636187023967130740
:1009B800877E0A043A94184002879307100263025C
:1009C800F41E93072002630EF41A0144930AF00FF1
:1009D80085A0BD67938707BB23A0F18A03C40700DE
:1009E80081A8B797004083C7A700E207E18763D5CE
:1009F800070885472389F18893070020239AF188FF
:100A080089452394B18803D78188998F2395F188E4
:100A180003C7218985476319F706BD679387C7B35D
:100A280003C4370003C7270023A0F18A2204598C86
:100A380083D781896374F400239C818803D78189D3
:100A48009307F0031304000463E6E70003D48189E5
:100A58004204418083A5018A22864E852EC69710BE
:100A680000E0E780C02EB245A29523A0B18A930783
:100A7800F00FE390FADAC5A22389018893070004EE
:100A8800239AF1888545B5BFBD67938787AC49BF71
:100A980083D7C189114793F7F70F636FF700FD17E5
:100AA800C207C1830D476364F7023D678A071307CE
:100AB8004780BA979C4382871307E00EE397E7F0D5
:100AC800BD679387479D23A0F18A494495B79387CB
:100AD800818719B7BD67938787A8FDBDBD679387D1
:100AE80047A5DDBDBD67938707A4FDB5BD6793879F
:100AF800479FDDB5BD679387879EF9BD83C621896A
:100B08000547639FE602BD67938787AC03C4370038
:100B180003C72700BD652204598C3715002013062A
:100B2800E4FF9385A5AC13052569971000E0E780DD
:100B38000022B71700209387076923A0F18ACDBD4B
:100B480083C7218993FAF70FE39107E8BD67938775
:100B5800C7B303C4370003C72700BD652204598CF7
:100B6800371500201306E4FF9385E5B31305657078
:100B7800971000E0E780A01DB71700209387477003
:100B88006DBF03C7218985476319F700BD67938740
:100B980007AB23A0F18A554461BDBD67938787A938
:100BA800CDBF83D7A189E39207E203C7218985478F
:100BB8006316F700BD679387E7B439BDBD679387B0
:100BC800A7AD19BD83D7C189238BF18899B183C794
:100BD80071892380F90003D781898547E3FBE7C240
:100BE800239CF1883DB183D7C189A38BF188054740
:100BF8002388E18839B983C6E189FD8A99EE83D7CC
:100C0800C189054793F7F70F6397E70483C71189ED
:100C180093F7E70FA388F188EDBE83C6E1890946FB
:100C2800FD8A639AC60283D7C18993F7F70F85E7D0
:100C380083D7A1891307100893F7F70F6387E70491
:100C48006363F7020D476387E7041547638EE7047C
:100C580005476387E702379700409547230FF70852
:100C6800A30FF70879AC13074008638AE702130754
:100C78006008E392E7FEB7970040238B070A51BE4E
:100C8800B7970040A381D70A69B6B7970040238178
:100C9800070A41B6B7970040A385D70A9DBEB79704
:100CA80000402387070AB5B6B7970040A389D70A3B
:100CB8008DB683C6E189FD8AD1E683D6C18905460A
:100CC80093F6F60F639AC60283C721896398D70003
:100CD800BD6783C737B493F7070291EB83C72189B0
:100CE800BDFBBD6783C7F7AC93F70702ADD783C7D2
:100CF800118993E7170039BF83D7C189894693F7CC
:100D0800F70FE39AD7F483D6A18993070010638479
:100D1800F60283D6A18993070020638EF60083D656
:100D2800A189930700306388F60003D7A189930748
:100D38000040E310F7AE83C7418A93E707F82382A0
:100D4800F18AC1BC83C6E1890946FD8AE393C6AC32
:100D580083D7C18993F7F70FE39D07AA83D7A189A2
:100D68001307100893F7F70F638BE7046366F7021E
:100D78000D476381E70615476384E7080547E39C49
:100D8800E7EC379700408347370A93F7C70F93E795
:100D98001700A301F70AB5BC130740086387E704E7
:100DA80013076008E399E7EA379700408347670B22
:100DB80093F7C70F93E71700230BF70A99BC3797E8
:100DC80000408347270A93F7C70F93E717002301CB
:100DD800F70A81B4379700408347B70A93F7C70FDC
:100DE80093E71700A305F70A2DB437970040834708
:100DF800E70A93F7C70F93E717002307F70A11BC11
:100E0800379700408347370B93F7C70F93E71700CF
:100E1800A309F70AFDBA2380090075BB83C7E189D6
:100E2800231E05F08946FD8B639AD70A83D7A189CB
:100E38001307100893F7F70F6382E7066366F70254
:100E48000D476389E70615476380E7080547638E02
:100E5800E7021306F00F03D78189894763F4E70097
:100E6800239CF188B28A21B1130740086389E704FB
:100E780013076008638FE70413072008E39BE7FC68
:100E8800B797004083C7670A31A8379700400347E0
:100E9800370A0D8B6314F7002380E900B7970040E9
:100EA80083C7270A8D8B0547E397E7FA8547238091
:100EB800F90055B7B797004083C7B70AE5B7B797A2
:100EC800004083C7E70AF9BFB797004083C7370BCD
:100ED800D1BFB797004083C7670BE9B783C7E189DC
:100EE800FD8BB5FB83C71189858BB5D72380D900C6
:100EF8009DB7994705EB37970040231E0708230F36
:100F0800F708B797004003C7F7091377F707A38FC8
:100F1800E7083254A25412598259724AE24A45618A
:100F2800730020303797004025BB23800700B79710
:100F3800004003D7C70783C7E189420793F707062D
:100F480041838DCB239C018883C7F18913377700B0
:100F580093F7F70F05E3811791EFB7350020372591
:100F680000201D469385C5F11305C5E3971000E0E1
:100F7800E780E0DD83D78189C9F7B7970040239ED2
:100F88000708C1B0B797004003C7370A9387370AE5
:100F9800418B1DC337970040035707082393E18807
:100FA80003C70700134747002380E70003C707006C
:100FB8001377C70F2380E700B797004003C7370AA6
:100FC8001377F707A381E70AA9B7B797004003C7C4
:100FD800F70A9387F70A418B09CF03C7070013471E
:100FE80047002380E70003C707001377C70F238054
:100FF800E700B797004003C7F70A1377F707A387F7
:10100800E70A01BF8D466385D71C118B31E7D9C725
:101018000947E390E7F0B79700402392070A03C710
:10102800670A134747002383E70A03C7670A13774A
:10103800C70F2383E70A138741ED8346270093F6FA
:10104800E60F2301D7002382018803C7670A1377B5
:10105800F7072383E70A75BD1547E39CE7EAB797C7
:1010680000402398070A03C7270B13474700238923
:10107800E70A03C7270B1377C70F2389E70A1387E4
:1010880041ED8346570093F6E60FA302D70003C746
:10109800270B1377F7072389E70AA5BD83D781892B
:1010A80091E7B79700401947A38FE70883C7E189FD
:1010B80093F70706DDC783C7E1891307000293F793
:1010C8000706639DE70603C7F18985476318F70696
:1010D80003D781899307F0039304000463E6E700CC
:1010E80083D48189C204C18083D5C188938741CDC7
:1010F80037350020BE9526861305C5F1971000E008
:10110800E780E0C483D78189858F239CF18883D7C2
:10111800C188A6972396F188B7970040239E970821
:1011280003C7E70913474700238FE70803C7E70901
:101138001377C70F13672700238FE70883C7418AF0
:10114800E207E18763D60700971000E0E780A08BED
:10115800B797004003C7E7091377F707238FE70816
:101168004DBB83C7F189954613F7F70F6386D704FC
:101178009947631AF70403D781899307F003930407
:10118800000463E6E70083D48189C204C18003A90F
:10119800018A373500202686CA851305C5F19710C0
:1011A80000E0E780C0BA83D78189269923A0218BE4
:1011B800858F239CF1888DB783C761893797004055
:1011C800A301F700A5BFB7970040239E0708BDB746
:1011D800B79700402394070A03C7A70A1347470095
:1011E8002385E70A03C7A70A1377C70F2385E70AEA
:1011F800138741ED8346370093F6E60FA301D70026
:1012080003C7A70A1377F7072385E70A19B313F764
:10121800070411C7930700042300F400DDB913F78E
:10122800270015CB89472300F400B797004003C770
:10123800A700118B11CB03C7118913672700A38857
:10124800E18883C71189F1B103C711891377D70FD3
:10125800A388E1887DB913F717005DDFA38B0188A8
:10126800238B0188A388018823880188B7970040C9
:10127800A3810700971000E0E780E085854769BFF4
:101288002303048015472303E48001002302A4807C
:10129800828083076480E3CE07FE23030480828074
:1012A80083076480E3CE07FE03454480828083077A
:1012B8006480E3CE07FE2302A4808280411126C405
:1012C8004AC24EC006C61377F50BAD47AA892E89C8
:1012D80095446306F70019456537653F8D444E858B
:1012E8004537FD59FD1463983401B240A2441249B0
:1012F800824941018280135509011375F50F453F55
:101308002209CDB7011126CC06CEB7040800513703
:101318001545BD37713769372AC6A53F32459377DA
:10132800150089EB136515001375F50FF240E244BB
:1013380005618280FD14E9FC0145CDBF3971B7F71D
:10134800070006DE26DC4ADA4ED852D656D45AD2E0
:101358005ED062CE03AB47027D57B7E700E083AAB1
:10136800070022C603AA470023A0E71823A2E7180C
:10137800B71B0040930770052380FB04930780FA8E
:101388002380FB0483C74B041147AA8993E7070E00
:101398002382FB04372400401305F00F2303E48065
:1013A8002E8C3289B684E93DED35938779FF93F722
:1013B800F70F0947137BFB006362F712A147370752
:1013C80008006307FB00B70707003E9C3787070044
:1013D8007955637EEC02B3878401636AF702A947F3
:1013E8006398F90689E481446D3526850DA0E28568
:1013F8000945E93505090345F9FFFD14050C453D87
:1014080081C49377FC0FFDF7F53D69FD7D55B7174E
:101418000040130770052380E704130780FA238030
:10142800E70403C74704418B2382E704F250B7E778
:1014380000E023A0571123A24711E2543244525925
:10144800C259325AA25A125B825B724C2161828065
:10145800A547639AF906A1478569631DFB0293872F
:10146800F9FFB3869700B374FC00B69493C7F7FFEF
:10147800FD8C33FC8701416B856B9387F9FFB3F7CC
:10148800870199E363FF340193D94900C147E3E633
:1014980037FF91BF9307F00FE9B78567C169FD175B
:1014A800C9B71305800D63886901130500026384B9
:1014B800790113051008E2851135A93521D94E9C0B
:1014C800B3843441C1B7E2852D45CD3BCA94E30CC2
:1014D80099F00509F133A30FA9FED5BF9387F9FF4A
:1014E80093F7F70F636FF70AA1476319FB06B7076E
:1014F80008003E9C83C75B043707070093F7070281
:1015080099E337870700B70708003E977955E370D6
:10151800ECF0B3079C00E36CF7EE8947639AF90493
:101528008980D549E38104ECE2850945413B1109ED
:101538000327C9FF91472320E48003076480E34E13
:1015480007FE23033481FD17EDFBFD14110C81C444
:101558009377FC0FE9FF7D3371F54DBD83C75B04BD
:101568003707070093F70702D5F33787070079BFD6
:101578008547E384F9F2E2852D4589339389F4FFA1
:10158800E38304E6313B93F7390091EB832604802B
:101598000327090093074900E398E6E43E89CE84CF
:1015A800F1BFB5476396F9001305900BD13925BDF6
:1015B800B1471305B00AE38BF9FE99476394F90420
:1015C800A1476315FB00B70708003E9CE2852D453F
:1015D800F53181440D4BA149E131639664018327BC
:1015E80004802320F9008504E39834FF83270480CE
:1015F80013172C01635507002312F900EDB32322BA
:10160800F900D5B39D476399F90281451305B004E4
:101618007531BD442320090023220900FD594931B1
:1016280093F77400CA9703C70700FD14398D238008
:10163800A700E39634FF45BB91476399F90013056A
:1016480060063D39B931130590098DB7E38D09D886
:04165800F15459BB35
:1016600097110020938181FD17F1012013018199C9
:101670001305400097F5FF1F9385C59817F6FF1FC8
:10168000130686BB63FAC5008322050023A055001C
:1016900011059105E3EAC5FE17F5FF1F1305C5AE59
:1016A00002853D432A876373C3029377F700BDEF3A
:1016B000ADE5937606FF3D8ABA960CC34CC30CC7C2
:1016C0004CC74107E36BD7FE11E28280B306C340EB
:1016D0008A069702000096966780A6002307B70047
:1016E000A306B7002306B700A305B7002305B7007C
:1016F000A304B7002304B700A303B7002303B70074
:10170000A302B7002302B700A301B7002301B7006B
:10171000A300B7002300B700828093F5F50F9396DE
:101720008500D58D93960501D58D61B793962700D9
:101730009702000096968682E78086FA9680C11707
:101740001D8F3E96E374C3F8A5B7914763E4B706CF
:10175000BD67938787828A05BE959841B717004079
:101760009387470B028798431345F5FF698F98C30A
:10177000B71700409387070B9843698F98C3B71733
:1017800000409387070A9843798D88C382809443E9
:101790001347F5FFF98E94C3B71700409387070BE3
:1017A0009443C98E94C3B71700409387070A9443A4
:1017B000758F98C382809843498F98C3B7170040AC
:1017C0009387070B98431345F5FF45BF9443134791
:1017D000F5FF758F98C3B71700409387070A9843A2
:1017E000498FC1BF9843498FF5B7B717004003D75A
:1017F0008701E10709C54D8F2390E700828093C5DB
:10180000F5FF6D8FD5BF411122C406C62A84592029
:101810002947B307E502B2408D83B3D7870222443C
:101820009507B3D7E702373700402316F700410189
:101830008280716541111305052006C6E937B73767
:101840000040130770F82381E7000D47A381E700EC
:1018500013070004A380E70005472387E700B24091
:101860004101828037470040B74600408147130757
:10187000A780938686800346070009E61395070133
:101880004181828083C506003306F5008507230069
:10189000B600D5B7B717004003D787002165930678
:1018A000000C1377070CA107130505D06300D704BC
:1018B00003D70700137707101DCB03D7070083D783
:1018C00007007D8B09EF3725F40093F707201305F8
:1018D000054089CF3755E80113050580828037C55B
:1018E0009812FD8B130505E03345F502828003D77E
:1018F000070083D7070013770720FD8B11C73755E3
:10190000E80113050580CDB73725F4001305054020
:10191000E1BFB7260020AA8703A586E3373700205A
:101920001307C70BAA9763EAE7000A87130707FCA8
:101930006365F70023ACF6E282807D558280411119
:1019400006C622C4B7170040116423AC870AC145FC
:101950000545613D85452165CD3B22858D45F533A6
:101960002244B2404101F1B541111305503406C67D
:1019700022C497F0FF1FE780E08DD1370545CD22C7
:10198000B7E700E01307000223A2E71001441305A4
:10199000803E97F0FF1FE780E0C405042285B92848
:1019A000FDB7357186DE2EC332C536C73AC93ECB88
:1019B00042CD46CF29C183C7018995CF2A865401DC
:1019C00093050006080836C6312E6356A002930719
:1019D000F00563D5A700A30701063E85938741ED77
:1019E00083C75700858B81EB13160501854641821D
:1019F0000C0815451924F6500D618280AA853D65B5
:101A00001305858479BF83C7418A93F7F70723823B
:101A1000F18A83D6A189130700106399E602B7976C
:101A2000004003C757001377070FA382E70003C7DF
:101A3000570013671700A382E700B797004003C75A
:101A40005700136707F8A382E700828083D6A18935
:101A500013070020639FE600B797004003C75700B5
:101A60001377070FA382E70003C757001367270008
:101A7000D9B783D6A18913070030639FE600B797D3
:101A8000004003C757001377070FA382E70003C77F
:101A900057001367870045B703D7A1899307004014
:101AA000E31DF7F8B797004003C7570093065003AC
:101AB0001377070FA382E700371700201307876506
:101AC000F8C72396D70A89462387D70A03C7570042
:101AD000136747008DB7B79700401307D0022398CC
:101AE000E7004D472399E70013070004F8CF3E872E
:101AF000930700203CD37CD33CD77CD73CDBB73763
:101B000000209387C7F11CD3B73700209387C7D134
:101B10005CD39387414E7CC39387412E3CC7938708
:101B2000410E1CDB938741EE3CCB230F070889470E
:101B3000A30FF708A301F70A2303070A2305070ADF
:101B4000A307F70A2309070A8147138741EDC14616
:101B50003306F700230006008507E39BD7FE82804B
:101B6000411122C406C6379400409307042029C5BA
:101B700011472380E700B717004003D7A701136779
:101B80000702239DE700A5472300F4001307F00593
:101B90002301E40089370547A300E400930780FB95
:101BA0002300F40013070002B7E700E023A2E710C8
:101BB000B24022444101828003C707001377B70F68
:101BC0002380E700B7170040984F1377F7FD98CFB1
:101BD000834704001307000293E727002300F40063
:101BE0008347040093F7D70F2300F400B7E700E022
:101BF00023A2E7180F10000065BF01119307F5FF3E
:101C000026CA06CE22CC4AC84EC693F7F70F3947EC
:101C10008544636BF706B797004083D707010547F4
:101C2000B318A70093F7F70FB3F71701BA84A9CF3A
:101C3000138941EDB307A90083C40700F98CA9E417
:101C4000B2892A84B1EAB72700109387F740AA9790
:101C50008A078CC322998347090093E71700230062
:101C6000F900B7271010938777423305F4000A056F
:101C7000231035018347250093F7C70F2301F50093
:101C800093E727002301F500F24062444249B2493C
:101C90002685D24405618280639EE600B727001046
:101CA0009387F740AA978A078843B70700203E9595
:101CB00079284DB7BA84C9BF03A3C180397132D422
:101CC00036D62ED23AD83EDA42DC46DE8325830071
:101CD00054102A861A8506CE36C6EF20A025F2407B
:101CE000216182801971A6DA86DE83A4C18063CB6C
:101CF00005043337B0004178AA873387E540A2DC7A
:101D0000130888202E8426852C003EC43ECC82D623
:101D10003AC83ACE42CA0522FD576340F50211E4A3
:101D20006654F650D65409618280A247238007008A
:101D30006654F650D654096182809307B0089CC05F
:101D400065D0E5B79307B0089CC07D55D9BFB3C730
:101D5000A5008D8BB308C500B1E71336460039E204
:101D6000937735002A87CDE713F6C8FFB306E64020
:101D70009307000263C4D704AE86BA876371C702B3
:101D800003A806009107910623AE07FFE3EAC7FE0A
:101D90007D16198E719A91051107B2953297636677
:101DA000170182802A87E37E15FF83C70500050798
:101DB0008505A30FF7FEE39AE8FE8280944183A293
:101DC000450083AF850003AFC50083AE050103AEB8
:101DD000450103A3850103A8C50114C3945113074A
:101DE0004702232057FE232ED7FE2322F7FFB306F8
:101DF000E6402324E7FF2326D7FF2328C7FF232A13
:101E000067FE232C07FF93854502E3C9D7FAADB7D8
:101E100083C60500050793773700A30FD7FE850516
:101E2000A1D783C60500050793773700A30FD7FE18
:101E30008505F9FF15BF2171232E111A2328211BB7
:101E40002328A1192E89328D36C6232A911A2AC039
:101E5000EF40B0501C413E853ED4EF40F06C8357BC
:101E6000C9002AD282C193F7070891C783270901C5
:101E700099E36F10E023232C811A2326311B23249E
:101E8000411B2322511B2320611B232E7119232C5C
:101E90008119232A91192326B119BD679309C10D10
:101EA0003D6A938747CC02DF02DD4EDB4E8B3ECA94
:101EB000130A0AE302CC02D602D882C202DA4144F3
:101EC00002C483470D00EA8A1387B7FD29C3A1C363
:101ED000568C83C71A00850A81C71387B7FD6DFB2F
:101EE000B38CAA416385AA03FA576A552320AB0134
:101EF000E697050523229B013EDF2ADD9D47210B46
:101F000063CBA714A247E6973EC483471C0099E31E
:101F10006F10205683C81A00138D1A00A3090108F8
:101F2000FD5A02C2814B130CA005050D938708FED4
:101F3000636DFC0252478A07BA979C438287938756
:101F400008FD02C2A5461247124683480D000A0743
:101F500032970607BA973EC2938708FD050DE3F452
:101F6000F6FE938708FEE377FCFC639408006F108D
:101F70004050854C230E1111A3090108668C02C83C
:101F8000814A02D002CE01437C0A7A5693FD4B0867
:101F9000328863890D560347310931C3EA55014739
:101FA000130531092320AB000506054585052322CD
:101FB000AB0032DF2EDD1D45210B634EB53405C36A
:101FC000EA5558092320EB00090609478505232215
:101FD000EB0032DF2EDD1D47210BE345B73A130737
:101FE0000008E38CED26B38A9A41634A505313F7F5
:101FF0000B106313075C2320FB00EA57669632DF61
:10200000850723229B011D473EDD6341F73E210BDF
:1020100013FE4B0063070E009247B38A8741E343E8
:1020200050391243635383016283A2479A973EC497
:10203000E31C062CC24702DD89C7C2450245EF40BA
:10204000D06F4E8BBDBD83480D00C5B583480D00D4
:1020500093EB0B02D9BD02455019CA85EF40400AE7
:1020600019C16F10504E4E8B71BD93F78B00E387F3
:10207000076EB24732479C4311073AC69043D44398
:102080009847DC47880146C8BEC7B2C1B6C3BAC5C7
:10209000EF5000262ACD8947C2486314F5006F101F
:1020A000603485476314F5006F10404A13FCF8FD57
:1020B000930710046304FC006F10E04693070003CD
:1020C000230AF10813071006930780056394E800BC
:1020D0006F10606EA30AF1089307300663D45701AE
:1020E0006F10E06D3E478E461E46AE4563540700B6
:1020F0006F10303E02DC02C87C0A930D0108BEC09E
:10210000B2DA93E72B00AEDC6E858C18300946DE20
:102110003ECEB6D8BADEEF4070472A470A469A4606
:10212000BADC3A47B2D8B6DA9010B706FC3F8C1842
:102130006E85B6D6BADE82D082D282D4EFA0303499
:102140000A4E1A482A468C186E8572D642D032CC76
:1021500082D882DA82DC82DEEFA01008BA4B6246B7
:102160000258325EF258864719E1854636CD93060D
:1021700010066394D8006F105050BD6613874688D0
:102180003ACC5AD0DE8CCAC4E2443E8C46D63EDEFF
:10219000EAC0428BB28B72890DA08C186E854AC141
:1021A0005AC35EC566C782D882DA82DC82DEEFA0BF
:1021B000B00219E16F105041FD1AB70703409010AB
:1021C0008C186E85BED6CAD8DADADEDCE6DE82D0BE
:1021D00082D282D4EFA0B02A6E85EFC0402CAA85AF
:1021E0002A8D6E858A4C9A4B2A4B3A49EFC0A0340F
:1021F000AA470A469A46BECCBA47B2C88C10900885
:102200008818E6D0DED2DAD4CAD6B6CABECEEFB0CF
:10221000804DB387A40183C60700E285050C4659AB
:10222000565BE65BF65CA30FDCFEE3980AF6B25859
:10223000F2574A8E5A885E86AE84E68BB70AFE3F16
:102240008C186E85C6C63ED62649EA8C72C1064DEC
:10225000F2C442C3C2C032C532DE5EC782D882DA5F
:1022600082DCD6DEEFA07003025BB257B648634E45
:10227000A0008C186E8546D0EFA000768258B25729
:1022800031E593FC1C0063830C04624726D10346AE
:10229000FCFF8345F7006287639EC50013050003BA
:1022A000A30FA7FE0A579306F7FF36D10346F7FFA1
:1022B000E388C5FE930516001305900393F5F50F0B
:1022C0006314A6006F10E06AA30FB7FE6A46138777
:1022D000F8002302E10AB306FC401307F6FF3ACDEB
:1022E00036CC635407006F10F0339306B002A3029C
:1022F000D10AA54663D4E6006F10A05B9306610A7D
:10230000130707032380E6001803998E1387D60D61
:102310003AD66F10806002455019CA859AC4BEC073
:1023200046DE3ADCEF30D05D6317057E7A562643F1
:102330008647F25862574E8B59B1EA5AE246054732
:102340003A96BA9A930D8B00E354D72C0547232273
:10235000EB002320FB0032DF56DD1D47E34A5735F3
:102360001257850A56DD3A96225732DFA10D23AC6B
:10237000EDFE125723AEEDFE1D47E34D57312E47BC
:102380000E459E453ED03AC5E2473E472AC12EC380
:1023900008018C1832CE82D882DA82DC82DE3AC71B
:1023A000138BF7FFEFA040637246E30C05288257BA
:1023B000850A5A96850756DD32DF23A0FD0023A249
:1023C0006D019D47E3C35727A10DB257B25658116F
:1023D0003E9693871A0023A0ED0032DF3EDD23A254
:1023E000DD001D47138B8D00E354F7C202455019E1
:1023F000CA85EF30F050631005727A564E8B09B9DA
:10240000B247854CA30901089C43230EF110B24743
:1024100091073EC6A5B693F70B02639F0726B24706
:1024200013F70B01910719C36F10A07AB24613F787
:102430000B0403AC060019E36F10400D420C135C53
:102440000C41935EFC413EC676876343072663C119
:102450000A28B367DC0193FBFBF7639B07266399AC
:102460000A26834E310963940E006F10C011014C8F
:10247000014302C8814C814A1C03050C631403000C
:102480006F10D02A7A56EA5593FD4B08090C328812
:102490002E85638C0D6C02D002CE0143E3830EB215
:1024A0000947FDBCB2473247A30901089C43930486
:1024B000470099E36F00507DE3CF0A423E85568680
:1024C000814546CE3EC6EF40205A2AC8034731090F
:1024D000B247F24819E16F10805CB30CF54093C627
:1024E000FCFFFD8633FCDC00E318074226C67A5663
:1024F00002C802D002CE93FD4B08814A01433288C4
:10250000E39B0DA8124733078741E34EE0040347DE
:102510003109E31507A8B38A9A41E35A50AD3D68E3
:10252000EA55130808E3635A5405D6843EDE9D4DF0
:10253000DA8746DC9A8A528B21A0C114635994022F
:102540004106850523A04701C0C332DF2EDDA10768
:10255000E3D5BDFE02455019CA85EF30703A631CC1
:10256000055AC1147A56EA55CE87E34B94FC5A8833
:10257000E2583E8BF2575683A68A5696850523204D
:102580000B0123225B0132DF2EDD1D47210BE350BF
:10259000B7A602455019CA859AC03EDE46DCEF3028
:1025A0003036631A055613F70B107A560643F25766
:1025B000E2584E8BE30107A413075006E35F17D7D9
:1025C0001E478E452E453AC33E472EC12AC58C185C
:1025D000080132DE3EDC9AC082D882DA82DC82DEFA
:1025E0003AC7EFA0603FE25772560643631C056688
:1025F000EA573D671307078A2320EB0005060547C6
:1026000085072322EB0032DF3EDD1D47210BE34C23
:10261000F756EA476247E3DBE70A1257EA57210B0E
:102620003A962257850732DF232CEBFE12573EDD08
:10263000232EEBFE1D47E343F720E247938AF7FF83
:10264000E358509D3D68C14CEA579D4D930408E303
:1026500063C75C016F105000C11AE3D55C57410697
:10266000850723209B0023229B0132DF3EDD210BC7
:10267000E3D4FDFE02455019CA85EF307028631C73
:1026800005487A56EA574E8BC1BF93F70B0213EEFB
:102690000B01E389070AF28BB2479D07E19BD84300
:1026A0009386870036C603AC0700BA8EE35107DA7B
:1026B000B3378001B30ED041B38EFE409307D002F2
:1026C000A309F108330C804163C40A0093FBFBF7B4
:1026D000639D0E0AA54763EA870B130C0C03A30F37
:1026E0008117568CE35C500D834E31090143854CB4
:1026F0009307F11702C8E3830ED8050C41B3B24724
:102700009C433EC263DA077C9247B307F0403EC267
:10271000B24791073EC683480D0093EB4B006FF024
:10272000DF8093F70B0213EE0B018DEBB2473247BC
:10273000A30901089107032C0700814EE3CE0A6428
:102740003EC6937BFEF7E3170CF8E3950AF80143C6
:10275000C1A493F70B02E38507025E8EB247A3097B
:1027600001089D07E19B138787003AC603AC070069
:1027700083AE4700E3C60A0A937BFEF7E39A0AF4A6
:10278000B367DC01B1F7014361A4B7DCCCCCB7DDA2
:10279000CCCC938CDCCC938DCDCC13F80B40814505
:1027A0001003C68495A0425703470700930617F00D
:1027B00099C2E305B73E628376853E863307DC0126
:1027C000B33687013697B336970313DE2600F19AA6
:1027D000F296158F3307EC40B336EC00B386DE403B
:1027E000B3869603B30EB703333E9703F6963307CB
:1027F0009703F296139EF60193DE16000583330CC1
:10280000EE0019E16F1040393307DC01B336870160
:10281000BA9633B5960385059307F6FF1353250043
:1028200071991A95898EB306DC403335DC00338507
:10283000AE4033B3960333059503B38696031A95DA
:102840007E058582AA9613952600AA968606B3066B
:10285000DC4093860603A30FD6FEE31608F46283DA
:1028600076853E86B1BF93F70B0293E60B01638436
:10287000076CB2479D07E19B138787003AC6D04398
:102880009843A309010893FBF6BF63C90A38B367ED
:10289000C70093FBF6B76393073863910A3813FCBC
:1028A0001600630E0C5493070003A30FF116E28C7D
:1028B00002C802D002CE01439307F1176FF0EFEC8C
:1028C0009307B00283480D00A309F1086FF0EFE50C
:1028D00082442685EF4060285C413E853EDAEF4029
:1028E000A044AA872685BEC2BE84EF4000271845B3
:1028F00083480D003AD8638A04E2630807E28347FD
:102900000700638407E293EB0B406FF00FE283480C
:102910000D0093EB1B006FF04FE1834731098348B3
:102920000D00639407E093070002A309F1086FF01C
:10293000CFDF83480D0093EB0B086FF00FDF834868
:102940000D009307A00293061D006394F8006F101A
:10295000E055938708FD2546814A6360F602139788
:102960002A0083C80600BA9A860ABE9A938708FD91
:102970008506E376F6FE63C80A6A368D6FF00FDBD4
:1029800083480D00930780066383F86A93EB0B047A
:102990006FF0AFD9324793F70B02110763930758D3
:1029A00093F70B01E396072A93F70B04E394075080
:1029B00013FE0B20E30E0E28B247A2463AC69C43F4
:1029C0002380D7006FF0EFCF83480D009307C00638
:1029D0006381F86893EB0B016FF02FD5A1679387A4
:1029E00007833247231AF108B247A30901081843A5
:1029F0009107014663C10A5E13FEFBF7936B2E003D
:102A0000E39F0A24E31D07243EC609439308800779
:102A1000834E3109814A014C814C1C0302C8E1B943
:102A200093F70B02639A0758B24713F70B0191070C
:102A300019C36F100020324793F60B041843E38C40
:102A4000062A420741833EC6DE8601461DBD8348F5
:102A50000D0093EB8B006FF04FCD1247B30D874104
:102A60006353B0D9C14EEA553D6863C4BE016F10CF
:102A7000E01EEE843EDEEA8DDA879D42568B46DC10
:102A80001A8D930A08E321A0C11463DB9E0241065C
:102A9000850523A0570123A2D70132DF2EDDA10730
:102AA000E3D4B2FE02455019CA85EF30606525E5D2
:102AB000C14EC1147A56EA55CE879D42E3C99EFCA9
:102AC0005688E258DA8A3E8BF2576A836E8DA68D5D
:102AD0006E96850523200B012322BB0132DF2EDDFC
:102AE0001D47210B6351B7D002455019CA859AC0C2
:102AF0003EDE46DCEF30C06019ED7A56E258F25700
:102B000006434E8B6FF02FCE02455019CA85EF3029
:102B1000205F630105D2C245A24481C50245EF4052
:102B2000C0418357C9000324811B8329C11A93F72D
:102B30000704032A811A832A411A032B011A832BC3
:102B4000C119032C8119832C4119832DC11899C3F4
:102B50006F10203C8320C11B0329011B032D011989
:102B600026858324411B39618280124702D002CE20
:102B70003307874101436342E02863840EC4094759
:102B80006FF00FC202455019CA859AC03EDE46DC7E
:102B9000EF30005749F17A560643F257E2584E8B10
:102BA0006FF0EFC3C14CEA573D6863C45C016F101E
:102BB000600782449D4D930B08E421A0C11A63D99C
:102BC0005C034106850723207B0123229B0132DF22
:102BD0003EDD210BE3D4FDFE5019CA852685EF307A
:102BE000205215F9C11A7A56EA574E8BE3CB5CFD99
:102BF0005E885696850732DF3EDD23200B012322B7
:102C00005B011D47635FF7C002455019CA85EF306D
:102C1000204FE31205F07A566FF0AFC01C039315F6
:102C2000D601937677000D833E852E979386060313
:102C30000D82B365C700A38FD7FEFD17EDF1938614
:102C400006FD89C613F71B00631A072A1803B30C85
:102C5000F740568C63CD9A2902C802D002CE0143B8
:102C60006FF0AFB26A456359A06662479A8A6340C3
:102C70006736635F50016A5756962320FB000507AD
:102C800023225B0132DF3ADD9D45210BE3CDE516C2
:102C900013C7FAFF7D87B3FAEA00B30A53416340D2
:102CA000504913F70B40B38D67006310074CEA4A95
:102CB000624763C6EA0013F71B00E309071A92563E
:102CC0006A579D453696A256050732DF2320DB0062
:102CD00092563ADD210B232EDBFEE3C4E54E62471C
:102CE000BA97B38CB741B30A574163D39A01D68CD4
:102CF000635F90016A5766962320BB010507232274
:102D00009B0132DF3ADD9D47210BE3CEE76813C715
:102D1000FCFF7D87B3F7EC00B38AFA40635A50AFEB
:102D20003D68C14CEA579D4D930408E363C75C01BD
:102D30006F108012C11A63D75C6941068507232092
:102D40009B0023229B0132DF3EDD210BE3D4FDFEFD
:102D500002455019CA85EF30A03AE31E05DA7A56CB
:102D6000EA574E8BC1BF6A55C14E4286AA853D685F
:102D7000E3D0EE623EDED6C0DA879D43BA8446DCFD
:102D80001A8B930A08E421A0C11463DC9E02410659
:102D9000850523A0570123A2D70132DF2EDDA1072D
:102DA000E3D4B3FE02455019CA85EF306035E31411
:102DB00005D6C14EC1147A56EA55CE879D43E3C865
:102DC0009EFC5A8356883E8BE258F257864A2687E5
:102DD0003A9685052322EB0032DF2EDD23200B01FE
:102DE0001D476343B74C03473109210B631D070E91
:102DF000638B0D9E814D6FF0CF9C894DB5B7814C93
:102E0000814A02D002CE014302C81C036FF0EF9743
:102E1000B3F5EB00639C05D22320FB002322EB00DB
:102E200032DF56DD9D4763D257DB02455019CA8514
:102E3000EF30002DE31105CE7A56EA5ACE8D6FF0B1
:102E4000CFD86247854763D2E7D8C5473D6863C49A
:102E5000E7006F102005C14C9D47930408E321A0B3
:102E6000411B63DA6C654106850A23A09D0023A2FD
:102E70009D0132DF56DDA10DE3D457FF0245501905
:102E8000CA85EF30E027E31805C87A56EA5ACE8D96
:102E90009D47F9B702455019CA853ECEEF3040260E
:102EA000E31B05C67A56EA5AF247CE8D6FF02FCD56
:102EB00002455019CA853ECEEF308024E31D05C47B
:102EC0007A56EA5AF247CE8D6FF08FC993F71B00FE
:102ED000638007946FF06FF4B24783480D00910749
:102EE0003EC66FF08F846E87814D6FF06F8B668C5E
:102EF00002C802D002CE01436FF02F897915130763
:102F000000031403B38CA640A38FE7FE568C63D353
:102F10009A01668CAA8702C802D002CE01436FF0E4
:102F2000CF86B247A24622469C43FD863AC690C34E
:102F3000D4C36FE01FF9B2479107324701463EC63E
:102F4000184381B2B24791073247F28B3EC6032C39
:102F50000700935EFC4176876FF02FCFB2470801E0
:102F600046C89D07E19BD0438C43A1073EC6EFB006
:102F700000690A469A462A47BA47C2486FF08F90BE
:102F800093F70B01E394074A324793F70B04032CA2
:102F9000070011073AC6638F0752420CA3090108C4
:102FA000135C0C01814E63C50AF233E38A0193FB83
:102FB000FBF7631F03F0A9BCDE8665B8834E3109B9
:102FC000054C0143854C9307F1176FF0AFF2BA8AB5
:102FD000E34350CB75B9BD6593EB2B003EC693859B
:102FE00005870943814E930880071C039376F700F9
:102FF000AE9683C606001183FD172380D700931673
:10300000C60136971182B366C700EDF21803B30C00
:10301000F740568C63D09AEF668C02C86FF0AFED24
:10302000F28B6FF0EFEAFD5A368D6FE03FF0834888
:103030001D0093EB0B20050D6FE03FEF024550198B
:10304000CA85EF30E00BE31805AC7A564E8B6FF073
:10305000CFDE83481D0093EB0B02050D6FE0FFEC04
:10306000BD659385458893F70B02638E0718B247B9
:103070009D07E19B138787003AC6D043984393F797
:103080001B00B366C70099C3639D062CA309010802
:1030900063C00A1A93FBFBB7014363940A00E389F8
:1030A0000696834E310991B7BD659385058765BF47
:1030B000024593050004EF50B0052320A900232802
:1030C000A900E3050564232C811A2326311B232440
:1030D000411B2322511B2320611B232E7119232CFA
:1030E0008119232A91192326B11993070004232A51
:1030F000F9006FE09FDA3E8546C83EC6EF30D04209
:10310000034731099346F5FFFD86B247C248AA8CB2
:10311000337CD500630C07BC050C6FF02FBDC14894
:103120006A573D68E3D9585BD6849D4CBE8D1ADC46
:10313000930A08E321A0C11463DB98464106050702
:1031400023205B0123221B0132DF3ADD210BE3D474
:10315000ECFE02455019CA85EF20907AE31D059ACE
:103160007A566A574E8BC148F9B772478256558FC7
:10317000E307075662475EDEE2C0EAC46E8C964BF8
:10318000F24A825D425DBD68DA86938808E31D4895
:10319000C14C3EDC338BE7006345B0077D1DFD1A53
:1031A000EA5752575E96850798C223A2760132DF0E
:1031B0003EDDA1066349F81883450D00B3048B4139
:1031C0005A8763D39500AE84635F9000EA552696D4
:1031D00032DF850523A08601C4C22EDD6348B824F2
:1031E00083450D00A10613C5F4FF7D85B3F7A40048
:1031F000B384F540634390042E9CE34F50F9635E23
:10320000B075FD1D71BFB246324793F70B019106B1
:1032100036C6184381EF93F70B0489C742074183F1
:103220000146B1BD93F70B20639B0746014681BD64
:1032300093FBFBBF0143814E4DBBBD62EA559382B8
:1032400002E363D69C043ACE46D021A0C11463DECB
:103250009C024106850523A0160123A2960132DFB8
:103260002EDDA106E354B8FE02455019CA85EF20B1
:103270003069E312058ABD67C1147A56EA55CE86D5
:10328000938807E31D48E3C69CFC7247825226964A
:10329000850532DF2EDD23A05600C4C2634FB8740B
:1032A00083450D00A10689BF02455019CA859AC001
:1032B0003EDE46DCEF20D064E31F0584034731097E
:1032C0007A56E258F25706436300071E6E87EA55A6
:1032D000814D4E8B6FE0DFCC6A57BD659385058AC3
:1032E0002320BB000506854505072322BB0032DFEE
:1032F0003ADD9D45210B63CBE52E6247498F63057F
:10330000073292566A579D453696A256050732DF18
:103310002320DB0092563ADD210B232EDBFE63C90E
:10332000E532E34B050AE24605072320FB0036960B
:1033300032DF3ADD2322DB009D4763C4E7006FE004
:103340001FCD6FF0AF8A02455019CA85EF20505B40
:10335000631305FCBD677A56CE86938807E31D4844
:10336000A1BD93070003A30A1109A3090108230AB9
:10337000F10863C70A2213FEFBB7834E3109936B32
:103380002E0009439DB102455019CA85EF205057C0
:10339000631305F87A564E8B6FF0AFA7639D0E70DE
:1033A0002547636A877118032ECCB30CF740A688B3
:1033B000568C63D39A01668C834E3109014302C84F
:1033C0006FF06FB326885696850732DF3EDD2320E7
:1033D0000B0123225B011D476344F7006FE03FC3ED
:1033E0006FF0CF800E479E478C183AC13EC32E47E0
:1033F000BE47080182D882DA82DC82DE3AC53EC747
:10340000EF90C078C24893FBFBF7634C055C9307D1
:1034100070040347310963CA172DBD679387078678
:10342000631A07148D4C668C6FF06F8C024550192F
:10343000CA853ACEEF20D04C631F05ECBD678345AB
:103440000D007A567247CE86938807E31D4861BB0C
:10345000B247A2469C4394C33AC66FE09FA6BD659F
:10346000834E31093EC6938505870943930880073B
:10347000ADBEFA57A244638607EA02455019CA85D1
:10348000EF2010486FF0EFE99947568C63EC57191D
:10349000BD6726C69387878902C8E28C814A02D01D
:1034A00002CE01436FE07FAE638D0D1CEA55814D66
:1034B0004E8B6FE01FB126885A96850A32DF56DDA3
:1034C00023A00D0123A26D019D4763C457016FE046
:1034D000BFEFA1BA13F30B20A30901086315031C66
:1034E000814E63C90A9E93FBFBF763950A9E6301B5
:1034F0000CD26FF02F9E93F60B20638D0618137776
:10350000F70F3EC6DE8601466FF0AFB713F70B200C
:10351000630C0716620C135C8C41935EFC413EC643
:1035200076876FE09FF213E70B10FD573AC88E4E77
:103530001E4FAE42BE4C638EFA1A93079CFB99E372
:1035400063830A2A63C10C7202DC45AABE4FB70727
:10355000008093FBFBF733F3FF006305031693072B
:10356000D002A309F1089307700463D9177DBD67E2
:103570009387C78602C88D4C814A02D002CE014390
:10358000114C6FE09FA002C8814C02D002CE0143D3
:103590001C03014C6FE07F9F3EC6F28B6FF08F9350
:1035A00013FEFBBF936B2E000943814E3DBC62535B
:1035B0005688EE87A68A5696050723200B012322FC
:1035C0005B0132DF3ADD9D45210B63DCE5EC024512
:1035D0005019CA851ADE3EDCEF209032631D05D2F9
:1035E0007A567253E2574E8B6FF0AFEB024550198B
:1035F000CA853ECEEF20D030631F05D06A457A568B
:10360000F2474E8BDDB902455019CA851ADE3EDC01
:10361000EF20102F631105D07A567253E2574E8B6C
:103620006FF00FE73E8CADB513F71B0019E36FE0A9
:103630003F9E92566A579D453696A256050732DF41
:103640002320DB0092563ADD2322DB0063D9E538E4
:1036500002455019CA853ECEEF20902A631D05CA47
:103660006A457A566A57F2474E8B65B96247BA97F0
:10367000B38CB741B30A574163DB9AE9D68C6FF03C
:103680000FE94E8B6FE03F96935EFC413EC6768716
:103690006FE0BFDB3EC6DE8601466FF08F9E13777C
:1036A000F70F0146E9BA137CFC0F814EE3DF0A8E67
:1036B0006FF00F82B247A2463AC69C432390D700D0
:1036C0006FE03F80930770040347310963D41767A5
:1036D000BD679387C786E31007028D4C668C814ACD
:1036E00002D002CE02C86FE05F8ABD67938747862B
:1036F00005BB63C90C5602DC994A93076004631149
:10370000FC3202457C093809D6860C011308010AEF
:103710000D4646DE76C176D07AC37ACE16C516CC73
:1037200066C7EF30F0238346050013070003E2422B
:10373000724F825EF258AA87B30455016381E66630
:10374000EA4D08018C183ECE66C746CC76C17AC3D6
:1037500016C582D882DA82DC82DEEF90E027F2475B
:10376000B38CB4016E83631D05603387FC403ACC93
:1037700013F71B00336757016351606C63190760CF
:103780009A8C9308600613FE0B4063180E5693C67E
:10379000FCFFFD8633FCDC0062576306074213071B
:1037A000D002A309E108050CC24B814A02C802D02D
:1037B00002CE6FE08FFD930780076FE0BF91024557
:1037C00093851A0046C8EF50A014C248AA87630B1D
:1037D00005703E472AC88E461E46AE45634D074ECD
:1037E00002DC6FE09F9102DC63D90C00B707008018
:1037F000B3CCFC009307D0023EDC0245930D0108D8
:103800007C09EE851308010A380985460946C6C0B9
:1038100076C176DE7AC37AD016C516CE66C7EF308B
:103820003014F242025FF25E8648854AAA8756CC7F
:1038300013F71B00630407146E858C183ED046CE28
:1038400076C17AC316C566C782D882DA82DC82DE88
:10385000EF908018F248825763070562E2460A57E4
:10386000B38CD7006370976D13060003930617009F
:1038700036D12300C7000A57E36A97FF1D8F9306CE
:1038800070043ACC6A43630FDC0E13076004E30153
:10389000ECEE1307F3FF2302110B3ACD63400756FA
:1038A0009306B002A302D10AA54663D3E6565ECEC4
:1038B00002C8930E310B37DECCCC7685130EDECCEE
:1038C000130F3006B336C7033A88AA857D158D825B
:1038D0001396260036960606118F13070703A38F4B
:1038E000E5FE3687E3400FFF13870603A30FE5FECF
:1038F0001387E5FF637ED75D1305610AAA86034639
:10390000070005078506A38FC6FEE31AD7FF2A978F
:1039100009070D8F5411158F3AD6E24632560547E6
:10392000B38CC6006352D7361257BA9C724793C6FF
:10393000FCFFFD86137EF7BF13732700625733FC2D
:10394000DC00936B0E1063080732930ED002A309BC
:10395000D109814A050C6FE07FB2E28D6AD8E25747
:10396000F25B064C264D368B6373B7B5BA8D6FF09C
:103970000FB4E24683C5A6006FE01F950A576A435D
:103980001D8F3ACC1327D3FF19E363D46A00F918CB
:1039900009B762476342E32A13F71B009A8C01C7F9
:1039A0001257B30CE30013FE0B4063040E00634494
:1039B000603493C6FCFFFD8633FCDC009308700680
:1039C000E1BB02455019CA853ECEEF2060736314F7
:1039D0000594EA4A7A56F2474E8B6FF04FB0210BAE
:1039E00099B29307D002A309F1089307700463DE2C
:1039F000172DBD6793874786B5BE02455019CA8506
:103A00003ACEEF20E06F63180590BD6783450D0047
:103A10007A567247CE86938807E31D486FF0CFFD34
:103A20009307BCFB024593B71700D697930D010887
:103A30003ECCBE8638097C09EE851308010A09468A
:103A4000C6C076C176DE7AC37AD016C516CE66C7F2
:103A5000EF30007113077004F242025FF25E864895
:103A6000AA87E307ECDC2AD08C186E8546CE76C197
:103A70007AC316C566C782D882DA82DC82DEEF801E
:103A8000B075F248825763090548E2460A57B38C7D
:103A9000D700E36B97DD1D8F6A433ACCDDBB26C6AA
:103AA00063030724138C1A00D68C02D0814A02CEFD
:103AB00001436FE08FCD1647D25576CEB386E740EF
:103AC0003A86368542CC36C8EF30A001F24E37D662
:103AD000CCCC1306D6CC3307DC01B33787013E9735
:103AE000B335C70237D5CCCC1305C5CCC257C256A7
:103AF000624883C71700B337F00093D82500F199C7
:103B0000C6950D8F3307EC40B335EC00B385BE404E
:103B10003305A702B697C2463ED89387F6FFB38512
:103B2000C502AA953335C7023307C702AA95139574
:103B3000F50193DE150085450583330CE500330759
:103B4000DC01333587012A973335C70293582500A6
:103B500071994695098F3307EC403335EC00338576
:103B6000AE40B338C7023305C5023307C702330678
:103B700015017E0605833297131627003297060734
:103B80003307EC4013070703A38FE6FE6FE0BFC1C6
:103B9000130808E46FF0CFA32547637467006FE054
:103BA000BFC66FF05F8002455019CA85EF204055AF
:103BB00019C16FE05FF6EA4AE2477A564E8BB38A44
:103BC00057416FF0CF9403473109E30F07BC050C51
:103BD000E1BE5E8E6FF04FB7C155B30AA0403D689D
:103BE0006353B532C14C9D4D3ECE930408E321A0F2
:103BF000C11A63D05C0B4106050723209B002322DA
:103C00009B0132DF3ADD210BE3D4EDFE0245501972
:103C1000CA85EF20E04E19C16FE0FFEF7A566A5770
:103C20004E8BF9B7130808E46FE0BFFC5E8E6FE0BF
:103C3000FFAFDE866FF06FB0624792569308700652
:103C4000B30CD700E34160B4338F6C40930C1F007A
:103C500093C6FCFFFD8633FCDC003DBE130808E381
:103C60006FE01FE7994AB7070080B3CCFC009307C9
:103C7000D0023EDC59B4834E3109814A63840E0080
:103C80006FE0BFA76FE08FFF7247058BE30007CAA5
:103C900061B9F24726885696050732DF3ADD2320C0
:103CA0000B0123225B019D45E3DBE5D20245501960
:103CB000CA853ECEEF20C04419C16FE0DFE57A56D9
:103CC0006A57F2474E8B6FF00FE6BD679387078602
:103CD00055B002C87C0A37050080298F1305D00231
:103CE0002ADC6FE08FC1D68C568C02D0814A02CE7E
:103CF00001436FE08FA993087006425703470700FE
:103D0000930617F0638C0620635A6720C25601455C
:103D1000814501A885058506130617F005CA635776
:103D200067023303E34003C716006DF703C70600BD
:103D30000505DDB7BD679387878671BABD67938731
:103D400087866FF03F83A2446FE0BFDD36D896468A
:103D50003307B5002ECE3307D7022AD0BA9C62575C
:103D600093C6FCFFFD8633FCDC0071CF1307D00245
:103D7000C24BA309E108050C02C8814A6FE0EFA01D
:103D80000A57E248E36297AF1D8F3ACCFDBC125749
:103D9000338F6A0093086006B30CEF00EDB20801A0
:103DA0008C183ECE46CC76C17AC316C566C782D87B
:103DB00082DA82DC82DEEF803042E248F24771E54F
:103DC0006A43B38C640055B2938CFAFF025BB2581D
:103DD000F257064D2649E29A62871306000363D420
:103DE0000C006FE0AFCE0507A30FC7FEE39DEAFE10
:103DF00033079C01130C17006FE04FCD1307D0025F
:103E0000A302E10AE156054733076740E341D3AA1D
:103E1000930600032303D10A5ECE02C89306710AFB
:103E20006FE00FCE1307D002A302E10AE156054767
:103E3000118FE340D6A86FE06FCC1DE3054CE28CF8
:103E40009308600691BA0347310935CFC24B050C80
:103E500002C8814A6FE06F93130808E36FF0AFD692
:103E6000125793086006130F1700B30C5F0193C637
:103E7000FCFFFD8633FCDC0005B2BD6613870687B8
:103E80003ACC6FE00FB06A43F5BC854F0A57B38F49
:103E90005F417ECD938C1700E368979D1D8F7E83D5
:103EA0003ACCF9B0130808E36FF00FE1B24783AAE8
:103EB0000700910763D30A00FD5A83481D003EC6E0
:103EC000368D6FE08F86C24B814A02C86FE0EF8B60
:103ED00009473AD699B4130808E36FF0CFED62476B
:103EE0003E9759B48357C900A24493E707042316A9
:103EF000F9006FE01FC3814A02D002CE02C88D4C88
:103F0000114C6FE08F88130808E371B30247B14783
:103F10001CC3FD546FE01FC46A43A5BA014702D019
:103F200002CE2DBD1D8F6A433ACCA9BC02D002CE71
:103F30006FE0AF852171232E111A232A911A2328AD
:103F4000211B2328A11936C6328DAE842A89EF2081
:103F5000D0401C413E853ED4EF20105D2AD282C164
:103F6000630709008327490399E36F108043039790
:103F7000C400FC5009669316270163C90600F97650
:103F8000FD16518FF58F2396E400FCD0139727017F
:103F9000635407006F10D0508397C40013F7870055
:103FA0006302071E9848630F071CE98B2947638843
:103FB000E71EBD672326311B2324411B9309C10D36
:103FC0003D6A938707E5232C811A2320611B232256
:103FD000511B232E7119232C8119232A9119232671
:103FE000B11902DF02DD4EDB4E8B3ECA130ACAFB5B
:103FF00002CC02D602D882C202DA02C4414426C2EE
:1040000083470D00EA8A1387B7FD29C3A1C3568CE5
:1040100083C71A00850A81C71387B7FD6DFBB38C70
:10402000AA416385AA03FA576A552320AB01E69794
:10403000050523229B013EDF2ADD9D47210B63C539
:10404000A718A247E6973EC483471C0099E36F1068
:10405000A04283C81A00138D1A00A3090108FD5A53
:1040600002C0814B130CA005050D938708FE636DFC
:10407000FC0252478A07BA979C438287938708FDC0
:1040800002C0A5460247024683480D000A07329740
:104090000607BA973EC0938708FD050DE3F4F6FEC8
:1040A000938708FEE377FCFC639408006F10C03C24
:1040B000854C230E1111A3090108668C02C8814AA0
:1040C00002D002CE01437C0A7A5693FD4B08328817
:1040D00063870D500347310931C3EA550147130582
:1040E00031092320AB000506054585052322AB00D9
:1040F00032DF2EDD1D45210B634FB53805C3EA5570
:1041000058092320EB000906094785052322EB0007
:1041100032DF2EDD1D47210BE34CB74013070008AB
:10412000E383ED2EB38A9A416348504D13F70B1089
:10413000631107562320FB00EA57669632DF850796
:1041400023229B011D473EDD6342F742210B13FEF4
:104150004B0063070E008247B38A8741E34A503F12
:104160000243635383016283A2479A973EC4E313D9
:104170000634C24702DD89C7C2454A85EF20F05B9D
:104180004E8BBDBDA6854A85EF20207F19C16F10DB
:1041900030318397C4002947E98BE39CE7E083979C
:1041A000E400E3C807E0B2466A86A6854A85EF10B8
:1041B000F0692AC46F00D03483480D0075B5834878
:1041C0000D0093EB0B024DB5924550194A85EF1047
:1041D000F07019C16F1070454E8BA5B593F78B0029
:1041E000E390076CB247080146C89D07E19BD043A6
:1041F0008C43A1073EC6EFA080400A469A462A4754
:10420000BA47C248880146C8BEC7B2C1B6C3BAC51C
:10421000EF30000E2ACD8947C2486314F5006F10B5
:10422000001F85476314F5006F10202F13FCF8FD65
:10423000930710046304FC006F10C0319307000360
:10424000230AF10813071006930780056394E8001A
:104250006F10606BA30AF1089307300663D457010F
:104260006F10E0673E478E461E46AE45635407001A
:104270006F10903502DC02C87C0A930D0108BEC0A5
:10428000B2DA93E72B00AEDC6E858C18300946DE7F
:104290003ECEB6D8BADEEF20702F2A470A469A469D
:1042A000BADC3A47B2D8B6DA9010B706FC3F8C18A1
:1042B0006E85B6D6BADE82D082D282D4EF80301C30
:1042C0000A4E1A482A468C186E8572D642D032CCD5
:1042D00082D882DA82DC82DEEF800070BA4B6246DE
:1042E0000258325EF258864719E1854636CD93066C
:1042F00010066394D8006F10104CBD661387468873
:104300003ACC5AD0DE8CCAC4E2443E8C46D63EDE5D
:10431000EAC0428BB28B72890DA08C186E854AC19F
:104320005AC35EC566C782D882DA82DC82DEEF803D
:10433000A06A19E16F105034FD1AB70703409010BE
:104340008C186E85BED6CAD8DADADEDCE6DE82D01C
:1043500082D282D4EF80B0126E85EFA04014AA857D
:104360002A8D6E858A4C9A4B2A4B3A49EFA0A01CA5
:10437000AA470A469A46BECCBA47B2C88C109008E3
:104380008818E6D0DED2DAD4CAD6B6CABECEEF904E
:104390008035B387A40183C60700E285050C465922
:1043A000565BE65BF65CA30FDCFEE3980AF6B258B8
:1043B000F2574A8E5A885E86AE84E68BB70AFE3F75
:1043C0008C186E85C6C63ED62649EA8C72C1064D4B
:1043D000F2C442C3C2C032C532DE5EC782D882DABE
:1043E00082DCD6DEEF80606B025BB257B648634E6C
:1043F000A0008C186E8546D0EF80005E8258B257C0
:1044000031E593FC1C0063830C04624726D103460C
:10441000FCFF8345F7006287639EC5001305000318
:10442000A30FA7FE0A579306F7FF36D10346F7FFFF
:10443000E388C5FE930516001305900393F5F50F69
:104440006314A6006F10A071A30FB7FE6A4613870E
:10445000F8002302E10AB306FC401307F6FF3ACD49
:1044600036CC635407006F10D0359306B002A30218
:10447000D10AA54663D4E6006F10E0639306610A93
:10448000130707032380E6001803998E1387D60DC0
:104490003AD66F10C068924550194A859AC4BEC07A
:1044A00046DE3ADCEF109043E31D05007A562643C2
:1044B0008647F25862574E8B91B1EA5AE246054759
:1044C0003A96BA9A930D8B00E352D72C05472322D4
:1044D000EB002320FB0032DF56DD1D47E349575D2B
:1044E0001257850A56DD3A96225732DFA10D23ACCA
:1044F000EDFE125723AEEDFE1D47E34C57592E47F4
:104500000E459E453ED03AC5E2473E472AC12EC3DE
:1045100008018C1832CE82D882DA82DC82DE3AC779
:10452000138BF7FFEF80404B7246E30A0528825752
:10453000850A5A96850756DD32DF23A0FD0023A2A7
:104540006D019D47E3C15727A10DB257B2565811CF
:104550003E9693871A0023A0ED0032DF3EDD23A2B2
:10456000DD001D47138B8D00E353F7BE92455019B4
:104570004A85EF10B036631605747A564E8BC1BE6D
:10458000B2473247A30901089C4393044700E380E4
:104590000742E3CD0A4A3E855686814546CE3EC651
:1045A000EF20804C2AC803473109B247F24819E18D
:1045B0006F106070B30CF54093C6FCFFFD8633FCB2
:1045C000DC00E316074A26C67A5602C802D002CE9D
:1045D00093FD4B08814A01433288E39D0DAE0247AB
:1045E00033078741E349E01803473109E31707AE72
:1045F000B38A9A41E35C50B33D68EA551308C8FB9F
:10460000635A5405D6843EDE9D4DDA8746DC9A8A8D
:10461000528B21A0C114635994024106850523A041
:104620004701C0C332DF2EDDA107E3D5BDFE9245B1
:1046300050194A85EF10902A63150568C1147A56FF
:10464000EA55CE87E34B94FC5A88E2583E8BF257EA
:104650005683A68A5696850523200B0123225B01EB
:1046600032DF2EDD1D47210BE352B7AC92455019C6
:104670004A859AC03EDE46DCEF105026631305647F
:1046800013F70B107A560643F257E2584E8BE303AA
:1046900007AA13075006E35217E31E478E452E451F
:1046A0003AC33E472EC12AC58C18080132DE3EDCD3
:1046B0009AC082D882DA82DC82DE3AC7EF80C031CB
:1046C000E2577256064363160574EA573D671307AF
:1046D000078A2320EB000506054785072322EB0008
:1046E00032DF3EDD1D47210BE342F74CEA476247CC
:1046F000E3D0E7121257EA57210B3A962257850763
:1047000032DF232CEBFE12573EDD232EEBFE1D473E
:10471000E34EF720E247938AF7FFE35A50A33D6840
:10472000C14CEA579D4D9304C8FB63C65C0145AF7D
:10473000C11AE3DE5C4B4106850723209B00232240
:104740009B0132DF3EDD210BE3D4FDFE9245501983
:104750004A85EF10B018631605567A56EA574E8B05
:10476000C1BF93F70B02D5E3B24713F70B019107D3
:1047700019C36F10205AB24613F70B0403AC06009E
:10478000E3070756420C135C0C41935EFC413EC6A6
:1047900076876348070863C60A0AB367DC0193FBA0
:1047A000FBF7C5E3639F0A08834E3109E38E0E547D
:1047B000014C014302C8814C814A1C03050C63145F
:1047C00003006F10F0077A56EA5593FD4B08090C69
:1047D00032882E8563810D5402D002CE0143E381DD
:1047E0000E920947EDB8B247854CA30901089C43D6
:1047F000230EF110B24791073EC6C1B093F70B02EA
:1048000013EE0B01E3820708F28BB2479D07E19B91
:10481000D8439386870036C603AC0700BA8EE35CA4
:1048200007F6B3378001B30ED041B38EFE40930735
:10483000D002A309F108330C804163C40A0093FB42
:10484000FBF763940E20A54763E18721130C0C034B
:10485000A30F8117568CE3525007834E3109014351
:10486000854C9307F11702C8E38B0EF4050C81BF4A
:10487000B2479C433EC063D3077A8247B307F040F8
:104880003EC0B24791073EC683480D0093EB4B00F4
:104890006FF08FFD9307B00283480D00A309F10864
:1048A0006FF08FFC83480D0093EB0B086FF0CFFB8C
:1048B00083480D009307A00293061D006394F8003F
:1048C0006F10006D938708FD2546814A6360F602EC
:1048D00013972A0083C80600BA9A860ABE9A93875D
:1048E00008FD8506E376F6FEE3CE0A02368D6FF00C
:1048F000CFF74A85EF2060265C413E853EDAEF2007
:10490000A042AA844A85A6C2EF20202518458348E4
:104910000D003AD8638A04F4630807F4834707005C
:10492000638407F493EB0B406FF00FF483480D00A2
:1049300093EB1B006FF04FF38347310983480D0061
:10494000639407F293070002A309F1086FF0CFF117
:1049500093F70B0293E60B016384076EB2479D0742
:10496000E19B138787003AC6D0439843A309010807
:1049700093FBF6BF63CB0A44B367C70093FBF6B75C
:104980006395074463930A4413FC160063070C5EA7
:1049900093070003A30FF116E28C02C802D002CEE7
:1049A00001439307F1176FF02FF283480D0093072F
:1049B0008006638FF87893EB0B046FF0EFEA3247D1
:1049C00093F70B0211076394076893F70B01E394C5
:1049D000072893F70B04E392075C13FE0B20E30C0C
:1049E0000E26B247A2463AC69C432380D7006FF0FA
:1049F0002FE183480D009307C0066384F87493EB9E
:104A00000B016FF06FE693F70B02639F071A93F7A2
:104A10000B0199C36F10A02F324793F70B04032C9F
:104A2000070011073AC6E383072A420CA3090108CD
:104A3000135C0C01814EE3C60AE033E38A0193FB69
:104A4000FBF7630C0310E3800EE0B7DCCCCCB7DDE2
:104A5000CCCC938CDCCC938DCDCC13F80B40814522
:104A60001003C68495A0425703470700930617F02A
:104A700099C2E30AB714628376853E863307DC0168
:104A8000B33687013697B336970313DE2600F19AC3
:104A9000F296158F3307EC40B336EC00B386DE4058
:104AA000B3869603B30EB703333E9703F6963307E8
:104AB0009703F296139EF60193DE16000583330CDE
:104AC000EE0019E16F10401E3307DC01B336870199
:104AD000BA9633B5960385059307F6FF1353250061
:104AE00071991A95898EB306DC403335DC00338525
:104AF000AE4033B3960333059503B38696031A95F8
:104B00007E058582AA9613952600AA968606B30688
:104B1000DC4093860603A30FD6FEE31608F46283F7
:104B200076853E86B1BFA167938707833247231AF4
:104B3000F108B247A309010818439107014663C76A
:104B40000A5813FEFBF7936B2E00E31D0710E39B3F
:104B50000A103EC6094393088007834E3109814AF3
:104B6000014C814C1C0302C801B393F70B02639400
:104B70000754B24713F70B01910719C36F10401880
:104B8000324793F60B041843E3870612420741832A
:104B90003EC6DE860146D9BB93F70B0213EE0B012E
:104BA0008DE7B2473247A30901089107032C07009C
:104BB000814EE3C40A1C3EC6937BFEF7E3150CC886
:104BC000E3930AC8014351BF5E8EB247A3090108AF
:104BD0009D07E19B138787003AC603AC070083AEAD
:104BE000470063CE0A52937BFEF7E39C0AC4B36787
:104BF000DC01E39807C401438DB783480D0093EBB4
:104C00008B006FF06FC60247B30D8741635CB0D174
:104C1000C14EEA553D6863C4BE016F100018EE84B2
:104C20003EDEEA8DDA879D42568B46DC1A8D930A6A
:104C3000C8FB21A0C11463DB9E024106850523A0A9
:104C4000570123A2D70132DF2EDDA107E3D4B2FE44
:104C5000924550194A85EF10604825E5C14EC114B0
:104C60007A56EA55CE879D42E3C99EFC5688E258A3
:104C7000DA8A3E8BF2576A836E8DA68D6E96850515
:104C800023200B012322BB0132DF2EDD1D47210B28
:104C9000635AB7C8924550194A859AC03EDE46DC31
:104CA000EF10C04319ED7A56E258F25706434E8B87
:104CB0006FF04FC7924550194A85EF102042630AA2
:104CC00005CAC245924481C54A85EF20002783D793
:104CD000C4000324811B8329C11A93F70704032A04
:104CE000811A832A411A032B011A832BC119032C21
:104CF0008119832C4119832DC11899C36F00507AF3
:104D00008320C11B22458324411B0329011B032D42
:104D1000011939618280024702D002CE33078741F0
:104D200001436341E01C638D0EBC09476FF02FBB4C
:104D3000924550194A859AC03EDE46DCEF10003A93
:104D400049F17A560643F257E2584E8B6FF00FBD89
:104D5000C14CEA573D6863C45C016F00D07A92444D
:104D60009D4D930BC8FC21A0C11A63DA5C03410678
:104D7000850723207B0123229B0132DF3EDD210BAF
:104D8000E3D4FDFE5019A6854A85EF102035631A3D
:104D90000562C11A7A56EA574E8BE3CA5CFD5E88FB
:104DA0005696850732DF3EDD23200B0123225B016F
:104DB0001D476357F7BA924550194A85EF100032E4
:104DC000E31105F07A566FF0AFB91C039315D601C5
:104DD000937677000D833E852E97938606030D828A
:104DE000B365C700A38FD7FEFD17EDF1938606FDCF
:104DF00089C613F71B00631607261803B30CF74088
:104E0000568C63C89A2302C802D002CE01436FF0C9
:104E1000AFAB6A45635EA04E62479A8A634D672EC8
:104E2000635F50016A5756962320FB000507232233
:104E30005B0132DF3ADD9D45210BE3C1E50E13C76F
:104E4000FAFF7D87B3FAEA00B30A53416341503950
:104E500013F70B40B38D6700631C0772EA4A624781
:104E600063C6EA0013F71B00E30B071092566A575C
:104E70009D453696A256050732DF2320DB00925669
:104E80003ADD210B232EDBFEE3C4E5566247BA97D9
:104E9000B38CB741B30A574163D39A01D68C635F91
:104EA00090016A5766962320BB01050723229B01C8
:104EB00032DF3ADD9D47210BE3CFE76013C7FCFFEC
:104EC0007D87B3F7EC00B38AFA40635250A93D687E
:104ED000C14CEA579D4D9304C8FB63CD5C35130864
:104EE000C8FB39A3894DC14E4286AA853D68E3D0EF
:104EF000EE5E3EDED6C0DA879D43BA8446DC1A8B6E
:104F0000930AC8FC21A0C11463DC9E0241068505FA
:104F100023A0570123A2D70132DF2EDDA107E3D45E
:104F2000B3FE924550194A85EF10401BE31B05D88C
:104F3000C14EC1147A56EA55CE879D43E3C89EFC04
:104F40005A8356883E8BE258F257864A26873A960D
:104F500085052322EB0032DF2EDD23200B011D47C8
:104F60006340B73803473109210B61E3638C0D9A25
:104F7000814D6FF0EF986A55BDB7814C814A02D0E0
:104F800002CE014302C81C036FF00F94B3F5EB008F
:104F9000639E05D22320FB002322EB0032DF56DD87
:104FA0009D4763D457DB924550194A85EF10001393
:104FB000E31905D07A56EA5ACE8D6FF00FD96247C1
:104FC000854763D4E7D8C5473D6863C4E7006F00F1
:104FD000D07DC14C9D479304C8FB21A0411B63DFDA
:104FE0006C4B4106850A23A09D0023A29D0132DF60
:104FF00056DDA10DE3D457FF924550194A85EF10B5
:10500000E00DE31005CC7A56EA5ACE8D9D47F9B7EC
:1050100093F71B00638D07926FF0CFEDB247834883
:105020000D0091073EC66FF02F846E87814D6FF0A3
:105030000F8B668C02C802D002CE01436FF0CF887E
:10504000B2479107324701463EC6184305B2B24700
:10505000A24622469C43FD863AC690C3D4C36FE065
:105060003FFA7915130700031403B38CA640A38FEE
:10507000E7FE568C63D39A01668CAA8702C802D0D9
:1050800002CE01436FF04F84B24791073247F28B53
:105090003EC6032C0700935EFC4176876FF06FEFEE
:1050A000B24732479C4311073AC69043D4439847CE
:1050B000DC476FF02F95DE8655B0834E3109054CE5
:1050C0000143854C9307F1176FF0EFF9BD6593EB42
:1050D0002B003EC6938505870943814E93088007C0
:1050E0001C039376F700AE9683C606001183FD1766
:1050F0002380D7009316C60136971182B366C70086
:10510000EDF21803B30CF740568C63DE9AF5668C0B
:1051100002C86FF06FF5BA8AE34650D10DB3F28B37
:105120006FF02FF2FD5A368D6FE03FF49245501923
:105130004A85EF00B07AE31605B87A564E8B6FF0C9
:105140006FDD83481D0093EB0B02050D6FE0DFF16F
:1051500083481D0093EB0B20050D6FE0FFF0BD654C
:105160009385458893F70B0263860710B2479D0726
:10517000E19B138787003AC6D043984393F71B00FF
:10518000B366C70099C3639C061EA309010863C4E4
:105190000A1493FBFBB7014363940A00E38F069A5A
:1051A000834E310935BFBD659385058765BF994736
:1051B000568C63E35757BD6726C69387878902C815
:1051C000E28C814A02D002CE01436FE0FFEFC1487A
:1051D0006A573D68E3DE5861D6849D4CBE8D1ADC6B
:1051E000930AC8FB21A0C11463D9984E4106050754
:1051F00023205B0123221B0132DF3ADD210BE3D4A4
:10520000ECFE924550194A85EF00506DE31B05AA4C
:105210007A566A574E8BC148F9B7924550194A855C
:10522000EF00D06BE31F05A87A56EA574E8BC11AE0
:1052300063DF5C1B4106850723209B0023229B0123
:1052400032DF3EDD210BE3D4FDFEC1BF3E8546C803
:105250003EC6EF10702D034731099346F5FFFD86DA
:10526000B247C248AA8C337CD500630E07B4050C44
:105270006FF06FB5B246324793F70B01910636C611
:105280001843A1EB93F70B04A9C3420741830146DE
:10529000F5B5924550194A853ECEEF003064E312D1
:1052A00005A27A56EA5AF247CE8D6FF04FA5924585
:1052B00050194A853ECEEF007062E31405A07A567D
:1052C000EA5AF247CE8D6FF0AFA193F70B20639BA4
:1052D000074E014665B593FBFBBF0143814E09B5FF
:1052E000924550194A859AC03EDE46DCEF00105FB9
:1052F000E319059C034731097A56E258F2570643F1
:10530000630707186E87EA55814D4E8B6FE03FDDCE
:105310006A57BD659385058A2320BB000506854530
:1053200005072322BB0032DF3ADD9D45210BE3C098
:10533000E5086247498F6302074092566A579D45C8
:105340003696A256050732DF2320DB0092563ADD5F
:10535000210B232EDBFE63C6E540E340051CE2463D
:1053600005072320FB00369632DF3ADD2322DB00DF
:105370009D4763C4E7006FE07FDD6FF02F9F9307C9
:105380000003A30A1109A3090108230AF10863CA4B
:105390000A1E13FEFBB7834E3109936B2E0009439F
:1053A00081B34A85EF10E0146FE07FBC924550193D
:1053B0004A85EF00B052E31605907A564E8B6FF097
:1053C000EFB2C24509B2639F0E422547636C874323
:1053D00018032ECCB30CF740A688568C63D39A01E1
:1053E000668C834E3109014302C86FF0EFC72688EF
:1053F0005696850732DF3EDD23200B0123225B0119
:105400001D476344F7006FE07FD46FF02F960E477F
:105410009E478C183AC13EC32E47BE47080182D82A
:1054200082DA82DC82DE3AC53EC7EF702076C2485F
:1054300093FBFBF7634B057C93077004034731092B
:1054400063CE173BBD6793870786631C070E8D4CA1
:10545000668C6FF06F97B247A2469C4394C33AC6DE
:105460006FE01FBABD65834E31093EC6938505873F
:10547000094393088007ADB1FA579244E389078442
:105480004A855019A685EF0070456FF05F846383ED
:105490000D30EA55814D4E8B6FE09FC626885A9697
:1054A000850A32DF56DD23A00D0123A26D019D4741
:1054B00063DC5789CDBC93F60B20638906301377E4
:1054C000F70F3EC6DE8601466FF04FCA13F30B207E
:1054D000A30901086311032E814E63C60AB693FB2C
:1054E000FBF763920AB6630A0CE66FF0CFB513F7C9
:1054F0000B20630C072A620C135C8C41935EFC4109
:105500003EC676876FF0EFA802C8814C02D002CE6B
:1055100001431C03014C6FE03FBBBE4FB707008047
:1055200093FBFBF733F3FF006307032A9307D002D3
:10553000A309F10893077004E3DB1713BD67938792
:10554000C78602C88D4C814A02D002CE0143114C5D
:105550006FE09FB713E70B10FD573AC88E4E1E4FF2
:10556000AE42BE4C6385FA3A93079CFB99E3638E87
:105570000A46E3C90C0202DC79AE3EC6F28B6FF03C
:105580008FAC13FEFBBF936B2E000943814E89BE87
:1055900072478256558FE30E072662475EDEE2C0F1
:1055A000EE8BEAC4F24A825D164C425DBD68DA8633
:1055B0009388C8FB1D48C14C3EDC338BE700634534
:1055C000B0077D1DFD1AEA5752576296850798C2AB
:1055D00023A2860132DF3EDDA1066340F80C83453D
:1055E0000D00B3047B415A8763D39500AE84635F9B
:1055F0009000EA55269632DF850523A07601C4C2C5
:105600002EDD634AB80A83450D00A10613C5F4FFD9
:105610007D85B3F7A400B384F54063499000AE9B49
:10562000E34F50F96357B03BFD1D71BFBD62EA55B2
:105630009382C2FB63D69C043ACE46D021A0C1140B
:1056400063DE9C024106850523A0160123A2960174
:1056500032DF2EDDA106E354B8FE924550194A858B
:10566000EF00D027631F05E4BD67C1147A56EA55E1
:10567000CE869388C7FB1D48E3C69CFC72478252C6
:105680002696850532DF2EDD23A05600C4C2634076
:10569000B85483450D00A10659B7924550194A8563
:1056A000EF00D023631F05E0BD677A56CE8693884E
:1056B000C7FB1D482DB7924550194A853ACEEF00D9
:1056C000F021631005E0BD6783450D007A567247EF
:1056D000CE869388C7FB1D4815BF62535688EE8758
:1056E000A68A5696050723200B0123225B0132DF91
:1056F0003ADD9D45210B63DDE5F4924550194A855D
:105700001ADE3EDCEF00901D631D05DA7A567253F7
:10571000E2574E8B6FF0CFF33E8C71BC924550191F
:105720004A851ADE3EDCEF00701B631C05D87A56F2
:105730007253E2574E8B6FF08FF013F71B0019E393
:105740006FE0FFA092566A579D453696A256050710
:1057500032DF2320DB0092563ADD2322DB0063D5C3
:10576000E546924550194A853ECEEF003017631A40
:1057700005D46A457A566A57F2474E8BF9BE62479E
:10578000BA97B38CB741B30A574163D99AF3D68C11
:105790006FF0CFF24E8B6FE0FF98B247A2463AC649
:1057A0009C432390D7006FE0BF85935EFC413EC6CB
:1057B00076876FE01FFE137CFC0F814E63DF0AA625
:1057C0006FF02F881377F70F01464DBA3EC6DE867D
:1057D00001466FF0AF99930770040347310963D214
:1057E0001765BD679387C786E31D07008D4C668CE0
:1057F000814A02D002CE02C86FE01F8DBD67938739
:105800004786A1B11647D25576CEB386E7403A8691
:10581000368542CC36C8EF10C02CF24E37D6CCCCF1
:105820001306D6CC3307DC01B33787013E97B33577
:10583000C70237D5CCCC1305C5CCC257C256624877
:1058400083C71700B337F00093D82500F199C695A8
:105850000D8F3307EC40B335EC00B385BE40330504
:10586000A702B697C2463ED89387F6FFB385C50216
:10587000AA953335C7023307C702AA951395F501D8
:1058800093DE150085450583330CE5003307DC0105
:10589000333587012A973335C7029358250071990C
:1058A0004695098F3307EC403335EC003385AE4025
:1058B000B338C7023305C5023307C70233061501E3
:1058C0007E060583329713162700329706073307A3
:1058D000EC4013070703A38FE6FE6FF0CF98938584
:1058E0001A004A8546C8EF30A002C248AA87630D55
:1058F00005723E472AC88E461E46AE456348074C91
:1059000002DC6FE09F97930780076FE0BF9463CA44
:105910000C4802DC994A930760046314FC307C094C
:105920003809D6860C011308010A0D464A8546DE61
:1059300076C176D07AC37ACE16C516CC66C7EF107C
:1059400030028346050013070003E242724F825E75
:10595000F258AA87B30455016381E656EA4D08015F
:105960008C183ECE66C746CC76C17AC316C582D89F
:1059700082DA82DC82DEEF702006F247B38CB4015B
:105980006E83631505523387FC403ACC13F71B0036
:1059900033675701635E605A631607549A8C930805
:1059A000600613FE0B4063170E4893C6FCFFFD868E
:1059B00033FCDC006257630F07321307D002A309E0
:1059C000E108050CC24B814A02C802D002CE6FE04A
:1059D000AFEFDE8D6AD8E257F25B064C264D368B70
:1059E000637EB7C7BA8D6FF06FC702DC63D90C0056
:1059F000B7070080B3CCFC009307D0023EDC930DC8
:105A000001087C09EE851308010A38098546094614
:105A10004A85C6C076C176DE7AC37AD016C516CE60
:105A200066C7EF10E073F242025FF25E8648854A75
:105A3000AA8756CC13F71B00630807126E858C18D3
:105A40003ED046CE76C17AC316C566C782D882DA02
:105A500082DC82DEEF605078F2488257630B055497
:105A6000E2460A57B38CD7006378975B13060003AE
:105A70009306170036D12300C7000A57E36A97FF41
:105A80001D8F930670043ACC6A436303DC0E130740
:105A90006004E30DECEE1307F3FF2302110B3ACD84
:105AA000634407489306B002A302D10AA54663D710
:105AB000E6485ECE02C8930E310B37DECCCC76853D
:105AC000130EDECC130F3006B336C7033A88AA850F
:105AD0007D158D821396260036960606118F1307C4
