:0200000490006A
:1000000000000220A9020090D10C0024D30C00248F
:100010004D0D0024690D0024850D00240000000012
:100020000000000000000000000000009D0D002402
:100030009F0D002400000000A10D0024A30D00244A
:10004000EB5C0324EB5C0324EB5C0324EB5C0324F8
:10005000EB5C0324EB5C0324EB5C0324EB5C0324E8
:10006000EB5C0324EB5C0324EB5C03246D21002494
:10007000752100247D21002485210024A50F002462
:10008000EB5C0324EB5C0324EB5C0324EB5C0324B8
:10009000EB5C0324EB5C0324EB5C0324D10F002412
:1000A000EB5C0324EB5C0324EB5C0324EB5C032498
:1000B00071530024EB5C0324EB5C0324EB5C03240E
:1000C000EB5C0324EB5C0324EB5C0324C90F0024EA
:1000D000EB5C03243D4B0024EB5C0324EB5C03242A
:1000E00001100024EB5C032400000000EB5C0324FF
:1000F000EB5C0324EB5C0324EB5C0324EB5C032448
:10010000EB5C0324EB5C0324EB5C0324EB5C032437
:10011000EB5C0324EB5C032485440024EB5C0324A8
:10012000EB5C0324A90F0024AD0F0024EB5C032437
:10013000B10F0024EB5C0324EB5C0324EB5C032491
:1001400000000000000000000000000000000000AF
:100150008D210024EB5C0324EB5C0324EB5C032483
:10016000EB5C0324EB5C0324EB5C0324EB5C0324D7
:10017000EB5C0324EB5C0324EB5C0324EB5C0324C7
:10018000EB5C0324EB5C0324EB5C0324EB5C0324B7
:10019000B50F0024EB5C0324EB5C0324EB5C03242D
:1001A000EB5C0324EB5C0324EB5C0324EB5C032497
:1001B000EB5C0324EB5C0324EB5C0324EB5C032487
:1001C000EB5C0324EB5C0324EB5C0324EB5C032477
:1001D000EB5C0324EB5C0324EB5C0324EB5C032467
:1001E000EB5C0324EB5C0324EB5C0324EB5C032457
:1001F000EB5C0324EB5C0324EB5C0324EB5C032447
:10020000EB5C0324EB5C0324EB5C0324EB5C032436
:10021000EB5C0324EB5C0324EB5C0324EB5C032426
:10022000EB5C0324EB5C0324EB5C03240000000084
:10023000EB5C0324EB5C032400000000EB5C032474
:10024000EB5C0324A5210024EB5C0324EB5C03247A
:10025000EB5C0324EB5C0324EB5C0324EB5C0324E6
:10026000EB5C0324EB5C0324EB5C0324EB5C0324D6
:10027000EB5C0324EB5C0324EB5C03240000000034
:10028000EB5C0324EB5C0324EB5C03240000000024
:0802900000000000EB5C0324F8
:1002980091423EBF50F8043B41F8043BF8E77047F1
:1002A800DFF834D14D4A4E4C0023A242BCBF42F87D
:1002B800043BFAE74B484C494C4AFFF7E9FF4C48E6
:1002C8004C494D4AFFF7E4FF4C48016841F00401EE
:1002D8000160BFF34F8FBFF36F8F4948016821F06A
:1002E800406141F080610160416821F40051416042
:1002F800816821F040618160C16821F04061C1607E
:100308004FF0005181613F484FF0000101603E48C5
:100318004FF0000101603D484FF0105101604FF06F
:10032800000141F0407141F4003141F4803141F065
:10033800160141F001013648016033484FF00101D0
:10034800016032484FF0000101604FF0000141F0B8
:10035800407141F4003141F4803141F00E0141F027
:1003680001012B48016027484FF005010160BFF3E8
:100378004F8FBFF36F8F27482749284AFFF788FF19
:1003880025482749086027482749284AFFF780FF5A
:1003980027482749274AFFF77BFF27482649274A46
:1003A800FFF776FF26482749274AFFF771FF2748B6
:1003B8002749284AFFF76CFF27482849284AFFF7AA
:1003C80067FFBFF34F8FBFF36F8F02F0D9FB02F0C7
:1003D800F7FB24480047000000000220C0EA03247D
:1003E800101706241814049010E70324B4EA032411
:1003F800E8950390E0680324FCE60324404502588E
:100408000008025894ED00E098ED00E09CED00E053
:10041800A0ED00E00000009000000000980200003D
:1004280008ED00E0082D009000000024E068032497
:10043800FCE60324FCE60324FCE6032404E7032487
:100448000C14049004E7032404E703240C14049018
:1004580004E703240CE70324141404900CE7032492
:1004680010E7032471040090B04C80B5D4F8D07024
:10047800DAB062B6AE4BD3F8882042F47002C3F803
:100488008820F1EE102A22F44002E1EE102ABFF390
:100498004F8FBFF36F8FD968A64A21F4E061DFF868
:1004A800B482A54D0904090C0A43DA6002F0A0FBE6
:1004B800A369A269C3F3032318F8033003F01F03E9
:1004C800D84028600F2002F0F7FB58B9D4F8F43070
:1004D80043F00203C4F8F430D4F8F43003F0020314
:1004E8000893089B954E02F0DBFA02F0B9FB02F084
:1004F800B7FBC820336802F0EFFB8D494B6913F452
:10050800803323D1C1F88430BFF34F8FD1F88030C6
:1005180043F6E074C3F3C900C3F34E335B0103EA47
:10052800040E02464EEA827C013AC1F860C2F9D252
:10053800203B13F1200FF2D1BFF34F8F4B6943F4E7
:1005480080334B61BFF34F8FBFF36F8F784B5A697E
:1005580012F4003211D1BFF34F8FBFF36F8FC3F87E
:100568005022BFF34F8FBFF36F8F5A6942F40032A6
:100578005A61BFF34F8FBFF36F8F6C48036903F065
:100588003803102B00F0F68100F28681002B00F072
:1005980085816B4B65498A698969C2F3032218F81A
:1005A8000220D3402B60674BDA68540700F1E481DE
:1005B800DB6800231593644BDA6A22F00102DA62E1
:1005C800DB6A03F0010315935E4B9A6942F44042DB
:1005D8009A619A6902F440421592159A9A699104AF
:1005E800FCD5524AD2F8F41041F00201C2F8F410D6
:1005F800D2F8F42002F002021492149A0022139204
:100608009A6942F440429A619B6903F44043139308
:100618004D4BDA6A42F00102DA62DB6A03F0010349
:100628001393139B474B9A699204FCD51A6842F4BA
:1006380080721A603D4B1A69996A02F03802102AD2
:1006480007D0182A40F0A98101F00302022A40F0DD
:10065800A4811B68354B1A6902F03802182A00F089
:10066800B8811A6822F080721A6031681A68940199
:1006780000F1A3819A6A22F47C7222F0030242F00C
:1006880052029A62314A1A63DA6A22F00102DA6285
:100698005A6B6FF3CF025A63DA6A22F00C0242F007
:1006A8000802DA62DA6A22F00202DA62DA6A42F4EC
:1006B8008032DA62DA6A42F40032DA62DA6A42F4E2
:1006C8008022DA62DA6A42F00102DA621A6842F0DB
:1006D80080721A60154A31681368980140F1738175
:1006E8001B4A136813F00C0F00F0B6810F4A936988
:1006F80003F070033F2B40F2BD81D36903F0700310
:100708003F2B05D8D36923F0700343F04003D3612E
:10071800064AD36903F4E063B3F5806F1CD2D3694A
:1007280023F4E06343F48063D36115E00044025886
:1007380000ED00E00003FA0510E70324C0EA0324F3
:1007480000093D000048025800040058BF0201019A
:1007580000200052E0680324136A03F070033F2B63
:1007680005D8136A23F0700343F040031362B34AB9
:1007780093691B0705D4936923F00F0343F008031B
:100788009361936923F47063936113689C0140F14A
:100798006F81136941F2883023F0070343F00303A4
:1007A8001361A64A3168136903F03803182B40F027
:1007B8006881936903F00F03082B05D9936923F027
:1007C8000F0343F0080393619D4A136803F00F0376
:1007D800042B00F25C81994A936903F07003402B63
:1007E80000F26181D36903F07003402B05D9D36906
:1007F80023F0700343F04003D361904AD36903F4B4
:10080800E063B3F5806F05D9D36923F4E06343F45B
:100818008063D361136A03F07003402B05D9136A10
:1008280023F0700343F040031362844C02F0E0F9B4
:10083800A369A269C3F3032318F8033003F01F0365
:10084800D8402860E86B02F037FA0146002840F0EB
:100858000F81B8222CA802F07FF97A4A00230520DC
:1008680002254FF4007ACDE92A232423CDE9340365
:1008780004232AA8CDE9365338934FF40063CDE911
:10088800393A4FF48033539302F092F980460028A6
:1008980000F0108172B6FEE7182B05D002686A4B8B
:1008A800C2F3C102D34075E6816AD0F828C0C46A91
:1008B8001CF47C7FCCF30513426B3FF46BAE07EE60
:1008C800903AC2F3CC0304F0010201F00301F8EE00
:1008D800E75A53430129B7EE006A07EE103ABAEE19
:1008E800E97A29D0022937D00168574BC1F3C101F1
:1008F800026BCB40C2F3080207EE903AF8EEE76AC3
:10090800C6EEA57A06EE902AF8EEE66A36EE877A03
:1009180037EE067A494B67EE877A1B6BC3F346239B
:10092800013307EE103AB8EEC77AC7EE876AFCEED5
:10093800E67A17EE903A2DE6036BDFED446AC3F3CF
:10094800080307EE903AF8EEE77A77EE877A77EEC3
:10095800867A86EEA57ADDE7036BDFED3D6AC3F3A1
:10096800080307EE903AF8EEE77A77EE877A77EEA3
:10097800867AEEE7374B0DE6DA6822F0070242F096
:100988000202DA6031685A6890043FF512AE3268A4
:10099800521AB2F57A7FF6D90BE61A6842F4803219
:1009A8001A60264A316813689B033FF553AE3368D3
:1009B8005B1A642BF7D972B6FEE73268521A022A1C
:1009C8007FF654AEF7E733685B1A022B7FF684AEE6
:1009D800F1E7996A1A6B01F003000228EBD101F4E0
:1009E8007C715029E7D1C2F30801BF29E3D102F491
:1009F8007E41B1F5007FDED102F4FE01B1F5803F02
:100A0800D9D102F0FE42B2F1807FD4D1596B4FF6B2
:100A1800F87211423FF464AEDA6A22F00102DA6237
:100A2800326833689A42FCD0044B5A6B6FF3CF029A
:100A38005A63DA6A42F00102DA6251E60044025867
:100A480000200052010008000090D0030024744ADE
:100A580020BCBE4B40787D01136823F00F0343F0A0
:100A680004031360136803F00F03042B3FF43EAE36
:100A780072B6FEE7936923F0700343F04003936175
:100A88003BE633685B1A83427FF68DAEF0E7136866
:100A980023F00F0343F004031360136803F00F03FC
:100AA800042BE5D197E6936923F0700343F04003E4
:100AB800936197E6D4F8E030DFF8F09343F0010350
:100AC800C4F8E030D4F8E03003F001031293129B2D
:100AD800D4F8E03043F00203C4F8E030D4F8E03052
:100AE80003F002031193119BD4F8E03043F00403A0
:100AF800C4F8E030D4F8E03003F004031093109BFE
:100B0800D4F8E03043F00803C4F8E030D4F8E0301B
:100B180003F008030F930F9BD4F8E03043F0100361
:100B2800C4F8E030D4F8E03003F010030E930E9BC5
:100B3800D4F8E03043F02003C4F8E030D4F8E030D3
:100B480003F020030D930D9BD4F8E03043F04003ED
:100B5800C4F8E030D4F8E03003F040030C930C9B69
:100B6800D4F8E03043F08003C4F8E030D4F8E03043
:100B780003F080030B930B9BD4F8E03043F48073AD
:100B8800C4F8E030D4F8E03003F480730A930A9B89
:100B9800D4F8E03043F40073C4F8E030D4F8E0301F
:100BA80003F400730993099B01F082FF4FF4E133CA
:100BB800C6F89C81C6E963930C23C6E96838D6F861
:100BC8001432C6E96588C6E96A88C6E96C88002BCC
:100BD8003ED186F810820121D4F8F030A54843F0C0
:100BE8001003C4F8F030D4F8F03003F01003189371
:100BF800189BD4F8E03043F00103C4F8E030D4F88F
:100C0800E03003F001031793179BD4F8E03043F06A
:100C18000103C4F8E030D4F8E03003F00103169380
:100C2800169B0323CDE92C1307232AA92E93CDE97C
:100C38002AA502F005F84FF480632A9302F000F821
:100C480025204246414602F023F8252001F094FF72
:100C58002423D6F88C51884CC6F814322B6823F01C
:100C680001032B60D6F8B431002B52D01A0706D5F1
:100C78006A68D6F8C41122F400420A436A60D807A9
:100C880006D56A68D4F8B81122F400320A436A60BB
:100C9800990706D56A68D4F8BC1122F480320A4351
:100CA8006A605A0706D56A68D4F8C01122F480220F
:100CB8000A436A60D80606D5AA68D4F8C81122F48F
:100CC80080520A43AA60990606D5AA68D4F8CC11BE
:100CD80022F400520A43AA605A0611D56A68D4F869
:100CE800D01122F48012B1F5801F42EA01026A6035
:100CF80006D16A68D4F8D41122F4C0020A436A60A3
:100D0800180606D56B68D4F8D82123F400231343BA
:100D18006B60D6F89C21D6F8943129681343D6F82D
:100D2800A021D6F8A8011343544A03430A401343A9
:100D3800D6F898212B606B6823F440531343D6F8F8
:100D4800A4216B604E4B9D421CBFD6F8AC311A43B0
:100D5800AB684D4523F06E4323F4306343EA020346
:100D6800D6F8B021AB60EB6A23F00F0343EA020325
:100D7800EB6213D1434B5B6D03F03803182B00F083
:100D880065873CD8082B00F05387102B00F0578755
:100D9800002B00F046874FF0010895E03A4B9D4242
:100DA8000DD1384B5B6D03F00703052BF3D8DFE853
:100DB80013F0DB003F0746074D0732072B00334B84
:100DC8009D42EED0324B9D42EBD0324B9D42E8D053
:100DD800314B9D42CED0314B9D42E2D0304B9D42AB
:100DE800DFD0274B9D42D6D1264EB36D03F00703C3
:100DF800052BD0D8DFE803F05CA1A6ABB610202BFA
:100E080000F00987282BC6D1B0F5004F00F0C98043
:100E18004FF4004000F028BF4FF40040D4F8B02150
:100E2800204BD4F8906103EB420306EB4601B3F87C
:100E38009021B0FBF2F38B42ADD3B3EB063FAAD8B7
:100E48000023194601F0E4FE32460902730841EA1C
:100E580010610002C0184FF0000341F1000101F0D9
:100E6800D7FE114BA0F540729A4294D8044BD86033
:100E78002AE000BF00000258C0EA0324F369FFCF4C
:100E8800000C00580044025800440040004800404C
:100E9800004C004000500040001401400078004021
:100EA800007C0040E0680324FFFC0F0000100140B4
:100EB80001F0E6FE336A774AC3F30213D35C03F00A
:100EC8001F03D8400028A9D14FF00113B8F1010F32
:100ED800C4F8F4314FF00003C4E980332BD06A68BA
:100EE80022F490426A60AA6822F02A02AA602A685C
:100EF80042F001022A60C4F81C3226682B681A07DF
:100F080040F19F806FF07E4231464FF4001001F0AF
:100F1800ABFE002800F09580D4F88C1151E8003F12
:100F280023F0800341E80032002AF5D12023C4F8D9
:100F3800143284F8102201F02FFE23A801F030FEAD
:100F48002498BFE72AA801F083FE2B98BAE73368F4
:100F5800514813F0200F3FF461AF3368C3F3C10366
:100F6800D8405BE74D4859E7B0F5004F38D101F05C
:100F78003BFE0028A8D014E001F07EFEF9E723A884
:100F880001F00EFE2498F4E72AA801F061FE2B98E0
:100F9800EFE712F0200F404803D01B68C3F3C103EA
:100FA800D840D4F8B0213B4BD4F8901103EB42035E
:100FB800B3F890214B08B0FBF2F203EB42034FF673
:100FC800EF72B3FBF1F3A3F1100191423FF6E3AEE8
:100FD80023F00F02C3F3420392B21343EB6073E7AB
:100FE8000023082B3FF6D7AE01A252F823F000BF2A
:100FF8001D1000902B1000909F0D00909F0D0090E9
:10100800311000909F0D00909F0D00909F0D009053
:101018003B10009001F0E8FD00283FF455AF00F0C8
:1010280023BE01F029FEF7E723A801F0B9FD2498B3
:10103800F2E72AA801F00CFE2B98EDE7164800F01D
:1010480013BED4F88C311B685B0729D56FF07E423C
:1010580031464FF4800001F007FE08B3D4F88C2124
:1010680052E8003F23F4907342E800310029F5D19B
:10107800D4F88C1101F1080353E8003F23F0010371
:10108800083141E80032002AF2D12023C4F818328E
:101098004FE700BFE06803240090D00300093D003B
:1010A800002520222423C4F81422C4F81822C4F8E6
:1010B800F851C4F8FC51C4F81432D4F88C311968CA
:1010C800186821F0005120F001001860C4F8F051B0
:1010D800C9481960C949C4F81422C94A84F8105289
:1010E80001F00AFDC74AC549C74801F005FD4C2271
:1010F8002946C64801F030FDC54B4FF0160E1A6858
:1011080022F001021A60C4F890300423C4F8D450C5
:10111800C4F89C5084F8D150C4F8B050C4E92533C1
:101128004FF44073C4E928E30123C4E92A3525684C
:1011380094F8D13003F0FF02002B40F08E80B54BBD
:101148004FF009082C922AA9D3F8D4204026B24897
:1011580042F48042C3F8D420D3F8D42002F4804269
:101168001F921F9ADA6F42F48042DA67DA6F22F42C
:101178008042DA67D3F8E02042F02002C3F8E0208A
:10118800D3F8E02002F020021E921E9AD3F8E02045
:1011980042F04002C3F8E020D3F8E02002F0400219
:1011A8001D921D9AD3F8E02042F02002C3F8E020F7
:1011B800D3F8E02002F020021C921C9AD3F8E02019
:1011C80042F02002C3F8E020D3F8E02002F0200229
:1011D8001B921B9AD3F8E02042F02002C3F8E020CB
:1011E800D3F8E02002F020021A921A9AD3F8E020ED
:1011F80042F02002C3F8E020D3F8E030CDF8B88000
:1012080003F020031993199B02232B9303232D9397
:101218004FF480632A9301F013FD0A2300F58060E0
:101228002A962E9301F00CFD4FF48073A0F5806090
:101238002A9301F005FD4FF400732A9301F000FD95
:101248008023CDF8B8802A9301F0FAFC2A9601F0A1
:10125800F7FC41F28833C4F8D8306D4A00212020C9
:10126800136823F4F85343F4407313602A46D4F800
:10127800D83001F07DFC48BBD4F89020D4F8AC50AD
:10128800D4F89C3011682B43D4F8B05021F07F413A
:101298002B43D4F8945021F0D00143EA05630B4363
:1012A80013605568D4E929310B43D4F8A01043EAF8
:1012B80001435A4929400B435360136843F0010323
:1012C80013600123C4F8D40084F8D13000234FF40C
:1012D80080742AA83293379333932F93CDE9304300
:1012E800CDE9353366232A9301F0FAFC50B901F0B1
:1012F8009BFC38B999232AA82A9301F0F1FC08B974
:1013080001F092FC4FF4005300244FF480764FF024
:1013180080752D9303232AA8309634939F23329403
:101328002A933794319433952F94CDE9354401F0BD
:10133800D7FC23A801F0B4FC9DF88D309DF88C20D3
:101348001B0243EA02439DF88E201343344A93421A
:1013580040F0E48035232AA830962A930123339558
:101368002F94CDE93144CDE93434CDE9364401F048
:10137800B7FC002840F0D28023A801F091FC002897
:1013880040F0CC809DF88C30990740F1B180254A17
:101398001A49254801F0B0FB1E4D002206210D20F8
:1013A800D5F8D830214C43F00103C5F8D830D5F82A
:1013B800D83003F001032193219B01F069FC0D2033
:1013C80001F0DAFB002206210E2001F061FC0E205C
:1013D80001F0D2FB002205210F2001F059FC0F205B
:1013E80001F0CAFB4FF080420023C4F8602CEF22C2
:1013F8002C93C4F8642C1BE0B4880324EE870324E0
:101408006F880324B88803240089032450EB03243D
:10141800005000520044025800140258FEF8E0FF41
:101428001740EF000489032421890324B8FB03240F
:1014380040F2E732C4F8683CC4F8703CC4F8783C21
:10144800C4F86C2CCDE92A3394F89D3C03F0FF02D4
:10145800A3B984F89C2C1C20D5F8E830114643F039
:101468000103C5F8E830D5F8E83003F0010322930A
:10147800229B01F00DFC1C2001F07EFB0226D4F813
:10148800600CA849012584F89D6C01F04DFB94F887
:101498009C3C84F8A85CAB4284F89E5C84F89F5C12
:1014A80084F8A05C84F8A15C84F8A25C84F8A35C4E
:1014B80084F8A45C84F8A55C84F8A65C84F8A75C2E
:1014C80084F89D5C32D084F89D6C2AA98268964B7A
:1014D800134083600023954884F89C3C202384F8BB
:1014E8009D5C2A9301F0A8FB064608B372B6FEE796
:1014F80043F002038DF88C3001F01AFB70B93123E8
:101508002AA82A9301F0ECFB40B923A801F018FBA4
:1015180020B901F089FB00283FF439AF4FF0FF33C1
:10152800834A8449844801F0E7FA35E772B6FEE752
:10153800824B8349D3F8E020824842F40012DFF856
:101548002082C3F8E020D3F8E0307F4A03F4001388
:101558002093209B01F0D0FA1C22314623A801F0E9
:10156800FBFA08237948C4F8B43E0323C4F8A48ED0
:10157800C4F8D03E1023C4F8A86EC4F8E03E802317
:10158800C4F8AC6EC4F8E43E0623C4F8B05EC4F8F0
:10159800BC3E4FF4AC63A4F8B86EC4F8C83E4FF430
:1015A800806384F8C06EC4F8CC3E4FF48053C4F80E
:1015B800D86EC4F8D43E84F8DC5EC4F8E86EC4F88B
:1015C800EC5E01F091FB024608B172B6FEE794F8B2
:1015D800F43E012B0FD0D4F8A41E3F90414584F867
:1015E800F45E409009D0D4F8F83E84F8F42E43F025
:1015F8002003C4F8F83E72B6FEE7554801F090FAA9
:101608000546084601F08CFA0543ECD1514A0846D4
:10161800936823F44043936001F0F2FA03464C4880
:1016280001F0EEFA034305D1936823F4716323F0C4
:101638000F03936004234FF0000840F2FF72DFF8B5
:101648002491DFF808A184F8F48E2793CDE9253298
:10165800D9F8083023A950462393D9F80C3024939D
:1016680001F0AAFA064608B172B6FEE708F10108C9
:1016780009F11409B8F1060FEAD1304B01462AA83E
:10168800D3F8D8201C22D3F8D83001F065FA082204
:101698002F4B3148C4F8182F0322C4F8083F012300
:1016A800C4F8342F1022C4F80C6FC4F8442F8022D9
:1016B800C4F8106FC4F8482F4FF4AC62C4F8143F54
:1016C800C4F82C2F4FF48062A4F81C6FC4F8302F94
:1016D8004FF48052C4F8208F84F8246FC4F8382F50
:1016E800C4F83C6F84F8403FC4F84C6FC4F8503FCE
:1016F80001F0FAFA08B172B6FEE7042340F2FF726D
:10170800164EDFF854902E93CDE92C32B3682AA9EF
:1017180048462A93F3682B9301F04EFA804618B393
:1017280072B6FEE71C0804248800CEFF18080424BB
:10173800258903242A880324218903240044025884
:10174800EE87032463890324448903245C0A042460
:101758000021024000230240C00A042480690324B7
:10176800002002400869032401351436062DCDD126
:101778002A4B01462AA8D3F8D8201C22D3F8D830FF
:1017880001F0EAF90822264B2648C4F87C2F0322E8
:10179800C4F86C3F0123C4F8982F1022C4F8708F46
:1017A800C4F8A82F8022C4F8748FC4F8AC2F4FF463
:1017B800AC62C4F8783FC4F8902F4FF48062A4F864
:1017C800808FC4F8942F4FF48052C4F8845F84F853
:1017D800888FC4F89C2FC4F8A08F84F8A43FC4F85D
:1017E800B08FC4F8B43F01F07FFA08B172B6FEE7D3
:1017F800042340F2FF720C4EDFF828902E93CDE9B7
:101808002C32B3682AA948462A93F3682B9301F02F
:10181800D3F9804650B172B6FEE700BF00440258C3
:1018280000600258240B0424F8690324013D06F1E2
:101838001406E6D19C4E2A4601218120D6F8E030D4
:10184800D6F8E03001F024FA812001F095F9974AA2
:101858009749984801F050F9284601F039F90120D4
:1018680001F036F9944A9249944801F045F9944AAE
:101878008F49944801F030F9C7F34043924A0793DF
:10188800C7F380738A490693C7F300738F4805939B
:10189800C7F380638E4D0493C7F300630393C7F3C4
:1018A800C0530293C7F380530193C7F34053009387
:1018B8003B4601F011F9D6F8D030864A43F480331C
:1018C8007B498548C6F8D03001F006F9834A784943
:1018D800834801F021F9834A7549814801F0BCF930
:1018E80001F0C6F9002800F0BA8004207E4F01F00C
:1018F8009FF9DFF83082286D10B10368DB689847DC
:1019080095F85530002B00F08B8095F8583023B1AE
:10191800764A6749764801F09FF9386801F0D8F9A6
:1019280095F8583023B1734A6149734801F094F926
:1019380095F85430012B0BD895F85C30012B40F00A
:10194800F38001F005F9002840F0EE8085F88C005E
:1019580095F8583023B1694A5549694801F07CF92E
:101968003E68EFF3108372B60022A86AAA6203B930
:1019780062B6EB6A18B9F31AB3F57A7F04D3C0F3E9
:101988004000EE6201F028F995F824302BB195F863
:10199800233013B195F83930F3B96B6B41F28732C4
:1019A800F31A934218D900206E6301F00DF997F8E5
:1019B80049354BB101F0C8F854220021514801F0D3
:1019C800CBF8002387F8493501F0CAF820B101F0B7
:1019D80087F8002001F000F995F8583023B14A4AF9
:1019E80033494A4801F038F901F04EF995F8543076
:1019F8005BB901F065F90379064633B1437923B140
:101A080001F072F8F16801F05FF895F858303BB1D1
:101A1800424627493E4801F01FF9002385F858300F
:101A280095F85630002B3FF466AF002339483A4A00
:101A38001F4985F8563001F00FF9286D10B1036879
:101A48001B699847BFF34F8F3449354BCA6802F476
:101A5800E0621343CB60BFF34F8F00BFFDE795F8FB
:101A680055300BB901F068F801F002F990B901F0AE
:101A7800D3F890B901F040F903795A1E022A0FD819
:101A8800022B05D0012B0CBF4FF001084FF00208C4
:101A980040462BE74FF00408FAE74FF00308F7E752
:101AA8004FF00508F4E700BF004402586789032493
:101AB800EE870324878903248B890324AA890324B6
:101AC800AE890324CC890324D0890324248A0324DF
:101AD80010E70324288A0324498A03244D8A03240F
:101AE8007D8A0324818A0324C0EA0324A58A032467
:101AF800C58A0324C98A0324E58A0324E98A0324BE
:101B0800058B03240CF00324098B0324208B032466
:101B18004A8B0324708B03244E8B032400ED00E0D2
:101B28000400FA05248B032401F03EF895F865308B
:101B3800022B3AD13B682A6F9B1AB3F5FA7F34D34C
:101B48003B68082155482B6700231A4601F07CF8AA
:101B5800002843D00320002685F8650085F86660D4
:101B680000F0C6FF85F88C6001F04EF880B94C4A49
:101B7800D2F8D03F0133C2F8D03F95F85C00012875
:101B880013D195F85D304BB9002385F85D30DFE659
:101B9800012000F0B5FF00F08FFFEEE7002100F014
:101BA8008FFF95F85C30012BEED095F85C60002E25
:101BB8007FF4CEAE95F8CD302BB194F8E06F003EAF
:101BC80018BF0126760095F85D30B34203D0314640
:101BD800002000F075FF85F85D60B9E695F8B8302B
:101BE80095F85C00002B08BF0823012885F8983079
:101BF80095F8B93085F89930D7D195F85D30032B31
:101C080001D10323C1E7032100F05AFF95F85C30A6
:101C1800012BF6D0C9E7B0F5004F224824D1FFF7D1
:101C2800C0B9B0F5004F3FF4A7A90123FFF7D9B910
:101C3800B0F5004F3FF4A3A90423FFF7D2B9B0F5DC
:101C4800004F3FF4A1A90823FFF7CBB9164BB0F515
:101C5800004F1A683FF49DA992067FF5EFA91B680B
:101C68001248C3F3C103D840D4F8B011104BD4F8CC
:101C7800902103EB4103B3F89031B0FBF3F000EB94
:101C880052004FF6EF73B0FBF2F0A0F110029A4247
:101C98003FF681A8E860FFF717B900BFACE7032457
:101CA800B8FB032400093D00004402580090D0030B
:101CB800E068032410B50446006800F089FF20603E
:101CC800204610BD2DE9F34105460E4617468C689F
:101CD80001F1040801206CB9CDF80480D0B1F36893
:101CE800434514D1002644462846C5E9006402B09D
:101CF800BDE8F08104F11001384600F049FF0028E2
:101D0800A046D4E9022314BF14461C46E3E701A801
:101D1800FFF7D0FF019E394606F1100000F038FFAA
:101D28000028DFD1E0E72DE9F34105460E461746C6
:101D38008C6801F1040801206CB9CDF80480D0B199
:101D4800F368434514D1002644462846C5E9006493
:101D580002B0BDE8F08104F11001384600F018FF28
:101D68000028A046D4E9022314BF14461C46E3E722
:101D780001A8FFF79FFF019E394606F1100000F009
:101D880007FF0028DFD1E0E72DE9F34105460E46BD
:101D980017468C6801F1040801206CB9CDF804805D
:101DA800D0B1F368434514D1002644462846C5E916
:101DB800006402B0BDE8F08104F11001384600F07B
:101DC800E7FE0028A046D4E9022314BF14461C46A7
:101DD800E3E701A8FFF76EFF019E394606F1100000
:101DE80000F0D6FE0028DFD1E0E710B50446006811
:101DF80000F0F6FE2060204610BD2DE9F04FADF54D
:101E0800177D24220021062718AC1AAE204600F0C0
:101E1800A3FEAF4BAF48636001232372AE4BE36070
:101E280002232374AD4B636104232376AC4BE36137
:101E3800032384F82030AB4B636200F059FFA54BB5
:101E4800A3F53765013F40F0A981A74AA749A848EB
:101E580000F02AFEA74800F04BFFDFF898B2D5F84B
:101E6800789B02979B4B994540F0D3819E4AA3F1FA
:101E78007C00A1490DF1680800F016FE0023032735
:101E88009E48A36023609E4B6360012323729D4B91
:101E9800E36000F02DFF013F40F07682924A9A49B4
:101EA8009A4800F001FE9A4800F022FFDFF860A28D
:101EB800D5F8909B0297914B994540F09D82A3F1EC
:101EC8004C00894A93491AAF00F0EEFD1A2200210E
:101ED8000DF1620000F040FE4FF47A734FF00508F0
:101EE8008D4823808D4B63604FF4FA6323818C4BBC
:101EF800E3604FF47A6323828A4B63614FF4FA53A9
:101F08002383894BE36100F0F3FEB8F1010840F048
:101F18003C83754A8549864800F0C6FD854800F02F
:101F2800E7FEDFF810A2D5F8E89ACDF808807A4BDA
:101F3800994540F061836C4A03F12C007E494FF0CB
:101F4800130800F0B1FD0C230DF113027B49204664
:101F58008DF8133000F09AFD122305AA78491FA8BE
:101F68008DF8143000F092FD0E230DF1150275491D
:101F780026A88DF8153000F089FD0F230DF1160203
:101F880071492DA88DF8163000F080FD10230DF151
:101F980017026E4934A88DF8173000F077FD112329
:101FA80006AA6B493BA88DF8183000F06FFD022394
:101FB8000DF11902674942A88DF8193000F066FD45
:101FC80003230DF11A02644949A88DF81A3000F06C
:101FD8005DFD04230DF11B02604950A88DF81B30EC
:101FE80000F054FD052307AA5D4957A88DF81C3059
:101FF80000F04CFD01230DF11D025A495EA88DF831
:102008001D3000F043FD07230DF11E02564965A857
:102018008DF81E3000F03AFD08230DF11F025349D8
:102028006CA88DF81F3000F031FD092308AA50492B
:1020380073A88DF8203000F029FD0A230DF1210244
:102048004C497AA88DF8213000F020FD06230DF1C7
:102058002202494981A88DF8223000F017FD0D238E
:102068000DF12302454988A88DF82330264600F053
:102078000DFDDFF8109109AA41498FA88DF8248039
:1020880000F004FD3F4800F033FEB8F1010840F0CD
:102098006D8396AE1C3E304600F066FDA642F9D12F
:1020A800114A3949394800F0FFFC394800F020FE50
:1020B800DFF8DC80D5F8306B4E4540F097830A4A4C
:1020C800344935480DF5177DBDE8F04F00F0ECBCFC
:1020D800F08B0324F4170424F78B0324FB8B0324CD
:1020E800FF8B0324529D0324B0EA0324736C00245D
:1020F800F01704247C1704242D6C00240C180424E5
:10210800048C0324088C0324816C002408180424FC
:10211800C41704243B6C0024641704240ED203243F
:1021280016D203241ED2032426D203248F6C002443
:102138006017042494170424496C00240E8C03248B
:102148001C8C0324288C0324338C03243B8C032409
:10215800438C03244C8C0324608C0324748C032448
:10216800858C0324988C0324A98C0324C58C032410
:10217800E18C0324FA8C0324158D03242E8D03246B
:102188003E8D0324AC170424576C0024A81704249C
:10219800DC170424656C0024D8170424D5F8803B88
:1021A80016F808BC2BB1D5F87C8B98F810305B4535
:1021B8000AD359460AA800F0C5FBDDF82C80B8F10F
:1021C800000F21D00A9B0BBBB44B98451ED098F842
:1021D8001090D94594BF4FF000094FF0010918201D
:1021E80000F066FD844600F11003424616E903003C
:1021F80083E80300A94B6146484600F055FDD5F831
:10220800803B0133C5F8803B08361BE64FF00109D7
:10221800E5E799F8103014AAD9F81410204601936C
:1022280000F052FD9E4ED5F8FCAABAF1000F33D14A
:102238005E4506D006F11001204600F0A9FC0028F2
:1022480065D02C2000F034FD00F1100780462146AF
:10225800384600F021FD029B5E4588F8283028D1D9
:10226800D5F8083B5BB1D5F8042B394602F11000CC
:10227800039200F08DFC039A002840F03D833A4613
:1022880088490CA8FFF780FDDDE90C62002A00F000
:1022980037834EB3012030E00AF11000214600F0E8
:1022A80077FC0028DAE902210ABF56468A46924698
:1022B800BBE706F1100238461146039200F068FCAD
:1022C800039A00283AD0D5F8003B16969E4230D0A3
:1022D80016A8FFF7EFFC00683946103000F058FCEC
:1022E80000B3169AD3683BBB5A45D3D002F110010C
:1022F8003846039200F04CFC039A5B46414600F0D6
:10230800D3FCD5F8083B0133C5F8083B4646019B8A
:10231800204686F8283000F027FC484600F0F4FBF9
:1023280081469FE53A465F490CA8FFF72DFDDDE998
:102338000C3632461E46A9E73346FAE739461046B8
:1023480000F026FC002800F0DB82D5F8042B169656
:1023580096420FD016A8FFF748FD0168384610319D
:1023680000F016FC40B1F3680BB93246BCE7DDF863
:1023780058A05246564689E73A464A490CA8FFF7FC
:1023880003FDDDE90CA2F5E7D5F8983B18F808AC91
:1023980023B1D5F8946B337C534507D351460EA827
:1023A80000F0FAFA0F9E0EB30E9B13BB3E4B9E42F3
:1023B8001FD096F81090D14594BF4FF000094FF008
:1023C8000109182000F074FC844600F1100332461D
:1023D80018E9030083E80300334B6146484600F0E0
:1023E80063FCD5F8983B0133C5F8983B08F1080819
:1023F80051E54FF00109E4E799F8103014AAD9F82B
:1024080014102046019300F05FFC284ED5F844BB19
:10241800BBF1000F34D1564506D006F11001204615
:1024280000F0B6FB002873D02C2000F041FC00F12E
:10243800100780462146384600F02EFC029B564580
:1024480088F8283036D1D5F8503B5BB1D5F84C2BFD
:10245800394602F11000039200F09AFB039A002813
:1024680040F053823A46124910A8FFF75CFCDDE9B8
:102478001062002A00F04D82002E36D001203DE087
:102488000BF11000214600F083FB0028DBE9022154
:102498000ABF5E468B469346BAE700BFF41704248A
:1024A8007C170424781704240C180424C417042463
:1024B800C017042406F1100238461146039200F0B2
:1024C80067FB039A00283AD0D5F8483B16969E42F7
:1024D80030D016A8FFF7EEFB00683946103000F040
:1024E80057FB00B3169AD3683BBB5245C6D002F1DE
:1024F80010013846039200F04BFB039A53464146BD
:1025080000F0D2FBD5F8503B0133C5F8503B4646A6
:10251800019B204686F8283000F026FB484600F04C
:10252800F3FA8146C7E43A46AC4910A8FFF7FBFB2B
:10253800DDE9103632461E469BE73346FAE7394650
:10254800104600F025FB002800F0E381D5F84C2B5D
:10255800169696420FD016A8FFF747FC0168384632
:10256800103100F015FB40B1F3680BB93246BCE7F7
:10257800DDF858B05A465E467BE73A46974910A8B8
:10258800FFF7D1FBDDE910B2F5E7D5F8F03A37F8F7
:1025980008AC23B1D5F8EC6A338A534507D35146C2
:1025A80012A800F023FA139E0EB3129B0BBB8C4BA0
:1025B8009E421ED0B6F81090D14594BF4FF0000946
:1025C8004FF00109182000F073FB844600F1100356
:1025D800324617E9030083E80300814B6146484609
:1025E80000F062FBD5F8F03A0133C5F8F03A083745
:1025F8008BE44FF00109E5E7B9F8103009AAD9F8DA
:1026080014102046019300F05FFB764ED5F814BBFA
:10261800BBF1000F33D1564506D006F11001204614
:1026280000F0B6FA002865D02C2000F041FB00F13C
:10263800100780462146384600F02EFB029B56457F
:10264800A8F8283028D1D5F8203B5BB1D5F81C2B49
:10265800394602F11000039200F09AFA039A002812
:1026680040F05C813A46604914A8FFF72BFBDDE98E
:102678001462002A00F056814EB3012030E00BF1BD
:102688001000214600F084FA0028DBE902210ABF85
:102698005E468B469346BBE706F110023846114664
:1026A800039200F075FA039A002839D0D5F8183B40
:1026B80016969E422FD016A8FFF7FCFA00683946F6
:1026C800103000F065FAF8B1169AD36833BB52455A
:1026D800D3D002F110013846039200F059FA039A58
:1026E8005346414600F0E0FAD5F8203B0133C5F8DF
:1026F800203B4646019B2046338500F035FA484684
:1027080000F002FA814612E43A46374914A8FFF766
:10271800D9FADDE9143632461E46AAE73346FAE707
:102728003946104600F034FA002800F0FB80D5F84E
:102738001C2B169696420FD016A8FFF756FB016879
:102748003846103100F024FA40B1F3680BB932462C
:10275800BDE7DDF858B05A465E468AE73A46224950
:1027680014A8FFF7AFFADDE914B2F5E7D5F8383B5E
:102778004BB1D5F8347B314607F1100000F008FA68
:10278800002840F0D480314616A800F0C1F9179F00
:10279800FFB1169BFBB94F451DD007F1100130461C
:1027A80000F0F6F982462C2000F082FA3146834682
:1027B800103000F0E9F9337E3A4659468BF8283054
:1027C80050464B4600F070FAD5F8383B0133C5F84F
:1027D800383B1C3659E44FF0010AE4E7C0170424DB
:1027E800641704249417042490170424336996F872
:1027F8002810D5F85C2BDFF844B101930ABBC34518
:1028080003D09BF810208A4262D9182000F050FAB1
:1028180096F828A00023C345074680F810A0436116
:1028280019D1D5F8683B23B1D5F8642B137C5345EF
:102838003DD352464049204600F002F9D4E900B29F
:1028480052E092F810C0D2E902078C452ABF93469D
:102858003A460246D2E79BF81020524515D9D5F8DA
:10286800602BCDF824B093450AD009A8FFF722FAC7
:102878000268127C5245DCD2099AD168B9B15A462D
:10288800BBF1000F13D0012018E02FD2D5F8642B2C
:10289800CDF824B093450AD009A8FFF7A6FA026834
:1028A800127C5245C5D9DBF80C20D2B95A464245AC
:1028B800E9D0107C504594BF00200120434639469A
:1028C80000F0F2F9D5F8683B0133C5F8683BBB4620
:1028D800019B3046CBF8143000F016F90646FFF796
:1028E800EBBBDDF824B05A46002AC9D13846182176
:1028F8005F4600F081F9EAE7002A7FF4F5AC164656
:102908004046B04600F08CF900E5002A7FF4EDADB2
:1029180016464046B04600F083F9F8E5002A7FF4F1
:10292800D6AE16464046B04600F07AF9E1E6002FEA
:102938007FF431AF4DE700BFD8170424DC17042417
:10294800FFF75BBA134BF7B505460E469C681F1D8B
:1029580001225CB90197BAB1DB68BB4211D10023EF
:102968003C462846C5E9003403B0F0BD227C274622
:10297800B242D4E902018BBF0122002204460C4670
:10298800E7E701A8FFF796F9019B1A7CB242E6D364
:10299800E7E700BFF0170424134BF7B505460E46CA
:1029A8009C681F1D01225CB90197BAB1DB68BB4264
:1029B80011D100233C462846C5E9003403B0F0BDD8
:1029C800227C2746B242D4E902018BBF01220022B1
:1029D80004460C46E7E701A8FFF76CF9019B1A7C4F
:1029E800B242E6D3E7E700BF08180424134BF7B553
:1029F80005460E469C681F1D01225CB90197BAB1B5
:102A0800DB68BB4211D100233C462846C5E90034A7
:102A180003B0F0BD228A2746B242D4E902018BBF37
:102A28000122002204460C46E7E701A8FFF742F915
:102A3800019B1A8AB242E6D3E7E700BF6017042475
:102A4800F7B50123054616468C680F1D5CB901973A
:102A5800BBB1CB68BB4211D100233C462846C5E92F
:102A6800003403B0F0BD237C2746B342D4E9020208
:102A78008BBF0123002304461446E7E701A8FFF7AC
:102A880019F9019B1A7CB242E6D3E7E737B5154638
:102A980001AA044600F018F92B78237603B030BD5C
:102AA8005FF800F07DB200245FF800F0ED5C0324CD
:102AB8005FF800F0A59502245FF800F0B5CC00247B
:102AC8005FF800F0B5CB00245FF800F029DF01249F
:102AD8005FF800F0195600245FF800F0BD070024E5
:102AE8005FF800F001DA02245FF800F001DA002450
:102AF8005FF800F0A7D500245FF800F0BD070024B8
:102B08005FF800F09DCC00245FF800F02B5E0324F2
:102B18005FF800F0555502245FF800F0F5B3002483
:102B28005FF800F0BD1200245FF800F09305002460
:102B38005FF800F0E90B00245FF800F0F178022458
:102B48005FF800F01D9902245FF800F03D9D022413
:102B58005FF800F0E5C400245FF800F0DD0C032402
:102B68005FF800F0395000245FF800F03F6103245B
:102B78005FF800F0D99802245FF800F0D916002415
:102B88005FF800F0C11100245FF800F00DCD0224B9
:102B98005FF800F00FBD00245FF800F0010000248A
:102BA8005FF800F0893300245FF800F041CB02247D
:102BB8005FF800F0692900245FF800F0C5120024CE
:102BC8005FF800F0F10E03245FF800F0A5940224EA
:102BD8005FF800F02F5E03245FF800F0D1DB0224D9
:102BE8005FF800F0275E03245FF800F04529002411
:102BF8005FF800F0450100245FF800F0F75C03245B
:102C08005FF800F0B51200245FF800F035CF00241B
:102C18005FF800F0755C03245FF800F0619202240D
:102C28005FF800F0EDB002245FF800F0F50700242B
:102C38005FF800F07DDF02245FF800F0C19B0224FA
:102C48005FF800F0D92500245FF800F079C4022469
:102C58005FF800F0DD3400245FF800F0F5B30024DD
:102C68005FF800F035DB00245FF800F01D970224C0
:102C78005FF800F0259202245FF800F0C1020024FA
:102C88005FF800F0890200245FF800F0C95A0224B6
:102C98005FF800F0F11600245FF800F041B102245B
:102CA8005FF800F0519A02245FF800F0335E0324C5
:102CB8005FF800F02D5D03245FF800F04917002449
:102CC8005FF800F07DC800245FF800F0A7BC00247E
:102CD8005FF800F06D9502245FF800F09F12002461
:102CE8005FF800F0CD9902245FF800F03136002437
:102CF8005FF800F07FB102245FF800F009B6002405
:102D080072B6FEE730B5CC0D1430C1F30451072577
:102D180004F004048D408A40035923EA0503134351
:102D2800035130BD08B528B190F83530022B03D0D7
:102D38008023436501205DE003683F4A934251D0F8
:102D4800183293424ED0183293424BD018329342E5
:102D580048D01832934245D01832934242D01832A4
:102D680093423FD0183293423CD002F556729342B8
:102D780038D01832934235D01832934232D01832B4
:102D880093422FD0183293422CD01832934229D034
:102D98001832934226D01832934223D01A6822F070
:102DA8000E021A601A6822F001021A60234A93423E
:102DB80021D1026E136823F480731360D0E91613CF
:102DC80003F01F02012393404B60D0E919325A6087
:102DD800C36E2BB31A6822F480721A60D0E91C32D1
:102DE8005A601DE0042280F835201A6822F001029A
:102DF8001A60002008BD124A9342DAD01432934276
:102E0800D7D014329342D4D014329342D1D0143252
:102E18009342CED014329342CBD014329342C8D0CE
:102E2800012380F83530002380F83430036D002BFF
:102E3800DFD09847DDE700BF100002400854025871
:102E48001C540258494B1A6902F03802102A30B54E
:102E580000F08880182A0CD0002A40F085801A6873
:102E6800434812F0200F03D01B68C3F3C103D840B6
:102E780030BD996A9D6ADC6A15F47C7FC5F305103C
:102E88005A6BF5D0C2F3CC0204F0010401F003013F
:102E980007EE900A6243B7EE006A0129B8EEE77AB6
:102EA80006EE902AFAEEE96A4ED002293ED00029B1
:102EB8004AD11A68920627D519682D4AC1F3C1016B
:102EC8001B6BCA40C3F3080307EE902AF8EEE75AD3
:102ED800C5EE877A07EE103AB8EEC77A37EE267A4B
:102EE80037EE067A67EE877A204B1B6BC3F34623CF
:102EF800013307EE103AF8EEC76A87EEA67AFCEEC1
:102F0800C77A17EE900AB3E71B6BC3F3080307EE03
:102F1800903AF8EEE77A77EEA67A77EE867A9FED22
:102F2800156AC6EE076A67EEA67ADDE71B6BC3F380
:102F3800080307EE903AF8EEE77A77EEA67A77EE8E
:102F4800867A9FED0D6AECE71B6BC3F3080307EE67
:102F5800903AF8EEE77A77EEA67A77EE867A9FEDE2
:102F6800076ADEE7064883E7064881E70044025817
:102F78000090D0030024744C20BCBE4B0024744A3B
:102F880040787D0100093D0008B5FFF75BFF09495E
:102F9800094A8B69C3F30323D35C03F01F03D840AA
:102FA8008B6903F00F03D35C044A03F01F0310601E
:102FB800D84008BD00440258E068032410E7032401
:102FC80008B5FFF7E1FF054B054ADB69C3F30223A8
:102FD800D35C03F01F03D84008BD00BF004402586B
:102FE800E0680324354B9A6A02F00302032A30B5DD
:102FF80062D01A68324D22F080621A602C681A6812
:10300800120147D49A6A046822F47C3242EA0432F4
:103018009A628268C468013A013C5202240492B25E
:1030280004F4FE0422434468013CC4F30804224328
:103038000469013C240604F0FE4422439A63DA6AD8
:10304800446922F0C0022243DA62DA6A846922F013
:1030580020022243DA62DA6A22F01002DA62DA6BBC
:10306800C0696FF3CF0242EAC002DA63DA6A42F05B
:103078001002DA62DA6A99B942F40022DA620F4B76
:103088001A6842F080621A6029681A6812010ED51F
:10309800002004E02A68121B022AB0D9032030BDA0
:1030A80001290CBF42F4801242F40012E6E72A68B4
:1030B800521A022AE9D9F1E70120F0E70044025840
:1030C800C0EA0324354B9A6A02F00302032A30B59A
:1030D80062D01A68324D22F080521A602C681A6841
:1030E800920047D49A6A046822F07C7242EA045239
:1030F8009A628268C468013A013C5202240492B27E
:1031080004F4FE0422434468013CC4F30804224347
:103118000469013C240604F0FE4422431A64DA6A76
:10312800446922F440622243DA62DA6A846922F44A
:1031380000722243DA62DA6A22F48072DA625A6C26
:10314800C0696FF3CF0242EAC0025A64DA6A42F4F5
:103158008072DA62DA6A99B942F48002DA620F4B55
:103168001A6842F080521A6029681A6892000ED5CF
:10317800002004E02A68121B022AB0D9032030BDBF
:1031880001290CBF42F4000242F08072E6E72A6887
:10319800521A022AE9D9F1E70120F0E7004402585F
:1031A800C0EA03247047036859699A6942F0080223
:1031B8009A619A6942F010029A611A6822F0010233
:1031C8001A601A6922F45B7222F003021A619A6883
:1031D80022F440429A6090F88120042A0BD08A0693
:1031E80009D5D0F8842042F08002C0F884209A697A
:1031F80042F020029A6190F88120032A0BD04A06F7
:1032080009D5D0F8842042F00402C0F884209A69D5
:1032180042F040029A618A0509D5D0F8842042F02C
:103228000102C0F884209A6942F400729A61CA05C2
:1032380009D5D0F8842042F00802C0F884209A69A1
:1032480042F480729A610023A0F86230A0F86A30D4
:103258007047836B5A6A82424FF0010204D183F8A7
:103268003E2000221A777047996A814202D183F87A
:103278003F20F6E7D96A814202D183F84020F0E77F
:10328800196B814202D183F84120EAE783F83D2097
:10329800E7E7294A0368904212D0B0F1804F0FD077
:1032A800A2F57C4290420BD002F58062904207D092
:1032B80002F58062904203D002F57842904208D12C
:1032C80023F070034A68134323F44073CA68134316
:1032D8000AE01A4A9042F7D002F580629042F3D091
:1032E80002F580629042EFD04A6923F080031343CD
:1032F80003608B68C3620B6883620F4B98420FD0E0
:1033080003F5806398420BD003F57053984207D0B9
:1033180003F58063984203D003F58063984201D196
:103328000B690363012343610369DB0703D5036961
:1033380023F0010303617047000001400040014091
:10334800836B0022A3F85E20A3F856207047524BE7
:103358008AB098420FD103F58843D3F8E02042F0B1
:103368000102C3F8E020D3F8E03003F00103019331
:10337800019B0AB07047494B98420ED103F5804330
:10338800D3F8E02042F00202C3F8E020D3F8E0309E
:1033980003F002030293029BEBE7414B98420ED1E4
:1033A80003F57053D3F8E02042F00402C3F8E0209C
:1033B800D3F8E03003F004030993099BD9E7394BAC
:1033C80098420ED103F56053D3F8E02042F008028A
:1033D800C3F8E020D3F8E03003F008030893089B13
:1033E800C7E7314B98420ED103F55053D3F8E0208C
:1033F80042F01002C3F8E020D3F8E03003F01003E5
:103408000793079BB5E7294B98420ED103F5405324
:10341800D3F8E02042F02002C3F8E020D3F8E030EF
:1034280003F020030693069BA3E7214B98420ED195
:1034380003F53053D3F8E02042F04002C3F8E0200F
:10344800D3F8E03003F040030593059B91E7194B4F
:1034580098420ED103F52053D3F8E02042F08002C1
:10346800C3F8E020D3F8E03003F080030493049B12
:103478007FE7114B98427FF47CAF03F51053D3F8E4
:10348800E02042F48072C3F8E020D3F8E03003F47F
:1034980080730393039B6CE70000025800040258F2
:1034A80000080258000C0258001002580014025874
:1034B80000180258001C0258002002580CB437B5F6
:1034C80006AC0A460146094854F8045B33F07EFE10
:1034D80021462846019434F017F8054833F0EAFEEF
:1034E80003B0BDE8304002B0704700BFD78703245F
:1034F800ED8703242DE9F043214D91B00123214CA0
:103508002F68DFF88480DFF884908DF80330342248
:10351800002103A8012630F061FA4FF4807302A855
:103528000893052302934FF08073CDE90B3629F0F9
:10353800CDF870B90DF1030029F00AF948B99DF8E2
:103548000300304007D02B6841F28732DB1B9342DF
:1035580004D96FF0020011B0BDE8F083D8F800304C
:10356800B3FBF9F30193019B03B90196019B5A1E22
:10357800019213B9013CCAD1EBE700BFF6E700BFDF
:10358800C0EA032490D0030010E70324A0860100BA
:1035980010B5846B636D43F040036365A36D43F01E
:1035A8000403A3650FF00AFA002380F8503B80F863
:1035B8000A3C80F8583B1CF0FDFCA36D636D10BD00
:1035C80010B5846B636D13F0500F636D28D143F40D
:1035D8000073636523681A6811071DD5DA6812F449
:1035E800406F0ED1DB6813F4005F0AD1636D23F4DA
:1035F80080736365636DDA0403D4636D43F001037C
:1036080063650FF0DBF990F8583BC3B121460122FE
:10361800BDE810401CF00FBDDB6813F0030FE4E7B2
:10362800DB060DD50FF0CAF9002380F8503B80F86F
:103638000A3C80F8583B1CF0BDFCA36D636D10BDBF
:10364800E36CBDE81040DB6C184710B5846B0FF0D5
:10365800B5F944B190F8583B2BB121460022BDE89A
:1036680010401CF0E8BC10BD806B0023A0F86A3045
:10367800A0F86230012380F8813006F0F1BB08B56C
:10368800436D022B0FD0806BFFF78DFDD0F884308F
:1036980043F01003C0F88430012380F88130BDE87E
:1036A800084006F0DDBB08BD2DE9F0470668044672
:1036B80033697269D6F80880110590F8817003EAB9
:1036C8000205FFB207D51A0705D5B36943F40063AD
:1036D800B361BDE8F08705F06403042B18D1636F6C
:1036E80020469847236F20469847012305F045094F
:1036F800B9F1010F03D1236F204698474B4605F0D7
:103708002602022A06D1636F2046BDE8F047184713
:103718000023EBE7002BDCD12B0750D523689A69EF
:1037280042F008029A619A6942F010029A619A6915
:1037380042F400629A611A6922F008021A619B68D1
:1037480013F4404F1BD02046FFF72DFD012284F8CB
:103758008120D4F884302BB3BDE8F04706F080BB55
:10376800E268636E0F2A10D92268126B43F8042BA3
:103778006366B4F86A30013B9BB2A4F86A30B4F8C7
:103788006A309BB2002BEBD1DDE7072A03D9328ED2
:1037980023F8022BECE7226892F830201A70636E47
:1037A8000133E5E7032F94D13F4B191D8C4202D119
:1037B80083F88C208DE7BDE8F0470CF097BB15F433
:1037C800587F86D068060AD5D4F88430226843F03A
:1037D8000403C4F88430936943F040039361A90556
:1037E8000AD5D4F88430226843F00103C4F8843041
:1037F800936943F400739361EA050AD5D4F88430D9
:10380800226843F00803C4F88430936943F4807352
:103818009361AB060AD5D4F88430226843F080035C
:10382800C4F88430936943F020039361D4F884305A
:10383800002B3FF44EAF236808F440481A68B8F5E7
:10384800404F22F001021A601A6922F45A7222F0DB
:1038580003021A6122D19A68E06F22F440429A600A
:1038680050B1124B0365FFF75DFA28B1D4F88430E4
:1038780043F04003C4F88430A06F00283FF429AF18
:103888000A4B0365FFF74EFA00283FF422AFD4F83D
:10389800843043F04003C4F884301AE701232046FB
:1038A80084F8813058E700BFC0EA0324690900247E
:1038B800806B90F88130072B13D0836FDB69B3F5E9
:1038C800807F09D1074B1A1D904203D1012283F84A
:1038D8008C2070470CF00ABB0268136943F0080398
:1038E80013617047C0EA03242DE9F04100238EB02C
:1038F8004FF4807008930D9309930593CDE906035F
:10390800CDE90B3306236846009328F0DFFE054611
:10391800002850D10523294C4FF08071D4F800803D
:103928000093012394F8D0209A42CDE9091304D1D9
:103938006FF002000EB0BDE8F08184F8D03094F842
:10394800D130012BDFB233D14223C4F8D400014671
:10395800424684F8D130202041F2883328F03CFEDA
:10396800064628BBD4F8903002224FF00061684622
:103978009A625A621022DA621A6822F4400242F409
:1039880080021A6028F07EFD41F2883342463946AB
:10399800082028F021FE40B9D4F890300822DA60D7
:1039A80084F8D17084F8D000C4E784F8D060BFE709
:1039B80084F8D050BCE76FF00100BBE7C0EA0324ED
:1039C80003460846012B01D128F01EBF28F036BF58
:1039D800FEE700B58BB0EFF30882EFF30981174BD0
:1039E800986A0990D86A0890186B0790586B0690E7
:1039F800986B0590F1EE100AD3F88830EFF3148332
:103A080013F0020F0E480CBF13460B46099A08998B
:103A1800CDE901215A690B4900920B4A9B69FFF7CE
:103A28004DFD099B089B069B059B099B099B099BD0
:103A3800099B099B099B099B099BFEE700ED00E098
:103A4800328803242A880324EF87032408B5044B0B
:103A580004485A6B9A6A9B6A33F02CFCFEE700BF55
:103A680000ED00E03688032408B5044B04489A6B3F
:103A78009A6A9B6A33F01EFCFEE700BF00ED00E087
:103A88004988032408B5034B03489A6A9B6A33F0B4
:103A980011FCFEE700ED00E05B88032470477047E7
:103AA800704770B57C4C23680133236094F8DC3090
:103AB800ABB1256806F02EF8784A0346116994F8E8
:103AC800F12001F0010181F001014AB3D4F8F4209A
:103AD800AA1A002A04DA06F029F8C4F8EC5070BDD6
:103AE800002284F8F12084F8DD000A20A4F8DE2002
:103AF80084F8E02084F8E12084F8E21084F8E320D8
:103B080084F8E42084F8E52084F8E62084F8E710B7
:103B180084F8E81084F8E900C4F8EC5084F8F02040
:103B280094F8DD2093420CD194F8E7308B4262D1AF
:103B380094F8E930092B63D894F8E9300133DBB203
:103B48005CE094F8DD6094F8DD0084F8DD3043EA49
:103B580080007340524ADBB20244032B92F91020D2
:103B680002D1002384F8E030002ADDD0B4F8DE303A
:103B780002FA83F303F30F031BB2A4F8DE3094F8C0
:103B8800E03042FA83F36FF07E029342B8BF1346E7
:103B98007F2BA8BF7F235BB284F8E03094F8E03035
:103BA8005BB2012B16DC94F8E0305BB20133BBDA70
:103BB80094F8E03002335BB284F8E03094F8E130F6
:103BC8005BB27E33EFDB94F8E130013B5BB284F803
:103BD800E130E8E794F8E030023B5BB284F8E0308B
:103BE80094F8E1307F2BD9D094F8E13001335BB2FF
:103BF80084F8E130D2E7012384F8E71084F8E9304B
:103C080094F8E72094F8E8309A4217D094F8E9300D
:103C1800092B13D994F8E730DBB284F8E83094F82C
:103C2800E83003F0FF0203B3012384F8E23084F89C
:103C3800E330C4F8EC50002384F8F03094F8E23014
:103C4800002B3FF44CAF94F8F030002B7FF447AFD3
:103C5800D4F8EC30ED1AB5F57A7FFFF440AF0123C4
:103C680084F8E63084F8F03039E794F8E230002B35
:103C7800E4D0D4F8EC3084F8E220012284F8E4207F
:103C880094F8F0100029D6D1EB1AB3F57A7FD2D286
:103C980084F8E520CFE700BFC0EA032400000258FB
:103CA800E068032406F0D2B806F0D0B806F0CEB823
:103CB80006F0CCB80348D0F8F830FC30013340F8AF
:103CC800043CF1E4C0EA03240048EDE4C4EA032418
:103CD8004FF0B043D3F88820D2050DD54FF4807249
:103CE800C3F88820EFF3108172B6044A936A43F050
:103CF8000103936201B962B6704700BF10E703245D
:103D08004FF0B043D3F88820510513D54FF48062A3
:103D1800C3F88820124BD3F884210132C3F88421D8
:103D280093F88821032A05D893F888210132D2B262
:103D380083F888214FF0B043D3F8882092040DD53A
:103D48004FF40052C3F88820EFF3108172B6054A89
:103D5800936A43F00203936201B962B6704700BFE9
:103D6800C0EA032410E7032408B52FF03BFF16230D
:103D78000360FEE72DE9F04F894685B090468A46F4
:103D8800354C4FF0000BAAEB0903984503DC40467D
:103D980005B0BDE8F08FD4F81832202B41D122238A
:103DA800D4F89461C4F81CB2B6F5805FC4F8183230
:103DB8004FF00103C4F8F8B12168A4F8E831A4F879
:103DC800EA3108D1D4F89C31A3B1FF273B4600263D
:103DD8000DF10F0514E02EB9D4F89C2142BBFF2346
:103DE8001F46F4E7B6F1805F20D1D4F89C61FEB19C
:103DF8003F23F5E740F2FF170DF10F0600253B467C
:103E0800A4F8EC31B4F8EA319BB23BB14FF6FF723B
:103E18002020019128F002FB019960B12023C4F809
:103E280018329DF80F300AF8013BACE70023D7E7BA
:103E38007F231F46CCE7D4F88C315B6A3B4045B9F9
:103E480026F8023BB4F8EA31013B9BB2A4F8EA3108
:103E5800D8E705F8013BF5E7C0EA032410467047A8
:103E68004FF0FF3070474FF4005300204B6070470D
:103E780001207047002070470D4A0346D2F82012EF
:103E880010B511B90B49C2F82012D2F820020A491C
:103E98000A4C0344091B8B4206D92FF0A3FE0C23BE
:103EA80003604FF0FF3010BDC2F82032FBE700BFBF
:103EB800C0EA0324000000200000022000200000C7
:103EC800254AD2F8883043F47003C2F88830234A70
:103ED800136803F00F03062B05D8136823F00F03AC
:103EE80043F0070313601E4B1A6842F001021A6080
:103EF80000221A611B4A19680A4018491A600A68A0
:103F0800120705D50A6822F00F0242F007020A607C
:103F1800002215499A61DA611A6299621349D962D5
:103F2800134919635A639963DA6319645A641968FF
:103F380021F4802119601A660E4B1B686FF30F037A
:103F4800B3F1005F03D20C4B0122C3F808210B4BDD
:103F580043F2D2021A60704700ED00E000200052E0
:103F6800004402587FEDF6EA000202020000FF0159
:103F7800800201010010005C0080005100400052E6
:103F88000346002082B0C3F3074262F30700C3F37D
:103F9800072262F30F2063F3174002B07047044A08
:103FA8000130116813685B1A8342FBD3704700BF66
:103FB800C0EA0324806800F0010070478068C0F3FD
:103FC800800070470023F7B50193054690F85030FC
:103FD8000E46012B00F0B0810122046880F85020C1
:103FE8002046FFF7EBFF002840F077810B68002B95
:103FF8004FEA936108DBC3F31300002840F0DD802B
:104008008A40E3691343E361726804F1300C1F27A7
:1040180001F01F01900902F01F0200F00C00974008
:1040280091405CF8003023EA07030B434CF800305A
:104038002046FFF7C3FFA36803F00803034341D1F9
:10404800B26820463168FEF75DFEBC4B72691B689A
:1040580003F07043B3F1805FE36840F0B780C3F3C7
:1040680082035B0037699A403168042F00F0B780FB
:1040780004F1600001F0F84150F8273003F00043E4
:104088000B43134340F82730727E3169571E50F8AE
:1040980021307A4223F000437A4143EAC27340F860
:1040A8002130337E316903F1FF3C226901F01F01A1
:1040B800DCF1000322F4F04243EB0C03DB028B40FB
:1040C800134323612046FFF775FF00286FD1F76877
:1040D800336807F0180C9A4AD4F8C010C3F31300D9
:1040E80022FA0CF221EA00011A400A43C4F8C0205F
:1040F800944A97421ED1002840F099809A0E0121D7
:10410800013202F01F079206092F00F2B08002F078
:10411800F842B9401143002840F0A4809B0E0133B7
:1041280003F01F0303EB43031B051943B268204642
:10413800FEF7E8FD3268002A39DA83498C4200F03C
:10414800C480824E824B8348B44218BF03468C42D7
:104158009B6803D07D498C4240F0B9807A48FFF7CC
:1041680029FF01467948FFF725FF014340F0B58054
:10417800794803F0E071824240F0B880180216D402
:10418800764B9C4213D1734A936823F0E0730B4338
:1041980043F400039360724B724A1B68B3FBF2F35B
:1041A80001335B000193019B002B40F09C800020B1
:1041B800002385F8503003B0F0BD93FAA3F3B3FAA7
:1041C80083F3012203F01F039A401AE713F0100F3C
:1041D800E3683FF444AF5B0803F0080342E7236E4B
:1041E8008A0603F0F843B3EB816F03D1236E23F003
:1041F80000432366636E03F0F8439A4203D1636E6B
:1042080023F000436366A36E03F0F8439A4203D198
:10421800A36E23F00043A366E36E03F0F8439A42CB
:104228007FF450AFE36E23F00043E3664AE793FA66
:10423800A3F232B1B2FA82F2013202F01F02092A65
:1042480025D893FAA3F2B2FA82F20132920602F06A
:10425800F84293FAA3F7B7FA87F70121013707F075
:104268001F0756E793FAA3F3B3FA83F357E702F06D
:10427800F842B9401143D8B99B0E013303F01F032C
:1042880003EB43031E3B1B0543F000734DE793FA12
:10429800A3F2B2FA82F20132920602F0F84293FADD
:1042A800A3F7B7FA87F70121013707F01F07E0E7FF
:1042B80093FAA3F2B2FA82F203236FF01D000132DF
:1042C80002F01F0213FB0203DDE7214B3FE72348FF
:1042D800FFF770FE00283FF44BAF6B6D012043F0F1
:1042E80020036B6564E7019B013B5BE71E48824244
:1042F8000FD1DA013FF55BAF184B9C427FF457AF03
:10430800144A936823F0E0730B4343F0807393607F
:104318004DE7164882427FF44AAF5B023FF547AF4C
:104328000E4B9C427FF443AF0A4A936823F0E07334
:104338000B4343F48003EAE702203CE70010005CEB
:10434800FFFF0F000000FF4700200240002102404D
:104358000023024000630258000084CB006002582A
:1043680010E70324400D0300000052C70000B8CF37
:104378000268034610B510469168FFF71BFE08B99E
:10438800002010BD8807FBD4916801F00D010129B8
:1043980015D191680F4821F0004121F03F0141F00B
:1043A800020191600321116004689168C907E7D58B
:1043B8000168091B0229F8D99168C907F5D55A6D12
:1043C800012042F010025A659A6D42F001029A6586
:1043D800D7E700BFC0EA03240123410900F01F000A
:1043E800024A834042F82130704700BF00E100E0F4
:1043F800144B30B5DC68C4F30224C4F10703251D4F
:10440800042B28BF0423062D4FF0FF358CBF033C37
:10441800002405FA03F3A54021EA030322EA050272
:10442800A3401343421C4FEA0313DBB206D000F14A
:10443800604000F5614080F8003330BD014A82F8E1
:104448002330FAE700ED00E038B5114D4FF47A72E9
:1044580001462B68B3FBF2F3013BB3F1807F01D334
:10446800012038BD4FF0E022F02000240F295361CD
:10447800084B83F823004FF0070394611361EFD8CA
:104488004FF0FF302246FFF7B3FF2046E963E8E725
:1044980010E7032400ED00E02DE9F04399460028D9
:1044A80000F0688190F83440012C00F06581012407
:1044B80080F8344090F83540012C4FF0000440F06B
:1044C80054810225854E80F8355044650468B4420D
:1044D8001ED0834DAC421BD01835AC4218D01835CD
:1044E800AC4215D01835AC4212D01835AC420FD0BA
:1044F8001835AC420CD01835AC4209D005F55675C4
:10450800AC4205D01835AC4202D01835AC42FFD0C9
:104518002568B442076C25F001052560D0F858C01D
:1045280046D06F4DAC4243D01835AC4240D0183518
:10453800AC423DD01835AC423AD01835AC4237D0F1
:104548001835AC4234D01835AC4231D005F5567523
:10455800AC422DD01835AC422AD01835AC4227D001
:104568001835AC4224D01835AC4221D01835AC42AD
:104578001ED01835AC421BD01835AC4218D0594D56
:10458800AC4215D01435AC4212D01435AC420FD021
:104598001435AC420CD01435AC4209D01435AC42B9
:1045A80006D01435AC4203D01435AC4240F0AB8091
:1045B800D0E919536B60C56E15B1D0E91C536B6017
:1045C800B442C56DD0F808803BD0DFF814E17445DB
:1045D80037D00EF1180E744533D00EF1180E74450D
:1045E8002FD00EF1180E74452BD00EF1180E74450D
:1045F80027D00EF1180E744523D00EF1180E74450D
:104608001FD00EF5567E74451BD00EF1180E74455A
:1046180017D00EF1180E744513D00EF1180E74450C
:104628000FD00EF1180E74450BD00EF1180E74450C
:1046380007D00EF1180E744503D00EF1180E74450C
:1046480052D105F01F0E3F25B8F1400F05FA0EF5BF
:10465800CCF80850256825F480252560C4F8049016
:1046680038D1A260E160236823F01E0343F01603EB
:1046780023601FB1236843F008032360036E1A68A0
:10468800D2036DD4C36E1BB11A6842F480721A60EB
:10469800B4425BD0124B9C4258D018339C4255D040
:1046A80018339C4252D018339C424FD018339C4246
:1046B8004CD018339C4249D018339C4246D003F55D
:1046C80056739C4242D018339C423FD018339C42C8
:1046D8003CD03BE0A160E260C5E700BF10000240AB
:1046E800280002400854025805F01F054FF0010E3B
:1046F800B8F1400F0EFA05F5CCF80450C4F8049050
:104708002BD1A260E160236823F00E0343F00A0373
:1047180023601FB1236843F004032360174B9C42B6
:10472800ACD0174B9C42A9D014339C42A6D014336A
:104738009C42A3D014339C42A0D014339C429DD0F9
:1047480014339C429AD014339C4297D0236800209B
:1047580043F001032360BDE8F083A160E260D2E783
:104768001A6842F480721A608CE74FF4006380F88C
:10477800344043650120EEE70220ECE70854025874
:104788001C54025870B5834C0246256840B190F815
:104798003530022B06D080234365002382F834305D
:1047A800012070BD03687C4883425BD07B498B4203
:1047B80058D018318B4255D018318B4252D018310D
:1047C8008B424FD018318B424CD018318B4249D094
:1047D80018318B4246D001F556718B4242D01831C0
:1047E8008B423FD018318B423CD018318B4239D0A4
:1047F80018318B4236D018318B4233D018318B4266
:1048080030D018318B422DD0196821F00E01196073
:1048180063498B422FD1166E8342316821F480712F
:1048280031603DD05D498B423AD018318B4237D048
:1048380018318B4234D018318B4231D018318B4229
:104848002ED018318B422BD018318B4228D001F54D
:1048580056718B4224D018318B4221D018318B42AB
:104868001ED01DE0196821F01E011960596921F058
:1048780080015961CFE74B498B42CCD014318B4230
:10488800C9D014318B42C6D014318B42C3D01431F5
:104898008B42C0D014318B42BDD014318B42BAD078
:1048A800196821F0010119601968C90746D4D16D4A
:1048B8008342946D01F01F014AD03848834247D0A3
:1048C8001830834244D01830834241D01830834294
:1048D8003ED0183083423BD01830834238D018304D
:1048E800834235D000F55670834231D01830834268
:1048F8002ED0183083422BD01830834228D018305D
:10490800834225D01830834222D0183083421FD0EA
:10491800183083421CD0012000FA01F1616020495F
:104928008B4219D1D2E919315960D36E53BB012397
:10493800002082F8353082F8340032E72168491BBC
:104948000529B1D920235365032382F8353024E79C
:104958003F238B40A360E5E712498B42E2D0143134
:104968008B42DFD014318B42DCD014318B42D9D04A
:1049780014318B42D6D014318B42D3D014318B42B0
:10498800D5D1CFE7196821F480711960D2E91C31BB
:104998005960CCE7C0EA0324100002402800024016
:1049A800085402581C54025870B590F85030044608
:1049B800012B00F087800568012380F850302846D5
:1049C800FFF7FCFAAB6803F0080303431DD1EB685B
:1049D800E06C23F00303EB6090F83530022B64D0D1
:1049E80000266B68204623F010036B60002E66D10A
:1049F800FFF7BEFC0646E8B9636D23F4885323F03D
:104A0800010343F00103636514E0EB689E0104D5DC
:104A1800A28A40F201139A4211D0032216E0013B08
:104A28000ED1636D012643F010036365A36D43F057
:104A38000103A365002384F85030304670BD224B33
:104A48002A685006EBD5402301222B602846FFF741
:104A5800B5FA50B1AB68990707D4AB6823F00043A7
:104A680023F03F0343F01003AB60012A1BD0AB686F
:104A78001A070AD5AB689B0707D4AB6823F0004335
:104A880023F03F0343F02003AB600C230F49086871
:104A9800AA6813429BD00A68121A052AF8D9AA688C
:104AA8001A42F5D0BDE70423F0E7FFF76BFE064690
:104AB800002896D0636D43F04003636591E7FFF7E4
:104AC80057FCB7E70226B8E701DC0C00C0EA03246C
:104AD80000232DE9F34101930446844B844F1E685B
:104AE8000368856DBB42D5F80080D5F800C047D073
:104AF800804A934244D01832934241D018329342AC
:104B08003ED0183293423BD01832934238D01832F4
:104B1800934235D01832934232D002F556729342FE
:104B28002ED0183293422BD01832934228D0183204
:104B3800934225D01832934222D0183293421FD084
:104B4800183293421CD01832934219D06A4A9342C1
:104B580040F03481E16D04201A6801F01F0188409B
:104B680010EA0C0F00F05181560740F14E811104F4
:104B7800686040F14281D30300F14581A36CA0E055
:104B8800E26D082102F01F02914011EA080F0BD0D4
:104B98001868400708D5186820F004001860A96054
:104BA800616D41F00101616528FA02F1C80709D574
:104BB8005969090606D501219140A960616D41F046
:104BC800020161650421914011EA080F07D01868B5
:104BD800800704D5A960616D41F004016165102169
:104BE80001FA02F212EA080F0FD0196809070CD56A
:104BF800AA601A6850036CD51B68190301D4236C8A
:104C080000E0A36C0BB120469847E26D202102F02A
:104C18001F02914011EA080F7AD02368BB422DD0B9
:104C2800344883422AD01830834227D01830834230
:104C380024D01830834221D0183083421ED0183037
:104C480083421BD01830834218D000F55670834237
:104C580014D01830834211D0183083420ED0183047
:104C680083420BD01830834208D01830834205D0D5
:104C78001830834202D01830834232D1186810F0BD
:104C8800100F45D0A96094F83510042936D1196859
:104C980021F016011960596921F080015961216CD0
:104CA80009B9A16C19B1196821F0080119603F23ED
:104CB8009340AB60012384F83530002384F8343006
:104CC800236D002B00F09680204602B0BDE8F0412D
:104CD80018471A68D20592D41A6822F008021A6096
:104CE8008DE7186810F0020FCBE700BF10E7032428
:104CF8001000024028000240085402581A68550360
:104D08004DD51B68180357D4636C0BB120469847E0
:104D1800636D002B6ED0636DD9073ED5042384F8EC
:104D280035302368BB421ED04E4A93421BD01832FE
:104D3800934218D01832934215D01832934212D0A9
:104D4800183293420FD0183293420CD01832934243
:104D580009D002F55672934205D01832934202D018
:104D680018329342FFD01A6822F001021A604FF4F9
:104D78001652B6FBF2F6019A0132B242019202D8FB
:104D88001A68D207F7D41B68DF074CBF0323012337
:104D980084F83530002384F83430E36C91E71A68DE
:104DA80012F4807208D1196821F0100119600123EA
:104DB80084F8342084F83530E36BA6E72A4A934216
:104DC8003FF4C8AE143293423FF4C4AE1432934257
:104DD8003FF4C0AE143293423FF4BCAE1432934257
:104DE8003FF4B8AE143293423FF4B4AE1432934257
:104DF8003FF4B0AE02B0BDE8F081970603D41A685C
:104E080022F004021A60236C5BE70220884010EA53
:104E18000C0F16D0960714D56860100403D5D1037B
:104E28000DD4636C4DE712F0200208D1196821F007
:104E38000A011960012384F8342084F83530E36BC3
:104E48003FE70820884010EA0C0FD3D01207D1D5CD
:104E58001A6822F00E021A60012303FA01F1696050
:104E6800636595E7280002401C54025800482FE665
:104E7800E4EC032400482BE65CED0324004827E615
:104E8800D4ED0324004823E64CEE03240448D0F86C
:104E9800043400F58160013340F8043C18E600BF93
:104EA800C0EA0324004813E640EF032403680246DF
:104EB80024498B4210B531D018318B422ED018318D
:104EC8008B422BD018318B4228D018318B4225D0F9
:104ED80018318B4222D018318B421FD018318B42A7
:104EE8001CD001F556718B4218D018318B4215D061
:104EF80018318B4212D018318B420FD018318B42A7
:104F08000CD018318B4209D018318B4206D0183199
:104F18008B4203D023F0FF00906510BDDCB218214E
:104F28000948103CB4FBF1F101F007015F2C014482
:104F380023F47F7091F8201020F00300D16588BF1A
:104F48000430E9E710000240E068032402682049C1
:104F5800D3B28A4228D014318A4225D014318A42E9
:104F680022D014318A421FD014318A421CD0143105
:104F78008A4219D014318A4216D014318A4213D089
:104F88001821103BB3FBF1F312491144A8291CD98D
:104F980003F18052012103F01F0302F5024201FAD6
:104FA80003F30D4992000CE01422083B0121B3FBE6
:104FB800F2F303F1B05201FA03F3084902F516427D
:104FC80092008366C0E9182170470833E0E700BF04
:104FD80008540258F0FBFDBF800802408058025870
:104FE8000279511E072910B521D80368134CA34232
:104FF8001ED01434A3421BD01434A34218D0143446
:10500800A34215D01434A34212D01434A3420FD0B3
:105018001434A3420CD01434A34209D0084B1344CF
:10502800084A9B00C0E91B3201238B40436710BD2F
:10503800054B1344054A9B00F4E700BF0854025887
:105048003F820010400902403F960016405902581E
:1050580070B50446984A994923680868934264D011
:105068001832934261D0183293425ED0183293427C
:105078005BD01832934258D01832934255D0183228
:10508800934252D0183293424FD002F5567293424F
:105098004BD01832934248D01832934245D0183238
:1050A800934242D0183293423FD0183293423CD0B8
:1050B8001832934239D01832934236D0804A9342FC
:1050C80040F0D580022284F83520002284F834206C
:1050D800A2681868402A6FF3101000F0E680A2F169
:1050E80080014A424A419203D4E90315294365697C
:1050F8002943A5692943E5692943256A40EA15102A
:1051080040EAD10120460A431A606E4A1A44142321
:10511800B2FBF3F29200E265FFF7C8FEE36D03F01D
:105128001F0201239340436081E0022284F8352066
:10513800002284F834201A6822F001021A601A68E2
:10514800D20727D41A686048A1691040D4E902251B
:105158002A4325692A4365692A43E5690A432A439C
:10516800256A2A43656A042D42EA000202BFD4E98F
:105178000B0630430243554800686FF30F00B0F147
:10518800005F1AD360682E280FD8282815D942F452
:10519800801212E00A68121A052AD0D92023636502
:1051A8000323012084F8353070BD3F38132804D814
:1051B800474E26FA00F0C607E9D41A60042D5A694A
:1051C80022F0070242EA050227D1A06AE56A0243F3
:1051D8001DB339B9012815D030F002011DD1E801FD
:1051E8001BD512E0B1F5005F13D1032815D801A132
:1051F80051F820F00B250024DF2400240B2500247F
:1052080005250024B5F1C07F07D14023636501233C
:10521800C7E70228F9D90328E1D05A612046FFF7E9
:1052280045FEE36D03F01F023F2393408360204651
:105238000025FFF78BFEA368226E802B04BF002396
:1052480063606368D9B2013B1160072BD4E9192167
:1052580051602CD8FFF7C4FEE36E1D60D4E91C3200
:105268005A6000200123606584F835309CE7194AAC
:1052780093423FF427AF143293423FF423AF1432E2
:1052880093423FF41FAF143293423FF41BAF1432E2
:1052980093423FF417AF143293423FF413AF1432E2
:1052A80093423FF40FAF402379E710221CE7C4E98B
:1052B8001B556567D5E700BF10000240C0EA03240C
:1052C80008540258F8ABFDA73F8010FE0010005CA0
:1052D8000F030F001C5402582DE9F74F0023DFF885
:1052E800C4914FF0B0440A6832FA03F502D103B012
:1052F800BDE8F08F012505FA03F818EA020200F06C
:10530800BB804E6803274FEA430E06F0030507FAF1
:105318000EFC6F1E6FEA0C0C012F34D8876807EA61
:105328000C0ACF6807FA0EF747EA0A07876047684A
:1053380027EA0808C6F300179F4047EA08074760AE
:10534800C768022D07EA0C088F6807FA0EF747EAC4
:105358000807C76019D14FEAD30803F0070A4FF0CE
:105368000F0B00EB88084FEA8A0AD8F820700BFA6E
:105378000AFB27EA0B0B0F6907FA0AF747EA0B073C
:10538800C8F8207001E0032DDAD1076805FA0EF598
:1053980016F4403F07EA0C0745EA070505606BD09D
:1053A800D9F8F45023F0030703F0030C4FF00F0E65
:1053B80045F0020507F1B0474FEA8C0CC9F8F450E4
:1053C80007F58067D9F8F4500EFA0CFE05F00205CF
:1053D8000195019DBD6825EA0E0E314DA8424DD0BC
:1053E80005F58065A8424BD005F58065A84249D0EF
:1053F80005F58065A84247D005F58065A84245D0E7
:1054080005F58065A84243D005F58065A84241D0DE
:1054180005F58065A8423FD005F58065A8423DD0D6
:1054280005F58065A84214BF0A25092505FA0CF57B
:1054380016F4801F45EA0E05BD606FEA020725686D
:105448000CBF3D40154316F4001F256065680CBF6E
:105458003D40154316F4003F6560D4F884500CBFF6
:105468003D401543F603C4F88450D4F8805054BF27
:105478003D401543C4F88050013334E70025D5E793
:105488000125D3E70225D1E70325CFE70425CDE79A
:105498000525CBE70625C9E70725C7E70825C5E79A
:1054A80000000258004402580368F0B59C6905469C
:1054B80014F010046ED010200024394ED861204614
:1054C8009F69BF0661D400283DD044F00404012040
:1054D8009A69D10505D54FF4807144F00104012083
:1054E800D961570505D54FF4806144F008040120BF
:1054F800D961960550D54FF4007244F00204DA6180
:105508009A69910701D500229A629A69D20703D451
:105518009A6942F001029A615A68012022F0FF72EA
:1055280022F48B3222F4FF7222F001025A606B6C73
:1055380023436B64202385F84130002385F84230EB
:1055480085F840302AE03768BF1A8F42B8D9D3F8B7
:1055580004C095F84270D3F818E0FFB21EF4004F6B
:1055680009D01CF4804F06D1202F04D05A6842F489
:1055780080425A6032689F69BF06A1D43768BF1A53
:10558800192FF8D9202401209AE700289DD120223C
:10559800DA619AE720469BE70028B1D1F0BD00BF49
:1055A800C0EA03242DE9F047DDF8209004460E46B2
:1055B80015461F46DFF860A0D4F80080D8F81830E8
:1055C80036EA03030CBF01230023AB4201D00020BD
:1055D80020E04A4639462046FFF766FFC8B9DAF8A0
:1055E8000030A3EB0903BB42E6D9D8F8183036EAF5
:1055F80003030CBF01230023AB42DDD1636C84F8A5
:10560800400043F020036364202384F8413084F889
:1056180042000120BDE8F087C0EA032430B5039DAD
:1056280004682B4360680B4343EA0243044A42EA96
:10563800555223F0004320EA02000343636030BD63
:10564800FF63FF0308B5FDF79FFC054B054ADB69BF
:10565800C3F30213D35C03F01F03D84008BD00BF97
:1056680000440258E06803242DE9F843D0E90078A3
:1056780006463D0120D5846EB4F5001F2CD012D803
:10568800E4B1B4F5801F1FD00125FC0540F1F4807A
:10569800D6F85890B9F1040F00F2ED80DFE809F070
:1056A80021DEE5262600B4F5401FEDD1B54A136D7D
:1056B80023F44013234313650025E6E7B14AD36A70
:1056C80043F40033D362F1E702210830FDF78AFC86
:1056D80005460028D9D1E9E702212830FDF7F2FC78
:1056E800F6E7A84AD36A43F40033D3622C46002C69
:1056F80040F0C480A34A136D23F0070343EA09036B
:105708001365B80511D5D6F85C90B9F1800F00F093
:10571800D48000F2B580B9F1000F00F0C180B9F172
:10572800400F00F0C38001252C46790511D5D6F825
:10573800A890B9F5800F00F0E58000F2C680B9F1B5
:10574800000F00F0D280B9F5001F00F0D4800125C9
:105758002C463A0511D5D6F8AC90B9F1007F00F087
:10576800F68000F2D780B9F1000F00F0E380B9F1BC
:10577800807F00F0E58001252C46BB0111D5D6F8C5
:105788004C90B9F1200F00F0FF8000F2E880B9F1E9
:10579800000F00F0E880B9F1100F00F0ED8001254E
:1057A8002C46F80411D5D6F86090B9F5005F00F0E2
:1057B800118100F2F280B9F1000F00F0FE80B9F516
:1057C800805F00F0008101252C46B90411D5D6F878
:1057D8006490B9F5003F00F01E8100F20381B9F131
:1057E800000F00F00881B9F5803F00F00D81012518
:1057F8002C467A0411D5D6F8B090B9F1005F00F0C4
:105808002B8100F21081B9F1000F00F01581B9F178
:10581800805F00F01A8101252C463B040FD5D6F88D
:105828007090B9F1805F00F01F81B9F1005F00F05E
:105838002981B9F1000F00F01C8101252C46F801DF
:1058480040F13781D6F84890B9F1030F00F26F8123
:10585800DFE819F02601210166012601002106F181
:105868000800FDF7BFFB044641E7002106F12800C8
:10587800FDF728FCF7E701252C4642E7254640E7D7
:10588800B9F1C00F03D0B9F5807F7FF44CAFD4B91C
:105898003C4A136D23F4E07343EA0903136544E7B4
:1058A800384AD36A43F40033D362F0E7002106F1A3
:1058B8000800FDF797FB0446E9E7002106F12800F8
:1058C800FDF700FCF7E725462FE7B9F5C00F03D031
:1058D800B9F5000F7FF43BAFD4B92A4A936D23F48E
:1058E800600343EA0903936533E7264AD36A43F41E
:1058F8000033D362F0E7002106F10800FDF772FBE0
:105908000446E9E7002106F12800FDF7DBFBF7E78D
:1059180025461EE7B9F1407F03D0B9F1806F7FF4C7
:105928002AAFD4B9174A936D23F0E06343EA090319
:10593800936522E7134AD36A43F40033D362F0E74E
:10594800002106F10800FDF74DFB0446E9E70021B8
:1059580006F12800FDF7B6FBF7E725460DE7B9F194
:10596800300F7FF41CAFB4B9064AD36C23F0300370
:1059780043EA0903D36414E7024AD36A43F40033C1
:10598800D362F0E700440258022106F10800FDF74F
:1059980029FB0446E7E7254603E7B9F5405F03D04E
:1059A800B9F5804F7FF40FAFD4B9A74A136D23F42C
:1059B800E04343EA0903136507E7A34AD36A43F4BC
:1059C8000033D362F0E7002106F10800FDF70AFB77
:1059D8000446E9E7002106F12800FDF773FBF7E725
:1059E8002546F2E629F48033B3F5802F03D0B9F5C4
:1059F800403F7FF4FCAEA4B9934A136D23F4E0232F
:105A080043EA09031365F4E6012106F10800FDF7EE
:105A1800E9FA0446EFE7012106F12800FDF752FBF9
:105A2800F7E72546E5E629F08053B3F1804F03D028
:105A3800B9F1405F7FF4EFAEA4B9834A936D23F0C8
:105A4800E04343EA09039365E7E6012106F108000C
:105A5800FDF7C8FA0446EFE7012106F12800FDF733
:105A680031FBF7E72546D8E6774AD36A43F4003393
:105A7800D36274B9744A136D23F0405343EA09039F
:105A88001365DCE6012106F10800FDF7ABFA0446D0
:105A9800EFE72546D3E66C4AD36A43F40033D36272
:105AA800002C47D1684AD36C23F0030343EA090367
:105AB800D364790246D5654B65491A6842F4807209
:105AC8001A6008681A68D20536D5002C71D15E4A6A
